{
	"contracts/UCPI.sol": {
		"UCPI": {
			"abi": [
				{
					"inputs": [
						{
							"internalType": "address",
							"name": "target",
							"type": "address"
						}
					],
					"name": "AddressEmptyCode",
					"type": "error"
				},
				{
					"inputs": [
						{
							"internalType": "address",
							"name": "implementation",
							"type": "address"
						}
					],
					"name": "ERC1967InvalidImplementation",
					"type": "error"
				},
				{
					"inputs": [],
					"name": "ERC1967NonPayable",
					"type": "error"
				},
				{
					"inputs": [],
					"name": "FailedCall",
					"type": "error"
				},
				{
					"inputs": [],
					"name": "InvalidInitialization",
					"type": "error"
				},
				{
					"inputs": [],
					"name": "NotInitializing",
					"type": "error"
				},
				{
					"inputs": [
						{
							"internalType": "address",
							"name": "owner",
							"type": "address"
						}
					],
					"name": "OwnableInvalidOwner",
					"type": "error"
				},
				{
					"inputs": [
						{
							"internalType": "address",
							"name": "account",
							"type": "address"
						}
					],
					"name": "OwnableUnauthorizedAccount",
					"type": "error"
				},
				{
					"inputs": [],
					"name": "UUPSUnauthorizedCallContext",
					"type": "error"
				},
				{
					"inputs": [
						{
							"internalType": "bytes32",
							"name": "slot",
							"type": "bytes32"
						}
					],
					"name": "UUPSUnsupportedProxiableUUID",
					"type": "error"
				},
				{
					"anonymous": false,
					"inputs": [
						{
							"indexed": false,
							"internalType": "uint64",
							"name": "version",
							"type": "uint64"
						}
					],
					"name": "Initialized",
					"type": "event"
				},
				{
					"anonymous": false,
					"inputs": [
						{
							"indexed": true,
							"internalType": "address",
							"name": "previousOwner",
							"type": "address"
						},
						{
							"indexed": true,
							"internalType": "address",
							"name": "newOwner",
							"type": "address"
						}
					],
					"name": "OwnershipTransferred",
					"type": "event"
				},
				{
					"anonymous": false,
					"inputs": [
						{
							"indexed": true,
							"internalType": "address",
							"name": "implementation",
							"type": "address"
						}
					],
					"name": "Upgraded",
					"type": "event"
				},
				{
					"inputs": [],
					"name": "UPGRADE_INTERFACE_VERSION",
					"outputs": [
						{
							"internalType": "string",
							"name": "",
							"type": "string"
						}
					],
					"stateMutability": "view",
					"type": "function"
				},
				{
					"inputs": [
						{
							"internalType": "address",
							"name": "_permissions",
							"type": "address"
						},
						{
							"internalType": "address",
							"name": "_rewardManager",
							"type": "address"
						},
						{
							"internalType": "address",
							"name": "_logger",
							"type": "address"
						}
					],
					"name": "initialize",
					"outputs": [],
					"stateMutability": "nonpayable",
					"type": "function"
				},
				{
					"inputs": [],
					"name": "logger",
					"outputs": [
						{
							"internalType": "contract Logger",
							"name": "",
							"type": "address"
						}
					],
					"stateMutability": "view",
					"type": "function"
				},
				{
					"inputs": [],
					"name": "owner",
					"outputs": [
						{
							"internalType": "address",
							"name": "",
							"type": "address"
						}
					],
					"stateMutability": "view",
					"type": "function"
				},
				{
					"inputs": [
						{
							"internalType": "address",
							"name": "user",
							"type": "address"
						},
						{
							"internalType": "uint256",
							"name": "amount",
							"type": "uint256"
						},
						{
							"internalType": "uint48",
							"name": "timestamp",
							"type": "uint48"
						},
						{
							"internalType": "string",
							"name": "txHash",
							"type": "string"
						},
						{
							"internalType": "address",
							"name": "token",
							"type": "address"
						}
					],
					"name": "performAction",
					"outputs": [],
					"stateMutability": "nonpayable",
					"type": "function"
				},
				{
					"inputs": [],
					"name": "permissions",
					"outputs": [
						{
							"internalType": "contract Permissions",
							"name": "",
							"type": "address"
						}
					],
					"stateMutability": "view",
					"type": "function"
				},
				{
					"inputs": [],
					"name": "proxiableUUID",
					"outputs": [
						{
							"internalType": "bytes32",
							"name": "",
							"type": "bytes32"
						}
					],
					"stateMutability": "view",
					"type": "function"
				},
				{
					"inputs": [],
					"name": "renounceOwnership",
					"outputs": [],
					"stateMutability": "nonpayable",
					"type": "function"
				},
				{
					"inputs": [],
					"name": "rewardManager",
					"outputs": [
						{
							"internalType": "contract RewardManager",
							"name": "",
							"type": "address"
						}
					],
					"stateMutability": "view",
					"type": "function"
				},
				{
					"inputs": [
						{
							"internalType": "address",
							"name": "newOwner",
							"type": "address"
						}
					],
					"name": "transferOwnership",
					"outputs": [],
					"stateMutability": "nonpayable",
					"type": "function"
				},
				{
					"inputs": [
						{
							"internalType": "address",
							"name": "newImplementation",
							"type": "address"
						},
						{
							"internalType": "bytes",
							"name": "data",
							"type": "bytes"
						}
					],
					"name": "upgradeToAndCall",
					"outputs": [],
					"stateMutability": "payable",
					"type": "function"
				}
			],
			"devdoc": {
				"errors": {
					"AddressEmptyCode(address)": [
						{
							"details": "There's no code at `target` (it is not a contract)."
						}
					],
					"ERC1967InvalidImplementation(address)": [
						{
							"details": "The `implementation` of the proxy is invalid."
						}
					],
					"ERC1967NonPayable()": [
						{
							"details": "An upgrade function sees `msg.value > 0` that may be lost."
						}
					],
					"FailedCall()": [
						{
							"details": "A call to an address target failed. The target may have reverted."
						}
					],
					"InvalidInitialization()": [
						{
							"details": "The contract is already initialized."
						}
					],
					"NotInitializing()": [
						{
							"details": "The contract is not initializing."
						}
					],
					"OwnableInvalidOwner(address)": [
						{
							"details": "The owner is not a valid owner account. (eg. `address(0)`)"
						}
					],
					"OwnableUnauthorizedAccount(address)": [
						{
							"details": "The caller account is not authorized to perform an operation."
						}
					],
					"UUPSUnauthorizedCallContext()": [
						{
							"details": "The call is from an unauthorized context."
						}
					],
					"UUPSUnsupportedProxiableUUID(bytes32)": [
						{
							"details": "The storage `slot` is unsupported as a UUID."
						}
					]
				},
				"events": {
					"Initialized(uint64)": {
						"details": "Triggered when the contract has been initialized or reinitialized."
					},
					"Upgraded(address)": {
						"details": "Emitted when the implementation is upgraded."
					}
				},
				"kind": "dev",
				"methods": {
					"owner()": {
						"details": "Returns the address of the current owner."
					},
					"proxiableUUID()": {
						"details": "Implementation of the ERC-1822 {proxiableUUID} function. This returns the storage slot used by the implementation. It is used to validate the implementation's compatibility when performing an upgrade. IMPORTANT: A proxy pointing at a proxiable contract should not be considered proxiable itself, because this risks bricking a proxy that upgrades to it, by delegating to itself until out of gas. Thus it is critical that this function revert if invoked through a proxy. This is guaranteed by the `notDelegated` modifier."
					},
					"renounceOwnership()": {
						"details": "Leaves the contract without owner. It will not be possible to call `onlyOwner` functions. Can only be called by the current owner. NOTE: Renouncing ownership will leave the contract without an owner, thereby disabling any functionality that is only available to the owner."
					},
					"transferOwnership(address)": {
						"details": "Transfers ownership of the contract to a new account (`newOwner`). Can only be called by the current owner."
					},
					"upgradeToAndCall(address,bytes)": {
						"custom:oz-upgrades-unsafe-allow-reachable": "delegatecall",
						"details": "Upgrade the implementation of the proxy to `newImplementation`, and subsequently execute the function call encoded in `data`. Calls {_authorizeUpgrade}. Emits an {Upgraded} event."
					}
				},
				"version": 1
			},
			"evm": {
				"assembly": "    /* \"contracts/UCPI.sol\":385:1472  contract UCPI is Initializable, UUPSUpgradeable, OwnableUpgradeable {... */\n  mstore(0x40, 0xa0)\n    /* \"@openzeppelin/contracts-upgradeable/proxy/utils/UUPSUpgradeable.sol\":1171:1175  this */\n  address\n    /* \"@openzeppelin/contracts-upgradeable/proxy/utils/UUPSUpgradeable.sol\":1128:1176  address private immutable __self = address(this) */\n  0xffffffffffffffffffffffffffffffffffffffff\n  and\n  0x80\n  swap1\n  0xffffffffffffffffffffffffffffffffffffffff\n  and\n  dup2\n  mstore\n  pop\n    /* \"contracts/UCPI.sol\":385:1472  contract UCPI is Initializable, UUPSUpgradeable, OwnableUpgradeable {... */\n  callvalue\n  dup1\n  iszero\n  tag_1\n  jumpi\n  revert(0x00, 0x00)\ntag_1:\n  pop\n  mload(0x80)\n  codecopy(0x00, dataOffset(sub_0), dataSize(sub_0))\n  0x00\n  assignImmutable(\"0x4ce4dab4689da140a0c12de1a6af6b8f679594aeb723205f513e052d27f5b26f\")\n  return(0x00, dataSize(sub_0))\nstop\n\nsub_0: assembly {\n        /* \"contracts/UCPI.sol\":385:1472  contract UCPI is Initializable, UUPSUpgradeable, OwnableUpgradeable {... */\n      mstore(0x40, 0x80)\n      jumpi(tag_1, lt(calldatasize, 0x04))\n      shr(0xe0, calldataload(0x00))\n      dup1\n      0x8da5cb5b\n      gt\n      tag_13\n      jumpi\n      dup1\n      0x8da5cb5b\n      eq\n      tag_7\n      jumpi\n      dup1\n      0xab8c71c0\n      eq\n      tag_8\n      jumpi\n      dup1\n      0xad3cb1cc\n      eq\n      tag_9\n      jumpi\n      dup1\n      0xc0c53b8b\n      eq\n      tag_10\n      jumpi\n      dup1\n      0xf24ccbfe\n      eq\n      tag_11\n      jumpi\n      dup1\n      0xf2fde38b\n      eq\n      tag_12\n      jumpi\n      jump(tag_1)\n    tag_13:\n      dup1\n      0x0f4ef8a6\n      eq\n      tag_2\n      jumpi\n      dup1\n      0x4f1ef286\n      eq\n      tag_3\n      jumpi\n      dup1\n      0x52d1902d\n      eq\n      tag_4\n      jumpi\n      dup1\n      0x6d5881c8\n      eq\n      tag_5\n      jumpi\n      dup1\n      0x715018a6\n      eq\n      tag_6\n      jumpi\n    tag_1:\n      revert(0x00, 0x00)\n        /* \"contracts/UCPI.sol\":497:531  RewardManager public rewardManager */\n    tag_2:\n      callvalue\n      dup1\n      iszero\n      tag_14\n      jumpi\n      revert(0x00, 0x00)\n    tag_14:\n      pop\n      tag_15\n      tag_16\n      jump\t// in\n    tag_15:\n      mload(0x40)\n      tag_17\n      swap2\n      swap1\n      tag_18\n      jump\t// in\n    tag_17:\n      mload(0x40)\n      dup1\n      swap2\n      sub\n      swap1\n      return\n        /* \"@openzeppelin/contracts-upgradeable/proxy/utils/UUPSUpgradeable.sol\":4161:4375  function upgradeToAndCall(address newImplementation, bytes memory data) public payable virtual onlyProxy {... */\n    tag_3:\n      tag_19\n      0x04\n      dup1\n      calldatasize\n      sub\n      dup2\n      add\n      swap1\n      tag_20\n      swap2\n      swap1\n      tag_21\n      jump\t// in\n    tag_20:\n      tag_22\n      jump\t// in\n    tag_19:\n      stop\n        /* \"@openzeppelin/contracts-upgradeable/proxy/utils/UUPSUpgradeable.sol\":3708:3842  function proxiableUUID() external view virtual notDelegated returns (bytes32) {... */\n    tag_4:\n      callvalue\n      dup1\n      iszero\n      tag_23\n      jumpi\n      revert(0x00, 0x00)\n    tag_23:\n      pop\n      tag_24\n      tag_25\n      jump\t// in\n    tag_24:\n      mload(0x40)\n      tag_26\n      swap2\n      swap1\n      tag_27\n      jump\t// in\n    tag_26:\n      mload(0x40)\n      dup1\n      swap2\n      sub\n      swap1\n      return\n        /* \"contracts/UCPI.sol\":900:1377  function performAction(address user,  uint256 amount, uint48 timestamp, string calldata txHash, address token) external {... */\n    tag_5:\n      callvalue\n      dup1\n      iszero\n      tag_28\n      jumpi\n      revert(0x00, 0x00)\n    tag_28:\n      pop\n      tag_29\n      0x04\n      dup1\n      calldatasize\n      sub\n      dup2\n      add\n      swap1\n      tag_30\n      swap2\n      swap1\n      tag_31\n      jump\t// in\n    tag_30:\n      tag_32\n      jump\t// in\n    tag_29:\n      stop\n        /* \"@openzeppelin/contracts-upgradeable/access/OwnableUpgradeable.sol\":3155:3256  function renounceOwnership() public virtual onlyOwner {... */\n    tag_6:\n      callvalue\n      dup1\n      iszero\n      tag_33\n      jumpi\n      revert(0x00, 0x00)\n    tag_33:\n      pop\n      tag_34\n      tag_35\n      jump\t// in\n    tag_34:\n      stop\n        /* \"@openzeppelin/contracts-upgradeable/access/OwnableUpgradeable.sol\":2441:2585  function owner() public view virtual returns (address) {... */\n    tag_7:\n      callvalue\n      dup1\n      iszero\n      tag_36\n      jumpi\n      revert(0x00, 0x00)\n    tag_36:\n      pop\n      tag_37\n      tag_38\n      jump\t// in\n    tag_37:\n      mload(0x40)\n      tag_39\n      swap2\n      swap1\n      tag_40\n      jump\t// in\n    tag_39:\n      mload(0x40)\n      dup1\n      swap2\n      sub\n      swap1\n      return\n        /* \"contracts/UCPI.sol\":460:490  Permissions public permissions */\n    tag_8:\n      callvalue\n      dup1\n      iszero\n      tag_41\n      jumpi\n      revert(0x00, 0x00)\n    tag_41:\n      pop\n      tag_42\n      tag_43\n      jump\t// in\n    tag_42:\n      mload(0x40)\n      tag_44\n      swap2\n      swap1\n      tag_45\n      jump\t// in\n    tag_44:\n      mload(0x40)\n      dup1\n      swap2\n      sub\n      swap1\n      return\n        /* \"@openzeppelin/contracts-upgradeable/proxy/utils/UUPSUpgradeable.sol\":1819:1877  string public constant UPGRADE_INTERFACE_VERSION = \"5.0.0\" */\n    tag_9:\n      callvalue\n      dup1\n      iszero\n      tag_46\n      jumpi\n      revert(0x00, 0x00)\n    tag_46:\n      pop\n      tag_47\n      tag_48\n      jump\t// in\n    tag_47:\n      mload(0x40)\n      tag_49\n      swap2\n      swap1\n      tag_50\n      jump\t// in\n    tag_49:\n      mload(0x40)\n      dup1\n      swap2\n      sub\n      swap1\n      return\n        /* \"contracts/UCPI.sol\":567:892  function initialize(address _permissions, address _rewardManager, address _logger) public initializer {... */\n    tag_10:\n      callvalue\n      dup1\n      iszero\n      tag_51\n      jumpi\n      revert(0x00, 0x00)\n    tag_51:\n      pop\n      tag_52\n      0x04\n      dup1\n      calldatasize\n      sub\n      dup2\n      add\n      swap1\n      tag_53\n      swap2\n      swap1\n      tag_54\n      jump\t// in\n    tag_53:\n      tag_55\n      jump\t// in\n    tag_52:\n      stop\n        /* \"contracts/UCPI.sol\":538:558  Logger public logger */\n    tag_11:\n      callvalue\n      dup1\n      iszero\n      tag_56\n      jumpi\n      revert(0x00, 0x00)\n    tag_56:\n      pop\n      tag_57\n      tag_58\n      jump\t// in\n    tag_57:\n      mload(0x40)\n      tag_59\n      swap2\n      swap1\n      tag_60\n      jump\t// in\n    tag_59:\n      mload(0x40)\n      dup1\n      swap2\n      sub\n      swap1\n      return\n        /* \"@openzeppelin/contracts-upgradeable/access/OwnableUpgradeable.sol\":3405:3620  function transferOwnership(address newOwner) public virtual onlyOwner {... */\n    tag_12:\n      callvalue\n      dup1\n      iszero\n      tag_61\n      jumpi\n      revert(0x00, 0x00)\n    tag_61:\n      pop\n      tag_62\n      0x04\n      dup1\n      calldatasize\n      sub\n      dup2\n      add\n      swap1\n      tag_63\n      swap2\n      swap1\n      tag_64\n      jump\t// in\n    tag_63:\n      tag_65\n      jump\t// in\n    tag_62:\n      stop\n        /* \"contracts/UCPI.sol\":497:531  RewardManager public rewardManager */\n    tag_16:\n      0x01\n      0x00\n      swap1\n      sload\n      swap1\n      0x0100\n      exp\n      swap1\n      div\n      0xffffffffffffffffffffffffffffffffffffffff\n      and\n      dup2\n      jump\t// out\n        /* \"@openzeppelin/contracts-upgradeable/proxy/utils/UUPSUpgradeable.sol\":4161:4375  function upgradeToAndCall(address newImplementation, bytes memory data) public payable virtual onlyProxy {... */\n    tag_22:\n        /* \"@openzeppelin/contracts-upgradeable/proxy/utils/UUPSUpgradeable.sol\":2655:2668  _checkProxy() */\n      tag_67\n        /* \"@openzeppelin/contracts-upgradeable/proxy/utils/UUPSUpgradeable.sol\":2655:2666  _checkProxy */\n      tag_68\n        /* \"@openzeppelin/contracts-upgradeable/proxy/utils/UUPSUpgradeable.sol\":2655:2668  _checkProxy() */\n      jump\t// in\n    tag_67:\n        /* \"@openzeppelin/contracts-upgradeable/proxy/utils/UUPSUpgradeable.sol\":4276:4312  _authorizeUpgrade(newImplementation) */\n      tag_70\n        /* \"@openzeppelin/contracts-upgradeable/proxy/utils/UUPSUpgradeable.sol\":4294:4311  newImplementation */\n      dup3\n        /* \"@openzeppelin/contracts-upgradeable/proxy/utils/UUPSUpgradeable.sol\":4276:4293  _authorizeUpgrade */\n      tag_71\n        /* \"@openzeppelin/contracts-upgradeable/proxy/utils/UUPSUpgradeable.sol\":4276:4312  _authorizeUpgrade(newImplementation) */\n      jump\t// in\n    tag_70:\n        /* \"@openzeppelin/contracts-upgradeable/proxy/utils/UUPSUpgradeable.sol\":4322:4368  _upgradeToAndCallUUPS(newImplementation, data) */\n      tag_72\n        /* \"@openzeppelin/contracts-upgradeable/proxy/utils/UUPSUpgradeable.sol\":4344:4361  newImplementation */\n      dup3\n        /* \"@openzeppelin/contracts-upgradeable/proxy/utils/UUPSUpgradeable.sol\":4363:4367  data */\n      dup3\n        /* \"@openzeppelin/contracts-upgradeable/proxy/utils/UUPSUpgradeable.sol\":4322:4343  _upgradeToAndCallUUPS */\n      tag_73\n        /* \"@openzeppelin/contracts-upgradeable/proxy/utils/UUPSUpgradeable.sol\":4322:4368  _upgradeToAndCallUUPS(newImplementation, data) */\n      jump\t// in\n    tag_72:\n        /* \"@openzeppelin/contracts-upgradeable/proxy/utils/UUPSUpgradeable.sol\":4161:4375  function upgradeToAndCall(address newImplementation, bytes memory data) public payable virtual onlyProxy {... */\n      pop\n      pop\n      jump\t// out\n        /* \"@openzeppelin/contracts-upgradeable/proxy/utils/UUPSUpgradeable.sol\":3708:3842  function proxiableUUID() external view virtual notDelegated returns (bytes32) {... */\n    tag_25:\n        /* \"@openzeppelin/contracts-upgradeable/proxy/utils/UUPSUpgradeable.sol\":3777:3784  bytes32 */\n      0x00\n        /* \"@openzeppelin/contracts-upgradeable/proxy/utils/UUPSUpgradeable.sol\":2926:2946  _checkNotDelegated() */\n      tag_75\n        /* \"@openzeppelin/contracts-upgradeable/proxy/utils/UUPSUpgradeable.sol\":2926:2944  _checkNotDelegated */\n      tag_76\n        /* \"@openzeppelin/contracts-upgradeable/proxy/utils/UUPSUpgradeable.sol\":2926:2946  _checkNotDelegated() */\n      jump\t// in\n    tag_75:\n        /* \"@openzeppelin/contracts/proxy/ERC1967/ERC1967Utils.sol\":811:877  0x360894a13ba1a3210667c828492db98dca3e2076cc3735a920a3ca505d382bbc */\n      0x360894a13ba1a3210667c828492db98dca3e2076cc3735a920a3ca505d382bbc\n        /* \"@openzeppelin/contracts-upgradeable/proxy/utils/UUPSUpgradeable.sol\":3803:3835  ERC1967Utils.IMPLEMENTATION_SLOT */\n      0x00\n      shl\n        /* \"@openzeppelin/contracts-upgradeable/proxy/utils/UUPSUpgradeable.sol\":3796:3835  return ERC1967Utils.IMPLEMENTATION_SLOT */\n      swap1\n      pop\n        /* \"@openzeppelin/contracts-upgradeable/proxy/utils/UUPSUpgradeable.sol\":3708:3842  function proxiableUUID() external view virtual notDelegated returns (bytes32) {... */\n      swap1\n      jump\t// out\n        /* \"contracts/UCPI.sol\":900:1377  function performAction(address user,  uint256 amount, uint48 timestamp, string calldata txHash, address token) external {... */\n    tag_32:\n        /* \"contracts/UCPI.sol\":1039:1050  permissions */\n      0x00\n      0x00\n      swap1\n      sload\n      swap1\n      0x0100\n      exp\n      swap1\n      div\n      0xffffffffffffffffffffffffffffffffffffffff\n      and\n        /* \"contracts/UCPI.sol\":1039:1060  permissions.hasAccess */\n      0xffffffffffffffffffffffffffffffffffffffff\n      and\n      0xa1b1cb43\n        /* \"contracts/UCPI.sol\":1061:1071  msg.sender */\n      caller\n        /* \"contracts/UCPI.sol\":1073:1098  Permissions.Access.Create */\n      0x00\n        /* \"contracts/UCPI.sol\":1039:1099  permissions.hasAccess(msg.sender, Permissions.Access.Create) */\n      mload(0x40)\n      dup4\n      0xffffffff\n      and\n      0xe0\n      shl\n      dup2\n      mstore\n      0x04\n      add\n      tag_79\n      swap3\n      swap2\n      swap1\n      tag_80\n      jump\t// in\n    tag_79:\n      0x20\n      mload(0x40)\n      dup1\n      dup4\n      sub\n      dup2\n      dup7\n      gas\n      staticcall\n      iszero\n      dup1\n      iszero\n      tag_82\n      jumpi\n      returndatacopy(0x00, 0x00, returndatasize)\n      revert(0x00, returndatasize)\n    tag_82:\n      pop\n      pop\n      pop\n      pop\n      mload(0x40)\n      returndatasize\n      not(0x1f)\n      0x1f\n      dup3\n      add\n      and\n      dup3\n      add\n      dup1\n      0x40\n      mstore\n      pop\n      dup2\n      add\n      swap1\n      tag_83\n      swap2\n      swap1\n      tag_84\n      jump\t// in\n    tag_83:\n        /* \"contracts/UCPI.sol\":1031:1113  require(permissions.hasAccess(msg.sender, Permissions.Access.Create), \"No access\") */\n      tag_85\n      jumpi\n      mload(0x40)\n      0x08c379a000000000000000000000000000000000000000000000000000000000\n      dup2\n      mstore\n      0x04\n      add\n      tag_86\n      swap1\n      tag_87\n      jump\t// in\n    tag_86:\n      mload(0x40)\n      dup1\n      swap2\n      sub\n      swap1\n      revert\n    tag_85:\n        /* \"contracts/UCPI.sol\":1126:1140  uint256 reward */\n      0x00\n        /* \"contracts/UCPI.sol\":1143:1156  rewardManager */\n      0x01\n      0x00\n      swap1\n      sload\n      swap1\n      0x0100\n      exp\n      swap1\n      div\n      0xffffffffffffffffffffffffffffffffffffffff\n      and\n        /* \"contracts/UCPI.sol\":1143:1172  rewardManager.calculateReward */\n      0xffffffffffffffffffffffffffffffffffffffff\n      and\n      0xd2d7231f\n        /* \"contracts/UCPI.sol\":1173:1179  amount */\n      dup8\n        /* \"contracts/UCPI.sol\":1143:1180  rewardManager.calculateReward(amount) */\n      mload(0x40)\n      dup3\n      0xffffffff\n      and\n      0xe0\n      shl\n      dup2\n      mstore\n      0x04\n      add\n      tag_88\n      swap2\n      swap1\n      tag_89\n      jump\t// in\n    tag_88:\n      0x20\n      mload(0x40)\n      dup1\n      dup4\n      sub\n      dup2\n      dup7\n      gas\n      staticcall\n      iszero\n      dup1\n      iszero\n      tag_91\n      jumpi\n      returndatacopy(0x00, 0x00, returndatasize)\n      revert(0x00, returndatasize)\n    tag_91:\n      pop\n      pop\n      pop\n      pop\n      mload(0x40)\n      returndatasize\n      not(0x1f)\n      0x1f\n      dup3\n      add\n      and\n      dup3\n      add\n      dup1\n      0x40\n      mstore\n      pop\n      dup2\n      add\n      swap1\n      tag_92\n      swap2\n      swap1\n      tag_93\n      jump\t// in\n    tag_92:\n        /* \"contracts/UCPI.sol\":1126:1180  uint256 reward = rewardManager.calculateReward(amount) */\n      swap1\n      pop\n        /* \"contracts/UCPI.sol\":1191:1204  rewardManager */\n      0x01\n      0x00\n      swap1\n      sload\n      swap1\n      0x0100\n      exp\n      swap1\n      div\n      0xffffffffffffffffffffffffffffffffffffffff\n      and\n        /* \"contracts/UCPI.sol\":1191:1221  rewardManager.distributeReward */\n      0xffffffffffffffffffffffffffffffffffffffff\n      and\n      0xde5b71f7\n        /* \"contracts/UCPI.sol\":1222:1226  user */\n      dup9\n        /* \"contracts/UCPI.sol\":1228:1234  amount */\n      dup9\n        /* \"contracts/UCPI.sol\":1236:1242  reward */\n      dup5\n        /* \"contracts/UCPI.sol\":1191:1243  rewardManager.distributeReward(user, amount, reward) */\n      mload(0x40)\n      dup5\n      0xffffffff\n      and\n      0xe0\n      shl\n      dup2\n      mstore\n      0x04\n      add\n      tag_94\n      swap4\n      swap3\n      swap2\n      swap1\n      tag_95\n      jump\t// in\n    tag_94:\n      0x00\n      mload(0x40)\n      dup1\n      dup4\n      sub\n      dup2\n      0x00\n      dup8\n      dup1\n      extcodesize\n      iszero\n      dup1\n      iszero\n      tag_96\n      jumpi\n      revert(0x00, 0x00)\n    tag_96:\n      pop\n      gas\n      call\n      iszero\n      dup1\n      iszero\n      tag_98\n      jumpi\n      returndatacopy(0x00, 0x00, returndatasize)\n      revert(0x00, returndatasize)\n    tag_98:\n      pop\n      pop\n      pop\n      pop\n        /* \"contracts/UCPI.sol\":1254:1260  logger */\n      0x02\n      0x00\n      swap1\n      sload\n      swap1\n      0x0100\n      exp\n      swap1\n      div\n      0xffffffffffffffffffffffffffffffffffffffff\n      and\n        /* \"contracts/UCPI.sol\":1254:1275  logger.logTransaction */\n      0xffffffffffffffffffffffffffffffffffffffff\n      and\n      0x83dc65f2\n        /* \"contracts/UCPI.sol\":1276:1285  timestamp */\n      dup7\n        /* \"contracts/UCPI.sol\":1287:1291  user */\n      dup10\n        /* \"contracts/UCPI.sol\":1293:1299  amount */\n      dup10\n        /* \"contracts/UCPI.sol\":1340:1345  10000 */\n      0x2710\n        /* \"contracts/UCPI.sol\":1310:1323  rewardManager */\n      0x01\n      0x00\n      swap1\n      sload\n      swap1\n      0x0100\n      exp\n      swap1\n      div\n      0xffffffffffffffffffffffffffffffffffffffff\n      and\n        /* \"contracts/UCPI.sol\":1310:1335  rewardManager.platformFee */\n      0xffffffffffffffffffffffffffffffffffffffff\n      and\n      0x26232a2e\n        /* \"contracts/UCPI.sol\":1310:1337  rewardManager.platformFee() */\n      mload(0x40)\n      dup2\n      0xffffffff\n      and\n      0xe0\n      shl\n      dup2\n      mstore\n      0x04\n      add\n      0x20\n      mload(0x40)\n      dup1\n      dup4\n      sub\n      dup2\n      dup7\n      gas\n      staticcall\n      iszero\n      dup1\n      iszero\n      tag_100\n      jumpi\n      returndatacopy(0x00, 0x00, returndatasize)\n      revert(0x00, returndatasize)\n    tag_100:\n      pop\n      pop\n      pop\n      pop\n      mload(0x40)\n      returndatasize\n      not(0x1f)\n      0x1f\n      dup3\n      add\n      and\n      dup3\n      add\n      dup1\n      0x40\n      mstore\n      pop\n      dup2\n      add\n      swap1\n      tag_101\n      swap2\n      swap1\n      tag_93\n      jump\t// in\n    tag_101:\n        /* \"contracts/UCPI.sol\":1301:1307  amount */\n      dup13\n        /* \"contracts/UCPI.sol\":1301:1337  amount * rewardManager.platformFee() */\n      tag_102\n      swap2\n      swap1\n      tag_103\n      jump\t// in\n    tag_102:\n        /* \"contracts/UCPI.sol\":1301:1345  amount * rewardManager.platformFee() / 10000 */\n      tag_104\n      swap2\n      swap1\n      tag_105\n      jump\t// in\n    tag_104:\n        /* \"contracts/UCPI.sol\":1347:1353  reward */\n      dup7\n        /* \"contracts/UCPI.sol\":1355:1361  txHash */\n      dup11\n      dup11\n        /* \"contracts/UCPI.sol\":1363:1368  token */\n      dup11\n        /* \"contracts/UCPI.sol\":1254:1369  logger.logTransaction(timestamp, user, amount, amount * rewardManager.platformFee() / 10000, reward, txHash, token) */\n      mload(0x40)\n      dup10\n      0xffffffff\n      and\n      0xe0\n      shl\n      dup2\n      mstore\n      0x04\n      add\n      tag_106\n      swap9\n      swap8\n      swap7\n      swap6\n      swap5\n      swap4\n      swap3\n      swap2\n      swap1\n      tag_107\n      jump\t// in\n    tag_106:\n      0x00\n      mload(0x40)\n      dup1\n      dup4\n      sub\n      dup2\n      0x00\n      dup8\n      dup1\n      extcodesize\n      iszero\n      dup1\n      iszero\n      tag_108\n      jumpi\n      revert(0x00, 0x00)\n    tag_108:\n      pop\n      gas\n      call\n      iszero\n      dup1\n      iszero\n      tag_110\n      jumpi\n      returndatacopy(0x00, 0x00, returndatasize)\n      revert(0x00, returndatasize)\n    tag_110:\n      pop\n      pop\n      pop\n      pop\n        /* \"contracts/UCPI.sol\":1020:1377  {... */\n      pop\n        /* \"contracts/UCPI.sol\":900:1377  function performAction(address user,  uint256 amount, uint48 timestamp, string calldata txHash, address token) external {... */\n      pop\n      pop\n      pop\n      pop\n      pop\n      pop\n      jump\t// out\n        /* \"@openzeppelin/contracts-upgradeable/access/OwnableUpgradeable.sol\":3155:3256  function renounceOwnership() public virtual onlyOwner {... */\n    tag_35:\n        /* \"@openzeppelin/contracts-upgradeable/access/OwnableUpgradeable.sol\":2334:2347  _checkOwner() */\n      tag_112\n        /* \"@openzeppelin/contracts-upgradeable/access/OwnableUpgradeable.sol\":2334:2345  _checkOwner */\n      tag_113\n        /* \"@openzeppelin/contracts-upgradeable/access/OwnableUpgradeable.sol\":2334:2347  _checkOwner() */\n      jump\t// in\n    tag_112:\n        /* \"@openzeppelin/contracts-upgradeable/access/OwnableUpgradeable.sol\":3219:3249  _transferOwnership(address(0)) */\n      tag_115\n        /* \"@openzeppelin/contracts-upgradeable/access/OwnableUpgradeable.sol\":3246:3247  0 */\n      0x00\n        /* \"@openzeppelin/contracts-upgradeable/access/OwnableUpgradeable.sol\":3219:3237  _transferOwnership */\n      tag_116\n        /* \"@openzeppelin/contracts-upgradeable/access/OwnableUpgradeable.sol\":3219:3249  _transferOwnership(address(0)) */\n      jump\t// in\n    tag_115:\n        /* \"@openzeppelin/contracts-upgradeable/access/OwnableUpgradeable.sol\":3155:3256  function renounceOwnership() public virtual onlyOwner {... */\n      jump\t// out\n        /* \"@openzeppelin/contracts-upgradeable/access/OwnableUpgradeable.sol\":2441:2585  function owner() public view virtual returns (address) {... */\n    tag_38:\n        /* \"@openzeppelin/contracts-upgradeable/access/OwnableUpgradeable.sol\":2487:2494  address */\n      0x00\n        /* \"@openzeppelin/contracts-upgradeable/access/OwnableUpgradeable.sol\":2506:2530  OwnableStorage storage $ */\n      0x00\n        /* \"@openzeppelin/contracts-upgradeable/access/OwnableUpgradeable.sol\":2533:2553  _getOwnableStorage() */\n      tag_118\n        /* \"@openzeppelin/contracts-upgradeable/access/OwnableUpgradeable.sol\":2533:2551  _getOwnableStorage */\n      tag_119\n        /* \"@openzeppelin/contracts-upgradeable/access/OwnableUpgradeable.sol\":2533:2553  _getOwnableStorage() */\n      jump\t// in\n    tag_118:\n        /* \"@openzeppelin/contracts-upgradeable/access/OwnableUpgradeable.sol\":2506:2553  OwnableStorage storage $ = _getOwnableStorage() */\n      swap1\n      pop\n        /* \"@openzeppelin/contracts-upgradeable/access/OwnableUpgradeable.sol\":2570:2571  $ */\n      dup1\n        /* \"@openzeppelin/contracts-upgradeable/access/OwnableUpgradeable.sol\":2570:2578  $._owner */\n      0x00\n      add\n      0x00\n      swap1\n      sload\n      swap1\n      0x0100\n      exp\n      swap1\n      div\n      0xffffffffffffffffffffffffffffffffffffffff\n      and\n        /* \"@openzeppelin/contracts-upgradeable/access/OwnableUpgradeable.sol\":2563:2578  return $._owner */\n      swap2\n      pop\n      pop\n        /* \"@openzeppelin/contracts-upgradeable/access/OwnableUpgradeable.sol\":2441:2585  function owner() public view virtual returns (address) {... */\n      swap1\n      jump\t// out\n        /* \"contracts/UCPI.sol\":460:490  Permissions public permissions */\n    tag_43:\n      0x00\n      0x00\n      swap1\n      sload\n      swap1\n      0x0100\n      exp\n      swap1\n      div\n      0xffffffffffffffffffffffffffffffffffffffff\n      and\n      dup2\n      jump\t// out\n        /* \"@openzeppelin/contracts-upgradeable/proxy/utils/UUPSUpgradeable.sol\":1819:1877  string public constant UPGRADE_INTERFACE_VERSION = \"5.0.0\" */\n    tag_48:\n      mload(0x40)\n      dup1\n      0x40\n      add\n      0x40\n      mstore\n      dup1\n      0x05\n      dup2\n      mstore\n      0x20\n      add\n      0x352e302e30000000000000000000000000000000000000000000000000000000\n      dup2\n      mstore\n      pop\n      dup2\n      jump\t// out\n        /* \"contracts/UCPI.sol\":567:892  function initialize(address _permissions, address _rewardManager, address _logger) public initializer {... */\n    tag_55:\n        /* \"@openzeppelin/contracts-upgradeable/proxy/utils/Initializable.sol\":4158:4188  InitializableStorage storage $ */\n      0x00\n        /* \"@openzeppelin/contracts-upgradeable/proxy/utils/Initializable.sol\":4191:4217  _getInitializableStorage() */\n      tag_121\n        /* \"@openzeppelin/contracts-upgradeable/proxy/utils/Initializable.sol\":4191:4215  _getInitializableStorage */\n      tag_122\n        /* \"@openzeppelin/contracts-upgradeable/proxy/utils/Initializable.sol\":4191:4217  _getInitializableStorage() */\n      jump\t// in\n    tag_121:\n        /* \"@openzeppelin/contracts-upgradeable/proxy/utils/Initializable.sol\":4158:4217  InitializableStorage storage $ = _getInitializableStorage() */\n      swap1\n      pop\n        /* \"@openzeppelin/contracts-upgradeable/proxy/utils/Initializable.sol\":4279:4298  bool isTopLevelCall */\n      0x00\n        /* \"@openzeppelin/contracts-upgradeable/proxy/utils/Initializable.sol\":4302:4303  $ */\n      dup2\n        /* \"@openzeppelin/contracts-upgradeable/proxy/utils/Initializable.sol\":4302:4317  $._initializing */\n      0x00\n      add\n      0x08\n      swap1\n      sload\n      swap1\n      0x0100\n      exp\n      swap1\n      div\n      0xff\n      and\n        /* \"@openzeppelin/contracts-upgradeable/proxy/utils/Initializable.sol\":4301:4317  !$._initializing */\n      iszero\n        /* \"@openzeppelin/contracts-upgradeable/proxy/utils/Initializable.sol\":4279:4317  bool isTopLevelCall = !$._initializing */\n      swap1\n      pop\n        /* \"@openzeppelin/contracts-upgradeable/proxy/utils/Initializable.sol\":4327:4345  uint64 initialized */\n      0x00\n        /* \"@openzeppelin/contracts-upgradeable/proxy/utils/Initializable.sol\":4348:4349  $ */\n      dup3\n        /* \"@openzeppelin/contracts-upgradeable/proxy/utils/Initializable.sol\":4348:4362  $._initialized */\n      0x00\n      add\n      0x00\n      swap1\n      sload\n      swap1\n      0x0100\n      exp\n      swap1\n      div\n      0xffffffffffffffff\n      and\n        /* \"@openzeppelin/contracts-upgradeable/proxy/utils/Initializable.sol\":4327:4362  uint64 initialized = $._initialized */\n      swap1\n      pop\n        /* \"@openzeppelin/contracts-upgradeable/proxy/utils/Initializable.sol\":4704:4721  bool initialSetup */\n      0x00\n        /* \"@openzeppelin/contracts-upgradeable/proxy/utils/Initializable.sol\":4739:4740  0 */\n      0x00\n        /* \"@openzeppelin/contracts-upgradeable/proxy/utils/Initializable.sol\":4724:4735  initialized */\n      dup3\n        /* \"@openzeppelin/contracts-upgradeable/proxy/utils/Initializable.sol\":4724:4740  initialized == 0 */\n      0xffffffffffffffff\n      and\n      eq\n        /* \"@openzeppelin/contracts-upgradeable/proxy/utils/Initializable.sol\":4724:4758  initialized == 0 && isTopLevelCall */\n      dup1\n      iszero\n      tag_123\n      jumpi\n      pop\n        /* \"@openzeppelin/contracts-upgradeable/proxy/utils/Initializable.sol\":4744:4758  isTopLevelCall */\n      dup3\n        /* \"@openzeppelin/contracts-upgradeable/proxy/utils/Initializable.sol\":4724:4758  initialized == 0 && isTopLevelCall */\n    tag_123:\n        /* \"@openzeppelin/contracts-upgradeable/proxy/utils/Initializable.sol\":4704:4758  bool initialSetup = initialized == 0 && isTopLevelCall */\n      swap1\n      pop\n        /* \"@openzeppelin/contracts-upgradeable/proxy/utils/Initializable.sol\":4768:4785  bool construction */\n      0x00\n        /* \"@openzeppelin/contracts-upgradeable/proxy/utils/Initializable.sol\":4803:4804  1 */\n      0x01\n        /* \"@openzeppelin/contracts-upgradeable/proxy/utils/Initializable.sol\":4788:4799  initialized */\n      dup4\n        /* \"@openzeppelin/contracts-upgradeable/proxy/utils/Initializable.sol\":4788:4804  initialized == 1 */\n      0xffffffffffffffff\n      and\n      eq\n        /* \"@openzeppelin/contracts-upgradeable/proxy/utils/Initializable.sol\":4788:4838  initialized == 1 && address(this).code.length == 0 */\n      dup1\n      iszero\n      tag_124\n      jumpi\n      pop\n        /* \"@openzeppelin/contracts-upgradeable/proxy/utils/Initializable.sol\":4837:4838  0 */\n      0x00\n        /* \"@openzeppelin/contracts-upgradeable/proxy/utils/Initializable.sol\":4816:4820  this */\n      address\n        /* \"@openzeppelin/contracts-upgradeable/proxy/utils/Initializable.sol\":4808:4833  address(this).code.length */\n      0xffffffffffffffffffffffffffffffffffffffff\n      and\n      extcodesize\n        /* \"@openzeppelin/contracts-upgradeable/proxy/utils/Initializable.sol\":4808:4838  address(this).code.length == 0 */\n      eq\n        /* \"@openzeppelin/contracts-upgradeable/proxy/utils/Initializable.sol\":4788:4838  initialized == 1 && address(this).code.length == 0 */\n    tag_124:\n        /* \"@openzeppelin/contracts-upgradeable/proxy/utils/Initializable.sol\":4768:4838  bool construction = initialized == 1 && address(this).code.length == 0 */\n      swap1\n      pop\n        /* \"@openzeppelin/contracts-upgradeable/proxy/utils/Initializable.sol\":4854:4866  initialSetup */\n      dup2\n        /* \"@openzeppelin/contracts-upgradeable/proxy/utils/Initializable.sol\":4853:4866  !initialSetup */\n      iszero\n        /* \"@openzeppelin/contracts-upgradeable/proxy/utils/Initializable.sol\":4853:4883  !initialSetup && !construction */\n      dup1\n      iszero\n      tag_125\n      jumpi\n      pop\n        /* \"@openzeppelin/contracts-upgradeable/proxy/utils/Initializable.sol\":4871:4883  construction */\n      dup1\n        /* \"@openzeppelin/contracts-upgradeable/proxy/utils/Initializable.sol\":4870:4883  !construction */\n      iszero\n        /* \"@openzeppelin/contracts-upgradeable/proxy/utils/Initializable.sol\":4853:4883  !initialSetup && !construction */\n    tag_125:\n        /* \"@openzeppelin/contracts-upgradeable/proxy/utils/Initializable.sol\":4849:4940  if (!initialSetup && !construction) {... */\n      iszero\n      tag_126\n      jumpi\n        /* \"@openzeppelin/contracts-upgradeable/proxy/utils/Initializable.sol\":4906:4929  InvalidInitialization() */\n      mload(0x40)\n      0xf92ee8a900000000000000000000000000000000000000000000000000000000\n      dup2\n      mstore\n      0x04\n      add\n      mload(0x40)\n      dup1\n      swap2\n      sub\n      swap1\n      revert\n        /* \"@openzeppelin/contracts-upgradeable/proxy/utils/Initializable.sol\":4849:4940  if (!initialSetup && !construction) {... */\n    tag_126:\n        /* \"@openzeppelin/contracts-upgradeable/proxy/utils/Initializable.sol\":4966:4967  1 */\n      0x01\n        /* \"@openzeppelin/contracts-upgradeable/proxy/utils/Initializable.sol\":4949:4950  $ */\n      dup6\n        /* \"@openzeppelin/contracts-upgradeable/proxy/utils/Initializable.sol\":4949:4963  $._initialized */\n      0x00\n      add\n      0x00\n        /* \"@openzeppelin/contracts-upgradeable/proxy/utils/Initializable.sol\":4949:4967  $._initialized = 1 */\n      0x0100\n      exp\n      dup2\n      sload\n      dup2\n      0xffffffffffffffff\n      mul\n      not\n      and\n      swap1\n      dup4\n      0xffffffffffffffff\n      and\n      mul\n      or\n      swap1\n      sstore\n      pop\n        /* \"@openzeppelin/contracts-upgradeable/proxy/utils/Initializable.sol\":4981:4995  isTopLevelCall */\n      dup4\n        /* \"@openzeppelin/contracts-upgradeable/proxy/utils/Initializable.sol\":4977:5044  if (isTopLevelCall) {... */\n      iszero\n      tag_127\n      jumpi\n        /* \"@openzeppelin/contracts-upgradeable/proxy/utils/Initializable.sol\":5029:5033  true */\n      0x01\n        /* \"@openzeppelin/contracts-upgradeable/proxy/utils/Initializable.sol\":5011:5012  $ */\n      dup6\n        /* \"@openzeppelin/contracts-upgradeable/proxy/utils/Initializable.sol\":5011:5026  $._initializing */\n      0x00\n      add\n      0x08\n        /* \"@openzeppelin/contracts-upgradeable/proxy/utils/Initializable.sol\":5011:5033  $._initializing = true */\n      0x0100\n      exp\n      dup2\n      sload\n      dup2\n      0xff\n      mul\n      not\n      and\n      swap1\n      dup4\n      iszero\n      iszero\n      mul\n      or\n      swap1\n      sstore\n      pop\n        /* \"@openzeppelin/contracts-upgradeable/proxy/utils/Initializable.sol\":4977:5044  if (isTopLevelCall) {... */\n    tag_127:\n        /* \"contracts/UCPI.sol\":680:706  __Ownable_init(msg.sender) */\n      tag_129\n        /* \"contracts/UCPI.sol\":695:705  msg.sender */\n      caller\n        /* \"contracts/UCPI.sol\":680:694  __Ownable_init */\n      tag_130\n        /* \"contracts/UCPI.sol\":680:706  __Ownable_init(msg.sender) */\n      jump\t// in\n    tag_129:\n        /* \"contracts/UCPI.sol\":717:741  __UUPSUpgradeable_init() */\n      tag_131\n        /* \"contracts/UCPI.sol\":717:739  __UUPSUpgradeable_init */\n      tag_132\n        /* \"contracts/UCPI.sol\":717:741  __UUPSUpgradeable_init() */\n      jump\t// in\n    tag_131:\n        /* \"contracts/UCPI.sol\":780:792  _permissions */\n      dup8\n        /* \"contracts/UCPI.sol\":754:765  permissions */\n      0x00\n      0x00\n        /* \"contracts/UCPI.sol\":754:793  permissions = Permissions(_permissions) */\n      0x0100\n      exp\n      dup2\n      sload\n      dup2\n      0xffffffffffffffffffffffffffffffffffffffff\n      mul\n      not\n      and\n      swap1\n      dup4\n      0xffffffffffffffffffffffffffffffffffffffff\n      and\n      mul\n      or\n      swap1\n      sstore\n      pop\n        /* \"contracts/UCPI.sol\":834:848  _rewardManager */\n      dup7\n        /* \"contracts/UCPI.sol\":804:817  rewardManager */\n      0x01\n      0x00\n        /* \"contracts/UCPI.sol\":804:849  rewardManager = RewardManager(_rewardManager) */\n      0x0100\n      exp\n      dup2\n      sload\n      dup2\n      0xffffffffffffffffffffffffffffffffffffffff\n      mul\n      not\n      and\n      swap1\n      dup4\n      0xffffffffffffffffffffffffffffffffffffffff\n      and\n      mul\n      or\n      swap1\n      sstore\n      pop\n        /* \"contracts/UCPI.sol\":876:883  _logger */\n      dup6\n        /* \"contracts/UCPI.sol\":860:866  logger */\n      0x02\n      0x00\n        /* \"contracts/UCPI.sol\":860:884  logger = Logger(_logger) */\n      0x0100\n      exp\n      dup2\n      sload\n      dup2\n      0xffffffffffffffffffffffffffffffffffffffff\n      mul\n      not\n      and\n      swap1\n      dup4\n      0xffffffffffffffffffffffffffffffffffffffff\n      and\n      mul\n      or\n      swap1\n      sstore\n      pop\n        /* \"@openzeppelin/contracts-upgradeable/proxy/utils/Initializable.sol\":5068:5082  isTopLevelCall */\n      dup4\n        /* \"@openzeppelin/contracts-upgradeable/proxy/utils/Initializable.sol\":5064:5165  if (isTopLevelCall) {... */\n      iszero\n      tag_133\n      jumpi\n        /* \"@openzeppelin/contracts-upgradeable/proxy/utils/Initializable.sol\":5116:5121  false */\n      0x00\n        /* \"@openzeppelin/contracts-upgradeable/proxy/utils/Initializable.sol\":5098:5099  $ */\n      dup6\n        /* \"@openzeppelin/contracts-upgradeable/proxy/utils/Initializable.sol\":5098:5113  $._initializing */\n      0x00\n      add\n      0x08\n        /* \"@openzeppelin/contracts-upgradeable/proxy/utils/Initializable.sol\":5098:5121  $._initializing = false */\n      0x0100\n      exp\n      dup2\n      sload\n      dup2\n      0xff\n      mul\n      not\n      and\n      swap1\n      dup4\n      iszero\n      iszero\n      mul\n      or\n      swap1\n      sstore\n      pop\n        /* \"@openzeppelin/contracts-upgradeable/proxy/utils/Initializable.sol\":5140:5154  Initialized(1) */\n      0xc7f505b2f371ae2175ee4913f4499e1f2633a7b5936321eed1cdaeb6115181d2\n        /* \"@openzeppelin/contracts-upgradeable/proxy/utils/Initializable.sol\":5152:5153  1 */\n      0x01\n        /* \"@openzeppelin/contracts-upgradeable/proxy/utils/Initializable.sol\":5140:5154  Initialized(1) */\n      mload(0x40)\n      tag_134\n      swap2\n      swap1\n      tag_135\n      jump\t// in\n    tag_134:\n      mload(0x40)\n      dup1\n      swap2\n      sub\n      swap1\n      log1\n        /* \"@openzeppelin/contracts-upgradeable/proxy/utils/Initializable.sol\":5064:5165  if (isTopLevelCall) {... */\n    tag_133:\n        /* \"@openzeppelin/contracts-upgradeable/proxy/utils/Initializable.sol\":4092:5171  {... */\n      pop\n      pop\n      pop\n      pop\n      pop\n        /* \"contracts/UCPI.sol\":567:892  function initialize(address _permissions, address _rewardManager, address _logger) public initializer {... */\n      pop\n      pop\n      pop\n      jump\t// out\n        /* \"contracts/UCPI.sol\":538:558  Logger public logger */\n    tag_58:\n      0x02\n      0x00\n      swap1\n      sload\n      swap1\n      0x0100\n      exp\n      swap1\n      div\n      0xffffffffffffffffffffffffffffffffffffffff\n      and\n      dup2\n      jump\t// out\n        /* \"@openzeppelin/contracts-upgradeable/access/OwnableUpgradeable.sol\":3405:3620  function transferOwnership(address newOwner) public virtual onlyOwner {... */\n    tag_65:\n        /* \"@openzeppelin/contracts-upgradeable/access/OwnableUpgradeable.sol\":2334:2347  _checkOwner() */\n      tag_137\n        /* \"@openzeppelin/contracts-upgradeable/access/OwnableUpgradeable.sol\":2334:2345  _checkOwner */\n      tag_113\n        /* \"@openzeppelin/contracts-upgradeable/access/OwnableUpgradeable.sol\":2334:2347  _checkOwner() */\n      jump\t// in\n    tag_137:\n        /* \"@openzeppelin/contracts-upgradeable/access/OwnableUpgradeable.sol\":3509:3510  0 */\n      0x00\n        /* \"@openzeppelin/contracts-upgradeable/access/OwnableUpgradeable.sol\":3489:3511  newOwner == address(0) */\n      0xffffffffffffffffffffffffffffffffffffffff\n      and\n        /* \"@openzeppelin/contracts-upgradeable/access/OwnableUpgradeable.sol\":3489:3497  newOwner */\n      dup2\n        /* \"@openzeppelin/contracts-upgradeable/access/OwnableUpgradeable.sol\":3489:3511  newOwner == address(0) */\n      0xffffffffffffffffffffffffffffffffffffffff\n      and\n      sub\n        /* \"@openzeppelin/contracts-upgradeable/access/OwnableUpgradeable.sol\":3485:3576  if (newOwner == address(0)) {... */\n      tag_139\n      jumpi\n        /* \"@openzeppelin/contracts-upgradeable/access/OwnableUpgradeable.sol\":3562:3563  0 */\n      0x00\n        /* \"@openzeppelin/contracts-upgradeable/access/OwnableUpgradeable.sol\":3534:3565  OwnableInvalidOwner(address(0)) */\n      mload(0x40)\n      0x1e4fbdf700000000000000000000000000000000000000000000000000000000\n      dup2\n      mstore\n      0x04\n      add\n      tag_140\n      swap2\n      swap1\n      tag_40\n      jump\t// in\n    tag_140:\n      mload(0x40)\n      dup1\n      swap2\n      sub\n      swap1\n      revert\n        /* \"@openzeppelin/contracts-upgradeable/access/OwnableUpgradeable.sol\":3485:3576  if (newOwner == address(0)) {... */\n    tag_139:\n        /* \"@openzeppelin/contracts-upgradeable/access/OwnableUpgradeable.sol\":3585:3613  _transferOwnership(newOwner) */\n      tag_141\n        /* \"@openzeppelin/contracts-upgradeable/access/OwnableUpgradeable.sol\":3604:3612  newOwner */\n      dup2\n        /* \"@openzeppelin/contracts-upgradeable/access/OwnableUpgradeable.sol\":3585:3603  _transferOwnership */\n      tag_116\n        /* \"@openzeppelin/contracts-upgradeable/access/OwnableUpgradeable.sol\":3585:3613  _transferOwnership(newOwner) */\n      jump\t// in\n    tag_141:\n        /* \"@openzeppelin/contracts-upgradeable/access/OwnableUpgradeable.sol\":3405:3620  function transferOwnership(address newOwner) public virtual onlyOwner {... */\n      pop\n      jump\t// out\n        /* \"@openzeppelin/contracts-upgradeable/proxy/utils/UUPSUpgradeable.sol\":4578:4890  function _checkProxy() internal view virtual {... */\n    tag_68:\n        /* \"@openzeppelin/contracts-upgradeable/proxy/utils/UUPSUpgradeable.sol\":4667:4673  __self */\n      immutable(\"0x4ce4dab4689da140a0c12de1a6af6b8f679594aeb723205f513e052d27f5b26f\")\n        /* \"@openzeppelin/contracts-upgradeable/proxy/utils/UUPSUpgradeable.sol\":4650:4673  address(this) == __self */\n      0xffffffffffffffffffffffffffffffffffffffff\n      and\n        /* \"@openzeppelin/contracts-upgradeable/proxy/utils/UUPSUpgradeable.sol\":4658:4662  this */\n      address\n        /* \"@openzeppelin/contracts-upgradeable/proxy/utils/UUPSUpgradeable.sol\":4650:4673  address(this) == __self */\n      0xffffffffffffffffffffffffffffffffffffffff\n      and\n      eq\n        /* \"@openzeppelin/contracts-upgradeable/proxy/utils/UUPSUpgradeable.sol\":4650:4770  address(this) == __self || // Must be called through delegatecall... */\n      dup1\n      tag_143\n      jumpi\n      pop\n        /* \"@openzeppelin/contracts-upgradeable/proxy/utils/UUPSUpgradeable.sol\":4764:4770  __self */\n      immutable(\"0x4ce4dab4689da140a0c12de1a6af6b8f679594aeb723205f513e052d27f5b26f\")\n        /* \"@openzeppelin/contracts-upgradeable/proxy/utils/UUPSUpgradeable.sol\":4728:4770  ERC1967Utils.getImplementation() != __self */\n      0xffffffffffffffffffffffffffffffffffffffff\n      and\n        /* \"@openzeppelin/contracts-upgradeable/proxy/utils/UUPSUpgradeable.sol\":4728:4760  ERC1967Utils.getImplementation() */\n      tag_144\n        /* \"@openzeppelin/contracts-upgradeable/proxy/utils/UUPSUpgradeable.sol\":4728:4758  ERC1967Utils.getImplementation */\n      tag_145\n        /* \"@openzeppelin/contracts-upgradeable/proxy/utils/UUPSUpgradeable.sol\":4728:4760  ERC1967Utils.getImplementation() */\n      jump\t// in\n    tag_144:\n        /* \"@openzeppelin/contracts-upgradeable/proxy/utils/UUPSUpgradeable.sol\":4728:4770  ERC1967Utils.getImplementation() != __self */\n      0xffffffffffffffffffffffffffffffffffffffff\n      and\n      eq\n      iszero\n        /* \"@openzeppelin/contracts-upgradeable/proxy/utils/UUPSUpgradeable.sol\":4650:4770  address(this) == __self || // Must be called through delegatecall... */\n    tag_143:\n        /* \"@openzeppelin/contracts-upgradeable/proxy/utils/UUPSUpgradeable.sol\":4633:4884  if (... */\n      iszero\n      tag_146\n      jumpi\n        /* \"@openzeppelin/contracts-upgradeable/proxy/utils/UUPSUpgradeable.sol\":4844:4873  UUPSUnauthorizedCallContext() */\n      mload(0x40)\n      0xe07c8dba00000000000000000000000000000000000000000000000000000000\n      dup2\n      mstore\n      0x04\n      add\n      mload(0x40)\n      dup1\n      swap2\n      sub\n      swap1\n      revert\n        /* \"@openzeppelin/contracts-upgradeable/proxy/utils/UUPSUpgradeable.sol\":4633:4884  if (... */\n    tag_146:\n        /* \"@openzeppelin/contracts-upgradeable/proxy/utils/UUPSUpgradeable.sol\":4578:4890  function _checkProxy() internal view virtual {... */\n      jump\t// out\n        /* \"contracts/UCPI.sol\":1385:1469  function _authorizeUpgrade(address newImplementation) internal override onlyOwner {} */\n    tag_71:\n        /* \"@openzeppelin/contracts-upgradeable/access/OwnableUpgradeable.sol\":2334:2347  _checkOwner() */\n      tag_148\n        /* \"@openzeppelin/contracts-upgradeable/access/OwnableUpgradeable.sol\":2334:2345  _checkOwner */\n      tag_113\n        /* \"@openzeppelin/contracts-upgradeable/access/OwnableUpgradeable.sol\":2334:2347  _checkOwner() */\n      jump\t// in\n    tag_148:\n        /* \"contracts/UCPI.sol\":1385:1469  function _authorizeUpgrade(address newImplementation) internal override onlyOwner {} */\n      pop\n      jump\t// out\n        /* \"@openzeppelin/contracts-upgradeable/proxy/utils/UUPSUpgradeable.sol\":6032:6570  function _upgradeToAndCallUUPS(address newImplementation, bytes memory data) private {... */\n    tag_73:\n        /* \"@openzeppelin/contracts-upgradeable/proxy/utils/UUPSUpgradeable.sol\":6149:6166  newImplementation */\n      dup2\n        /* \"@openzeppelin/contracts-upgradeable/proxy/utils/UUPSUpgradeable.sol\":6131:6181  IERC1822Proxiable(newImplementation).proxiableUUID */\n      0xffffffffffffffffffffffffffffffffffffffff\n      and\n      0x52d1902d\n        /* \"@openzeppelin/contracts-upgradeable/proxy/utils/UUPSUpgradeable.sol\":6131:6183  IERC1822Proxiable(newImplementation).proxiableUUID() */\n      mload(0x40)\n      dup2\n      0xffffffff\n      and\n      0xe0\n      shl\n      dup2\n      mstore\n      0x04\n      add\n      0x20\n      mload(0x40)\n      dup1\n      dup4\n      sub\n      dup2\n      dup7\n      gas\n      staticcall\n      swap3\n      pop\n      pop\n      pop\n      dup1\n      iszero\n      tag_151\n      jumpi\n      pop\n      mload(0x40)\n      returndatasize\n      not(0x1f)\n      0x1f\n      dup3\n      add\n      and\n      dup3\n      add\n      dup1\n      0x40\n      mstore\n      pop\n      dup2\n      add\n      swap1\n      tag_152\n      swap2\n      swap1\n      tag_153\n      jump\t// in\n    tag_152:\n      0x01\n    tag_151:\n        /* \"@openzeppelin/contracts-upgradeable/proxy/utils/UUPSUpgradeable.sol\":6127:6564  try IERC1822Proxiable(newImplementation).proxiableUUID() returns (bytes32 slot) {... */\n      tag_154\n      jumpi\n        /* \"@openzeppelin/contracts-upgradeable/proxy/utils/UUPSUpgradeable.sol\":6535:6552  newImplementation */\n      dup2\n        /* \"@openzeppelin/contracts-upgradeable/proxy/utils/UUPSUpgradeable.sol\":6493:6553  ERC1967Utils.ERC1967InvalidImplementation(newImplementation) */\n      mload(0x40)\n      0x4c9c8ce300000000000000000000000000000000000000000000000000000000\n      dup2\n      mstore\n      0x04\n      add\n      tag_158\n      swap2\n      swap1\n      tag_40\n      jump\t// in\n    tag_158:\n      mload(0x40)\n      dup1\n      swap2\n      sub\n      swap1\n      revert\n        /* \"@openzeppelin/contracts-upgradeable/proxy/utils/UUPSUpgradeable.sol\":6127:6564  try IERC1822Proxiable(newImplementation).proxiableUUID() returns (bytes32 slot) {... */\n    tag_154:\n        /* \"@openzeppelin/contracts/proxy/ERC1967/ERC1967Utils.sol\":811:877  0x360894a13ba1a3210667c828492db98dca3e2076cc3735a920a3ca505d382bbc */\n      0x360894a13ba1a3210667c828492db98dca3e2076cc3735a920a3ca505d382bbc\n        /* \"@openzeppelin/contracts-upgradeable/proxy/utils/UUPSUpgradeable.sol\":6233:6265  ERC1967Utils.IMPLEMENTATION_SLOT */\n      0x00\n      shl\n        /* \"@openzeppelin/contracts-upgradeable/proxy/utils/UUPSUpgradeable.sol\":6225:6229  slot */\n      dup2\n        /* \"@openzeppelin/contracts-upgradeable/proxy/utils/UUPSUpgradeable.sol\":6225:6265  slot != ERC1967Utils.IMPLEMENTATION_SLOT */\n      eq\n        /* \"@openzeppelin/contracts-upgradeable/proxy/utils/UUPSUpgradeable.sol\":6221:6341  if (slot != ERC1967Utils.IMPLEMENTATION_SLOT) {... */\n      tag_160\n      jumpi\n        /* \"@openzeppelin/contracts-upgradeable/proxy/utils/UUPSUpgradeable.sol\":6321:6325  slot */\n      dup1\n        /* \"@openzeppelin/contracts-upgradeable/proxy/utils/UUPSUpgradeable.sol\":6292:6326  UUPSUnsupportedProxiableUUID(slot) */\n      mload(0x40)\n      0xaa1d49a400000000000000000000000000000000000000000000000000000000\n      dup2\n      mstore\n      0x04\n      add\n      tag_161\n      swap2\n      swap1\n      tag_27\n      jump\t// in\n    tag_161:\n      mload(0x40)\n      dup1\n      swap2\n      sub\n      swap1\n      revert\n        /* \"@openzeppelin/contracts-upgradeable/proxy/utils/UUPSUpgradeable.sol\":6221:6341  if (slot != ERC1967Utils.IMPLEMENTATION_SLOT) {... */\n    tag_160:\n        /* \"@openzeppelin/contracts-upgradeable/proxy/utils/UUPSUpgradeable.sol\":6354:6408  ERC1967Utils.upgradeToAndCall(newImplementation, data) */\n      tag_162\n        /* \"@openzeppelin/contracts-upgradeable/proxy/utils/UUPSUpgradeable.sol\":6384:6401  newImplementation */\n      dup4\n        /* \"@openzeppelin/contracts-upgradeable/proxy/utils/UUPSUpgradeable.sol\":6403:6407  data */\n      dup4\n        /* \"@openzeppelin/contracts-upgradeable/proxy/utils/UUPSUpgradeable.sol\":6354:6383  ERC1967Utils.upgradeToAndCall */\n      tag_163\n        /* \"@openzeppelin/contracts-upgradeable/proxy/utils/UUPSUpgradeable.sol\":6354:6408  ERC1967Utils.upgradeToAndCall(newImplementation, data) */\n      jump\t// in\n    tag_162:\n        /* \"@openzeppelin/contracts-upgradeable/proxy/utils/UUPSUpgradeable.sol\":6184:6419  returns (bytes32 slot) {... */\n      pop\n        /* \"@openzeppelin/contracts-upgradeable/proxy/utils/UUPSUpgradeable.sol\":6032:6570  function _upgradeToAndCallUUPS(address newImplementation, bytes memory data) private {... */\n      pop\n      pop\n      jump\t// out\n        /* \"@openzeppelin/contracts-upgradeable/proxy/utils/UUPSUpgradeable.sol\":5007:5220  function _checkNotDelegated() internal view virtual {... */\n    tag_76:\n        /* \"@openzeppelin/contracts-upgradeable/proxy/utils/UUPSUpgradeable.sol\":5090:5096  __self */\n      immutable(\"0x4ce4dab4689da140a0c12de1a6af6b8f679594aeb723205f513e052d27f5b26f\")\n        /* \"@openzeppelin/contracts-upgradeable/proxy/utils/UUPSUpgradeable.sol\":5073:5096  address(this) != __self */\n      0xffffffffffffffffffffffffffffffffffffffff\n      and\n        /* \"@openzeppelin/contracts-upgradeable/proxy/utils/UUPSUpgradeable.sol\":5081:5085  this */\n      address\n        /* \"@openzeppelin/contracts-upgradeable/proxy/utils/UUPSUpgradeable.sol\":5073:5096  address(this) != __self */\n      0xffffffffffffffffffffffffffffffffffffffff\n      and\n      eq\n        /* \"@openzeppelin/contracts-upgradeable/proxy/utils/UUPSUpgradeable.sol\":5069:5214  if (address(this) != __self) {... */\n      tag_165\n      jumpi\n        /* \"@openzeppelin/contracts-upgradeable/proxy/utils/UUPSUpgradeable.sol\":5174:5203  UUPSUnauthorizedCallContext() */\n      mload(0x40)\n      0xe07c8dba00000000000000000000000000000000000000000000000000000000\n      dup2\n      mstore\n      0x04\n      add\n      mload(0x40)\n      dup1\n      swap2\n      sub\n      swap1\n      revert\n        /* \"@openzeppelin/contracts-upgradeable/proxy/utils/UUPSUpgradeable.sol\":5069:5214  if (address(this) != __self) {... */\n    tag_165:\n        /* \"@openzeppelin/contracts-upgradeable/proxy/utils/UUPSUpgradeable.sol\":5007:5220  function _checkNotDelegated() internal view virtual {... */\n      jump\t// out\n        /* \"@openzeppelin/contracts-upgradeable/access/OwnableUpgradeable.sol\":2658:2820  function _checkOwner() internal view virtual {... */\n    tag_113:\n        /* \"@openzeppelin/contracts-upgradeable/access/OwnableUpgradeable.sol\":2728:2740  _msgSender() */\n      tag_167\n        /* \"@openzeppelin/contracts-upgradeable/access/OwnableUpgradeable.sol\":2728:2738  _msgSender */\n      tag_168\n        /* \"@openzeppelin/contracts-upgradeable/access/OwnableUpgradeable.sol\":2728:2740  _msgSender() */\n      jump\t// in\n    tag_167:\n        /* \"@openzeppelin/contracts-upgradeable/access/OwnableUpgradeable.sol\":2717:2740  owner() != _msgSender() */\n      0xffffffffffffffffffffffffffffffffffffffff\n      and\n        /* \"@openzeppelin/contracts-upgradeable/access/OwnableUpgradeable.sol\":2717:2724  owner() */\n      tag_169\n        /* \"@openzeppelin/contracts-upgradeable/access/OwnableUpgradeable.sol\":2717:2722  owner */\n      tag_38\n        /* \"@openzeppelin/contracts-upgradeable/access/OwnableUpgradeable.sol\":2717:2724  owner() */\n      jump\t// in\n    tag_169:\n        /* \"@openzeppelin/contracts-upgradeable/access/OwnableUpgradeable.sol\":2717:2740  owner() != _msgSender() */\n      0xffffffffffffffffffffffffffffffffffffffff\n      and\n      eq\n        /* \"@openzeppelin/contracts-upgradeable/access/OwnableUpgradeable.sol\":2713:2814  if (owner() != _msgSender()) {... */\n      tag_170\n      jumpi\n        /* \"@openzeppelin/contracts-upgradeable/access/OwnableUpgradeable.sol\":2790:2802  _msgSender() */\n      tag_171\n        /* \"@openzeppelin/contracts-upgradeable/access/OwnableUpgradeable.sol\":2790:2800  _msgSender */\n      tag_168\n        /* \"@openzeppelin/contracts-upgradeable/access/OwnableUpgradeable.sol\":2790:2802  _msgSender() */\n      jump\t// in\n    tag_171:\n        /* \"@openzeppelin/contracts-upgradeable/access/OwnableUpgradeable.sol\":2763:2803  OwnableUnauthorizedAccount(_msgSender()) */\n      mload(0x40)\n      0x118cdaa700000000000000000000000000000000000000000000000000000000\n      dup2\n      mstore\n      0x04\n      add\n      tag_172\n      swap2\n      swap1\n      tag_40\n      jump\t// in\n    tag_172:\n      mload(0x40)\n      dup1\n      swap2\n      sub\n      swap1\n      revert\n        /* \"@openzeppelin/contracts-upgradeable/access/OwnableUpgradeable.sol\":2713:2814  if (owner() != _msgSender()) {... */\n    tag_170:\n        /* \"@openzeppelin/contracts-upgradeable/access/OwnableUpgradeable.sol\":2658:2820  function _checkOwner() internal view virtual {... */\n      jump\t// out\n        /* \"@openzeppelin/contracts-upgradeable/access/OwnableUpgradeable.sol\":3774:4022  function _transferOwnership(address newOwner) internal virtual {... */\n    tag_116:\n        /* \"@openzeppelin/contracts-upgradeable/access/OwnableUpgradeable.sol\":3847:3871  OwnableStorage storage $ */\n      0x00\n        /* \"@openzeppelin/contracts-upgradeable/access/OwnableUpgradeable.sol\":3874:3894  _getOwnableStorage() */\n      tag_174\n        /* \"@openzeppelin/contracts-upgradeable/access/OwnableUpgradeable.sol\":3874:3892  _getOwnableStorage */\n      tag_119\n        /* \"@openzeppelin/contracts-upgradeable/access/OwnableUpgradeable.sol\":3874:3894  _getOwnableStorage() */\n      jump\t// in\n    tag_174:\n        /* \"@openzeppelin/contracts-upgradeable/access/OwnableUpgradeable.sol\":3847:3894  OwnableStorage storage $ = _getOwnableStorage() */\n      swap1\n      pop\n        /* \"@openzeppelin/contracts-upgradeable/access/OwnableUpgradeable.sol\":3904:3920  address oldOwner */\n      0x00\n        /* \"@openzeppelin/contracts-upgradeable/access/OwnableUpgradeable.sol\":3923:3924  $ */\n      dup2\n        /* \"@openzeppelin/contracts-upgradeable/access/OwnableUpgradeable.sol\":3923:3931  $._owner */\n      0x00\n      add\n      0x00\n      swap1\n      sload\n      swap1\n      0x0100\n      exp\n      swap1\n      div\n      0xffffffffffffffffffffffffffffffffffffffff\n      and\n        /* \"@openzeppelin/contracts-upgradeable/access/OwnableUpgradeable.sol\":3904:3931  address oldOwner = $._owner */\n      swap1\n      pop\n        /* \"@openzeppelin/contracts-upgradeable/access/OwnableUpgradeable.sol\":3952:3960  newOwner */\n      dup3\n        /* \"@openzeppelin/contracts-upgradeable/access/OwnableUpgradeable.sol\":3941:3942  $ */\n      dup3\n        /* \"@openzeppelin/contracts-upgradeable/access/OwnableUpgradeable.sol\":3941:3949  $._owner */\n      0x00\n      add\n      0x00\n        /* \"@openzeppelin/contracts-upgradeable/access/OwnableUpgradeable.sol\":3941:3960  $._owner = newOwner */\n      0x0100\n      exp\n      dup2\n      sload\n      dup2\n      0xffffffffffffffffffffffffffffffffffffffff\n      mul\n      not\n      and\n      swap1\n      dup4\n      0xffffffffffffffffffffffffffffffffffffffff\n      and\n      mul\n      or\n      swap1\n      sstore\n      pop\n        /* \"@openzeppelin/contracts-upgradeable/access/OwnableUpgradeable.sol\":4006:4014  newOwner */\n      dup3\n        /* \"@openzeppelin/contracts-upgradeable/access/OwnableUpgradeable.sol\":3975:4015  OwnershipTransferred(oldOwner, newOwner) */\n      0xffffffffffffffffffffffffffffffffffffffff\n      and\n        /* \"@openzeppelin/contracts-upgradeable/access/OwnableUpgradeable.sol\":3996:4004  oldOwner */\n      dup2\n        /* \"@openzeppelin/contracts-upgradeable/access/OwnableUpgradeable.sol\":3975:4015  OwnershipTransferred(oldOwner, newOwner) */\n      0xffffffffffffffffffffffffffffffffffffffff\n      and\n      0x8be0079c531659141344cd1fd0a4f28419497f9722a3daafe3b4186f6b6457e0\n      mload(0x40)\n      mload(0x40)\n      dup1\n      swap2\n      sub\n      swap1\n      log3\n        /* \"@openzeppelin/contracts-upgradeable/access/OwnableUpgradeable.sol\":3837:4022  {... */\n      pop\n      pop\n        /* \"@openzeppelin/contracts-upgradeable/access/OwnableUpgradeable.sol\":3774:4022  function _transferOwnership(address newOwner) internal virtual {... */\n      pop\n      jump\t// out\n        /* \"@openzeppelin/contracts-upgradeable/access/OwnableUpgradeable.sol\":1192:1351  function _getOwnableStorage() private pure returns (OwnableStorage storage $) {... */\n    tag_119:\n        /* \"@openzeppelin/contracts-upgradeable/access/OwnableUpgradeable.sol\":1244:1268  OwnableStorage storage $ */\n      0x00\n        /* \"@openzeppelin/contracts-upgradeable/access/OwnableUpgradeable.sol\":1313:1335  OwnableStorageLocation */\n      0x9016d09d72d40fdae2fd8ceac6b6234c7706214fd39c1cd1e609a0528c199300\n        /* \"@openzeppelin/contracts-upgradeable/access/OwnableUpgradeable.sol\":1303:1335  $.slot := OwnableStorageLocation */\n      swap1\n      pop\n        /* \"@openzeppelin/contracts-upgradeable/access/OwnableUpgradeable.sol\":1192:1351  function _getOwnableStorage() private pure returns (OwnableStorage storage $) {... */\n      swap1\n      jump\t// out\n        /* \"@openzeppelin/contracts-upgradeable/proxy/utils/Initializable.sol\":9071:9276  function _getInitializableStorage() private pure returns (InitializableStorage storage $) {... */\n    tag_122:\n        /* \"@openzeppelin/contracts-upgradeable/proxy/utils/Initializable.sol\":9129:9159  InitializableStorage storage $ */\n      0x00\n        /* \"@openzeppelin/contracts-upgradeable/proxy/utils/Initializable.sol\":9171:9183  bytes32 slot */\n      0x00\n        /* \"@openzeppelin/contracts-upgradeable/proxy/utils/Initializable.sol\":9186:9213  _initializableStorageSlot() */\n      tag_177\n        /* \"@openzeppelin/contracts-upgradeable/proxy/utils/Initializable.sol\":9186:9211  _initializableStorageSlot */\n      tag_178\n        /* \"@openzeppelin/contracts-upgradeable/proxy/utils/Initializable.sol\":9186:9213  _initializableStorageSlot() */\n      jump\t// in\n    tag_177:\n        /* \"@openzeppelin/contracts-upgradeable/proxy/utils/Initializable.sol\":9171:9213  bytes32 slot = _initializableStorageSlot() */\n      swap1\n      pop\n        /* \"@openzeppelin/contracts-upgradeable/proxy/utils/Initializable.sol\":9256:9260  slot */\n      dup1\n        /* \"@openzeppelin/contracts-upgradeable/proxy/utils/Initializable.sol\":9246:9260  $.slot := slot */\n      swap2\n      pop\n        /* \"@openzeppelin/contracts-upgradeable/proxy/utils/Initializable.sol\":9232:9270  {... */\n      pop\n        /* \"@openzeppelin/contracts-upgradeable/proxy/utils/Initializable.sol\":9071:9276  function _getInitializableStorage() private pure returns (InitializableStorage storage $) {... */\n      swap1\n      jump\t// out\n        /* \"@openzeppelin/contracts-upgradeable/access/OwnableUpgradeable.sol\":1847:1974  function __Ownable_init(address initialOwner) internal onlyInitializing {... */\n    tag_130:\n        /* \"@openzeppelin/contracts-upgradeable/proxy/utils/Initializable.sol\":6929:6949  _checkInitializing() */\n      tag_180\n        /* \"@openzeppelin/contracts-upgradeable/proxy/utils/Initializable.sol\":6929:6947  _checkInitializing */\n      tag_181\n        /* \"@openzeppelin/contracts-upgradeable/proxy/utils/Initializable.sol\":6929:6949  _checkInitializing() */\n      jump\t// in\n    tag_180:\n        /* \"@openzeppelin/contracts-upgradeable/access/OwnableUpgradeable.sol\":1929:1967  __Ownable_init_unchained(initialOwner) */\n      tag_183\n        /* \"@openzeppelin/contracts-upgradeable/access/OwnableUpgradeable.sol\":1954:1966  initialOwner */\n      dup2\n        /* \"@openzeppelin/contracts-upgradeable/access/OwnableUpgradeable.sol\":1929:1953  __Ownable_init_unchained */\n      tag_184\n        /* \"@openzeppelin/contracts-upgradeable/access/OwnableUpgradeable.sol\":1929:1967  __Ownable_init_unchained(initialOwner) */\n      jump\t// in\n    tag_183:\n        /* \"@openzeppelin/contracts-upgradeable/access/OwnableUpgradeable.sol\":1847:1974  function __Ownable_init(address initialOwner) internal onlyInitializing {... */\n      pop\n      jump\t// out\n        /* \"@openzeppelin/contracts-upgradeable/proxy/utils/UUPSUpgradeable.sol\":2970:3037  function __UUPSUpgradeable_init() internal onlyInitializing {... */\n    tag_132:\n        /* \"@openzeppelin/contracts-upgradeable/proxy/utils/Initializable.sol\":6929:6949  _checkInitializing() */\n      tag_186\n        /* \"@openzeppelin/contracts-upgradeable/proxy/utils/Initializable.sol\":6929:6947  _checkInitializing */\n      tag_181\n        /* \"@openzeppelin/contracts-upgradeable/proxy/utils/Initializable.sol\":6929:6949  _checkInitializing() */\n      jump\t// in\n    tag_186:\n        /* \"@openzeppelin/contracts-upgradeable/proxy/utils/UUPSUpgradeable.sol\":2970:3037  function __UUPSUpgradeable_init() internal onlyInitializing {... */\n      jump\t// out\n        /* \"@openzeppelin/contracts/proxy/ERC1967/ERC1967Utils.sol\":1441:1579  function getImplementation() internal view returns (address) {... */\n    tag_145:\n        /* \"@openzeppelin/contracts/proxy/ERC1967/ERC1967Utils.sol\":1493:1500  address */\n      0x00\n        /* \"@openzeppelin/contracts/proxy/ERC1967/ERC1967Utils.sol\":1519:1566  StorageSlot.getAddressSlot(IMPLEMENTATION_SLOT) */\n      tag_189\n        /* \"@openzeppelin/contracts/proxy/ERC1967/ERC1967Utils.sol\":811:877  0x360894a13ba1a3210667c828492db98dca3e2076cc3735a920a3ca505d382bbc */\n      0x360894a13ba1a3210667c828492db98dca3e2076cc3735a920a3ca505d382bbc\n        /* \"@openzeppelin/contracts/proxy/ERC1967/ERC1967Utils.sol\":1546:1565  IMPLEMENTATION_SLOT */\n      0x00\n      shl\n        /* \"@openzeppelin/contracts/proxy/ERC1967/ERC1967Utils.sol\":1519:1545  StorageSlot.getAddressSlot */\n      tag_190\n        /* \"@openzeppelin/contracts/proxy/ERC1967/ERC1967Utils.sol\":1519:1566  StorageSlot.getAddressSlot(IMPLEMENTATION_SLOT) */\n      jump\t// in\n    tag_189:\n        /* \"@openzeppelin/contracts/proxy/ERC1967/ERC1967Utils.sol\":1519:1572  StorageSlot.getAddressSlot(IMPLEMENTATION_SLOT).value */\n      0x00\n      add\n      0x00\n      swap1\n      sload\n      swap1\n      0x0100\n      exp\n      swap1\n      div\n      0xffffffffffffffffffffffffffffffffffffffff\n      and\n        /* \"@openzeppelin/contracts/proxy/ERC1967/ERC1967Utils.sol\":1512:1572  return StorageSlot.getAddressSlot(IMPLEMENTATION_SLOT).value */\n      swap1\n      pop\n        /* \"@openzeppelin/contracts/proxy/ERC1967/ERC1967Utils.sol\":1441:1579  function getImplementation() internal view returns (address) {... */\n      swap1\n      jump\t// out\n        /* \"@openzeppelin/contracts/proxy/ERC1967/ERC1967Utils.sol\":2264:2608  function upgradeToAndCall(address newImplementation, bytes memory data) internal {... */\n    tag_163:\n        /* \"@openzeppelin/contracts/proxy/ERC1967/ERC1967Utils.sol\":2355:2392  _setImplementation(newImplementation) */\n      tag_192\n        /* \"@openzeppelin/contracts/proxy/ERC1967/ERC1967Utils.sol\":2374:2391  newImplementation */\n      dup3\n        /* \"@openzeppelin/contracts/proxy/ERC1967/ERC1967Utils.sol\":2355:2373  _setImplementation */\n      tag_193\n        /* \"@openzeppelin/contracts/proxy/ERC1967/ERC1967Utils.sol\":2355:2392  _setImplementation(newImplementation) */\n      jump\t// in\n    tag_192:\n        /* \"@openzeppelin/contracts/proxy/ERC1967/ERC1967Utils.sol\":2425:2442  newImplementation */\n      dup2\n        /* \"@openzeppelin/contracts/proxy/ERC1967/ERC1967Utils.sol\":2407:2443  IERC1967.Upgraded(newImplementation) */\n      0xffffffffffffffffffffffffffffffffffffffff\n      and\n      0xbc7cd75a20ee27fd9adebab32041f755214dbc6bffa90cc0225b39da2e5c2d3b\n      mload(0x40)\n      mload(0x40)\n      dup1\n      swap2\n      sub\n      swap1\n      log2\n        /* \"@openzeppelin/contracts/proxy/ERC1967/ERC1967Utils.sol\":2472:2473  0 */\n      0x00\n        /* \"@openzeppelin/contracts/proxy/ERC1967/ERC1967Utils.sol\":2458:2462  data */\n      dup2\n        /* \"@openzeppelin/contracts/proxy/ERC1967/ERC1967Utils.sol\":2458:2469  data.length */\n      mload\n        /* \"@openzeppelin/contracts/proxy/ERC1967/ERC1967Utils.sol\":2458:2473  data.length > 0 */\n      gt\n        /* \"@openzeppelin/contracts/proxy/ERC1967/ERC1967Utils.sol\":2454:2602  if (data.length > 0) {... */\n      iszero\n      tag_194\n      jumpi\n        /* \"@openzeppelin/contracts/proxy/ERC1967/ERC1967Utils.sol\":2489:2542  Address.functionDelegateCall(newImplementation, data) */\n      tag_195\n        /* \"@openzeppelin/contracts/proxy/ERC1967/ERC1967Utils.sol\":2518:2535  newImplementation */\n      dup3\n        /* \"@openzeppelin/contracts/proxy/ERC1967/ERC1967Utils.sol\":2537:2541  data */\n      dup3\n        /* \"@openzeppelin/contracts/proxy/ERC1967/ERC1967Utils.sol\":2489:2517  Address.functionDelegateCall */\n      tag_196\n        /* \"@openzeppelin/contracts/proxy/ERC1967/ERC1967Utils.sol\":2489:2542  Address.functionDelegateCall(newImplementation, data) */\n      jump\t// in\n    tag_195:\n      pop\n        /* \"@openzeppelin/contracts/proxy/ERC1967/ERC1967Utils.sol\":2454:2602  if (data.length > 0) {... */\n      jump(tag_197)\n    tag_194:\n        /* \"@openzeppelin/contracts/proxy/ERC1967/ERC1967Utils.sol\":2573:2591  _checkNonPayable() */\n      tag_198\n        /* \"@openzeppelin/contracts/proxy/ERC1967/ERC1967Utils.sol\":2573:2589  _checkNonPayable */\n      tag_199\n        /* \"@openzeppelin/contracts/proxy/ERC1967/ERC1967Utils.sol\":2573:2591  _checkNonPayable() */\n      jump\t// in\n    tag_198:\n        /* \"@openzeppelin/contracts/proxy/ERC1967/ERC1967Utils.sol\":2454:2602  if (data.length > 0) {... */\n    tag_197:\n        /* \"@openzeppelin/contracts/proxy/ERC1967/ERC1967Utils.sol\":2264:2608  function upgradeToAndCall(address newImplementation, bytes memory data) internal {... */\n      pop\n      pop\n      jump\t// out\n        /* \"@openzeppelin/contracts-upgradeable/utils/ContextUpgradeable.sol\":887:983  function _msgSender() internal view virtual returns (address) {... */\n    tag_168:\n        /* \"@openzeppelin/contracts-upgradeable/utils/ContextUpgradeable.sol\":940:947  address */\n      0x00\n        /* \"@openzeppelin/contracts-upgradeable/utils/ContextUpgradeable.sol\":966:976  msg.sender */\n      caller\n        /* \"@openzeppelin/contracts-upgradeable/utils/ContextUpgradeable.sol\":959:976  return msg.sender */\n      swap1\n      pop\n        /* \"@openzeppelin/contracts-upgradeable/utils/ContextUpgradeable.sol\":887:983  function _msgSender() internal view virtual returns (address) {... */\n      swap1\n      jump\t// out\n        /* \"@openzeppelin/contracts-upgradeable/proxy/utils/Initializable.sol\":8819:8941  function _initializableStorageSlot() internal pure virtual returns (bytes32) {... */\n    tag_178:\n        /* \"@openzeppelin/contracts-upgradeable/proxy/utils/Initializable.sol\":8887:8894  bytes32 */\n      0x00\n        /* \"@openzeppelin/contracts-upgradeable/proxy/utils/Initializable.sol\":3147:3213  0xf0c57e16840df040f15088dc2f81fe391c3923bec73e23a9662efc9c229c6a00 */\n      0xf0c57e16840df040f15088dc2f81fe391c3923bec73e23a9662efc9c229c6a00\n        /* \"@openzeppelin/contracts-upgradeable/proxy/utils/Initializable.sol\":8913:8934  INITIALIZABLE_STORAGE */\n      0x00\n      shl\n        /* \"@openzeppelin/contracts-upgradeable/proxy/utils/Initializable.sol\":8906:8934  return INITIALIZABLE_STORAGE */\n      swap1\n      pop\n        /* \"@openzeppelin/contracts-upgradeable/proxy/utils/Initializable.sol\":8819:8941  function _initializableStorageSlot() internal pure virtual returns (bytes32) {... */\n      swap1\n      jump\t// out\n        /* \"@openzeppelin/contracts-upgradeable/proxy/utils/Initializable.sol\":7082:7223  function _checkInitializing() internal view virtual {... */\n    tag_181:\n        /* \"@openzeppelin/contracts-upgradeable/proxy/utils/Initializable.sol\":7149:7166  _isInitializing() */\n      tag_203\n        /* \"@openzeppelin/contracts-upgradeable/proxy/utils/Initializable.sol\":7149:7164  _isInitializing */\n      tag_204\n        /* \"@openzeppelin/contracts-upgradeable/proxy/utils/Initializable.sol\":7149:7166  _isInitializing() */\n      jump\t// in\n    tag_203:\n        /* \"@openzeppelin/contracts-upgradeable/proxy/utils/Initializable.sol\":7144:7217  if (!_isInitializing()) {... */\n      tag_205\n      jumpi\n        /* \"@openzeppelin/contracts-upgradeable/proxy/utils/Initializable.sol\":7189:7206  NotInitializing() */\n      mload(0x40)\n      0xd7e6bcf800000000000000000000000000000000000000000000000000000000\n      dup2\n      mstore\n      0x04\n      add\n      mload(0x40)\n      dup1\n      swap2\n      sub\n      swap1\n      revert\n        /* \"@openzeppelin/contracts-upgradeable/proxy/utils/Initializable.sol\":7144:7217  if (!_isInitializing()) {... */\n    tag_205:\n        /* \"@openzeppelin/contracts-upgradeable/proxy/utils/Initializable.sol\":7082:7223  function _checkInitializing() internal view virtual {... */\n      jump\t// out\n        /* \"@openzeppelin/contracts-upgradeable/access/OwnableUpgradeable.sol\":1980:2215  function __Ownable_init_unchained(address initialOwner) internal onlyInitializing {... */\n    tag_184:\n        /* \"@openzeppelin/contracts-upgradeable/proxy/utils/Initializable.sol\":6929:6949  _checkInitializing() */\n      tag_207\n        /* \"@openzeppelin/contracts-upgradeable/proxy/utils/Initializable.sol\":6929:6947  _checkInitializing */\n      tag_181\n        /* \"@openzeppelin/contracts-upgradeable/proxy/utils/Initializable.sol\":6929:6949  _checkInitializing() */\n      jump\t// in\n    tag_207:\n        /* \"@openzeppelin/contracts-upgradeable/access/OwnableUpgradeable.sol\":2100:2101  0 */\n      0x00\n        /* \"@openzeppelin/contracts-upgradeable/access/OwnableUpgradeable.sol\":2076:2102  initialOwner == address(0) */\n      0xffffffffffffffffffffffffffffffffffffffff\n      and\n        /* \"@openzeppelin/contracts-upgradeable/access/OwnableUpgradeable.sol\":2076:2088  initialOwner */\n      dup2\n        /* \"@openzeppelin/contracts-upgradeable/access/OwnableUpgradeable.sol\":2076:2102  initialOwner == address(0) */\n      0xffffffffffffffffffffffffffffffffffffffff\n      and\n      sub\n        /* \"@openzeppelin/contracts-upgradeable/access/OwnableUpgradeable.sol\":2072:2167  if (initialOwner == address(0)) {... */\n      tag_209\n      jumpi\n        /* \"@openzeppelin/contracts-upgradeable/access/OwnableUpgradeable.sol\":2153:2154  0 */\n      0x00\n        /* \"@openzeppelin/contracts-upgradeable/access/OwnableUpgradeable.sol\":2125:2156  OwnableInvalidOwner(address(0)) */\n      mload(0x40)\n      0x1e4fbdf700000000000000000000000000000000000000000000000000000000\n      dup2\n      mstore\n      0x04\n      add\n      tag_210\n      swap2\n      swap1\n      tag_40\n      jump\t// in\n    tag_210:\n      mload(0x40)\n      dup1\n      swap2\n      sub\n      swap1\n      revert\n        /* \"@openzeppelin/contracts-upgradeable/access/OwnableUpgradeable.sol\":2072:2167  if (initialOwner == address(0)) {... */\n    tag_209:\n        /* \"@openzeppelin/contracts-upgradeable/access/OwnableUpgradeable.sol\":2176:2208  _transferOwnership(initialOwner) */\n      tag_211\n        /* \"@openzeppelin/contracts-upgradeable/access/OwnableUpgradeable.sol\":2195:2207  initialOwner */\n      dup2\n        /* \"@openzeppelin/contracts-upgradeable/access/OwnableUpgradeable.sol\":2176:2194  _transferOwnership */\n      tag_116\n        /* \"@openzeppelin/contracts-upgradeable/access/OwnableUpgradeable.sol\":2176:2208  _transferOwnership(initialOwner) */\n      jump\t// in\n    tag_211:\n        /* \"@openzeppelin/contracts-upgradeable/access/OwnableUpgradeable.sol\":1980:2215  function __Ownable_init_unchained(address initialOwner) internal onlyInitializing {... */\n      pop\n      jump\t// out\n        /* \"@openzeppelin/contracts/utils/StorageSlot.sol\":1899:2062  function getAddressSlot(bytes32 slot) internal pure returns (AddressSlot storage r) {... */\n    tag_190:\n        /* \"@openzeppelin/contracts/utils/StorageSlot.sol\":1960:1981  AddressSlot storage r */\n      0x00\n        /* \"@openzeppelin/contracts/utils/StorageSlot.sol\":2042:2046  slot */\n      dup2\n        /* \"@openzeppelin/contracts/utils/StorageSlot.sol\":2032:2046  r.slot := slot */\n      swap1\n      pop\n        /* \"@openzeppelin/contracts/utils/StorageSlot.sol\":1899:2062  function getAddressSlot(bytes32 slot) internal pure returns (AddressSlot storage r) {... */\n      swap2\n      swap1\n      pop\n      jump\t// out\n        /* \"@openzeppelin/contracts/proxy/ERC1967/ERC1967Utils.sol\":1671:1952  function _setImplementation(address newImplementation) private {... */\n    tag_193:\n        /* \"@openzeppelin/contracts/proxy/ERC1967/ERC1967Utils.sol\":1781:1782  0 */\n      0x00\n        /* \"@openzeppelin/contracts/proxy/ERC1967/ERC1967Utils.sol\":1748:1765  newImplementation */\n      dup2\n        /* \"@openzeppelin/contracts/proxy/ERC1967/ERC1967Utils.sol\":1748:1777  newImplementation.code.length */\n      0xffffffffffffffffffffffffffffffffffffffff\n      and\n      extcodesize\n        /* \"@openzeppelin/contracts/proxy/ERC1967/ERC1967Utils.sol\":1748:1782  newImplementation.code.length == 0 */\n      sub\n        /* \"@openzeppelin/contracts/proxy/ERC1967/ERC1967Utils.sol\":1744:1863  if (newImplementation.code.length == 0) {... */\n      tag_214\n      jumpi\n        /* \"@openzeppelin/contracts/proxy/ERC1967/ERC1967Utils.sol\":1834:1851  newImplementation */\n      dup1\n        /* \"@openzeppelin/contracts/proxy/ERC1967/ERC1967Utils.sol\":1805:1852  ERC1967InvalidImplementation(newImplementation) */\n      mload(0x40)\n      0x4c9c8ce300000000000000000000000000000000000000000000000000000000\n      dup2\n      mstore\n      0x04\n      add\n      tag_215\n      swap2\n      swap1\n      tag_40\n      jump\t// in\n    tag_215:\n      mload(0x40)\n      dup1\n      swap2\n      sub\n      swap1\n      revert\n        /* \"@openzeppelin/contracts/proxy/ERC1967/ERC1967Utils.sol\":1744:1863  if (newImplementation.code.length == 0) {... */\n    tag_214:\n        /* \"@openzeppelin/contracts/proxy/ERC1967/ERC1967Utils.sol\":1928:1945  newImplementation */\n      dup1\n        /* \"@openzeppelin/contracts/proxy/ERC1967/ERC1967Utils.sol\":1872:1919  StorageSlot.getAddressSlot(IMPLEMENTATION_SLOT) */\n      tag_216\n        /* \"@openzeppelin/contracts/proxy/ERC1967/ERC1967Utils.sol\":811:877  0x360894a13ba1a3210667c828492db98dca3e2076cc3735a920a3ca505d382bbc */\n      0x360894a13ba1a3210667c828492db98dca3e2076cc3735a920a3ca505d382bbc\n        /* \"@openzeppelin/contracts/proxy/ERC1967/ERC1967Utils.sol\":1899:1918  IMPLEMENTATION_SLOT */\n      0x00\n      shl\n        /* \"@openzeppelin/contracts/proxy/ERC1967/ERC1967Utils.sol\":1872:1898  StorageSlot.getAddressSlot */\n      tag_190\n        /* \"@openzeppelin/contracts/proxy/ERC1967/ERC1967Utils.sol\":1872:1919  StorageSlot.getAddressSlot(IMPLEMENTATION_SLOT) */\n      jump\t// in\n    tag_216:\n        /* \"@openzeppelin/contracts/proxy/ERC1967/ERC1967Utils.sol\":1872:1925  StorageSlot.getAddressSlot(IMPLEMENTATION_SLOT).value */\n      0x00\n      add\n      0x00\n        /* \"@openzeppelin/contracts/proxy/ERC1967/ERC1967Utils.sol\":1872:1945  StorageSlot.getAddressSlot(IMPLEMENTATION_SLOT).value = newImplementation */\n      0x0100\n      exp\n      dup2\n      sload\n      dup2\n      0xffffffffffffffffffffffffffffffffffffffff\n      mul\n      not\n      and\n      swap1\n      dup4\n      0xffffffffffffffffffffffffffffffffffffffff\n      and\n      mul\n      or\n      swap1\n      sstore\n      pop\n        /* \"@openzeppelin/contracts/proxy/ERC1967/ERC1967Utils.sol\":1671:1952  function _setImplementation(address newImplementation) private {... */\n      pop\n      jump\t// out\n        /* \"@openzeppelin/contracts/utils/Address.sol\":3916:4169  function functionDelegateCall(address target, bytes memory data) internal returns (bytes memory) {... */\n    tag_196:\n        /* \"@openzeppelin/contracts/utils/Address.sol\":3999:4011  bytes memory */\n      0x60\n        /* \"@openzeppelin/contracts/utils/Address.sol\":4024:4036  bool success */\n      0x00\n        /* \"@openzeppelin/contracts/utils/Address.sol\":4038:4061  bytes memory returndata */\n      0x00\n        /* \"@openzeppelin/contracts/utils/Address.sol\":4065:4071  target */\n      dup5\n        /* \"@openzeppelin/contracts/utils/Address.sol\":4065:4084  target.delegatecall */\n      0xffffffffffffffffffffffffffffffffffffffff\n      and\n        /* \"@openzeppelin/contracts/utils/Address.sol\":4085:4089  data */\n      dup5\n        /* \"@openzeppelin/contracts/utils/Address.sol\":4065:4090  target.delegatecall(data) */\n      mload(0x40)\n      tag_218\n      swap2\n      swap1\n      tag_219\n      jump\t// in\n    tag_218:\n      0x00\n      mload(0x40)\n      dup1\n      dup4\n      sub\n      dup2\n      dup6\n      gas\n      delegatecall\n      swap2\n      pop\n      pop\n      returndatasize\n      dup1\n      0x00\n      dup2\n      eq\n      tag_222\n      jumpi\n      mload(0x40)\n      swap2\n      pop\n      and(add(returndatasize, 0x3f), not(0x1f))\n      dup3\n      add\n      0x40\n      mstore\n      returndatasize\n      dup3\n      mstore\n      returndatasize\n      0x00\n      0x20\n      dup5\n      add\n      returndatacopy\n      jump(tag_221)\n    tag_222:\n      0x60\n      swap2\n      pop\n    tag_221:\n      pop\n        /* \"@openzeppelin/contracts/utils/Address.sol\":4023:4090  (bool success, bytes memory returndata) = target.delegatecall(data) */\n      swap2\n      pop\n      swap2\n      pop\n        /* \"@openzeppelin/contracts/utils/Address.sol\":4107:4162  verifyCallResultFromTarget(target, success, returndata) */\n      tag_223\n        /* \"@openzeppelin/contracts/utils/Address.sol\":4134:4140  target */\n      dup6\n        /* \"@openzeppelin/contracts/utils/Address.sol\":4142:4149  success */\n      dup4\n        /* \"@openzeppelin/contracts/utils/Address.sol\":4151:4161  returndata */\n      dup4\n        /* \"@openzeppelin/contracts/utils/Address.sol\":4107:4133  verifyCallResultFromTarget */\n      tag_224\n        /* \"@openzeppelin/contracts/utils/Address.sol\":4107:4162  verifyCallResultFromTarget(target, success, returndata) */\n      jump\t// in\n    tag_223:\n        /* \"@openzeppelin/contracts/utils/Address.sol\":4100:4162  return verifyCallResultFromTarget(target, success, returndata) */\n      swap3\n      pop\n      pop\n      pop\n        /* \"@openzeppelin/contracts/utils/Address.sol\":3916:4169  function functionDelegateCall(address target, bytes memory data) internal returns (bytes memory) {... */\n      swap3\n      swap2\n      pop\n      pop\n      jump\t// out\n        /* \"@openzeppelin/contracts/proxy/ERC1967/ERC1967Utils.sol\":6113:6235  function _checkNonPayable() private {... */\n    tag_199:\n        /* \"@openzeppelin/contracts/proxy/ERC1967/ERC1967Utils.sol\":6175:6176  0 */\n      0x00\n        /* \"@openzeppelin/contracts/proxy/ERC1967/ERC1967Utils.sol\":6163:6172  msg.value */\n      callvalue\n        /* \"@openzeppelin/contracts/proxy/ERC1967/ERC1967Utils.sol\":6163:6176  msg.value > 0 */\n      gt\n        /* \"@openzeppelin/contracts/proxy/ERC1967/ERC1967Utils.sol\":6159:6229  if (msg.value > 0) {... */\n      iszero\n      tag_226\n      jumpi\n        /* \"@openzeppelin/contracts/proxy/ERC1967/ERC1967Utils.sol\":6199:6218  ERC1967NonPayable() */\n      mload(0x40)\n      0xb398979f00000000000000000000000000000000000000000000000000000000\n      dup2\n      mstore\n      0x04\n      add\n      mload(0x40)\n      dup1\n      swap2\n      sub\n      swap1\n      revert\n        /* \"@openzeppelin/contracts/proxy/ERC1967/ERC1967Utils.sol\":6159:6229  if (msg.value > 0) {... */\n    tag_226:\n        /* \"@openzeppelin/contracts/proxy/ERC1967/ERC1967Utils.sol\":6113:6235  function _checkNonPayable() private {... */\n      jump\t// out\n        /* \"@openzeppelin/contracts-upgradeable/proxy/utils/Initializable.sol\":8485:8605  function _isInitializing() internal view returns (bool) {... */\n    tag_204:\n        /* \"@openzeppelin/contracts-upgradeable/proxy/utils/Initializable.sol\":8535:8539  bool */\n      0x00\n        /* \"@openzeppelin/contracts-upgradeable/proxy/utils/Initializable.sol\":8558:8584  _getInitializableStorage() */\n      tag_228\n        /* \"@openzeppelin/contracts-upgradeable/proxy/utils/Initializable.sol\":8558:8582  _getInitializableStorage */\n      tag_122\n        /* \"@openzeppelin/contracts-upgradeable/proxy/utils/Initializable.sol\":8558:8584  _getInitializableStorage() */\n      jump\t// in\n    tag_228:\n        /* \"@openzeppelin/contracts-upgradeable/proxy/utils/Initializable.sol\":8558:8598  _getInitializableStorage()._initializing */\n      0x00\n      add\n      0x08\n      swap1\n      sload\n      swap1\n      0x0100\n      exp\n      swap1\n      div\n      0xff\n      and\n        /* \"@openzeppelin/contracts-upgradeable/proxy/utils/Initializable.sol\":8551:8598  return _getInitializableStorage()._initializing */\n      swap1\n      pop\n        /* \"@openzeppelin/contracts-upgradeable/proxy/utils/Initializable.sol\":8485:8605  function _isInitializing() internal view returns (bool) {... */\n      swap1\n      jump\t// out\n        /* \"@openzeppelin/contracts/utils/Address.sol\":4437:5019  function verifyCallResultFromTarget(... */\n    tag_224:\n        /* \"@openzeppelin/contracts/utils/Address.sol\":4581:4593  bytes memory */\n      0x60\n        /* \"@openzeppelin/contracts/utils/Address.sol\":4610:4617  success */\n      dup3\n        /* \"@openzeppelin/contracts/utils/Address.sol\":4605:5013  if (!success) {... */\n      tag_230\n      jumpi\n        /* \"@openzeppelin/contracts/utils/Address.sol\":4633:4652  _revert(returndata) */\n      tag_231\n        /* \"@openzeppelin/contracts/utils/Address.sol\":4641:4651  returndata */\n      dup3\n        /* \"@openzeppelin/contracts/utils/Address.sol\":4633:4640  _revert */\n      tag_232\n        /* \"@openzeppelin/contracts/utils/Address.sol\":4633:4652  _revert(returndata) */\n      jump\t// in\n    tag_231:\n        /* \"@openzeppelin/contracts/utils/Address.sol\":4605:5013  if (!success) {... */\n      jump(tag_233)\n    tag_230:\n        /* \"@openzeppelin/contracts/utils/Address.sol\":4878:4879  0 */\n      0x00\n        /* \"@openzeppelin/contracts/utils/Address.sol\":4857:4867  returndata */\n      dup3\n        /* \"@openzeppelin/contracts/utils/Address.sol\":4857:4874  returndata.length */\n      mload\n        /* \"@openzeppelin/contracts/utils/Address.sol\":4857:4879  returndata.length == 0 */\n      eq\n        /* \"@openzeppelin/contracts/utils/Address.sol\":4857:4906  returndata.length == 0 && target.code.length == 0 */\n      dup1\n      iszero\n      tag_234\n      jumpi\n      pop\n        /* \"@openzeppelin/contracts/utils/Address.sol\":4905:4906  0 */\n      0x00\n        /* \"@openzeppelin/contracts/utils/Address.sol\":4883:4889  target */\n      dup5\n        /* \"@openzeppelin/contracts/utils/Address.sol\":4883:4901  target.code.length */\n      0xffffffffffffffffffffffffffffffffffffffff\n      and\n      extcodesize\n        /* \"@openzeppelin/contracts/utils/Address.sol\":4883:4906  target.code.length == 0 */\n      eq\n        /* \"@openzeppelin/contracts/utils/Address.sol\":4857:4906  returndata.length == 0 && target.code.length == 0 */\n    tag_234:\n        /* \"@openzeppelin/contracts/utils/Address.sol\":4853:4972  if (returndata.length == 0 && target.code.length == 0) {... */\n      iszero\n      tag_235\n      jumpi\n        /* \"@openzeppelin/contracts/utils/Address.sol\":4950:4956  target */\n      dup4\n        /* \"@openzeppelin/contracts/utils/Address.sol\":4933:4957  AddressEmptyCode(target) */\n      mload(0x40)\n      0x9996b31500000000000000000000000000000000000000000000000000000000\n      dup2\n      mstore\n      0x04\n      add\n      tag_236\n      swap2\n      swap1\n      tag_40\n      jump\t// in\n    tag_236:\n      mload(0x40)\n      dup1\n      swap2\n      sub\n      swap1\n      revert\n        /* \"@openzeppelin/contracts/utils/Address.sol\":4853:4972  if (returndata.length == 0 && target.code.length == 0) {... */\n    tag_235:\n        /* \"@openzeppelin/contracts/utils/Address.sol\":4992:5002  returndata */\n      dup2\n        /* \"@openzeppelin/contracts/utils/Address.sol\":4985:5002  return returndata */\n      swap1\n      pop\n      jump(tag_229)\n        /* \"@openzeppelin/contracts/utils/Address.sol\":4605:5013  if (!success) {... */\n    tag_233:\n        /* \"@openzeppelin/contracts/utils/Address.sol\":4437:5019  function verifyCallResultFromTarget(... */\n    tag_229:\n      swap4\n      swap3\n      pop\n      pop\n      pop\n      jump\t// out\n        /* \"@openzeppelin/contracts/utils/Address.sol\":5559:6046  function _revert(bytes memory returndata) private pure {... */\n    tag_232:\n        /* \"@openzeppelin/contracts/utils/Address.sol\":5710:5711  0 */\n      0x00\n        /* \"@openzeppelin/contracts/utils/Address.sol\":5690:5700  returndata */\n      dup2\n        /* \"@openzeppelin/contracts/utils/Address.sol\":5690:5707  returndata.length */\n      mload\n        /* \"@openzeppelin/contracts/utils/Address.sol\":5690:5711  returndata.length > 0 */\n      gt\n        /* \"@openzeppelin/contracts/utils/Address.sol\":5686:6040  if (returndata.length > 0) {... */\n      iszero\n      tag_238\n      jumpi\n        /* \"@openzeppelin/contracts/utils/Address.sol\":5887:5897  returndata */\n      dup1\n        /* \"@openzeppelin/contracts/utils/Address.sol\":5881:5898  mload(returndata) */\n      mload\n        /* \"@openzeppelin/contracts/utils/Address.sol\":5943:5958  returndata_size */\n      dup1\n        /* \"@openzeppelin/contracts/utils/Address.sol\":5930:5940  returndata */\n      dup3\n        /* \"@openzeppelin/contracts/utils/Address.sol\":5926:5928  32 */\n      0x20\n        /* \"@openzeppelin/contracts/utils/Address.sol\":5922:5941  add(32, returndata) */\n      add\n        /* \"@openzeppelin/contracts/utils/Address.sol\":5915:5959  revert(add(32, returndata), returndata_size) */\n      revert\n        /* \"@openzeppelin/contracts/utils/Address.sol\":5686:6040  if (returndata.length > 0) {... */\n    tag_238:\n        /* \"@openzeppelin/contracts/utils/Address.sol\":6010:6029  Errors.FailedCall() */\n      mload(0x40)\n      0xd6bda27500000000000000000000000000000000000000000000000000000000\n      dup2\n      mstore\n      0x04\n      add\n      mload(0x40)\n      dup1\n      swap2\n      sub\n      swap1\n      revert\n        /* \"#utility.yul\":7:133   */\n    tag_240:\n        /* \"#utility.yul\":44:51   */\n      0x00\n        /* \"#utility.yul\":84:126   */\n      0xffffffffffffffffffffffffffffffffffffffff\n        /* \"#utility.yul\":77:82   */\n      dup3\n        /* \"#utility.yul\":73:127   */\n      and\n        /* \"#utility.yul\":62:127   */\n      swap1\n      pop\n        /* \"#utility.yul\":7:133   */\n      swap2\n      swap1\n      pop\n      jump\t// out\n        /* \"#utility.yul\":139:199   */\n    tag_241:\n        /* \"#utility.yul\":167:170   */\n      0x00\n        /* \"#utility.yul\":188:193   */\n      dup2\n        /* \"#utility.yul\":181:193   */\n      swap1\n      pop\n        /* \"#utility.yul\":139:199   */\n      swap2\n      swap1\n      pop\n      jump\t// out\n        /* \"#utility.yul\":205:347   */\n    tag_242:\n        /* \"#utility.yul\":255:264   */\n      0x00\n        /* \"#utility.yul\":288:341   */\n      tag_311\n        /* \"#utility.yul\":306:340   */\n      tag_312\n        /* \"#utility.yul\":315:339   */\n      tag_313\n        /* \"#utility.yul\":333:338   */\n      dup5\n        /* \"#utility.yul\":315:339   */\n      tag_240\n      jump\t// in\n    tag_313:\n        /* \"#utility.yul\":306:340   */\n      tag_241\n      jump\t// in\n    tag_312:\n        /* \"#utility.yul\":288:341   */\n      tag_240\n      jump\t// in\n    tag_311:\n        /* \"#utility.yul\":275:341   */\n      swap1\n      pop\n        /* \"#utility.yul\":205:347   */\n      swap2\n      swap1\n      pop\n      jump\t// out\n        /* \"#utility.yul\":353:479   */\n    tag_243:\n        /* \"#utility.yul\":403:412   */\n      0x00\n        /* \"#utility.yul\":436:473   */\n      tag_315\n        /* \"#utility.yul\":467:472   */\n      dup3\n        /* \"#utility.yul\":436:473   */\n      tag_242\n      jump\t// in\n    tag_315:\n        /* \"#utility.yul\":423:473   */\n      swap1\n      pop\n        /* \"#utility.yul\":353:479   */\n      swap2\n      swap1\n      pop\n      jump\t// out\n        /* \"#utility.yul\":485:633   */\n    tag_244:\n        /* \"#utility.yul\":557:566   */\n      0x00\n        /* \"#utility.yul\":590:627   */\n      tag_317\n        /* \"#utility.yul\":621:626   */\n      dup3\n        /* \"#utility.yul\":590:627   */\n      tag_243\n      jump\t// in\n    tag_317:\n        /* \"#utility.yul\":577:627   */\n      swap1\n      pop\n        /* \"#utility.yul\":485:633   */\n      swap2\n      swap1\n      pop\n      jump\t// out\n        /* \"#utility.yul\":639:814   */\n    tag_245:\n        /* \"#utility.yul\":748:807   */\n      tag_319\n        /* \"#utility.yul\":801:806   */\n      dup2\n        /* \"#utility.yul\":748:807   */\n      tag_244\n      jump\t// in\n    tag_319:\n        /* \"#utility.yul\":743:746   */\n      dup3\n        /* \"#utility.yul\":736:808   */\n      mstore\n        /* \"#utility.yul\":639:814   */\n      pop\n      pop\n      jump\t// out\n        /* \"#utility.yul\":820:1086   */\n    tag_18:\n        /* \"#utility.yul\":935:939   */\n      0x00\n        /* \"#utility.yul\":973:975   */\n      0x20\n        /* \"#utility.yul\":962:971   */\n      dup3\n        /* \"#utility.yul\":958:976   */\n      add\n        /* \"#utility.yul\":950:976   */\n      swap1\n      pop\n        /* \"#utility.yul\":986:1079   */\n      tag_321\n        /* \"#utility.yul\":1076:1077   */\n      0x00\n        /* \"#utility.yul\":1065:1074   */\n      dup4\n        /* \"#utility.yul\":1061:1078   */\n      add\n        /* \"#utility.yul\":1052:1058   */\n      dup5\n        /* \"#utility.yul\":986:1079   */\n      tag_245\n      jump\t// in\n    tag_321:\n        /* \"#utility.yul\":820:1086   */\n      swap3\n      swap2\n      pop\n      pop\n      jump\t// out\n        /* \"#utility.yul\":1092:1167   */\n    tag_246:\n        /* \"#utility.yul\":1125:1131   */\n      0x00\n        /* \"#utility.yul\":1158:1160   */\n      0x40\n        /* \"#utility.yul\":1152:1161   */\n      mload\n        /* \"#utility.yul\":1142:1161   */\n      swap1\n      pop\n        /* \"#utility.yul\":1092:1167   */\n      swap1\n      jump\t// out\n        /* \"#utility.yul\":1173:1290   */\n    tag_247:\n        /* \"#utility.yul\":1282:1283   */\n      0x00\n        /* \"#utility.yul\":1279:1280   */\n      0x00\n        /* \"#utility.yul\":1272:1284   */\n      revert\n        /* \"#utility.yul\":1296:1413   */\n    tag_248:\n        /* \"#utility.yul\":1405:1406   */\n      0x00\n        /* \"#utility.yul\":1402:1403   */\n      0x00\n        /* \"#utility.yul\":1395:1407   */\n      revert\n        /* \"#utility.yul\":1419:1515   */\n    tag_249:\n        /* \"#utility.yul\":1456:1463   */\n      0x00\n        /* \"#utility.yul\":1485:1509   */\n      tag_326\n        /* \"#utility.yul\":1503:1508   */\n      dup3\n        /* \"#utility.yul\":1485:1509   */\n      tag_240\n      jump\t// in\n    tag_326:\n        /* \"#utility.yul\":1474:1509   */\n      swap1\n      pop\n        /* \"#utility.yul\":1419:1515   */\n      swap2\n      swap1\n      pop\n      jump\t// out\n        /* \"#utility.yul\":1521:1643   */\n    tag_250:\n        /* \"#utility.yul\":1594:1618   */\n      tag_328\n        /* \"#utility.yul\":1612:1617   */\n      dup2\n        /* \"#utility.yul\":1594:1618   */\n      tag_249\n      jump\t// in\n    tag_328:\n        /* \"#utility.yul\":1587:1592   */\n      dup2\n        /* \"#utility.yul\":1584:1619   */\n      eq\n        /* \"#utility.yul\":1574:1637   */\n      tag_329\n      jumpi\n        /* \"#utility.yul\":1633:1634   */\n      0x00\n        /* \"#utility.yul\":1630:1631   */\n      0x00\n        /* \"#utility.yul\":1623:1635   */\n      revert\n        /* \"#utility.yul\":1574:1637   */\n    tag_329:\n        /* \"#utility.yul\":1521:1643   */\n      pop\n      jump\t// out\n        /* \"#utility.yul\":1649:1788   */\n    tag_251:\n        /* \"#utility.yul\":1695:1700   */\n      0x00\n        /* \"#utility.yul\":1733:1739   */\n      dup2\n        /* \"#utility.yul\":1720:1740   */\n      calldataload\n        /* \"#utility.yul\":1711:1740   */\n      swap1\n      pop\n        /* \"#utility.yul\":1749:1782   */\n      tag_331\n        /* \"#utility.yul\":1776:1781   */\n      dup2\n        /* \"#utility.yul\":1749:1782   */\n      tag_250\n      jump\t// in\n    tag_331:\n        /* \"#utility.yul\":1649:1788   */\n      swap3\n      swap2\n      pop\n      pop\n      jump\t// out\n        /* \"#utility.yul\":1794:1911   */\n    tag_252:\n        /* \"#utility.yul\":1903:1904   */\n      0x00\n        /* \"#utility.yul\":1900:1901   */\n      0x00\n        /* \"#utility.yul\":1893:1905   */\n      revert\n        /* \"#utility.yul\":1917:2034   */\n    tag_253:\n        /* \"#utility.yul\":2026:2027   */\n      0x00\n        /* \"#utility.yul\":2023:2024   */\n      0x00\n        /* \"#utility.yul\":2016:2028   */\n      revert\n        /* \"#utility.yul\":2040:2142   */\n    tag_254:\n        /* \"#utility.yul\":2081:2087   */\n      0x00\n        /* \"#utility.yul\":2132:2134   */\n      0x1f\n        /* \"#utility.yul\":2128:2135   */\n      not\n        /* \"#utility.yul\":2123:2125   */\n      0x1f\n        /* \"#utility.yul\":2116:2121   */\n      dup4\n        /* \"#utility.yul\":2112:2126   */\n      add\n        /* \"#utility.yul\":2108:2136   */\n      and\n        /* \"#utility.yul\":2098:2136   */\n      swap1\n      pop\n        /* \"#utility.yul\":2040:2142   */\n      swap2\n      swap1\n      pop\n      jump\t// out\n        /* \"#utility.yul\":2148:2328   */\n    tag_255:\n        /* \"#utility.yul\":2196:2273   */\n      0x4e487b7100000000000000000000000000000000000000000000000000000000\n        /* \"#utility.yul\":2193:2194   */\n      0x00\n        /* \"#utility.yul\":2186:2274   */\n      mstore\n        /* \"#utility.yul\":2293:2297   */\n      0x41\n        /* \"#utility.yul\":2290:2291   */\n      0x04\n        /* \"#utility.yul\":2283:2298   */\n      mstore\n        /* \"#utility.yul\":2317:2321   */\n      0x24\n        /* \"#utility.yul\":2314:2315   */\n      0x00\n        /* \"#utility.yul\":2307:2322   */\n      revert\n        /* \"#utility.yul\":2334:2615   */\n    tag_256:\n        /* \"#utility.yul\":2417:2444   */\n      tag_337\n        /* \"#utility.yul\":2439:2443   */\n      dup3\n        /* \"#utility.yul\":2417:2444   */\n      tag_254\n      jump\t// in\n    tag_337:\n        /* \"#utility.yul\":2409:2415   */\n      dup2\n        /* \"#utility.yul\":2405:2445   */\n      add\n        /* \"#utility.yul\":2547:2553   */\n      dup2\n        /* \"#utility.yul\":2535:2545   */\n      dup2\n        /* \"#utility.yul\":2532:2554   */\n      lt\n        /* \"#utility.yul\":2511:2529   */\n      0xffffffffffffffff\n        /* \"#utility.yul\":2499:2509   */\n      dup3\n        /* \"#utility.yul\":2496:2530   */\n      gt\n        /* \"#utility.yul\":2493:2555   */\n      or\n        /* \"#utility.yul\":2490:2578   */\n      iszero\n      tag_338\n      jumpi\n        /* \"#utility.yul\":2558:2576   */\n      tag_339\n      tag_255\n      jump\t// in\n    tag_339:\n        /* \"#utility.yul\":2490:2578   */\n    tag_338:\n        /* \"#utility.yul\":2598:2608   */\n      dup1\n        /* \"#utility.yul\":2594:2596   */\n      0x40\n        /* \"#utility.yul\":2587:2609   */\n      mstore\n        /* \"#utility.yul\":2377:2615   */\n      pop\n        /* \"#utility.yul\":2334:2615   */\n      pop\n      pop\n      jump\t// out\n        /* \"#utility.yul\":2621:2750   */\n    tag_257:\n        /* \"#utility.yul\":2655:2661   */\n      0x00\n        /* \"#utility.yul\":2682:2702   */\n      tag_341\n      tag_246\n      jump\t// in\n    tag_341:\n        /* \"#utility.yul\":2672:2702   */\n      swap1\n      pop\n        /* \"#utility.yul\":2711:2744   */\n      tag_342\n        /* \"#utility.yul\":2739:2743   */\n      dup3\n        /* \"#utility.yul\":2731:2737   */\n      dup3\n        /* \"#utility.yul\":2711:2744   */\n      tag_256\n      jump\t// in\n    tag_342:\n        /* \"#utility.yul\":2621:2750   */\n      swap2\n      swap1\n      pop\n      jump\t// out\n        /* \"#utility.yul\":2756:3063   */\n    tag_258:\n        /* \"#utility.yul\":2817:2821   */\n      0x00\n        /* \"#utility.yul\":2907:2925   */\n      0xffffffffffffffff\n        /* \"#utility.yul\":2899:2905   */\n      dup3\n        /* \"#utility.yul\":2896:2926   */\n      gt\n        /* \"#utility.yul\":2893:2949   */\n      iszero\n      tag_344\n      jumpi\n        /* \"#utility.yul\":2929:2947   */\n      tag_345\n      tag_255\n      jump\t// in\n    tag_345:\n        /* \"#utility.yul\":2893:2949   */\n    tag_344:\n        /* \"#utility.yul\":2967:2996   */\n      tag_346\n        /* \"#utility.yul\":2989:2995   */\n      dup3\n        /* \"#utility.yul\":2967:2996   */\n      tag_254\n      jump\t// in\n    tag_346:\n        /* \"#utility.yul\":2959:2996   */\n      swap1\n      pop\n        /* \"#utility.yul\":3051:3055   */\n      0x20\n        /* \"#utility.yul\":3045:3049   */\n      dup2\n        /* \"#utility.yul\":3041:3056   */\n      add\n        /* \"#utility.yul\":3033:3056   */\n      swap1\n      pop\n        /* \"#utility.yul\":2756:3063   */\n      swap2\n      swap1\n      pop\n      jump\t// out\n        /* \"#utility.yul\":3069:3217   */\n    tag_259:\n        /* \"#utility.yul\":3167:3173   */\n      dup3\n        /* \"#utility.yul\":3162:3165   */\n      dup2\n        /* \"#utility.yul\":3157:3160   */\n      dup4\n        /* \"#utility.yul\":3144:3174   */\n      calldatacopy\n        /* \"#utility.yul\":3208:3209   */\n      0x00\n        /* \"#utility.yul\":3199:3205   */\n      dup4\n        /* \"#utility.yul\":3194:3197   */\n      dup4\n        /* \"#utility.yul\":3190:3206   */\n      add\n        /* \"#utility.yul\":3183:3210   */\n      mstore\n        /* \"#utility.yul\":3069:3217   */\n      pop\n      pop\n      pop\n      jump\t// out\n        /* \"#utility.yul\":3223:3646   */\n    tag_260:\n        /* \"#utility.yul\":3300:3305   */\n      0x00\n        /* \"#utility.yul\":3325:3390   */\n      tag_349\n        /* \"#utility.yul\":3341:3389   */\n      tag_350\n        /* \"#utility.yul\":3382:3388   */\n      dup5\n        /* \"#utility.yul\":3341:3389   */\n      tag_258\n      jump\t// in\n    tag_350:\n        /* \"#utility.yul\":3325:3390   */\n      tag_257\n      jump\t// in\n    tag_349:\n        /* \"#utility.yul\":3316:3390   */\n      swap1\n      pop\n        /* \"#utility.yul\":3413:3419   */\n      dup3\n        /* \"#utility.yul\":3406:3411   */\n      dup2\n        /* \"#utility.yul\":3399:3420   */\n      mstore\n        /* \"#utility.yul\":3451:3455   */\n      0x20\n        /* \"#utility.yul\":3444:3449   */\n      dup2\n        /* \"#utility.yul\":3440:3456   */\n      add\n        /* \"#utility.yul\":3489:3492   */\n      dup5\n        /* \"#utility.yul\":3480:3486   */\n      dup5\n        /* \"#utility.yul\":3475:3478   */\n      dup5\n        /* \"#utility.yul\":3471:3487   */\n      add\n        /* \"#utility.yul\":3468:3493   */\n      gt\n        /* \"#utility.yul\":3465:3577   */\n      iszero\n      tag_351\n      jumpi\n        /* \"#utility.yul\":3496:3575   */\n      tag_352\n      tag_253\n      jump\t// in\n    tag_352:\n        /* \"#utility.yul\":3465:3577   */\n    tag_351:\n        /* \"#utility.yul\":3586:3640   */\n      tag_353\n        /* \"#utility.yul\":3633:3639   */\n      dup5\n        /* \"#utility.yul\":3628:3631   */\n      dup3\n        /* \"#utility.yul\":3623:3626   */\n      dup6\n        /* \"#utility.yul\":3586:3640   */\n      tag_259\n      jump\t// in\n    tag_353:\n        /* \"#utility.yul\":3306:3646   */\n      pop\n        /* \"#utility.yul\":3223:3646   */\n      swap4\n      swap3\n      pop\n      pop\n      pop\n      jump\t// out\n        /* \"#utility.yul\":3665:4003   */\n    tag_261:\n        /* \"#utility.yul\":3720:3725   */\n      0x00\n        /* \"#utility.yul\":3769:3772   */\n      dup3\n        /* \"#utility.yul\":3762:3766   */\n      0x1f\n        /* \"#utility.yul\":3754:3760   */\n      dup4\n        /* \"#utility.yul\":3750:3767   */\n      add\n        /* \"#utility.yul\":3746:3773   */\n      slt\n        /* \"#utility.yul\":3736:3858   */\n      tag_355\n      jumpi\n        /* \"#utility.yul\":3777:3856   */\n      tag_356\n      tag_252\n      jump\t// in\n    tag_356:\n        /* \"#utility.yul\":3736:3858   */\n    tag_355:\n        /* \"#utility.yul\":3894:3900   */\n      dup2\n        /* \"#utility.yul\":3881:3901   */\n      calldataload\n        /* \"#utility.yul\":3919:3997   */\n      tag_357\n        /* \"#utility.yul\":3993:3996   */\n      dup5\n        /* \"#utility.yul\":3985:3991   */\n      dup3\n        /* \"#utility.yul\":3978:3982   */\n      0x20\n        /* \"#utility.yul\":3970:3976   */\n      dup7\n        /* \"#utility.yul\":3966:3983   */\n      add\n        /* \"#utility.yul\":3919:3997   */\n      tag_260\n      jump\t// in\n    tag_357:\n        /* \"#utility.yul\":3910:3997   */\n      swap2\n      pop\n        /* \"#utility.yul\":3726:4003   */\n      pop\n        /* \"#utility.yul\":3665:4003   */\n      swap3\n      swap2\n      pop\n      pop\n      jump\t// out\n        /* \"#utility.yul\":4009:4661   */\n    tag_21:\n        /* \"#utility.yul\":4086:4092   */\n      0x00\n        /* \"#utility.yul\":4094:4100   */\n      0x00\n        /* \"#utility.yul\":4143:4145   */\n      0x40\n        /* \"#utility.yul\":4131:4140   */\n      dup4\n        /* \"#utility.yul\":4122:4129   */\n      dup6\n        /* \"#utility.yul\":4118:4141   */\n      sub\n        /* \"#utility.yul\":4114:4146   */\n      slt\n        /* \"#utility.yul\":4111:4230   */\n      iszero\n      tag_359\n      jumpi\n        /* \"#utility.yul\":4149:4228   */\n      tag_360\n      tag_247\n      jump\t// in\n    tag_360:\n        /* \"#utility.yul\":4111:4230   */\n    tag_359:\n        /* \"#utility.yul\":4269:4270   */\n      0x00\n        /* \"#utility.yul\":4294:4347   */\n      tag_361\n        /* \"#utility.yul\":4339:4346   */\n      dup6\n        /* \"#utility.yul\":4330:4336   */\n      dup3\n        /* \"#utility.yul\":4319:4328   */\n      dup7\n        /* \"#utility.yul\":4315:4337   */\n      add\n        /* \"#utility.yul\":4294:4347   */\n      tag_251\n      jump\t// in\n    tag_361:\n        /* \"#utility.yul\":4284:4347   */\n      swap3\n      pop\n        /* \"#utility.yul\":4240:4357   */\n      pop\n        /* \"#utility.yul\":4424:4426   */\n      0x20\n        /* \"#utility.yul\":4413:4422   */\n      dup4\n        /* \"#utility.yul\":4409:4427   */\n      add\n        /* \"#utility.yul\":4396:4428   */\n      calldataload\n        /* \"#utility.yul\":4455:4473   */\n      0xffffffffffffffff\n        /* \"#utility.yul\":4447:4453   */\n      dup2\n        /* \"#utility.yul\":4444:4474   */\n      gt\n        /* \"#utility.yul\":4441:4558   */\n      iszero\n      tag_362\n      jumpi\n        /* \"#utility.yul\":4477:4556   */\n      tag_363\n      tag_248\n      jump\t// in\n    tag_363:\n        /* \"#utility.yul\":4441:4558   */\n    tag_362:\n        /* \"#utility.yul\":4582:4644   */\n      tag_364\n        /* \"#utility.yul\":4636:4643   */\n      dup6\n        /* \"#utility.yul\":4627:4633   */\n      dup3\n        /* \"#utility.yul\":4616:4625   */\n      dup7\n        /* \"#utility.yul\":4612:4634   */\n      add\n        /* \"#utility.yul\":4582:4644   */\n      tag_261\n      jump\t// in\n    tag_364:\n        /* \"#utility.yul\":4572:4644   */\n      swap2\n      pop\n        /* \"#utility.yul\":4367:4654   */\n      pop\n        /* \"#utility.yul\":4009:4661   */\n      swap3\n      pop\n      swap3\n      swap1\n      pop\n      jump\t// out\n        /* \"#utility.yul\":4667:4744   */\n    tag_262:\n        /* \"#utility.yul\":4704:4711   */\n      0x00\n        /* \"#utility.yul\":4733:4738   */\n      dup2\n        /* \"#utility.yul\":4722:4738   */\n      swap1\n      pop\n        /* \"#utility.yul\":4667:4744   */\n      swap2\n      swap1\n      pop\n      jump\t// out\n        /* \"#utility.yul\":4750:4868   */\n    tag_263:\n        /* \"#utility.yul\":4837:4861   */\n      tag_367\n        /* \"#utility.yul\":4855:4860   */\n      dup2\n        /* \"#utility.yul\":4837:4861   */\n      tag_262\n      jump\t// in\n    tag_367:\n        /* \"#utility.yul\":4832:4835   */\n      dup3\n        /* \"#utility.yul\":4825:4862   */\n      mstore\n        /* \"#utility.yul\":4750:4868   */\n      pop\n      pop\n      jump\t// out\n        /* \"#utility.yul\":4874:5096   */\n    tag_27:\n        /* \"#utility.yul\":4967:4971   */\n      0x00\n        /* \"#utility.yul\":5005:5007   */\n      0x20\n        /* \"#utility.yul\":4994:5003   */\n      dup3\n        /* \"#utility.yul\":4990:5008   */\n      add\n        /* \"#utility.yul\":4982:5008   */\n      swap1\n      pop\n        /* \"#utility.yul\":5018:5089   */\n      tag_369\n        /* \"#utility.yul\":5086:5087   */\n      0x00\n        /* \"#utility.yul\":5075:5084   */\n      dup4\n        /* \"#utility.yul\":5071:5088   */\n      add\n        /* \"#utility.yul\":5062:5068   */\n      dup5\n        /* \"#utility.yul\":5018:5089   */\n      tag_263\n      jump\t// in\n    tag_369:\n        /* \"#utility.yul\":4874:5096   */\n      swap3\n      swap2\n      pop\n      pop\n      jump\t// out\n        /* \"#utility.yul\":5102:5179   */\n    tag_264:\n        /* \"#utility.yul\":5139:5146   */\n      0x00\n        /* \"#utility.yul\":5168:5173   */\n      dup2\n        /* \"#utility.yul\":5157:5173   */\n      swap1\n      pop\n        /* \"#utility.yul\":5102:5179   */\n      swap2\n      swap1\n      pop\n      jump\t// out\n        /* \"#utility.yul\":5185:5307   */\n    tag_265:\n        /* \"#utility.yul\":5258:5282   */\n      tag_372\n        /* \"#utility.yul\":5276:5281   */\n      dup2\n        /* \"#utility.yul\":5258:5282   */\n      tag_264\n      jump\t// in\n    tag_372:\n        /* \"#utility.yul\":5251:5256   */\n      dup2\n        /* \"#utility.yul\":5248:5283   */\n      eq\n        /* \"#utility.yul\":5238:5301   */\n      tag_373\n      jumpi\n        /* \"#utility.yul\":5297:5298   */\n      0x00\n        /* \"#utility.yul\":5294:5295   */\n      0x00\n        /* \"#utility.yul\":5287:5299   */\n      revert\n        /* \"#utility.yul\":5238:5301   */\n    tag_373:\n        /* \"#utility.yul\":5185:5307   */\n      pop\n      jump\t// out\n        /* \"#utility.yul\":5313:5452   */\n    tag_266:\n        /* \"#utility.yul\":5359:5364   */\n      0x00\n        /* \"#utility.yul\":5397:5403   */\n      dup2\n        /* \"#utility.yul\":5384:5404   */\n      calldataload\n        /* \"#utility.yul\":5375:5404   */\n      swap1\n      pop\n        /* \"#utility.yul\":5413:5446   */\n      tag_375\n        /* \"#utility.yul\":5440:5445   */\n      dup2\n        /* \"#utility.yul\":5413:5446   */\n      tag_265\n      jump\t// in\n    tag_375:\n        /* \"#utility.yul\":5313:5452   */\n      swap3\n      swap2\n      pop\n      pop\n      jump\t// out\n        /* \"#utility.yul\":5458:5555   */\n    tag_267:\n        /* \"#utility.yul\":5494:5501   */\n      0x00\n        /* \"#utility.yul\":5534:5548   */\n      0xffffffffffff\n        /* \"#utility.yul\":5527:5532   */\n      dup3\n        /* \"#utility.yul\":5523:5549   */\n      and\n        /* \"#utility.yul\":5512:5549   */\n      swap1\n      pop\n        /* \"#utility.yul\":5458:5555   */\n      swap2\n      swap1\n      pop\n      jump\t// out\n        /* \"#utility.yul\":5561:5681   */\n    tag_268:\n        /* \"#utility.yul\":5633:5656   */\n      tag_378\n        /* \"#utility.yul\":5650:5655   */\n      dup2\n        /* \"#utility.yul\":5633:5656   */\n      tag_267\n      jump\t// in\n    tag_378:\n        /* \"#utility.yul\":5626:5631   */\n      dup2\n        /* \"#utility.yul\":5623:5657   */\n      eq\n        /* \"#utility.yul\":5613:5675   */\n      tag_379\n      jumpi\n        /* \"#utility.yul\":5671:5672   */\n      0x00\n        /* \"#utility.yul\":5668:5669   */\n      0x00\n        /* \"#utility.yul\":5661:5673   */\n      revert\n        /* \"#utility.yul\":5613:5675   */\n    tag_379:\n        /* \"#utility.yul\":5561:5681   */\n      pop\n      jump\t// out\n        /* \"#utility.yul\":5687:5824   */\n    tag_269:\n        /* \"#utility.yul\":5732:5737   */\n      0x00\n        /* \"#utility.yul\":5770:5776   */\n      dup2\n        /* \"#utility.yul\":5757:5777   */\n      calldataload\n        /* \"#utility.yul\":5748:5777   */\n      swap1\n      pop\n        /* \"#utility.yul\":5786:5818   */\n      tag_381\n        /* \"#utility.yul\":5812:5817   */\n      dup2\n        /* \"#utility.yul\":5786:5818   */\n      tag_268\n      jump\t// in\n    tag_381:\n        /* \"#utility.yul\":5687:5824   */\n      swap3\n      swap2\n      pop\n      pop\n      jump\t// out\n        /* \"#utility.yul\":5830:5947   */\n    tag_270:\n        /* \"#utility.yul\":5939:5940   */\n      0x00\n        /* \"#utility.yul\":5936:5937   */\n      0x00\n        /* \"#utility.yul\":5929:5941   */\n      revert\n        /* \"#utility.yul\":5953:6070   */\n    tag_271:\n        /* \"#utility.yul\":6062:6063   */\n      0x00\n        /* \"#utility.yul\":6059:6060   */\n      0x00\n        /* \"#utility.yul\":6052:6064   */\n      revert\n        /* \"#utility.yul\":6090:6643   */\n    tag_272:\n        /* \"#utility.yul\":6148:6156   */\n      0x00\n        /* \"#utility.yul\":6158:6164   */\n      0x00\n        /* \"#utility.yul\":6208:6211   */\n      dup4\n        /* \"#utility.yul\":6201:6205   */\n      0x1f\n        /* \"#utility.yul\":6193:6199   */\n      dup5\n        /* \"#utility.yul\":6189:6206   */\n      add\n        /* \"#utility.yul\":6185:6212   */\n      slt\n        /* \"#utility.yul\":6175:6297   */\n      tag_385\n      jumpi\n        /* \"#utility.yul\":6216:6295   */\n      tag_386\n      tag_252\n      jump\t// in\n    tag_386:\n        /* \"#utility.yul\":6175:6297   */\n    tag_385:\n        /* \"#utility.yul\":6329:6335   */\n      dup3\n        /* \"#utility.yul\":6316:6336   */\n      calldataload\n        /* \"#utility.yul\":6306:6336   */\n      swap1\n      pop\n        /* \"#utility.yul\":6359:6377   */\n      0xffffffffffffffff\n        /* \"#utility.yul\":6351:6357   */\n      dup2\n        /* \"#utility.yul\":6348:6378   */\n      gt\n        /* \"#utility.yul\":6345:6462   */\n      iszero\n      tag_387\n      jumpi\n        /* \"#utility.yul\":6381:6460   */\n      tag_388\n      tag_270\n      jump\t// in\n    tag_388:\n        /* \"#utility.yul\":6345:6462   */\n    tag_387:\n        /* \"#utility.yul\":6495:6499   */\n      0x20\n        /* \"#utility.yul\":6487:6493   */\n      dup4\n        /* \"#utility.yul\":6483:6500   */\n      add\n        /* \"#utility.yul\":6471:6500   */\n      swap2\n      pop\n        /* \"#utility.yul\":6549:6552   */\n      dup4\n        /* \"#utility.yul\":6541:6545   */\n      0x01\n        /* \"#utility.yul\":6533:6539   */\n      dup3\n        /* \"#utility.yul\":6529:6546   */\n      mul\n        /* \"#utility.yul\":6519:6527   */\n      dup4\n        /* \"#utility.yul\":6515:6547   */\n      add\n        /* \"#utility.yul\":6512:6553   */\n      gt\n        /* \"#utility.yul\":6509:6637   */\n      iszero\n      tag_389\n      jumpi\n        /* \"#utility.yul\":6556:6635   */\n      tag_390\n      tag_271\n      jump\t// in\n    tag_390:\n        /* \"#utility.yul\":6509:6637   */\n    tag_389:\n        /* \"#utility.yul\":6090:6643   */\n      swap3\n      pop\n      swap3\n      swap1\n      pop\n      jump\t// out\n        /* \"#utility.yul\":6649:7758   */\n    tag_31:\n        /* \"#utility.yul\":6755:6761   */\n      0x00\n        /* \"#utility.yul\":6763:6769   */\n      0x00\n        /* \"#utility.yul\":6771:6777   */\n      0x00\n        /* \"#utility.yul\":6779:6785   */\n      0x00\n        /* \"#utility.yul\":6787:6793   */\n      0x00\n        /* \"#utility.yul\":6795:6801   */\n      0x00\n        /* \"#utility.yul\":6844:6847   */\n      0xa0\n        /* \"#utility.yul\":6832:6841   */\n      dup8\n        /* \"#utility.yul\":6823:6830   */\n      dup10\n        /* \"#utility.yul\":6819:6842   */\n      sub\n        /* \"#utility.yul\":6815:6848   */\n      slt\n        /* \"#utility.yul\":6812:6932   */\n      iszero\n      tag_392\n      jumpi\n        /* \"#utility.yul\":6851:6930   */\n      tag_393\n      tag_247\n      jump\t// in\n    tag_393:\n        /* \"#utility.yul\":6812:6932   */\n    tag_392:\n        /* \"#utility.yul\":6971:6972   */\n      0x00\n        /* \"#utility.yul\":6996:7049   */\n      tag_394\n        /* \"#utility.yul\":7041:7048   */\n      dup10\n        /* \"#utility.yul\":7032:7038   */\n      dup3\n        /* \"#utility.yul\":7021:7030   */\n      dup11\n        /* \"#utility.yul\":7017:7039   */\n      add\n        /* \"#utility.yul\":6996:7049   */\n      tag_251\n      jump\t// in\n    tag_394:\n        /* \"#utility.yul\":6986:7049   */\n      swap7\n      pop\n        /* \"#utility.yul\":6942:7059   */\n      pop\n        /* \"#utility.yul\":7098:7100   */\n      0x20\n        /* \"#utility.yul\":7124:7177   */\n      tag_395\n        /* \"#utility.yul\":7169:7176   */\n      dup10\n        /* \"#utility.yul\":7160:7166   */\n      dup3\n        /* \"#utility.yul\":7149:7158   */\n      dup11\n        /* \"#utility.yul\":7145:7167   */\n      add\n        /* \"#utility.yul\":7124:7177   */\n      tag_266\n      jump\t// in\n    tag_395:\n        /* \"#utility.yul\":7114:7177   */\n      swap6\n      pop\n        /* \"#utility.yul\":7069:7187   */\n      pop\n        /* \"#utility.yul\":7226:7228   */\n      0x40\n        /* \"#utility.yul\":7252:7304   */\n      tag_396\n        /* \"#utility.yul\":7296:7303   */\n      dup10\n        /* \"#utility.yul\":7287:7293   */\n      dup3\n        /* \"#utility.yul\":7276:7285   */\n      dup11\n        /* \"#utility.yul\":7272:7294   */\n      add\n        /* \"#utility.yul\":7252:7304   */\n      tag_269\n      jump\t// in\n    tag_396:\n        /* \"#utility.yul\":7242:7304   */\n      swap5\n      pop\n        /* \"#utility.yul\":7197:7314   */\n      pop\n        /* \"#utility.yul\":7381:7383   */\n      0x60\n        /* \"#utility.yul\":7370:7379   */\n      dup8\n        /* \"#utility.yul\":7366:7384   */\n      add\n        /* \"#utility.yul\":7353:7385   */\n      calldataload\n        /* \"#utility.yul\":7412:7430   */\n      0xffffffffffffffff\n        /* \"#utility.yul\":7404:7410   */\n      dup2\n        /* \"#utility.yul\":7401:7431   */\n      gt\n        /* \"#utility.yul\":7398:7515   */\n      iszero\n      tag_397\n      jumpi\n        /* \"#utility.yul\":7434:7513   */\n      tag_398\n      tag_248\n      jump\t// in\n    tag_398:\n        /* \"#utility.yul\":7398:7515   */\n    tag_397:\n        /* \"#utility.yul\":7547:7612   */\n      tag_399\n        /* \"#utility.yul\":7604:7611   */\n      dup10\n        /* \"#utility.yul\":7595:7601   */\n      dup3\n        /* \"#utility.yul\":7584:7593   */\n      dup11\n        /* \"#utility.yul\":7580:7602   */\n      add\n        /* \"#utility.yul\":7547:7612   */\n      tag_272\n      jump\t// in\n    tag_399:\n        /* \"#utility.yul\":7529:7612   */\n      swap4\n      pop\n      swap4\n      pop\n        /* \"#utility.yul\":7324:7622   */\n      pop\n        /* \"#utility.yul\":7661:7664   */\n      0x80\n        /* \"#utility.yul\":7688:7741   */\n      tag_400\n        /* \"#utility.yul\":7733:7740   */\n      dup10\n        /* \"#utility.yul\":7724:7730   */\n      dup3\n        /* \"#utility.yul\":7713:7722   */\n      dup11\n        /* \"#utility.yul\":7709:7731   */\n      add\n        /* \"#utility.yul\":7688:7741   */\n      tag_251\n      jump\t// in\n    tag_400:\n        /* \"#utility.yul\":7678:7741   */\n      swap2\n      pop\n        /* \"#utility.yul\":7632:7751   */\n      pop\n        /* \"#utility.yul\":6649:7758   */\n      swap3\n      swap6\n      pop\n      swap3\n      swap6\n      pop\n      swap3\n      swap6\n      jump\t// out\n        /* \"#utility.yul\":7764:7882   */\n    tag_273:\n        /* \"#utility.yul\":7851:7875   */\n      tag_402\n        /* \"#utility.yul\":7869:7874   */\n      dup2\n        /* \"#utility.yul\":7851:7875   */\n      tag_249\n      jump\t// in\n    tag_402:\n        /* \"#utility.yul\":7846:7849   */\n      dup3\n        /* \"#utility.yul\":7839:7876   */\n      mstore\n        /* \"#utility.yul\":7764:7882   */\n      pop\n      pop\n      jump\t// out\n        /* \"#utility.yul\":7888:8110   */\n    tag_40:\n        /* \"#utility.yul\":7981:7985   */\n      0x00\n        /* \"#utility.yul\":8019:8021   */\n      0x20\n        /* \"#utility.yul\":8008:8017   */\n      dup3\n        /* \"#utility.yul\":8004:8022   */\n      add\n        /* \"#utility.yul\":7996:8022   */\n      swap1\n      pop\n        /* \"#utility.yul\":8032:8103   */\n      tag_404\n        /* \"#utility.yul\":8100:8101   */\n      0x00\n        /* \"#utility.yul\":8089:8098   */\n      dup4\n        /* \"#utility.yul\":8085:8102   */\n      add\n        /* \"#utility.yul\":8076:8082   */\n      dup5\n        /* \"#utility.yul\":8032:8103   */\n      tag_273\n      jump\t// in\n    tag_404:\n        /* \"#utility.yul\":7888:8110   */\n      swap3\n      swap2\n      pop\n      pop\n      jump\t// out\n        /* \"#utility.yul\":8116:8262   */\n    tag_274:\n        /* \"#utility.yul\":8186:8195   */\n      0x00\n        /* \"#utility.yul\":8219:8256   */\n      tag_406\n        /* \"#utility.yul\":8250:8255   */\n      dup3\n        /* \"#utility.yul\":8219:8256   */\n      tag_243\n      jump\t// in\n    tag_406:\n        /* \"#utility.yul\":8206:8256   */\n      swap1\n      pop\n        /* \"#utility.yul\":8116:8262   */\n      swap2\n      swap1\n      pop\n      jump\t// out\n        /* \"#utility.yul\":8268:8439   */\n    tag_275:\n        /* \"#utility.yul\":8375:8432   */\n      tag_408\n        /* \"#utility.yul\":8426:8431   */\n      dup2\n        /* \"#utility.yul\":8375:8432   */\n      tag_274\n      jump\t// in\n    tag_408:\n        /* \"#utility.yul\":8370:8373   */\n      dup3\n        /* \"#utility.yul\":8363:8433   */\n      mstore\n        /* \"#utility.yul\":8268:8439   */\n      pop\n      pop\n      jump\t// out\n        /* \"#utility.yul\":8445:8707   */\n    tag_45:\n        /* \"#utility.yul\":8558:8562   */\n      0x00\n        /* \"#utility.yul\":8596:8598   */\n      0x20\n        /* \"#utility.yul\":8585:8594   */\n      dup3\n        /* \"#utility.yul\":8581:8599   */\n      add\n        /* \"#utility.yul\":8573:8599   */\n      swap1\n      pop\n        /* \"#utility.yul\":8609:8700   */\n      tag_410\n        /* \"#utility.yul\":8697:8698   */\n      0x00\n        /* \"#utility.yul\":8686:8695   */\n      dup4\n        /* \"#utility.yul\":8682:8699   */\n      add\n        /* \"#utility.yul\":8673:8679   */\n      dup5\n        /* \"#utility.yul\":8609:8700   */\n      tag_275\n      jump\t// in\n    tag_410:\n        /* \"#utility.yul\":8445:8707   */\n      swap3\n      swap2\n      pop\n      pop\n      jump\t// out\n        /* \"#utility.yul\":8713:8812   */\n    tag_276:\n        /* \"#utility.yul\":8765:8771   */\n      0x00\n        /* \"#utility.yul\":8799:8804   */\n      dup2\n        /* \"#utility.yul\":8793:8805   */\n      mload\n        /* \"#utility.yul\":8783:8805   */\n      swap1\n      pop\n        /* \"#utility.yul\":8713:8812   */\n      swap2\n      swap1\n      pop\n      jump\t// out\n        /* \"#utility.yul\":8818:8987   */\n    tag_277:\n        /* \"#utility.yul\":8902:8913   */\n      0x00\n        /* \"#utility.yul\":8936:8942   */\n      dup3\n        /* \"#utility.yul\":8931:8934   */\n      dup3\n        /* \"#utility.yul\":8924:8943   */\n      mstore\n        /* \"#utility.yul\":8976:8980   */\n      0x20\n        /* \"#utility.yul\":8971:8974   */\n      dup3\n        /* \"#utility.yul\":8967:8981   */\n      add\n        /* \"#utility.yul\":8952:8981   */\n      swap1\n      pop\n        /* \"#utility.yul\":8818:8987   */\n      swap3\n      swap2\n      pop\n      pop\n      jump\t// out\n        /* \"#utility.yul\":8993:9132   */\n    tag_278:\n        /* \"#utility.yul\":9082:9088   */\n      dup3\n        /* \"#utility.yul\":9077:9080   */\n      dup2\n        /* \"#utility.yul\":9072:9075   */\n      dup4\n        /* \"#utility.yul\":9066:9089   */\n      mcopy\n        /* \"#utility.yul\":9123:9124   */\n      0x00\n        /* \"#utility.yul\":9114:9120   */\n      dup4\n        /* \"#utility.yul\":9109:9112   */\n      dup4\n        /* \"#utility.yul\":9105:9121   */\n      add\n        /* \"#utility.yul\":9098:9125   */\n      mstore\n        /* \"#utility.yul\":8993:9132   */\n      pop\n      pop\n      pop\n      jump\t// out\n        /* \"#utility.yul\":9138:9515   */\n    tag_279:\n        /* \"#utility.yul\":9226:9229   */\n      0x00\n        /* \"#utility.yul\":9254:9293   */\n      tag_415\n        /* \"#utility.yul\":9287:9292   */\n      dup3\n        /* \"#utility.yul\":9254:9293   */\n      tag_276\n      jump\t// in\n    tag_415:\n        /* \"#utility.yul\":9309:9380   */\n      tag_416\n        /* \"#utility.yul\":9373:9379   */\n      dup2\n        /* \"#utility.yul\":9368:9371   */\n      dup6\n        /* \"#utility.yul\":9309:9380   */\n      tag_277\n      jump\t// in\n    tag_416:\n        /* \"#utility.yul\":9302:9380   */\n      swap4\n      pop\n        /* \"#utility.yul\":9389:9454   */\n      tag_417\n        /* \"#utility.yul\":9447:9453   */\n      dup2\n        /* \"#utility.yul\":9442:9445   */\n      dup6\n        /* \"#utility.yul\":9435:9439   */\n      0x20\n        /* \"#utility.yul\":9428:9433   */\n      dup7\n        /* \"#utility.yul\":9424:9440   */\n      add\n        /* \"#utility.yul\":9389:9454   */\n      tag_278\n      jump\t// in\n    tag_417:\n        /* \"#utility.yul\":9479:9508   */\n      tag_418\n        /* \"#utility.yul\":9501:9507   */\n      dup2\n        /* \"#utility.yul\":9479:9508   */\n      tag_254\n      jump\t// in\n    tag_418:\n        /* \"#utility.yul\":9474:9477   */\n      dup5\n        /* \"#utility.yul\":9470:9509   */\n      add\n        /* \"#utility.yul\":9463:9509   */\n      swap2\n      pop\n        /* \"#utility.yul\":9230:9515   */\n      pop\n        /* \"#utility.yul\":9138:9515   */\n      swap3\n      swap2\n      pop\n      pop\n      jump\t// out\n        /* \"#utility.yul\":9521:9834   */\n    tag_50:\n        /* \"#utility.yul\":9634:9638   */\n      0x00\n        /* \"#utility.yul\":9672:9674   */\n      0x20\n        /* \"#utility.yul\":9661:9670   */\n      dup3\n        /* \"#utility.yul\":9657:9675   */\n      add\n        /* \"#utility.yul\":9649:9675   */\n      swap1\n      pop\n        /* \"#utility.yul\":9721:9730   */\n      dup2\n        /* \"#utility.yul\":9715:9719   */\n      dup2\n        /* \"#utility.yul\":9711:9731   */\n      sub\n        /* \"#utility.yul\":9707:9708   */\n      0x00\n        /* \"#utility.yul\":9696:9705   */\n      dup4\n        /* \"#utility.yul\":9692:9709   */\n      add\n        /* \"#utility.yul\":9685:9732   */\n      mstore\n        /* \"#utility.yul\":9749:9827   */\n      tag_420\n        /* \"#utility.yul\":9822:9826   */\n      dup2\n        /* \"#utility.yul\":9813:9819   */\n      dup5\n        /* \"#utility.yul\":9749:9827   */\n      tag_279\n      jump\t// in\n    tag_420:\n        /* \"#utility.yul\":9741:9827   */\n      swap1\n      pop\n        /* \"#utility.yul\":9521:9834   */\n      swap3\n      swap2\n      pop\n      pop\n      jump\t// out\n        /* \"#utility.yul\":9840:10459   */\n    tag_54:\n        /* \"#utility.yul\":9917:9923   */\n      0x00\n        /* \"#utility.yul\":9925:9931   */\n      0x00\n        /* \"#utility.yul\":9933:9939   */\n      0x00\n        /* \"#utility.yul\":9982:9984   */\n      0x60\n        /* \"#utility.yul\":9970:9979   */\n      dup5\n        /* \"#utility.yul\":9961:9968   */\n      dup7\n        /* \"#utility.yul\":9957:9980   */\n      sub\n        /* \"#utility.yul\":9953:9985   */\n      slt\n        /* \"#utility.yul\":9950:10069   */\n      iszero\n      tag_422\n      jumpi\n        /* \"#utility.yul\":9988:10067   */\n      tag_423\n      tag_247\n      jump\t// in\n    tag_423:\n        /* \"#utility.yul\":9950:10069   */\n    tag_422:\n        /* \"#utility.yul\":10108:10109   */\n      0x00\n        /* \"#utility.yul\":10133:10186   */\n      tag_424\n        /* \"#utility.yul\":10178:10185   */\n      dup7\n        /* \"#utility.yul\":10169:10175   */\n      dup3\n        /* \"#utility.yul\":10158:10167   */\n      dup8\n        /* \"#utility.yul\":10154:10176   */\n      add\n        /* \"#utility.yul\":10133:10186   */\n      tag_251\n      jump\t// in\n    tag_424:\n        /* \"#utility.yul\":10123:10186   */\n      swap4\n      pop\n        /* \"#utility.yul\":10079:10196   */\n      pop\n        /* \"#utility.yul\":10235:10237   */\n      0x20\n        /* \"#utility.yul\":10261:10314   */\n      tag_425\n        /* \"#utility.yul\":10306:10313   */\n      dup7\n        /* \"#utility.yul\":10297:10303   */\n      dup3\n        /* \"#utility.yul\":10286:10295   */\n      dup8\n        /* \"#utility.yul\":10282:10304   */\n      add\n        /* \"#utility.yul\":10261:10314   */\n      tag_251\n      jump\t// in\n    tag_425:\n        /* \"#utility.yul\":10251:10314   */\n      swap3\n      pop\n        /* \"#utility.yul\":10206:10324   */\n      pop\n        /* \"#utility.yul\":10363:10365   */\n      0x40\n        /* \"#utility.yul\":10389:10442   */\n      tag_426\n        /* \"#utility.yul\":10434:10441   */\n      dup7\n        /* \"#utility.yul\":10425:10431   */\n      dup3\n        /* \"#utility.yul\":10414:10423   */\n      dup8\n        /* \"#utility.yul\":10410:10432   */\n      add\n        /* \"#utility.yul\":10389:10442   */\n      tag_251\n      jump\t// in\n    tag_426:\n        /* \"#utility.yul\":10379:10442   */\n      swap2\n      pop\n        /* \"#utility.yul\":10334:10452   */\n      pop\n        /* \"#utility.yul\":9840:10459   */\n      swap3\n      pop\n      swap3\n      pop\n      swap3\n      jump\t// out\n        /* \"#utility.yul\":10465:10606   */\n    tag_280:\n        /* \"#utility.yul\":10530:10539   */\n      0x00\n        /* \"#utility.yul\":10563:10600   */\n      tag_428\n        /* \"#utility.yul\":10594:10599   */\n      dup3\n        /* \"#utility.yul\":10563:10600   */\n      tag_243\n      jump\t// in\n    tag_428:\n        /* \"#utility.yul\":10550:10600   */\n      swap1\n      pop\n        /* \"#utility.yul\":10465:10606   */\n      swap2\n      swap1\n      pop\n      jump\t// out\n        /* \"#utility.yul\":10612:10773   */\n    tag_281:\n        /* \"#utility.yul\":10714:10766   */\n      tag_430\n        /* \"#utility.yul\":10760:10765   */\n      dup2\n        /* \"#utility.yul\":10714:10766   */\n      tag_280\n      jump\t// in\n    tag_430:\n        /* \"#utility.yul\":10709:10712   */\n      dup3\n        /* \"#utility.yul\":10702:10767   */\n      mstore\n        /* \"#utility.yul\":10612:10773   */\n      pop\n      pop\n      jump\t// out\n        /* \"#utility.yul\":10779:11031   */\n    tag_60:\n        /* \"#utility.yul\":10887:10891   */\n      0x00\n        /* \"#utility.yul\":10925:10927   */\n      0x20\n        /* \"#utility.yul\":10914:10923   */\n      dup3\n        /* \"#utility.yul\":10910:10928   */\n      add\n        /* \"#utility.yul\":10902:10928   */\n      swap1\n      pop\n        /* \"#utility.yul\":10938:11024   */\n      tag_432\n        /* \"#utility.yul\":11021:11022   */\n      0x00\n        /* \"#utility.yul\":11010:11019   */\n      dup4\n        /* \"#utility.yul\":11006:11023   */\n      add\n        /* \"#utility.yul\":10997:11003   */\n      dup5\n        /* \"#utility.yul\":10938:11024   */\n      tag_281\n      jump\t// in\n    tag_432:\n        /* \"#utility.yul\":10779:11031   */\n      swap3\n      swap2\n      pop\n      pop\n      jump\t// out\n        /* \"#utility.yul\":11037:11366   */\n    tag_64:\n        /* \"#utility.yul\":11096:11102   */\n      0x00\n        /* \"#utility.yul\":11145:11147   */\n      0x20\n        /* \"#utility.yul\":11133:11142   */\n      dup3\n        /* \"#utility.yul\":11124:11131   */\n      dup5\n        /* \"#utility.yul\":11120:11143   */\n      sub\n        /* \"#utility.yul\":11116:11148   */\n      slt\n        /* \"#utility.yul\":11113:11232   */\n      iszero\n      tag_434\n      jumpi\n        /* \"#utility.yul\":11151:11230   */\n      tag_435\n      tag_247\n      jump\t// in\n    tag_435:\n        /* \"#utility.yul\":11113:11232   */\n    tag_434:\n        /* \"#utility.yul\":11271:11272   */\n      0x00\n        /* \"#utility.yul\":11296:11349   */\n      tag_436\n        /* \"#utility.yul\":11341:11348   */\n      dup5\n        /* \"#utility.yul\":11332:11338   */\n      dup3\n        /* \"#utility.yul\":11321:11330   */\n      dup6\n        /* \"#utility.yul\":11317:11339   */\n      add\n        /* \"#utility.yul\":11296:11349   */\n      tag_251\n      jump\t// in\n    tag_436:\n        /* \"#utility.yul\":11286:11349   */\n      swap2\n      pop\n        /* \"#utility.yul\":11242:11359   */\n      pop\n        /* \"#utility.yul\":11037:11366   */\n      swap3\n      swap2\n      pop\n      pop\n      jump\t// out\n        /* \"#utility.yul\":11372:11552   */\n    tag_282:\n        /* \"#utility.yul\":11420:11497   */\n      0x4e487b7100000000000000000000000000000000000000000000000000000000\n        /* \"#utility.yul\":11417:11418   */\n      0x00\n        /* \"#utility.yul\":11410:11498   */\n      mstore\n        /* \"#utility.yul\":11517:11521   */\n      0x21\n        /* \"#utility.yul\":11514:11515   */\n      0x04\n        /* \"#utility.yul\":11507:11522   */\n      mstore\n        /* \"#utility.yul\":11541:11545   */\n      0x24\n        /* \"#utility.yul\":11538:11539   */\n      0x00\n        /* \"#utility.yul\":11531:11546   */\n      revert\n        /* \"#utility.yul\":11558:11674   */\n    tag_283:\n        /* \"#utility.yul\":11642:11643   */\n      0x04\n        /* \"#utility.yul\":11635:11640   */\n      dup2\n        /* \"#utility.yul\":11632:11644   */\n      lt\n        /* \"#utility.yul\":11622:11668   */\n      tag_439\n      jumpi\n        /* \"#utility.yul\":11648:11666   */\n      tag_440\n      tag_282\n      jump\t// in\n    tag_440:\n        /* \"#utility.yul\":11622:11668   */\n    tag_439:\n        /* \"#utility.yul\":11558:11674   */\n      pop\n      jump\t// out\n        /* \"#utility.yul\":11680:11813   */\n    tag_284:\n        /* \"#utility.yul\":11728:11735   */\n      0x00\n        /* \"#utility.yul\":11757:11762   */\n      dup2\n        /* \"#utility.yul\":11746:11762   */\n      swap1\n      pop\n        /* \"#utility.yul\":11763:11807   */\n      tag_442\n        /* \"#utility.yul\":11801:11806   */\n      dup3\n        /* \"#utility.yul\":11763:11807   */\n      tag_283\n      jump\t// in\n    tag_442:\n        /* \"#utility.yul\":11680:11813   */\n      swap2\n      swap1\n      pop\n      jump\t// out\n        /* \"#utility.yul\":11819:11952   */\n    tag_285:\n        /* \"#utility.yul\":11878:11887   */\n      0x00\n        /* \"#utility.yul\":11911:11946   */\n      tag_444\n        /* \"#utility.yul\":11940:11945   */\n      dup3\n        /* \"#utility.yul\":11911:11946   */\n      tag_284\n      jump\t// in\n    tag_444:\n        /* \"#utility.yul\":11898:11946   */\n      swap1\n      pop\n        /* \"#utility.yul\":11819:11952   */\n      swap2\n      swap1\n      pop\n      jump\t// out\n        /* \"#utility.yul\":11958:12107   */\n    tag_286:\n        /* \"#utility.yul\":12054:12100   */\n      tag_446\n        /* \"#utility.yul\":12094:12099   */\n      dup2\n        /* \"#utility.yul\":12054:12100   */\n      tag_285\n      jump\t// in\n    tag_446:\n        /* \"#utility.yul\":12049:12052   */\n      dup3\n        /* \"#utility.yul\":12042:12101   */\n      mstore\n        /* \"#utility.yul\":11958:12107   */\n      pop\n      pop\n      jump\t// out\n        /* \"#utility.yul\":12113:12463   */\n    tag_80:\n        /* \"#utility.yul\":12243:12247   */\n      0x00\n        /* \"#utility.yul\":12281:12283   */\n      0x40\n        /* \"#utility.yul\":12270:12279   */\n      dup3\n        /* \"#utility.yul\":12266:12284   */\n      add\n        /* \"#utility.yul\":12258:12284   */\n      swap1\n      pop\n        /* \"#utility.yul\":12294:12365   */\n      tag_448\n        /* \"#utility.yul\":12362:12363   */\n      0x00\n        /* \"#utility.yul\":12351:12360   */\n      dup4\n        /* \"#utility.yul\":12347:12364   */\n      add\n        /* \"#utility.yul\":12338:12344   */\n      dup6\n        /* \"#utility.yul\":12294:12365   */\n      tag_273\n      jump\t// in\n    tag_448:\n        /* \"#utility.yul\":12375:12456   */\n      tag_449\n        /* \"#utility.yul\":12452:12454   */\n      0x20\n        /* \"#utility.yul\":12441:12450   */\n      dup4\n        /* \"#utility.yul\":12437:12455   */\n      add\n        /* \"#utility.yul\":12428:12434   */\n      dup5\n        /* \"#utility.yul\":12375:12456   */\n      tag_286\n      jump\t// in\n    tag_449:\n        /* \"#utility.yul\":12113:12463   */\n      swap4\n      swap3\n      pop\n      pop\n      pop\n      jump\t// out\n        /* \"#utility.yul\":12469:12559   */\n    tag_287:\n        /* \"#utility.yul\":12503:12510   */\n      0x00\n        /* \"#utility.yul\":12546:12551   */\n      dup2\n        /* \"#utility.yul\":12539:12552   */\n      iszero\n        /* \"#utility.yul\":12532:12553   */\n      iszero\n        /* \"#utility.yul\":12521:12553   */\n      swap1\n      pop\n        /* \"#utility.yul\":12469:12559   */\n      swap2\n      swap1\n      pop\n      jump\t// out\n        /* \"#utility.yul\":12565:12681   */\n    tag_288:\n        /* \"#utility.yul\":12635:12656   */\n      tag_452\n        /* \"#utility.yul\":12650:12655   */\n      dup2\n        /* \"#utility.yul\":12635:12656   */\n      tag_287\n      jump\t// in\n    tag_452:\n        /* \"#utility.yul\":12628:12633   */\n      dup2\n        /* \"#utility.yul\":12625:12657   */\n      eq\n        /* \"#utility.yul\":12615:12675   */\n      tag_453\n      jumpi\n        /* \"#utility.yul\":12671:12672   */\n      0x00\n        /* \"#utility.yul\":12668:12669   */\n      0x00\n        /* \"#utility.yul\":12661:12673   */\n      revert\n        /* \"#utility.yul\":12615:12675   */\n    tag_453:\n        /* \"#utility.yul\":12565:12681   */\n      pop\n      jump\t// out\n        /* \"#utility.yul\":12687:12824   */\n    tag_289:\n        /* \"#utility.yul\":12741:12746   */\n      0x00\n        /* \"#utility.yul\":12772:12778   */\n      dup2\n        /* \"#utility.yul\":12766:12779   */\n      mload\n        /* \"#utility.yul\":12757:12779   */\n      swap1\n      pop\n        /* \"#utility.yul\":12788:12818   */\n      tag_455\n        /* \"#utility.yul\":12812:12817   */\n      dup2\n        /* \"#utility.yul\":12788:12818   */\n      tag_288\n      jump\t// in\n    tag_455:\n        /* \"#utility.yul\":12687:12824   */\n      swap3\n      swap2\n      pop\n      pop\n      jump\t// out\n        /* \"#utility.yul\":12830:13175   */\n    tag_84:\n        /* \"#utility.yul\":12897:12903   */\n      0x00\n        /* \"#utility.yul\":12946:12948   */\n      0x20\n        /* \"#utility.yul\":12934:12943   */\n      dup3\n        /* \"#utility.yul\":12925:12932   */\n      dup5\n        /* \"#utility.yul\":12921:12944   */\n      sub\n        /* \"#utility.yul\":12917:12949   */\n      slt\n        /* \"#utility.yul\":12914:13033   */\n      iszero\n      tag_457\n      jumpi\n        /* \"#utility.yul\":12952:13031   */\n      tag_458\n      tag_247\n      jump\t// in\n    tag_458:\n        /* \"#utility.yul\":12914:13033   */\n    tag_457:\n        /* \"#utility.yul\":13072:13073   */\n      0x00\n        /* \"#utility.yul\":13097:13158   */\n      tag_459\n        /* \"#utility.yul\":13150:13157   */\n      dup5\n        /* \"#utility.yul\":13141:13147   */\n      dup3\n        /* \"#utility.yul\":13130:13139   */\n      dup6\n        /* \"#utility.yul\":13126:13148   */\n      add\n        /* \"#utility.yul\":13097:13158   */\n      tag_289\n      jump\t// in\n    tag_459:\n        /* \"#utility.yul\":13087:13158   */\n      swap2\n      pop\n        /* \"#utility.yul\":13043:13168   */\n      pop\n        /* \"#utility.yul\":12830:13175   */\n      swap3\n      swap2\n      pop\n      pop\n      jump\t// out\n        /* \"#utility.yul\":13181:13340   */\n    tag_290:\n        /* \"#utility.yul\":13321:13332   */\n      0x4e6f206163636573730000000000000000000000000000000000000000000000\n        /* \"#utility.yul\":13317:13318   */\n      0x00\n        /* \"#utility.yul\":13309:13315   */\n      dup3\n        /* \"#utility.yul\":13305:13319   */\n      add\n        /* \"#utility.yul\":13298:13333   */\n      mstore\n        /* \"#utility.yul\":13181:13340   */\n      pop\n      jump\t// out\n        /* \"#utility.yul\":13346:13711   */\n    tag_291:\n        /* \"#utility.yul\":13488:13491   */\n      0x00\n        /* \"#utility.yul\":13509:13575   */\n      tag_462\n        /* \"#utility.yul\":13573:13574   */\n      0x09\n        /* \"#utility.yul\":13568:13571   */\n      dup4\n        /* \"#utility.yul\":13509:13575   */\n      tag_277\n      jump\t// in\n    tag_462:\n        /* \"#utility.yul\":13502:13575   */\n      swap2\n      pop\n        /* \"#utility.yul\":13584:13677   */\n      tag_463\n        /* \"#utility.yul\":13673:13676   */\n      dup3\n        /* \"#utility.yul\":13584:13677   */\n      tag_290\n      jump\t// in\n    tag_463:\n        /* \"#utility.yul\":13702:13704   */\n      0x20\n        /* \"#utility.yul\":13697:13700   */\n      dup3\n        /* \"#utility.yul\":13693:13705   */\n      add\n        /* \"#utility.yul\":13686:13705   */\n      swap1\n      pop\n        /* \"#utility.yul\":13346:13711   */\n      swap2\n      swap1\n      pop\n      jump\t// out\n        /* \"#utility.yul\":13717:14136   */\n    tag_87:\n        /* \"#utility.yul\":13883:13887   */\n      0x00\n        /* \"#utility.yul\":13921:13923   */\n      0x20\n        /* \"#utility.yul\":13910:13919   */\n      dup3\n        /* \"#utility.yul\":13906:13924   */\n      add\n        /* \"#utility.yul\":13898:13924   */\n      swap1\n      pop\n        /* \"#utility.yul\":13970:13979   */\n      dup2\n        /* \"#utility.yul\":13964:13968   */\n      dup2\n        /* \"#utility.yul\":13960:13980   */\n      sub\n        /* \"#utility.yul\":13956:13957   */\n      0x00\n        /* \"#utility.yul\":13945:13954   */\n      dup4\n        /* \"#utility.yul\":13941:13958   */\n      add\n        /* \"#utility.yul\":13934:13981   */\n      mstore\n        /* \"#utility.yul\":13998:14129   */\n      tag_465\n        /* \"#utility.yul\":14124:14128   */\n      dup2\n        /* \"#utility.yul\":13998:14129   */\n      tag_291\n      jump\t// in\n    tag_465:\n        /* \"#utility.yul\":13990:14129   */\n      swap1\n      pop\n        /* \"#utility.yul\":13717:14136   */\n      swap2\n      swap1\n      pop\n      jump\t// out\n        /* \"#utility.yul\":14142:14260   */\n    tag_292:\n        /* \"#utility.yul\":14229:14253   */\n      tag_467\n        /* \"#utility.yul\":14247:14252   */\n      dup2\n        /* \"#utility.yul\":14229:14253   */\n      tag_264\n      jump\t// in\n    tag_467:\n        /* \"#utility.yul\":14224:14227   */\n      dup3\n        /* \"#utility.yul\":14217:14254   */\n      mstore\n        /* \"#utility.yul\":14142:14260   */\n      pop\n      pop\n      jump\t// out\n        /* \"#utility.yul\":14266:14488   */\n    tag_89:\n        /* \"#utility.yul\":14359:14363   */\n      0x00\n        /* \"#utility.yul\":14397:14399   */\n      0x20\n        /* \"#utility.yul\":14386:14395   */\n      dup3\n        /* \"#utility.yul\":14382:14400   */\n      add\n        /* \"#utility.yul\":14374:14400   */\n      swap1\n      pop\n        /* \"#utility.yul\":14410:14481   */\n      tag_469\n        /* \"#utility.yul\":14478:14479   */\n      0x00\n        /* \"#utility.yul\":14467:14476   */\n      dup4\n        /* \"#utility.yul\":14463:14480   */\n      add\n        /* \"#utility.yul\":14454:14460   */\n      dup5\n        /* \"#utility.yul\":14410:14481   */\n      tag_292\n      jump\t// in\n    tag_469:\n        /* \"#utility.yul\":14266:14488   */\n      swap3\n      swap2\n      pop\n      pop\n      jump\t// out\n        /* \"#utility.yul\":14494:14637   */\n    tag_293:\n        /* \"#utility.yul\":14551:14556   */\n      0x00\n        /* \"#utility.yul\":14582:14588   */\n      dup2\n        /* \"#utility.yul\":14576:14589   */\n      mload\n        /* \"#utility.yul\":14567:14589   */\n      swap1\n      pop\n        /* \"#utility.yul\":14598:14631   */\n      tag_471\n        /* \"#utility.yul\":14625:14630   */\n      dup2\n        /* \"#utility.yul\":14598:14631   */\n      tag_265\n      jump\t// in\n    tag_471:\n        /* \"#utility.yul\":14494:14637   */\n      swap3\n      swap2\n      pop\n      pop\n      jump\t// out\n        /* \"#utility.yul\":14643:14994   */\n    tag_93:\n        /* \"#utility.yul\":14713:14719   */\n      0x00\n        /* \"#utility.yul\":14762:14764   */\n      0x20\n        /* \"#utility.yul\":14750:14759   */\n      dup3\n        /* \"#utility.yul\":14741:14748   */\n      dup5\n        /* \"#utility.yul\":14737:14760   */\n      sub\n        /* \"#utility.yul\":14733:14765   */\n      slt\n        /* \"#utility.yul\":14730:14849   */\n      iszero\n      tag_473\n      jumpi\n        /* \"#utility.yul\":14768:14847   */\n      tag_474\n      tag_247\n      jump\t// in\n    tag_474:\n        /* \"#utility.yul\":14730:14849   */\n    tag_473:\n        /* \"#utility.yul\":14888:14889   */\n      0x00\n        /* \"#utility.yul\":14913:14977   */\n      tag_475\n        /* \"#utility.yul\":14969:14976   */\n      dup5\n        /* \"#utility.yul\":14960:14966   */\n      dup3\n        /* \"#utility.yul\":14949:14958   */\n      dup6\n        /* \"#utility.yul\":14945:14967   */\n      add\n        /* \"#utility.yul\":14913:14977   */\n      tag_293\n      jump\t// in\n    tag_475:\n        /* \"#utility.yul\":14903:14977   */\n      swap2\n      pop\n        /* \"#utility.yul\":14859:14987   */\n      pop\n        /* \"#utility.yul\":14643:14994   */\n      swap3\n      swap2\n      pop\n      pop\n      jump\t// out\n        /* \"#utility.yul\":15000:15442   */\n    tag_95:\n        /* \"#utility.yul\":15149:15153   */\n      0x00\n        /* \"#utility.yul\":15187:15189   */\n      0x60\n        /* \"#utility.yul\":15176:15185   */\n      dup3\n        /* \"#utility.yul\":15172:15190   */\n      add\n        /* \"#utility.yul\":15164:15190   */\n      swap1\n      pop\n        /* \"#utility.yul\":15200:15271   */\n      tag_477\n        /* \"#utility.yul\":15268:15269   */\n      0x00\n        /* \"#utility.yul\":15257:15266   */\n      dup4\n        /* \"#utility.yul\":15253:15270   */\n      add\n        /* \"#utility.yul\":15244:15250   */\n      dup7\n        /* \"#utility.yul\":15200:15271   */\n      tag_273\n      jump\t// in\n    tag_477:\n        /* \"#utility.yul\":15281:15353   */\n      tag_478\n        /* \"#utility.yul\":15349:15351   */\n      0x20\n        /* \"#utility.yul\":15338:15347   */\n      dup4\n        /* \"#utility.yul\":15334:15352   */\n      add\n        /* \"#utility.yul\":15325:15331   */\n      dup6\n        /* \"#utility.yul\":15281:15353   */\n      tag_292\n      jump\t// in\n    tag_478:\n        /* \"#utility.yul\":15363:15435   */\n      tag_479\n        /* \"#utility.yul\":15431:15433   */\n      0x40\n        /* \"#utility.yul\":15420:15429   */\n      dup4\n        /* \"#utility.yul\":15416:15434   */\n      add\n        /* \"#utility.yul\":15407:15413   */\n      dup5\n        /* \"#utility.yul\":15363:15435   */\n      tag_292\n      jump\t// in\n    tag_479:\n        /* \"#utility.yul\":15000:15442   */\n      swap5\n      swap4\n      pop\n      pop\n      pop\n      pop\n      jump\t// out\n        /* \"#utility.yul\":15448:15628   */\n    tag_294:\n        /* \"#utility.yul\":15496:15573   */\n      0x4e487b7100000000000000000000000000000000000000000000000000000000\n        /* \"#utility.yul\":15493:15494   */\n      0x00\n        /* \"#utility.yul\":15486:15574   */\n      mstore\n        /* \"#utility.yul\":15593:15597   */\n      0x11\n        /* \"#utility.yul\":15590:15591   */\n      0x04\n        /* \"#utility.yul\":15583:15598   */\n      mstore\n        /* \"#utility.yul\":15617:15621   */\n      0x24\n        /* \"#utility.yul\":15614:15615   */\n      0x00\n        /* \"#utility.yul\":15607:15622   */\n      revert\n        /* \"#utility.yul\":15634:16044   */\n    tag_103:\n        /* \"#utility.yul\":15674:15681   */\n      0x00\n        /* \"#utility.yul\":15697:15717   */\n      tag_482\n        /* \"#utility.yul\":15715:15716   */\n      dup3\n        /* \"#utility.yul\":15697:15717   */\n      tag_264\n      jump\t// in\n    tag_482:\n        /* \"#utility.yul\":15692:15717   */\n      swap2\n      pop\n        /* \"#utility.yul\":15731:15751   */\n      tag_483\n        /* \"#utility.yul\":15749:15750   */\n      dup4\n        /* \"#utility.yul\":15731:15751   */\n      tag_264\n      jump\t// in\n    tag_483:\n        /* \"#utility.yul\":15726:15751   */\n      swap3\n      pop\n        /* \"#utility.yul\":15786:15787   */\n      dup3\n        /* \"#utility.yul\":15783:15784   */\n      dup3\n        /* \"#utility.yul\":15779:15788   */\n      mul\n        /* \"#utility.yul\":15808:15838   */\n      tag_484\n        /* \"#utility.yul\":15826:15837   */\n      dup2\n        /* \"#utility.yul\":15808:15838   */\n      tag_264\n      jump\t// in\n    tag_484:\n        /* \"#utility.yul\":15797:15838   */\n      swap2\n      pop\n        /* \"#utility.yul\":15987:15988   */\n      dup3\n        /* \"#utility.yul\":15978:15985   */\n      dup3\n        /* \"#utility.yul\":15974:15989   */\n      div\n        /* \"#utility.yul\":15971:15972   */\n      dup5\n        /* \"#utility.yul\":15968:15990   */\n      eq\n        /* \"#utility.yul\":15948:15949   */\n      dup4\n        /* \"#utility.yul\":15941:15950   */\n      iszero\n        /* \"#utility.yul\":15921:16004   */\n      or\n        /* \"#utility.yul\":15898:16037   */\n      tag_485\n      jumpi\n        /* \"#utility.yul\":16017:16035   */\n      tag_486\n      tag_294\n      jump\t// in\n    tag_486:\n        /* \"#utility.yul\":15898:16037   */\n    tag_485:\n        /* \"#utility.yul\":15682:16044   */\n      pop\n        /* \"#utility.yul\":15634:16044   */\n      swap3\n      swap2\n      pop\n      pop\n      jump\t// out\n        /* \"#utility.yul\":16050:16230   */\n    tag_295:\n        /* \"#utility.yul\":16098:16175   */\n      0x4e487b7100000000000000000000000000000000000000000000000000000000\n        /* \"#utility.yul\":16095:16096   */\n      0x00\n        /* \"#utility.yul\":16088:16176   */\n      mstore\n        /* \"#utility.yul\":16195:16199   */\n      0x12\n        /* \"#utility.yul\":16192:16193   */\n      0x04\n        /* \"#utility.yul\":16185:16200   */\n      mstore\n        /* \"#utility.yul\":16219:16223   */\n      0x24\n        /* \"#utility.yul\":16216:16217   */\n      0x00\n        /* \"#utility.yul\":16209:16224   */\n      revert\n        /* \"#utility.yul\":16236:16421   */\n    tag_105:\n        /* \"#utility.yul\":16276:16277   */\n      0x00\n        /* \"#utility.yul\":16293:16313   */\n      tag_489\n        /* \"#utility.yul\":16311:16312   */\n      dup3\n        /* \"#utility.yul\":16293:16313   */\n      tag_264\n      jump\t// in\n    tag_489:\n        /* \"#utility.yul\":16288:16313   */\n      swap2\n      pop\n        /* \"#utility.yul\":16327:16347   */\n      tag_490\n        /* \"#utility.yul\":16345:16346   */\n      dup4\n        /* \"#utility.yul\":16327:16347   */\n      tag_264\n      jump\t// in\n    tag_490:\n        /* \"#utility.yul\":16322:16347   */\n      swap3\n      pop\n        /* \"#utility.yul\":16366:16367   */\n      dup3\n        /* \"#utility.yul\":16356:16391   */\n      tag_491\n      jumpi\n        /* \"#utility.yul\":16371:16389   */\n      tag_492\n      tag_295\n      jump\t// in\n    tag_492:\n        /* \"#utility.yul\":16356:16391   */\n    tag_491:\n        /* \"#utility.yul\":16413:16414   */\n      dup3\n        /* \"#utility.yul\":16410:16411   */\n      dup3\n        /* \"#utility.yul\":16406:16415   */\n      div\n        /* \"#utility.yul\":16401:16415   */\n      swap1\n      pop\n        /* \"#utility.yul\":16236:16421   */\n      swap3\n      swap2\n      pop\n      pop\n      jump\t// out\n        /* \"#utility.yul\":16427:16542   */\n    tag_296:\n        /* \"#utility.yul\":16512:16535   */\n      tag_494\n        /* \"#utility.yul\":16529:16534   */\n      dup2\n        /* \"#utility.yul\":16512:16535   */\n      tag_267\n      jump\t// in\n    tag_494:\n        /* \"#utility.yul\":16507:16510   */\n      dup3\n        /* \"#utility.yul\":16500:16536   */\n      mstore\n        /* \"#utility.yul\":16427:16542   */\n      pop\n      pop\n      jump\t// out\n        /* \"#utility.yul\":16572:16889   */\n    tag_297:\n        /* \"#utility.yul\":16670:16673   */\n      0x00\n        /* \"#utility.yul\":16691:16762   */\n      tag_496\n        /* \"#utility.yul\":16755:16761   */\n      dup4\n        /* \"#utility.yul\":16750:16753   */\n      dup6\n        /* \"#utility.yul\":16691:16762   */\n      tag_277\n      jump\t// in\n    tag_496:\n        /* \"#utility.yul\":16684:16762   */\n      swap4\n      pop\n        /* \"#utility.yul\":16772:16828   */\n      tag_497\n        /* \"#utility.yul\":16821:16827   */\n      dup4\n        /* \"#utility.yul\":16816:16819   */\n      dup6\n        /* \"#utility.yul\":16809:16814   */\n      dup5\n        /* \"#utility.yul\":16772:16828   */\n      tag_259\n      jump\t// in\n    tag_497:\n        /* \"#utility.yul\":16853:16882   */\n      tag_498\n        /* \"#utility.yul\":16875:16881   */\n      dup4\n        /* \"#utility.yul\":16853:16882   */\n      tag_254\n      jump\t// in\n    tag_498:\n        /* \"#utility.yul\":16848:16851   */\n      dup5\n        /* \"#utility.yul\":16844:16883   */\n      add\n        /* \"#utility.yul\":16837:16883   */\n      swap1\n      pop\n        /* \"#utility.yul\":16572:16889   */\n      swap4\n      swap3\n      pop\n      pop\n      pop\n      jump\t// out\n        /* \"#utility.yul\":16895:17888   */\n    tag_107:\n        /* \"#utility.yul\":17184:17188   */\n      0x00\n        /* \"#utility.yul\":17222:17225   */\n      0xe0\n        /* \"#utility.yul\":17211:17220   */\n      dup3\n        /* \"#utility.yul\":17207:17226   */\n      add\n        /* \"#utility.yul\":17199:17226   */\n      swap1\n      pop\n        /* \"#utility.yul\":17236:17305   */\n      tag_500\n        /* \"#utility.yul\":17302:17303   */\n      0x00\n        /* \"#utility.yul\":17291:17300   */\n      dup4\n        /* \"#utility.yul\":17287:17304   */\n      add\n        /* \"#utility.yul\":17278:17284   */\n      dup12\n        /* \"#utility.yul\":17236:17305   */\n      tag_296\n      jump\t// in\n    tag_500:\n        /* \"#utility.yul\":17315:17387   */\n      tag_501\n        /* \"#utility.yul\":17383:17385   */\n      0x20\n        /* \"#utility.yul\":17372:17381   */\n      dup4\n        /* \"#utility.yul\":17368:17386   */\n      add\n        /* \"#utility.yul\":17359:17365   */\n      dup11\n        /* \"#utility.yul\":17315:17387   */\n      tag_273\n      jump\t// in\n    tag_501:\n        /* \"#utility.yul\":17397:17469   */\n      tag_502\n        /* \"#utility.yul\":17465:17467   */\n      0x40\n        /* \"#utility.yul\":17454:17463   */\n      dup4\n        /* \"#utility.yul\":17450:17468   */\n      add\n        /* \"#utility.yul\":17441:17447   */\n      dup10\n        /* \"#utility.yul\":17397:17469   */\n      tag_292\n      jump\t// in\n    tag_502:\n        /* \"#utility.yul\":17479:17551   */\n      tag_503\n        /* \"#utility.yul\":17547:17549   */\n      0x60\n        /* \"#utility.yul\":17536:17545   */\n      dup4\n        /* \"#utility.yul\":17532:17550   */\n      add\n        /* \"#utility.yul\":17523:17529   */\n      dup9\n        /* \"#utility.yul\":17479:17551   */\n      tag_292\n      jump\t// in\n    tag_503:\n        /* \"#utility.yul\":17561:17634   */\n      tag_504\n        /* \"#utility.yul\":17629:17632   */\n      0x80\n        /* \"#utility.yul\":17618:17627   */\n      dup4\n        /* \"#utility.yul\":17614:17633   */\n      add\n        /* \"#utility.yul\":17605:17611   */\n      dup8\n        /* \"#utility.yul\":17561:17634   */\n      tag_292\n      jump\t// in\n    tag_504:\n        /* \"#utility.yul\":17682:17691   */\n      dup2\n        /* \"#utility.yul\":17676:17680   */\n      dup2\n        /* \"#utility.yul\":17672:17692   */\n      sub\n        /* \"#utility.yul\":17666:17669   */\n      0xa0\n        /* \"#utility.yul\":17655:17664   */\n      dup4\n        /* \"#utility.yul\":17651:17670   */\n      add\n        /* \"#utility.yul\":17644:17693   */\n      mstore\n        /* \"#utility.yul\":17710:17798   */\n      tag_505\n        /* \"#utility.yul\":17793:17797   */\n      dup2\n        /* \"#utility.yul\":17784:17790   */\n      dup6\n        /* \"#utility.yul\":17776:17782   */\n      dup8\n        /* \"#utility.yul\":17710:17798   */\n      tag_297\n      jump\t// in\n    tag_505:\n        /* \"#utility.yul\":17702:17798   */\n      swap1\n      pop\n        /* \"#utility.yul\":17808:17881   */\n      tag_506\n        /* \"#utility.yul\":17876:17879   */\n      0xc0\n        /* \"#utility.yul\":17865:17874   */\n      dup4\n        /* \"#utility.yul\":17861:17880   */\n      add\n        /* \"#utility.yul\":17852:17858   */\n      dup5\n        /* \"#utility.yul\":17808:17881   */\n      tag_273\n      jump\t// in\n    tag_506:\n        /* \"#utility.yul\":16895:17888   */\n      swap10\n      swap9\n      pop\n      pop\n      pop\n      pop\n      pop\n      pop\n      pop\n      pop\n      pop\n      jump\t// out\n        /* \"#utility.yul\":17894:17979   */\n    tag_298:\n        /* \"#utility.yul\":17939:17946   */\n      0x00\n        /* \"#utility.yul\":17968:17973   */\n      dup2\n        /* \"#utility.yul\":17957:17973   */\n      swap1\n      pop\n        /* \"#utility.yul\":17894:17979   */\n      swap2\n      swap1\n      pop\n      jump\t// out\n        /* \"#utility.yul\":17985:18086   */\n    tag_299:\n        /* \"#utility.yul\":18021:18028   */\n      0x00\n        /* \"#utility.yul\":18061:18079   */\n      0xffffffffffffffff\n        /* \"#utility.yul\":18054:18059   */\n      dup3\n        /* \"#utility.yul\":18050:18080   */\n      and\n        /* \"#utility.yul\":18039:18080   */\n      swap1\n      pop\n        /* \"#utility.yul\":17985:18086   */\n      swap2\n      swap1\n      pop\n      jump\t// out\n        /* \"#utility.yul\":18092:18248   */\n    tag_300:\n        /* \"#utility.yul\":18149:18158   */\n      0x00\n        /* \"#utility.yul\":18182:18242   */\n      tag_510\n        /* \"#utility.yul\":18199:18241   */\n      tag_511\n        /* \"#utility.yul\":18208:18240   */\n      tag_512\n        /* \"#utility.yul\":18234:18239   */\n      dup5\n        /* \"#utility.yul\":18208:18240   */\n      tag_298\n      jump\t// in\n    tag_512:\n        /* \"#utility.yul\":18199:18241   */\n      tag_241\n      jump\t// in\n    tag_511:\n        /* \"#utility.yul\":18182:18242   */\n      tag_299\n      jump\t// in\n    tag_510:\n        /* \"#utility.yul\":18169:18242   */\n      swap1\n      pop\n        /* \"#utility.yul\":18092:18248   */\n      swap2\n      swap1\n      pop\n      jump\t// out\n        /* \"#utility.yul\":18254:18399   */\n    tag_301:\n        /* \"#utility.yul\":18348:18392   */\n      tag_514\n        /* \"#utility.yul\":18386:18391   */\n      dup2\n        /* \"#utility.yul\":18348:18392   */\n      tag_300\n      jump\t// in\n    tag_514:\n        /* \"#utility.yul\":18343:18346   */\n      dup3\n        /* \"#utility.yul\":18336:18393   */\n      mstore\n        /* \"#utility.yul\":18254:18399   */\n      pop\n      pop\n      jump\t// out\n        /* \"#utility.yul\":18405:18641   */\n    tag_135:\n        /* \"#utility.yul\":18505:18509   */\n      0x00\n        /* \"#utility.yul\":18543:18545   */\n      0x20\n        /* \"#utility.yul\":18532:18541   */\n      dup3\n        /* \"#utility.yul\":18528:18546   */\n      add\n        /* \"#utility.yul\":18520:18546   */\n      swap1\n      pop\n        /* \"#utility.yul\":18556:18634   */\n      tag_516\n        /* \"#utility.yul\":18631:18632   */\n      0x00\n        /* \"#utility.yul\":18620:18629   */\n      dup4\n        /* \"#utility.yul\":18616:18633   */\n      add\n        /* \"#utility.yul\":18607:18613   */\n      dup5\n        /* \"#utility.yul\":18556:18634   */\n      tag_301\n      jump\t// in\n    tag_516:\n        /* \"#utility.yul\":18405:18641   */\n      swap3\n      swap2\n      pop\n      pop\n      jump\t// out\n        /* \"#utility.yul\":18647:18769   */\n    tag_302:\n        /* \"#utility.yul\":18720:18744   */\n      tag_518\n        /* \"#utility.yul\":18738:18743   */\n      dup2\n        /* \"#utility.yul\":18720:18744   */\n      tag_262\n      jump\t// in\n    tag_518:\n        /* \"#utility.yul\":18713:18718   */\n      dup2\n        /* \"#utility.yul\":18710:18745   */\n      eq\n        /* \"#utility.yul\":18700:18763   */\n      tag_519\n      jumpi\n        /* \"#utility.yul\":18759:18760   */\n      0x00\n        /* \"#utility.yul\":18756:18757   */\n      0x00\n        /* \"#utility.yul\":18749:18761   */\n      revert\n        /* \"#utility.yul\":18700:18763   */\n    tag_519:\n        /* \"#utility.yul\":18647:18769   */\n      pop\n      jump\t// out\n        /* \"#utility.yul\":18775:18918   */\n    tag_303:\n        /* \"#utility.yul\":18832:18837   */\n      0x00\n        /* \"#utility.yul\":18863:18869   */\n      dup2\n        /* \"#utility.yul\":18857:18870   */\n      mload\n        /* \"#utility.yul\":18848:18870   */\n      swap1\n      pop\n        /* \"#utility.yul\":18879:18912   */\n      tag_521\n        /* \"#utility.yul\":18906:18911   */\n      dup2\n        /* \"#utility.yul\":18879:18912   */\n      tag_302\n      jump\t// in\n    tag_521:\n        /* \"#utility.yul\":18775:18918   */\n      swap3\n      swap2\n      pop\n      pop\n      jump\t// out\n        /* \"#utility.yul\":18924:19275   */\n    tag_153:\n        /* \"#utility.yul\":18994:19000   */\n      0x00\n        /* \"#utility.yul\":19043:19045   */\n      0x20\n        /* \"#utility.yul\":19031:19040   */\n      dup3\n        /* \"#utility.yul\":19022:19029   */\n      dup5\n        /* \"#utility.yul\":19018:19041   */\n      sub\n        /* \"#utility.yul\":19014:19046   */\n      slt\n        /* \"#utility.yul\":19011:19130   */\n      iszero\n      tag_523\n      jumpi\n        /* \"#utility.yul\":19049:19128   */\n      tag_524\n      tag_247\n      jump\t// in\n    tag_524:\n        /* \"#utility.yul\":19011:19130   */\n    tag_523:\n        /* \"#utility.yul\":19169:19170   */\n      0x00\n        /* \"#utility.yul\":19194:19258   */\n      tag_525\n        /* \"#utility.yul\":19250:19257   */\n      dup5\n        /* \"#utility.yul\":19241:19247   */\n      dup3\n        /* \"#utility.yul\":19230:19239   */\n      dup6\n        /* \"#utility.yul\":19226:19248   */\n      add\n        /* \"#utility.yul\":19194:19258   */\n      tag_303\n      jump\t// in\n    tag_525:\n        /* \"#utility.yul\":19184:19258   */\n      swap2\n      pop\n        /* \"#utility.yul\":19140:19268   */\n      pop\n        /* \"#utility.yul\":18924:19275   */\n      swap3\n      swap2\n      pop\n      pop\n      jump\t// out\n        /* \"#utility.yul\":19281:19379   */\n    tag_304:\n        /* \"#utility.yul\":19332:19338   */\n      0x00\n        /* \"#utility.yul\":19366:19371   */\n      dup2\n        /* \"#utility.yul\":19360:19372   */\n      mload\n        /* \"#utility.yul\":19350:19372   */\n      swap1\n      pop\n        /* \"#utility.yul\":19281:19379   */\n      swap2\n      swap1\n      pop\n      jump\t// out\n        /* \"#utility.yul\":19385:19532   */\n    tag_305:\n        /* \"#utility.yul\":19486:19497   */\n      0x00\n        /* \"#utility.yul\":19523:19526   */\n      dup2\n        /* \"#utility.yul\":19508:19526   */\n      swap1\n      pop\n        /* \"#utility.yul\":19385:19532   */\n      swap3\n      swap2\n      pop\n      pop\n      jump\t// out\n        /* \"#utility.yul\":19538:19924   */\n    tag_306:\n        /* \"#utility.yul\":19642:19645   */\n      0x00\n        /* \"#utility.yul\":19670:19708   */\n      tag_529\n        /* \"#utility.yul\":19702:19707   */\n      dup3\n        /* \"#utility.yul\":19670:19708   */\n      tag_304\n      jump\t// in\n    tag_529:\n        /* \"#utility.yul\":19724:19812   */\n      tag_530\n        /* \"#utility.yul\":19805:19811   */\n      dup2\n        /* \"#utility.yul\":19800:19803   */\n      dup6\n        /* \"#utility.yul\":19724:19812   */\n      tag_305\n      jump\t// in\n    tag_530:\n        /* \"#utility.yul\":19717:19812   */\n      swap4\n      pop\n        /* \"#utility.yul\":19821:19886   */\n      tag_531\n        /* \"#utility.yul\":19879:19885   */\n      dup2\n        /* \"#utility.yul\":19874:19877   */\n      dup6\n        /* \"#utility.yul\":19867:19871   */\n      0x20\n        /* \"#utility.yul\":19860:19865   */\n      dup7\n        /* \"#utility.yul\":19856:19872   */\n      add\n        /* \"#utility.yul\":19821:19886   */\n      tag_278\n      jump\t// in\n    tag_531:\n        /* \"#utility.yul\":19911:19917   */\n      dup1\n        /* \"#utility.yul\":19906:19909   */\n      dup5\n        /* \"#utility.yul\":19902:19918   */\n      add\n        /* \"#utility.yul\":19895:19918   */\n      swap2\n      pop\n        /* \"#utility.yul\":19646:19924   */\n      pop\n        /* \"#utility.yul\":19538:19924   */\n      swap3\n      swap2\n      pop\n      pop\n      jump\t// out\n        /* \"#utility.yul\":19930:20201   */\n    tag_219:\n        /* \"#utility.yul\":20060:20063   */\n      0x00\n        /* \"#utility.yul\":20082:20175   */\n      tag_533\n        /* \"#utility.yul\":20171:20174   */\n      dup3\n        /* \"#utility.yul\":20162:20168   */\n      dup5\n        /* \"#utility.yul\":20082:20175   */\n      tag_306\n      jump\t// in\n    tag_533:\n        /* \"#utility.yul\":20075:20175   */\n      swap2\n      pop\n        /* \"#utility.yul\":20192:20195   */\n      dup2\n        /* \"#utility.yul\":20185:20195   */\n      swap1\n      pop\n        /* \"#utility.yul\":19930:20201   */\n      swap3\n      swap2\n      pop\n      pop\n      jump\t// out\n\n    auxdata: 0xa2646970667358221220ce9f7c28e7b7740130d3050251d8a76b7f449e5b2120e67fee79a133575f784164736f6c634300081e0033\n}\n",
				"bytecode": {
					"linkReferences": {},
					"object": "60a06040523073ffffffffffffffffffffffffffffffffffffffff1660809073ffffffffffffffffffffffffffffffffffffffff168152503480156041575f5ffd5b50608051611c716100685f395f8181610997015281816109ec0152610ba60152611c715ff3fe60806040526004361061009b575f3560e01c80638da5cb5b116100635780638da5cb5b1461014d578063ab8c71c014610177578063ad3cb1cc146101a1578063c0c53b8b146101cb578063f24ccbfe146101f3578063f2fde38b1461021d5761009b565b80630f4ef8a61461009f5780634f1ef286146100c957806352d1902d146100e55780636d5881c81461010f578063715018a614610137575b5f5ffd5b3480156100aa575f5ffd5b506100b3610245565b6040516100c0919061128b565b60405180910390f35b6100e360048036038101906100de919061142c565b61026a565b005b3480156100f0575f5ffd5b506100f9610289565b604051610106919061149e565b60405180910390f35b34801561011a575f5ffd5b5061013560048036038101906101309190611582565b6102ba565b005b348015610142575f5ffd5b5061014b6105fd565b005b348015610158575f5ffd5b50610161610610565b60405161016e9190611627565b60405180910390f35b348015610182575f5ffd5b5061018b610645565b6040516101989190611660565b60405180910390f35b3480156101ac575f5ffd5b506101b5610669565b6040516101c291906116d9565b60405180910390f35b3480156101d6575f5ffd5b506101f160048036038101906101ec91906116f9565b6106a2565b005b3480156101fe575f5ffd5b506102076108ec565b6040516102149190611769565b60405180910390f35b348015610228575f5ffd5b50610243600480360381019061023e9190611782565b610911565b005b60015f9054906101000a900473ffffffffffffffffffffffffffffffffffffffff1681565b610272610995565b61027b82610a7b565b6102858282610a86565b5050565b5f610292610ba4565b7f360894a13ba1a3210667c828492db98dca3e2076cc3735a920a3ca505d382bbc5f1b905090565b5f5f9054906101000a900473ffffffffffffffffffffffffffffffffffffffff1673ffffffffffffffffffffffffffffffffffffffff1663a1b1cb43335f6040518363ffffffff1660e01b8152600401610315929190611820565b602060405180830381865afa158015610330573d5f5f3e3d5ffd5b505050506040513d601f19601f82011682018060405250810190610354919061187c565b610393576040517f08c379a000000000000000000000000000000000000000000000000000000000815260040161038a906118f1565b60405180910390fd5b5f60015f9054906101000a900473ffffffffffffffffffffffffffffffffffffffff1673ffffffffffffffffffffffffffffffffffffffff1663d2d7231f876040518263ffffffff1660e01b81526004016103ee919061191e565b602060405180830381865afa158015610409573d5f5f3e3d5ffd5b505050506040513d601f19601f8201168201806040525081019061042d919061194b565b905060015f9054906101000a900473ffffffffffffffffffffffffffffffffffffffff1673ffffffffffffffffffffffffffffffffffffffff1663de5b71f78888846040518463ffffffff1660e01b815260040161048d93929190611976565b5f604051808303815f87803b1580156104a4575f5ffd5b505af11580156104b6573d5f5f3e3d5ffd5b5050505060025f9054906101000a900473ffffffffffffffffffffffffffffffffffffffff1673ffffffffffffffffffffffffffffffffffffffff166383dc65f286898961271060015f9054906101000a900473ffffffffffffffffffffffffffffffffffffffff1673ffffffffffffffffffffffffffffffffffffffff166326232a2e6040518163ffffffff1660e01b8152600401602060405180830381865afa158015610567573d5f5f3e3d5ffd5b505050506040513d601f19601f8201168201806040525081019061058b919061194b565b8c61059691906119d8565b6105a09190611a46565b868a8a8a6040518963ffffffff1660e01b81526004016105c7989796959493929190611ab1565b5f604051808303815f87803b1580156105de575f5ffd5b505af11580156105f0573d5f5f3e3d5ffd5b5050505050505050505050565b610605610c2b565b61060e5f610cb2565b565b5f5f61061a610d83565b9050805f015f9054906101000a900473ffffffffffffffffffffffffffffffffffffffff1691505090565b5f5f9054906101000a900473ffffffffffffffffffffffffffffffffffffffff1681565b6040518060400160405280600581526020017f352e302e3000000000000000000000000000000000000000000000000000000081525081565b5f6106ab610daa565b90505f815f0160089054906101000a900460ff161590505f825f015f9054906101000a900467ffffffffffffffff1690505f5f8267ffffffffffffffff161480156106f35750825b90505f60018367ffffffffffffffff1614801561072657505f3073ffffffffffffffffffffffffffffffffffffffff163b145b905081158015610734575080155b1561076b576040517ff92ee8a900000000000000000000000000000000000000000000000000000000815260040160405180910390fd5b6001855f015f6101000a81548167ffffffffffffffff021916908367ffffffffffffffff16021790555083156107b8576001855f0160086101000a81548160ff0219169083151502179055505b6107c133610dbd565b6107c9610dd1565b875f5f6101000a81548173ffffffffffffffffffffffffffffffffffffffff021916908373ffffffffffffffffffffffffffffffffffffffff1602179055508660015f6101000a81548173ffffffffffffffffffffffffffffffffffffffff021916908373ffffffffffffffffffffffffffffffffffffffff1602179055508560025f6101000a81548173ffffffffffffffffffffffffffffffffffffffff021916908373ffffffffffffffffffffffffffffffffffffffff16021790555083156108e2575f855f0160086101000a81548160ff0219169083151502179055507fc7f505b2f371ae2175ee4913f4499e1f2633a7b5936321eed1cdaeb6115181d260016040516108d99190611b73565b60405180910390a15b5050505050505050565b60025f9054906101000a900473ffffffffffffffffffffffffffffffffffffffff1681565b610919610c2b565b5f73ffffffffffffffffffffffffffffffffffffffff168173ffffffffffffffffffffffffffffffffffffffff1603610989575f6040517f1e4fbdf70000000000000000000000000000000000000000000000000000000081526004016109809190611627565b60405180910390fd5b61099281610cb2565b50565b7f000000000000000000000000000000000000000000000000000000000000000073ffffffffffffffffffffffffffffffffffffffff163073ffffffffffffffffffffffffffffffffffffffff161480610a4257507f000000000000000000000000000000000000000000000000000000000000000073ffffffffffffffffffffffffffffffffffffffff16610a29610ddb565b73ffffffffffffffffffffffffffffffffffffffff1614155b15610a79576040517fe07c8dba00000000000000000000000000000000000000000000000000000000815260040160405180910390fd5b565b610a83610c2b565b50565b8173ffffffffffffffffffffffffffffffffffffffff166352d1902d6040518163ffffffff1660e01b8152600401602060405180830381865afa925050508015610aee57506040513d601f19601f82011682018060405250810190610aeb9190611bb6565b60015b610b2f57816040517f4c9c8ce3000000000000000000000000000000000000000000000000000000008152600401610b269190611627565b60405180910390fd5b7f360894a13ba1a3210667c828492db98dca3e2076cc3735a920a3ca505d382bbc5f1b8114610b9557806040517faa1d49a4000000000000000000000000000000000000000000000000000000008152600401610b8c919061149e565b60405180910390fd5b610b9f8383610e2e565b505050565b7f000000000000000000000000000000000000000000000000000000000000000073ffffffffffffffffffffffffffffffffffffffff163073ffffffffffffffffffffffffffffffffffffffff1614610c29576040517fe07c8dba00000000000000000000000000000000000000000000000000000000815260040160405180910390fd5b565b610c33610ea0565b73ffffffffffffffffffffffffffffffffffffffff16610c51610610565b73ffffffffffffffffffffffffffffffffffffffff1614610cb057610c74610ea0565b6040517f118cdaa7000000000000000000000000000000000000000000000000000000008152600401610ca79190611627565b60405180910390fd5b565b5f610cbb610d83565b90505f815f015f9054906101000a900473ffffffffffffffffffffffffffffffffffffffff16905082825f015f6101000a81548173ffffffffffffffffffffffffffffffffffffffff021916908373ffffffffffffffffffffffffffffffffffffffff1602179055508273ffffffffffffffffffffffffffffffffffffffff168173ffffffffffffffffffffffffffffffffffffffff167f8be0079c531659141344cd1fd0a4f28419497f9722a3daafe3b4186f6b6457e060405160405180910390a3505050565b5f7f9016d09d72d40fdae2fd8ceac6b6234c7706214fd39c1cd1e609a0528c199300905090565b5f5f610db4610ea7565b90508091505090565b610dc5610ed0565b610dce81610f10565b50565b610dd9610ed0565b565b5f610e077f360894a13ba1a3210667c828492db98dca3e2076cc3735a920a3ca505d382bbc5f1b610f94565b5f015f9054906101000a900473ffffffffffffffffffffffffffffffffffffffff16905090565b610e3782610f9d565b8173ffffffffffffffffffffffffffffffffffffffff167fbc7cd75a20ee27fd9adebab32041f755214dbc6bffa90cc0225b39da2e5c2d3b60405160405180910390a25f81511115610e9357610e8d8282611066565b50610e9c565b610e9b6110e6565b5b5050565b5f33905090565b5f7ff0c57e16840df040f15088dc2f81fe391c3923bec73e23a9662efc9c229c6a005f1b905090565b610ed8611122565b610f0e576040517fd7e6bcf800000000000000000000000000000000000000000000000000000000815260040160405180910390fd5b565b610f18610ed0565b5f73ffffffffffffffffffffffffffffffffffffffff168173ffffffffffffffffffffffffffffffffffffffff1603610f88575f6040517f1e4fbdf7000000000000000000000000000000000000000000000000000000008152600401610f7f9190611627565b60405180910390fd5b610f9181610cb2565b50565b5f819050919050565b5f8173ffffffffffffffffffffffffffffffffffffffff163b03610ff857806040517f4c9c8ce3000000000000000000000000000000000000000000000000000000008152600401610fef9190611627565b60405180910390fd5b806110247f360894a13ba1a3210667c828492db98dca3e2076cc3735a920a3ca505d382bbc5f1b610f94565b5f015f6101000a81548173ffffffffffffffffffffffffffffffffffffffff021916908373ffffffffffffffffffffffffffffffffffffffff16021790555050565b60605f5f8473ffffffffffffffffffffffffffffffffffffffff168460405161108f9190611c25565b5f60405180830381855af49150503d805f81146110c7576040519150601f19603f3d011682016040523d82523d5f602084013e6110cc565b606091505b50915091506110dc858383611140565b9250505092915050565b5f341115611120576040517fb398979f00000000000000000000000000000000000000000000000000000000815260040160405180910390fd5b565b5f61112b610daa565b5f0160089054906101000a900460ff16905090565b60608261115557611150826111cd565b6111c5565b5f825114801561117b57505f8473ffffffffffffffffffffffffffffffffffffffff163b145b156111bd57836040517f9996b3150000000000000000000000000000000000000000000000000000000081526004016111b49190611627565b60405180910390fd5b8190506111c6565b5b9392505050565b5f815111156111df5780518082602001fd5b6040517fd6bda27500000000000000000000000000000000000000000000000000000000815260040160405180910390fd5b5f73ffffffffffffffffffffffffffffffffffffffff82169050919050565b5f819050919050565b5f61125361124e61124984611211565b611230565b611211565b9050919050565b5f61126482611239565b9050919050565b5f6112758261125a565b9050919050565b6112858161126b565b82525050565b5f60208201905061129e5f83018461127c565b92915050565b5f604051905090565b5f5ffd5b5f5ffd5b5f6112bf82611211565b9050919050565b6112cf816112b5565b81146112d9575f5ffd5b50565b5f813590506112ea816112c6565b92915050565b5f5ffd5b5f5ffd5b5f601f19601f8301169050919050565b7f4e487b71000000000000000000000000000000000000000000000000000000005f52604160045260245ffd5b61133e826112f8565b810181811067ffffffffffffffff8211171561135d5761135c611308565b5b80604052505050565b5f61136f6112a4565b905061137b8282611335565b919050565b5f67ffffffffffffffff82111561139a57611399611308565b5b6113a3826112f8565b9050602081019050919050565b828183375f83830152505050565b5f6113d06113cb84611380565b611366565b9050828152602081018484840111156113ec576113eb6112f4565b5b6113f78482856113b0565b509392505050565b5f82601f830112611413576114126112f0565b5b81356114238482602086016113be565b91505092915050565b5f5f60408385031215611442576114416112ad565b5b5f61144f858286016112dc565b925050602083013567ffffffffffffffff8111156114705761146f6112b1565b5b61147c858286016113ff565b9150509250929050565b5f819050919050565b61149881611486565b82525050565b5f6020820190506114b15f83018461148f565b92915050565b5f819050919050565b6114c9816114b7565b81146114d3575f5ffd5b50565b5f813590506114e4816114c0565b92915050565b5f65ffffffffffff82169050919050565b611504816114ea565b811461150e575f5ffd5b50565b5f8135905061151f816114fb565b92915050565b5f5ffd5b5f5ffd5b5f5f83601f840112611542576115416112f0565b5b8235905067ffffffffffffffff81111561155f5761155e611525565b5b60208301915083600182028301111561157b5761157a611529565b5b9250929050565b5f5f5f5f5f5f60a0878903121561159c5761159b6112ad565b5b5f6115a989828a016112dc565b96505060206115ba89828a016114d6565b95505060406115cb89828a01611511565b945050606087013567ffffffffffffffff8111156115ec576115eb6112b1565b5b6115f889828a0161152d565b9350935050608061160b89828a016112dc565b9150509295509295509295565b611621816112b5565b82525050565b5f60208201905061163a5f830184611618565b92915050565b5f61164a8261125a565b9050919050565b61165a81611640565b82525050565b5f6020820190506116735f830184611651565b92915050565b5f81519050919050565b5f82825260208201905092915050565b8281835e5f83830152505050565b5f6116ab82611679565b6116b58185611683565b93506116c5818560208601611693565b6116ce816112f8565b840191505092915050565b5f6020820190508181035f8301526116f181846116a1565b905092915050565b5f5f5f606084860312156117105761170f6112ad565b5b5f61171d868287016112dc565b935050602061172e868287016112dc565b925050604061173f868287016112dc565b9150509250925092565b5f6117538261125a565b9050919050565b61176381611749565b82525050565b5f60208201905061177c5f83018461175a565b92915050565b5f60208284031215611797576117966112ad565b5b5f6117a4848285016112dc565b91505092915050565b7f4e487b71000000000000000000000000000000000000000000000000000000005f52602160045260245ffd5b600481106117eb576117ea6117ad565b5b50565b5f8190506117fb826117da565b919050565b5f61180a826117ee565b9050919050565b61181a81611800565b82525050565b5f6040820190506118335f830185611618565b6118406020830184611811565b9392505050565b5f8115159050919050565b61185b81611847565b8114611865575f5ffd5b50565b5f8151905061187681611852565b92915050565b5f60208284031215611891576118906112ad565b5b5f61189e84828501611868565b91505092915050565b7f4e6f2061636365737300000000000000000000000000000000000000000000005f82015250565b5f6118db600983611683565b91506118e6826118a7565b602082019050919050565b5f6020820190508181035f830152611908816118cf565b9050919050565b611918816114b7565b82525050565b5f6020820190506119315f83018461190f565b92915050565b5f81519050611945816114c0565b92915050565b5f602082840312156119605761195f6112ad565b5b5f61196d84828501611937565b91505092915050565b5f6060820190506119895f830186611618565b611996602083018561190f565b6119a3604083018461190f565b949350505050565b7f4e487b71000000000000000000000000000000000000000000000000000000005f52601160045260245ffd5b5f6119e2826114b7565b91506119ed836114b7565b92508282026119fb816114b7565b91508282048414831517611a1257611a116119ab565b5b5092915050565b7f4e487b71000000000000000000000000000000000000000000000000000000005f52601260045260245ffd5b5f611a50826114b7565b9150611a5b836114b7565b925082611a6b57611a6a611a19565b5b828204905092915050565b611a7f816114ea565b82525050565b5f611a908385611683565b9350611a9d8385846113b0565b611aa6836112f8565b840190509392505050565b5f60e082019050611ac45f83018b611a76565b611ad1602083018a611618565b611ade604083018961190f565b611aeb606083018861190f565b611af8608083018761190f565b81810360a0830152611b0b818587611a85565b9050611b1a60c0830184611618565b9998505050505050505050565b5f819050919050565b5f67ffffffffffffffff82169050919050565b5f611b5d611b58611b5384611b27565b611230565b611b30565b9050919050565b611b6d81611b43565b82525050565b5f602082019050611b865f830184611b64565b92915050565b611b9581611486565b8114611b9f575f5ffd5b50565b5f81519050611bb081611b8c565b92915050565b5f60208284031215611bcb57611bca6112ad565b5b5f611bd884828501611ba2565b91505092915050565b5f81519050919050565b5f81905092915050565b5f611bff82611be1565b611c098185611beb565b9350611c19818560208601611693565b80840191505092915050565b5f611c308284611bf5565b91508190509291505056fea2646970667358221220ce9f7c28e7b7740130d3050251d8a76b7f449e5b2120e67fee79a133575f784164736f6c634300081e0033",
					"opcodes": "PUSH1 0xA0 PUSH1 0x40 MSTORE ADDRESS PUSH20 0xFFFFFFFFFFFFFFFFFFFFFFFFFFFFFFFFFFFFFFFF AND PUSH1 0x80 SWAP1 PUSH20 0xFFFFFFFFFFFFFFFFFFFFFFFFFFFFFFFFFFFFFFFF AND DUP2 MSTORE POP CALLVALUE DUP1 ISZERO PUSH1 0x41 JUMPI PUSH0 PUSH0 REVERT JUMPDEST POP PUSH1 0x80 MLOAD PUSH2 0x1C71 PUSH2 0x68 PUSH0 CODECOPY PUSH0 DUP2 DUP2 PUSH2 0x997 ADD MSTORE DUP2 DUP2 PUSH2 0x9EC ADD MSTORE PUSH2 0xBA6 ADD MSTORE PUSH2 0x1C71 PUSH0 RETURN INVALID PUSH1 0x80 PUSH1 0x40 MSTORE PUSH1 0x4 CALLDATASIZE LT PUSH2 0x9B JUMPI PUSH0 CALLDATALOAD PUSH1 0xE0 SHR DUP1 PUSH4 0x8DA5CB5B GT PUSH2 0x63 JUMPI DUP1 PUSH4 0x8DA5CB5B EQ PUSH2 0x14D JUMPI DUP1 PUSH4 0xAB8C71C0 EQ PUSH2 0x177 JUMPI DUP1 PUSH4 0xAD3CB1CC EQ PUSH2 0x1A1 JUMPI DUP1 PUSH4 0xC0C53B8B EQ PUSH2 0x1CB JUMPI DUP1 PUSH4 0xF24CCBFE EQ PUSH2 0x1F3 JUMPI DUP1 PUSH4 0xF2FDE38B EQ PUSH2 0x21D JUMPI PUSH2 0x9B JUMP JUMPDEST DUP1 PUSH4 0xF4EF8A6 EQ PUSH2 0x9F JUMPI DUP1 PUSH4 0x4F1EF286 EQ PUSH2 0xC9 JUMPI DUP1 PUSH4 0x52D1902D EQ PUSH2 0xE5 JUMPI DUP1 PUSH4 0x6D5881C8 EQ PUSH2 0x10F JUMPI DUP1 PUSH4 0x715018A6 EQ PUSH2 0x137 JUMPI JUMPDEST PUSH0 PUSH0 REVERT JUMPDEST CALLVALUE DUP1 ISZERO PUSH2 0xAA JUMPI PUSH0 PUSH0 REVERT JUMPDEST POP PUSH2 0xB3 PUSH2 0x245 JUMP JUMPDEST PUSH1 0x40 MLOAD PUSH2 0xC0 SWAP2 SWAP1 PUSH2 0x128B JUMP JUMPDEST PUSH1 0x40 MLOAD DUP1 SWAP2 SUB SWAP1 RETURN JUMPDEST PUSH2 0xE3 PUSH1 0x4 DUP1 CALLDATASIZE SUB DUP2 ADD SWAP1 PUSH2 0xDE SWAP2 SWAP1 PUSH2 0x142C JUMP JUMPDEST PUSH2 0x26A JUMP JUMPDEST STOP JUMPDEST CALLVALUE DUP1 ISZERO PUSH2 0xF0 JUMPI PUSH0 PUSH0 REVERT JUMPDEST POP PUSH2 0xF9 PUSH2 0x289 JUMP JUMPDEST PUSH1 0x40 MLOAD PUSH2 0x106 SWAP2 SWAP1 PUSH2 0x149E JUMP JUMPDEST PUSH1 0x40 MLOAD DUP1 SWAP2 SUB SWAP1 RETURN JUMPDEST CALLVALUE DUP1 ISZERO PUSH2 0x11A JUMPI PUSH0 PUSH0 REVERT JUMPDEST POP PUSH2 0x135 PUSH1 0x4 DUP1 CALLDATASIZE SUB DUP2 ADD SWAP1 PUSH2 0x130 SWAP2 SWAP1 PUSH2 0x1582 JUMP JUMPDEST PUSH2 0x2BA JUMP JUMPDEST STOP JUMPDEST CALLVALUE DUP1 ISZERO PUSH2 0x142 JUMPI PUSH0 PUSH0 REVERT JUMPDEST POP PUSH2 0x14B PUSH2 0x5FD JUMP JUMPDEST STOP JUMPDEST CALLVALUE DUP1 ISZERO PUSH2 0x158 JUMPI PUSH0 PUSH0 REVERT JUMPDEST POP PUSH2 0x161 PUSH2 0x610 JUMP JUMPDEST PUSH1 0x40 MLOAD PUSH2 0x16E SWAP2 SWAP1 PUSH2 0x1627 JUMP JUMPDEST PUSH1 0x40 MLOAD DUP1 SWAP2 SUB SWAP1 RETURN JUMPDEST CALLVALUE DUP1 ISZERO PUSH2 0x182 JUMPI PUSH0 PUSH0 REVERT JUMPDEST POP PUSH2 0x18B PUSH2 0x645 JUMP JUMPDEST PUSH1 0x40 MLOAD PUSH2 0x198 SWAP2 SWAP1 PUSH2 0x1660 JUMP JUMPDEST PUSH1 0x40 MLOAD DUP1 SWAP2 SUB SWAP1 RETURN JUMPDEST CALLVALUE DUP1 ISZERO PUSH2 0x1AC JUMPI PUSH0 PUSH0 REVERT JUMPDEST POP PUSH2 0x1B5 PUSH2 0x669 JUMP JUMPDEST PUSH1 0x40 MLOAD PUSH2 0x1C2 SWAP2 SWAP1 PUSH2 0x16D9 JUMP JUMPDEST PUSH1 0x40 MLOAD DUP1 SWAP2 SUB SWAP1 RETURN JUMPDEST CALLVALUE DUP1 ISZERO PUSH2 0x1D6 JUMPI PUSH0 PUSH0 REVERT JUMPDEST POP PUSH2 0x1F1 PUSH1 0x4 DUP1 CALLDATASIZE SUB DUP2 ADD SWAP1 PUSH2 0x1EC SWAP2 SWAP1 PUSH2 0x16F9 JUMP JUMPDEST PUSH2 0x6A2 JUMP JUMPDEST STOP JUMPDEST CALLVALUE DUP1 ISZERO PUSH2 0x1FE JUMPI PUSH0 PUSH0 REVERT JUMPDEST POP PUSH2 0x207 PUSH2 0x8EC JUMP JUMPDEST PUSH1 0x40 MLOAD PUSH2 0x214 SWAP2 SWAP1 PUSH2 0x1769 JUMP JUMPDEST PUSH1 0x40 MLOAD DUP1 SWAP2 SUB SWAP1 RETURN JUMPDEST CALLVALUE DUP1 ISZERO PUSH2 0x228 JUMPI PUSH0 PUSH0 REVERT JUMPDEST POP PUSH2 0x243 PUSH1 0x4 DUP1 CALLDATASIZE SUB DUP2 ADD SWAP1 PUSH2 0x23E SWAP2 SWAP1 PUSH2 0x1782 JUMP JUMPDEST PUSH2 0x911 JUMP JUMPDEST STOP JUMPDEST PUSH1 0x1 PUSH0 SWAP1 SLOAD SWAP1 PUSH2 0x100 EXP SWAP1 DIV PUSH20 0xFFFFFFFFFFFFFFFFFFFFFFFFFFFFFFFFFFFFFFFF AND DUP2 JUMP JUMPDEST PUSH2 0x272 PUSH2 0x995 JUMP JUMPDEST PUSH2 0x27B DUP3 PUSH2 0xA7B JUMP JUMPDEST PUSH2 0x285 DUP3 DUP3 PUSH2 0xA86 JUMP JUMPDEST POP POP JUMP JUMPDEST PUSH0 PUSH2 0x292 PUSH2 0xBA4 JUMP JUMPDEST PUSH32 0x360894A13BA1A3210667C828492DB98DCA3E2076CC3735A920A3CA505D382BBC PUSH0 SHL SWAP1 POP SWAP1 JUMP JUMPDEST PUSH0 PUSH0 SWAP1 SLOAD SWAP1 PUSH2 0x100 EXP SWAP1 DIV PUSH20 0xFFFFFFFFFFFFFFFFFFFFFFFFFFFFFFFFFFFFFFFF AND PUSH20 0xFFFFFFFFFFFFFFFFFFFFFFFFFFFFFFFFFFFFFFFF AND PUSH4 0xA1B1CB43 CALLER PUSH0 PUSH1 0x40 MLOAD DUP4 PUSH4 0xFFFFFFFF AND PUSH1 0xE0 SHL DUP2 MSTORE PUSH1 0x4 ADD PUSH2 0x315 SWAP3 SWAP2 SWAP1 PUSH2 0x1820 JUMP JUMPDEST PUSH1 0x20 PUSH1 0x40 MLOAD DUP1 DUP4 SUB DUP2 DUP7 GAS STATICCALL ISZERO DUP1 ISZERO PUSH2 0x330 JUMPI RETURNDATASIZE PUSH0 PUSH0 RETURNDATACOPY RETURNDATASIZE PUSH0 REVERT JUMPDEST POP POP POP POP PUSH1 0x40 MLOAD RETURNDATASIZE PUSH1 0x1F NOT PUSH1 0x1F DUP3 ADD AND DUP3 ADD DUP1 PUSH1 0x40 MSTORE POP DUP2 ADD SWAP1 PUSH2 0x354 SWAP2 SWAP1 PUSH2 0x187C JUMP JUMPDEST PUSH2 0x393 JUMPI PUSH1 0x40 MLOAD PUSH32 0x8C379A000000000000000000000000000000000000000000000000000000000 DUP2 MSTORE PUSH1 0x4 ADD PUSH2 0x38A SWAP1 PUSH2 0x18F1 JUMP JUMPDEST PUSH1 0x40 MLOAD DUP1 SWAP2 SUB SWAP1 REVERT JUMPDEST PUSH0 PUSH1 0x1 PUSH0 SWAP1 SLOAD SWAP1 PUSH2 0x100 EXP SWAP1 DIV PUSH20 0xFFFFFFFFFFFFFFFFFFFFFFFFFFFFFFFFFFFFFFFF AND PUSH20 0xFFFFFFFFFFFFFFFFFFFFFFFFFFFFFFFFFFFFFFFF AND PUSH4 0xD2D7231F DUP8 PUSH1 0x40 MLOAD DUP3 PUSH4 0xFFFFFFFF AND PUSH1 0xE0 SHL DUP2 MSTORE PUSH1 0x4 ADD PUSH2 0x3EE SWAP2 SWAP1 PUSH2 0x191E JUMP JUMPDEST PUSH1 0x20 PUSH1 0x40 MLOAD DUP1 DUP4 SUB DUP2 DUP7 GAS STATICCALL ISZERO DUP1 ISZERO PUSH2 0x409 JUMPI RETURNDATASIZE PUSH0 PUSH0 RETURNDATACOPY RETURNDATASIZE PUSH0 REVERT JUMPDEST POP POP POP POP PUSH1 0x40 MLOAD RETURNDATASIZE PUSH1 0x1F NOT PUSH1 0x1F DUP3 ADD AND DUP3 ADD DUP1 PUSH1 0x40 MSTORE POP DUP2 ADD SWAP1 PUSH2 0x42D SWAP2 SWAP1 PUSH2 0x194B JUMP JUMPDEST SWAP1 POP PUSH1 0x1 PUSH0 SWAP1 SLOAD SWAP1 PUSH2 0x100 EXP SWAP1 DIV PUSH20 0xFFFFFFFFFFFFFFFFFFFFFFFFFFFFFFFFFFFFFFFF AND PUSH20 0xFFFFFFFFFFFFFFFFFFFFFFFFFFFFFFFFFFFFFFFF AND PUSH4 0xDE5B71F7 DUP9 DUP9 DUP5 PUSH1 0x40 MLOAD DUP5 PUSH4 0xFFFFFFFF AND PUSH1 0xE0 SHL DUP2 MSTORE PUSH1 0x4 ADD PUSH2 0x48D SWAP4 SWAP3 SWAP2 SWAP1 PUSH2 0x1976 JUMP JUMPDEST PUSH0 PUSH1 0x40 MLOAD DUP1 DUP4 SUB DUP2 PUSH0 DUP8 DUP1 EXTCODESIZE ISZERO DUP1 ISZERO PUSH2 0x4A4 JUMPI PUSH0 PUSH0 REVERT JUMPDEST POP GAS CALL ISZERO DUP1 ISZERO PUSH2 0x4B6 JUMPI RETURNDATASIZE PUSH0 PUSH0 RETURNDATACOPY RETURNDATASIZE PUSH0 REVERT JUMPDEST POP POP POP POP PUSH1 0x2 PUSH0 SWAP1 SLOAD SWAP1 PUSH2 0x100 EXP SWAP1 DIV PUSH20 0xFFFFFFFFFFFFFFFFFFFFFFFFFFFFFFFFFFFFFFFF AND PUSH20 0xFFFFFFFFFFFFFFFFFFFFFFFFFFFFFFFFFFFFFFFF AND PUSH4 0x83DC65F2 DUP7 DUP10 DUP10 PUSH2 0x2710 PUSH1 0x1 PUSH0 SWAP1 SLOAD SWAP1 PUSH2 0x100 EXP SWAP1 DIV PUSH20 0xFFFFFFFFFFFFFFFFFFFFFFFFFFFFFFFFFFFFFFFF AND PUSH20 0xFFFFFFFFFFFFFFFFFFFFFFFFFFFFFFFFFFFFFFFF AND PUSH4 0x26232A2E PUSH1 0x40 MLOAD DUP2 PUSH4 0xFFFFFFFF AND PUSH1 0xE0 SHL DUP2 MSTORE PUSH1 0x4 ADD PUSH1 0x20 PUSH1 0x40 MLOAD DUP1 DUP4 SUB DUP2 DUP7 GAS STATICCALL ISZERO DUP1 ISZERO PUSH2 0x567 JUMPI RETURNDATASIZE PUSH0 PUSH0 RETURNDATACOPY RETURNDATASIZE PUSH0 REVERT JUMPDEST POP POP POP POP PUSH1 0x40 MLOAD RETURNDATASIZE PUSH1 0x1F NOT PUSH1 0x1F DUP3 ADD AND DUP3 ADD DUP1 PUSH1 0x40 MSTORE POP DUP2 ADD SWAP1 PUSH2 0x58B SWAP2 SWAP1 PUSH2 0x194B JUMP JUMPDEST DUP13 PUSH2 0x596 SWAP2 SWAP1 PUSH2 0x19D8 JUMP JUMPDEST PUSH2 0x5A0 SWAP2 SWAP1 PUSH2 0x1A46 JUMP JUMPDEST DUP7 DUP11 DUP11 DUP11 PUSH1 0x40 MLOAD DUP10 PUSH4 0xFFFFFFFF AND PUSH1 0xE0 SHL DUP2 MSTORE PUSH1 0x4 ADD PUSH2 0x5C7 SWAP9 SWAP8 SWAP7 SWAP6 SWAP5 SWAP4 SWAP3 SWAP2 SWAP1 PUSH2 0x1AB1 JUMP JUMPDEST PUSH0 PUSH1 0x40 MLOAD DUP1 DUP4 SUB DUP2 PUSH0 DUP8 DUP1 EXTCODESIZE ISZERO DUP1 ISZERO PUSH2 0x5DE JUMPI PUSH0 PUSH0 REVERT JUMPDEST POP GAS CALL ISZERO DUP1 ISZERO PUSH2 0x5F0 JUMPI RETURNDATASIZE PUSH0 PUSH0 RETURNDATACOPY RETURNDATASIZE PUSH0 REVERT JUMPDEST POP POP POP POP POP POP POP POP POP POP POP JUMP JUMPDEST PUSH2 0x605 PUSH2 0xC2B JUMP JUMPDEST PUSH2 0x60E PUSH0 PUSH2 0xCB2 JUMP JUMPDEST JUMP JUMPDEST PUSH0 PUSH0 PUSH2 0x61A PUSH2 0xD83 JUMP JUMPDEST SWAP1 POP DUP1 PUSH0 ADD PUSH0 SWAP1 SLOAD SWAP1 PUSH2 0x100 EXP SWAP1 DIV PUSH20 0xFFFFFFFFFFFFFFFFFFFFFFFFFFFFFFFFFFFFFFFF AND SWAP2 POP POP SWAP1 JUMP JUMPDEST PUSH0 PUSH0 SWAP1 SLOAD SWAP1 PUSH2 0x100 EXP SWAP1 DIV PUSH20 0xFFFFFFFFFFFFFFFFFFFFFFFFFFFFFFFFFFFFFFFF AND DUP2 JUMP JUMPDEST PUSH1 0x40 MLOAD DUP1 PUSH1 0x40 ADD PUSH1 0x40 MSTORE DUP1 PUSH1 0x5 DUP2 MSTORE PUSH1 0x20 ADD PUSH32 0x352E302E30000000000000000000000000000000000000000000000000000000 DUP2 MSTORE POP DUP2 JUMP JUMPDEST PUSH0 PUSH2 0x6AB PUSH2 0xDAA JUMP JUMPDEST SWAP1 POP PUSH0 DUP2 PUSH0 ADD PUSH1 0x8 SWAP1 SLOAD SWAP1 PUSH2 0x100 EXP SWAP1 DIV PUSH1 0xFF AND ISZERO SWAP1 POP PUSH0 DUP3 PUSH0 ADD PUSH0 SWAP1 SLOAD SWAP1 PUSH2 0x100 EXP SWAP1 DIV PUSH8 0xFFFFFFFFFFFFFFFF AND SWAP1 POP PUSH0 PUSH0 DUP3 PUSH8 0xFFFFFFFFFFFFFFFF AND EQ DUP1 ISZERO PUSH2 0x6F3 JUMPI POP DUP3 JUMPDEST SWAP1 POP PUSH0 PUSH1 0x1 DUP4 PUSH8 0xFFFFFFFFFFFFFFFF AND EQ DUP1 ISZERO PUSH2 0x726 JUMPI POP PUSH0 ADDRESS PUSH20 0xFFFFFFFFFFFFFFFFFFFFFFFFFFFFFFFFFFFFFFFF AND EXTCODESIZE EQ JUMPDEST SWAP1 POP DUP2 ISZERO DUP1 ISZERO PUSH2 0x734 JUMPI POP DUP1 ISZERO JUMPDEST ISZERO PUSH2 0x76B JUMPI PUSH1 0x40 MLOAD PUSH32 0xF92EE8A900000000000000000000000000000000000000000000000000000000 DUP2 MSTORE PUSH1 0x4 ADD PUSH1 0x40 MLOAD DUP1 SWAP2 SUB SWAP1 REVERT JUMPDEST PUSH1 0x1 DUP6 PUSH0 ADD PUSH0 PUSH2 0x100 EXP DUP2 SLOAD DUP2 PUSH8 0xFFFFFFFFFFFFFFFF MUL NOT AND SWAP1 DUP4 PUSH8 0xFFFFFFFFFFFFFFFF AND MUL OR SWAP1 SSTORE POP DUP4 ISZERO PUSH2 0x7B8 JUMPI PUSH1 0x1 DUP6 PUSH0 ADD PUSH1 0x8 PUSH2 0x100 EXP DUP2 SLOAD DUP2 PUSH1 0xFF MUL NOT AND SWAP1 DUP4 ISZERO ISZERO MUL OR SWAP1 SSTORE POP JUMPDEST PUSH2 0x7C1 CALLER PUSH2 0xDBD JUMP JUMPDEST PUSH2 0x7C9 PUSH2 0xDD1 JUMP JUMPDEST DUP8 PUSH0 PUSH0 PUSH2 0x100 EXP DUP2 SLOAD DUP2 PUSH20 0xFFFFFFFFFFFFFFFFFFFFFFFFFFFFFFFFFFFFFFFF MUL NOT AND SWAP1 DUP4 PUSH20 0xFFFFFFFFFFFFFFFFFFFFFFFFFFFFFFFFFFFFFFFF AND MUL OR SWAP1 SSTORE POP DUP7 PUSH1 0x1 PUSH0 PUSH2 0x100 EXP DUP2 SLOAD DUP2 PUSH20 0xFFFFFFFFFFFFFFFFFFFFFFFFFFFFFFFFFFFFFFFF MUL NOT AND SWAP1 DUP4 PUSH20 0xFFFFFFFFFFFFFFFFFFFFFFFFFFFFFFFFFFFFFFFF AND MUL OR SWAP1 SSTORE POP DUP6 PUSH1 0x2 PUSH0 PUSH2 0x100 EXP DUP2 SLOAD DUP2 PUSH20 0xFFFFFFFFFFFFFFFFFFFFFFFFFFFFFFFFFFFFFFFF MUL NOT AND SWAP1 DUP4 PUSH20 0xFFFFFFFFFFFFFFFFFFFFFFFFFFFFFFFFFFFFFFFF AND MUL OR SWAP1 SSTORE POP DUP4 ISZERO PUSH2 0x8E2 JUMPI PUSH0 DUP6 PUSH0 ADD PUSH1 0x8 PUSH2 0x100 EXP DUP2 SLOAD DUP2 PUSH1 0xFF MUL NOT AND SWAP1 DUP4 ISZERO ISZERO MUL OR SWAP1 SSTORE POP PUSH32 0xC7F505B2F371AE2175EE4913F4499E1F2633A7B5936321EED1CDAEB6115181D2 PUSH1 0x1 PUSH1 0x40 MLOAD PUSH2 0x8D9 SWAP2 SWAP1 PUSH2 0x1B73 JUMP JUMPDEST PUSH1 0x40 MLOAD DUP1 SWAP2 SUB SWAP1 LOG1 JUMPDEST POP POP POP POP POP POP POP POP JUMP JUMPDEST PUSH1 0x2 PUSH0 SWAP1 SLOAD SWAP1 PUSH2 0x100 EXP SWAP1 DIV PUSH20 0xFFFFFFFFFFFFFFFFFFFFFFFFFFFFFFFFFFFFFFFF AND DUP2 JUMP JUMPDEST PUSH2 0x919 PUSH2 0xC2B JUMP JUMPDEST PUSH0 PUSH20 0xFFFFFFFFFFFFFFFFFFFFFFFFFFFFFFFFFFFFFFFF AND DUP2 PUSH20 0xFFFFFFFFFFFFFFFFFFFFFFFFFFFFFFFFFFFFFFFF AND SUB PUSH2 0x989 JUMPI PUSH0 PUSH1 0x40 MLOAD PUSH32 0x1E4FBDF700000000000000000000000000000000000000000000000000000000 DUP2 MSTORE PUSH1 0x4 ADD PUSH2 0x980 SWAP2 SWAP1 PUSH2 0x1627 JUMP JUMPDEST PUSH1 0x40 MLOAD DUP1 SWAP2 SUB SWAP1 REVERT JUMPDEST PUSH2 0x992 DUP2 PUSH2 0xCB2 JUMP JUMPDEST POP JUMP JUMPDEST PUSH32 0x0 PUSH20 0xFFFFFFFFFFFFFFFFFFFFFFFFFFFFFFFFFFFFFFFF AND ADDRESS PUSH20 0xFFFFFFFFFFFFFFFFFFFFFFFFFFFFFFFFFFFFFFFF AND EQ DUP1 PUSH2 0xA42 JUMPI POP PUSH32 0x0 PUSH20 0xFFFFFFFFFFFFFFFFFFFFFFFFFFFFFFFFFFFFFFFF AND PUSH2 0xA29 PUSH2 0xDDB JUMP JUMPDEST PUSH20 0xFFFFFFFFFFFFFFFFFFFFFFFFFFFFFFFFFFFFFFFF AND EQ ISZERO JUMPDEST ISZERO PUSH2 0xA79 JUMPI PUSH1 0x40 MLOAD PUSH32 0xE07C8DBA00000000000000000000000000000000000000000000000000000000 DUP2 MSTORE PUSH1 0x4 ADD PUSH1 0x40 MLOAD DUP1 SWAP2 SUB SWAP1 REVERT JUMPDEST JUMP JUMPDEST PUSH2 0xA83 PUSH2 0xC2B JUMP JUMPDEST POP JUMP JUMPDEST DUP2 PUSH20 0xFFFFFFFFFFFFFFFFFFFFFFFFFFFFFFFFFFFFFFFF AND PUSH4 0x52D1902D PUSH1 0x40 MLOAD DUP2 PUSH4 0xFFFFFFFF AND PUSH1 0xE0 SHL DUP2 MSTORE PUSH1 0x4 ADD PUSH1 0x20 PUSH1 0x40 MLOAD DUP1 DUP4 SUB DUP2 DUP7 GAS STATICCALL SWAP3 POP POP POP DUP1 ISZERO PUSH2 0xAEE JUMPI POP PUSH1 0x40 MLOAD RETURNDATASIZE PUSH1 0x1F NOT PUSH1 0x1F DUP3 ADD AND DUP3 ADD DUP1 PUSH1 0x40 MSTORE POP DUP2 ADD SWAP1 PUSH2 0xAEB SWAP2 SWAP1 PUSH2 0x1BB6 JUMP JUMPDEST PUSH1 0x1 JUMPDEST PUSH2 0xB2F JUMPI DUP2 PUSH1 0x40 MLOAD PUSH32 0x4C9C8CE300000000000000000000000000000000000000000000000000000000 DUP2 MSTORE PUSH1 0x4 ADD PUSH2 0xB26 SWAP2 SWAP1 PUSH2 0x1627 JUMP JUMPDEST PUSH1 0x40 MLOAD DUP1 SWAP2 SUB SWAP1 REVERT JUMPDEST PUSH32 0x360894A13BA1A3210667C828492DB98DCA3E2076CC3735A920A3CA505D382BBC PUSH0 SHL DUP2 EQ PUSH2 0xB95 JUMPI DUP1 PUSH1 0x40 MLOAD PUSH32 0xAA1D49A400000000000000000000000000000000000000000000000000000000 DUP2 MSTORE PUSH1 0x4 ADD PUSH2 0xB8C SWAP2 SWAP1 PUSH2 0x149E JUMP JUMPDEST PUSH1 0x40 MLOAD DUP1 SWAP2 SUB SWAP1 REVERT JUMPDEST PUSH2 0xB9F DUP4 DUP4 PUSH2 0xE2E JUMP JUMPDEST POP POP POP JUMP JUMPDEST PUSH32 0x0 PUSH20 0xFFFFFFFFFFFFFFFFFFFFFFFFFFFFFFFFFFFFFFFF AND ADDRESS PUSH20 0xFFFFFFFFFFFFFFFFFFFFFFFFFFFFFFFFFFFFFFFF AND EQ PUSH2 0xC29 JUMPI PUSH1 0x40 MLOAD PUSH32 0xE07C8DBA00000000000000000000000000000000000000000000000000000000 DUP2 MSTORE PUSH1 0x4 ADD PUSH1 0x40 MLOAD DUP1 SWAP2 SUB SWAP1 REVERT JUMPDEST JUMP JUMPDEST PUSH2 0xC33 PUSH2 0xEA0 JUMP JUMPDEST PUSH20 0xFFFFFFFFFFFFFFFFFFFFFFFFFFFFFFFFFFFFFFFF AND PUSH2 0xC51 PUSH2 0x610 JUMP JUMPDEST PUSH20 0xFFFFFFFFFFFFFFFFFFFFFFFFFFFFFFFFFFFFFFFF AND EQ PUSH2 0xCB0 JUMPI PUSH2 0xC74 PUSH2 0xEA0 JUMP JUMPDEST PUSH1 0x40 MLOAD PUSH32 0x118CDAA700000000000000000000000000000000000000000000000000000000 DUP2 MSTORE PUSH1 0x4 ADD PUSH2 0xCA7 SWAP2 SWAP1 PUSH2 0x1627 JUMP JUMPDEST PUSH1 0x40 MLOAD DUP1 SWAP2 SUB SWAP1 REVERT JUMPDEST JUMP JUMPDEST PUSH0 PUSH2 0xCBB PUSH2 0xD83 JUMP JUMPDEST SWAP1 POP PUSH0 DUP2 PUSH0 ADD PUSH0 SWAP1 SLOAD SWAP1 PUSH2 0x100 EXP SWAP1 DIV PUSH20 0xFFFFFFFFFFFFFFFFFFFFFFFFFFFFFFFFFFFFFFFF AND SWAP1 POP DUP3 DUP3 PUSH0 ADD PUSH0 PUSH2 0x100 EXP DUP2 SLOAD DUP2 PUSH20 0xFFFFFFFFFFFFFFFFFFFFFFFFFFFFFFFFFFFFFFFF MUL NOT AND SWAP1 DUP4 PUSH20 0xFFFFFFFFFFFFFFFFFFFFFFFFFFFFFFFFFFFFFFFF AND MUL OR SWAP1 SSTORE POP DUP3 PUSH20 0xFFFFFFFFFFFFFFFFFFFFFFFFFFFFFFFFFFFFFFFF AND DUP2 PUSH20 0xFFFFFFFFFFFFFFFFFFFFFFFFFFFFFFFFFFFFFFFF AND PUSH32 0x8BE0079C531659141344CD1FD0A4F28419497F9722A3DAAFE3B4186F6B6457E0 PUSH1 0x40 MLOAD PUSH1 0x40 MLOAD DUP1 SWAP2 SUB SWAP1 LOG3 POP POP POP JUMP JUMPDEST PUSH0 PUSH32 0x9016D09D72D40FDAE2FD8CEAC6B6234C7706214FD39C1CD1E609A0528C199300 SWAP1 POP SWAP1 JUMP JUMPDEST PUSH0 PUSH0 PUSH2 0xDB4 PUSH2 0xEA7 JUMP JUMPDEST SWAP1 POP DUP1 SWAP2 POP POP SWAP1 JUMP JUMPDEST PUSH2 0xDC5 PUSH2 0xED0 JUMP JUMPDEST PUSH2 0xDCE DUP2 PUSH2 0xF10 JUMP JUMPDEST POP JUMP JUMPDEST PUSH2 0xDD9 PUSH2 0xED0 JUMP JUMPDEST JUMP JUMPDEST PUSH0 PUSH2 0xE07 PUSH32 0x360894A13BA1A3210667C828492DB98DCA3E2076CC3735A920A3CA505D382BBC PUSH0 SHL PUSH2 0xF94 JUMP JUMPDEST PUSH0 ADD PUSH0 SWAP1 SLOAD SWAP1 PUSH2 0x100 EXP SWAP1 DIV PUSH20 0xFFFFFFFFFFFFFFFFFFFFFFFFFFFFFFFFFFFFFFFF AND SWAP1 POP SWAP1 JUMP JUMPDEST PUSH2 0xE37 DUP3 PUSH2 0xF9D JUMP JUMPDEST DUP2 PUSH20 0xFFFFFFFFFFFFFFFFFFFFFFFFFFFFFFFFFFFFFFFF AND PUSH32 0xBC7CD75A20EE27FD9ADEBAB32041F755214DBC6BFFA90CC0225B39DA2E5C2D3B PUSH1 0x40 MLOAD PUSH1 0x40 MLOAD DUP1 SWAP2 SUB SWAP1 LOG2 PUSH0 DUP2 MLOAD GT ISZERO PUSH2 0xE93 JUMPI PUSH2 0xE8D DUP3 DUP3 PUSH2 0x1066 JUMP JUMPDEST POP PUSH2 0xE9C JUMP JUMPDEST PUSH2 0xE9B PUSH2 0x10E6 JUMP JUMPDEST JUMPDEST POP POP JUMP JUMPDEST PUSH0 CALLER SWAP1 POP SWAP1 JUMP JUMPDEST PUSH0 PUSH32 0xF0C57E16840DF040F15088DC2F81FE391C3923BEC73E23A9662EFC9C229C6A00 PUSH0 SHL SWAP1 POP SWAP1 JUMP JUMPDEST PUSH2 0xED8 PUSH2 0x1122 JUMP JUMPDEST PUSH2 0xF0E JUMPI PUSH1 0x40 MLOAD PUSH32 0xD7E6BCF800000000000000000000000000000000000000000000000000000000 DUP2 MSTORE PUSH1 0x4 ADD PUSH1 0x40 MLOAD DUP1 SWAP2 SUB SWAP1 REVERT JUMPDEST JUMP JUMPDEST PUSH2 0xF18 PUSH2 0xED0 JUMP JUMPDEST PUSH0 PUSH20 0xFFFFFFFFFFFFFFFFFFFFFFFFFFFFFFFFFFFFFFFF AND DUP2 PUSH20 0xFFFFFFFFFFFFFFFFFFFFFFFFFFFFFFFFFFFFFFFF AND SUB PUSH2 0xF88 JUMPI PUSH0 PUSH1 0x40 MLOAD PUSH32 0x1E4FBDF700000000000000000000000000000000000000000000000000000000 DUP2 MSTORE PUSH1 0x4 ADD PUSH2 0xF7F SWAP2 SWAP1 PUSH2 0x1627 JUMP JUMPDEST PUSH1 0x40 MLOAD DUP1 SWAP2 SUB SWAP1 REVERT JUMPDEST PUSH2 0xF91 DUP2 PUSH2 0xCB2 JUMP JUMPDEST POP JUMP JUMPDEST PUSH0 DUP2 SWAP1 POP SWAP2 SWAP1 POP JUMP JUMPDEST PUSH0 DUP2 PUSH20 0xFFFFFFFFFFFFFFFFFFFFFFFFFFFFFFFFFFFFFFFF AND EXTCODESIZE SUB PUSH2 0xFF8 JUMPI DUP1 PUSH1 0x40 MLOAD PUSH32 0x4C9C8CE300000000000000000000000000000000000000000000000000000000 DUP2 MSTORE PUSH1 0x4 ADD PUSH2 0xFEF SWAP2 SWAP1 PUSH2 0x1627 JUMP JUMPDEST PUSH1 0x40 MLOAD DUP1 SWAP2 SUB SWAP1 REVERT JUMPDEST DUP1 PUSH2 0x1024 PUSH32 0x360894A13BA1A3210667C828492DB98DCA3E2076CC3735A920A3CA505D382BBC PUSH0 SHL PUSH2 0xF94 JUMP JUMPDEST PUSH0 ADD PUSH0 PUSH2 0x100 EXP DUP2 SLOAD DUP2 PUSH20 0xFFFFFFFFFFFFFFFFFFFFFFFFFFFFFFFFFFFFFFFF MUL NOT AND SWAP1 DUP4 PUSH20 0xFFFFFFFFFFFFFFFFFFFFFFFFFFFFFFFFFFFFFFFF AND MUL OR SWAP1 SSTORE POP POP JUMP JUMPDEST PUSH1 0x60 PUSH0 PUSH0 DUP5 PUSH20 0xFFFFFFFFFFFFFFFFFFFFFFFFFFFFFFFFFFFFFFFF AND DUP5 PUSH1 0x40 MLOAD PUSH2 0x108F SWAP2 SWAP1 PUSH2 0x1C25 JUMP JUMPDEST PUSH0 PUSH1 0x40 MLOAD DUP1 DUP4 SUB DUP2 DUP6 GAS DELEGATECALL SWAP2 POP POP RETURNDATASIZE DUP1 PUSH0 DUP2 EQ PUSH2 0x10C7 JUMPI PUSH1 0x40 MLOAD SWAP2 POP PUSH1 0x1F NOT PUSH1 0x3F RETURNDATASIZE ADD AND DUP3 ADD PUSH1 0x40 MSTORE RETURNDATASIZE DUP3 MSTORE RETURNDATASIZE PUSH0 PUSH1 0x20 DUP5 ADD RETURNDATACOPY PUSH2 0x10CC JUMP JUMPDEST PUSH1 0x60 SWAP2 POP JUMPDEST POP SWAP2 POP SWAP2 POP PUSH2 0x10DC DUP6 DUP4 DUP4 PUSH2 0x1140 JUMP JUMPDEST SWAP3 POP POP POP SWAP3 SWAP2 POP POP JUMP JUMPDEST PUSH0 CALLVALUE GT ISZERO PUSH2 0x1120 JUMPI PUSH1 0x40 MLOAD PUSH32 0xB398979F00000000000000000000000000000000000000000000000000000000 DUP2 MSTORE PUSH1 0x4 ADD PUSH1 0x40 MLOAD DUP1 SWAP2 SUB SWAP1 REVERT JUMPDEST JUMP JUMPDEST PUSH0 PUSH2 0x112B PUSH2 0xDAA JUMP JUMPDEST PUSH0 ADD PUSH1 0x8 SWAP1 SLOAD SWAP1 PUSH2 0x100 EXP SWAP1 DIV PUSH1 0xFF AND SWAP1 POP SWAP1 JUMP JUMPDEST PUSH1 0x60 DUP3 PUSH2 0x1155 JUMPI PUSH2 0x1150 DUP3 PUSH2 0x11CD JUMP JUMPDEST PUSH2 0x11C5 JUMP JUMPDEST PUSH0 DUP3 MLOAD EQ DUP1 ISZERO PUSH2 0x117B JUMPI POP PUSH0 DUP5 PUSH20 0xFFFFFFFFFFFFFFFFFFFFFFFFFFFFFFFFFFFFFFFF AND EXTCODESIZE EQ JUMPDEST ISZERO PUSH2 0x11BD JUMPI DUP4 PUSH1 0x40 MLOAD PUSH32 0x9996B31500000000000000000000000000000000000000000000000000000000 DUP2 MSTORE PUSH1 0x4 ADD PUSH2 0x11B4 SWAP2 SWAP1 PUSH2 0x1627 JUMP JUMPDEST PUSH1 0x40 MLOAD DUP1 SWAP2 SUB SWAP1 REVERT JUMPDEST DUP2 SWAP1 POP PUSH2 0x11C6 JUMP JUMPDEST JUMPDEST SWAP4 SWAP3 POP POP POP JUMP JUMPDEST PUSH0 DUP2 MLOAD GT ISZERO PUSH2 0x11DF JUMPI DUP1 MLOAD DUP1 DUP3 PUSH1 0x20 ADD REVERT JUMPDEST PUSH1 0x40 MLOAD PUSH32 0xD6BDA27500000000000000000000000000000000000000000000000000000000 DUP2 MSTORE PUSH1 0x4 ADD PUSH1 0x40 MLOAD DUP1 SWAP2 SUB SWAP1 REVERT JUMPDEST PUSH0 PUSH20 0xFFFFFFFFFFFFFFFFFFFFFFFFFFFFFFFFFFFFFFFF DUP3 AND SWAP1 POP SWAP2 SWAP1 POP JUMP JUMPDEST PUSH0 DUP2 SWAP1 POP SWAP2 SWAP1 POP JUMP JUMPDEST PUSH0 PUSH2 0x1253 PUSH2 0x124E PUSH2 0x1249 DUP5 PUSH2 0x1211 JUMP JUMPDEST PUSH2 0x1230 JUMP JUMPDEST PUSH2 0x1211 JUMP JUMPDEST SWAP1 POP SWAP2 SWAP1 POP JUMP JUMPDEST PUSH0 PUSH2 0x1264 DUP3 PUSH2 0x1239 JUMP JUMPDEST SWAP1 POP SWAP2 SWAP1 POP JUMP JUMPDEST PUSH0 PUSH2 0x1275 DUP3 PUSH2 0x125A JUMP JUMPDEST SWAP1 POP SWAP2 SWAP1 POP JUMP JUMPDEST PUSH2 0x1285 DUP2 PUSH2 0x126B JUMP JUMPDEST DUP3 MSTORE POP POP JUMP JUMPDEST PUSH0 PUSH1 0x20 DUP3 ADD SWAP1 POP PUSH2 0x129E PUSH0 DUP4 ADD DUP5 PUSH2 0x127C JUMP JUMPDEST SWAP3 SWAP2 POP POP JUMP JUMPDEST PUSH0 PUSH1 0x40 MLOAD SWAP1 POP SWAP1 JUMP JUMPDEST PUSH0 PUSH0 REVERT JUMPDEST PUSH0 PUSH0 REVERT JUMPDEST PUSH0 PUSH2 0x12BF DUP3 PUSH2 0x1211 JUMP JUMPDEST SWAP1 POP SWAP2 SWAP1 POP JUMP JUMPDEST PUSH2 0x12CF DUP2 PUSH2 0x12B5 JUMP JUMPDEST DUP2 EQ PUSH2 0x12D9 JUMPI PUSH0 PUSH0 REVERT JUMPDEST POP JUMP JUMPDEST PUSH0 DUP2 CALLDATALOAD SWAP1 POP PUSH2 0x12EA DUP2 PUSH2 0x12C6 JUMP JUMPDEST SWAP3 SWAP2 POP POP JUMP JUMPDEST PUSH0 PUSH0 REVERT JUMPDEST PUSH0 PUSH0 REVERT JUMPDEST PUSH0 PUSH1 0x1F NOT PUSH1 0x1F DUP4 ADD AND SWAP1 POP SWAP2 SWAP1 POP JUMP JUMPDEST PUSH32 0x4E487B7100000000000000000000000000000000000000000000000000000000 PUSH0 MSTORE PUSH1 0x41 PUSH1 0x4 MSTORE PUSH1 0x24 PUSH0 REVERT JUMPDEST PUSH2 0x133E DUP3 PUSH2 0x12F8 JUMP JUMPDEST DUP2 ADD DUP2 DUP2 LT PUSH8 0xFFFFFFFFFFFFFFFF DUP3 GT OR ISZERO PUSH2 0x135D JUMPI PUSH2 0x135C PUSH2 0x1308 JUMP JUMPDEST JUMPDEST DUP1 PUSH1 0x40 MSTORE POP POP POP JUMP JUMPDEST PUSH0 PUSH2 0x136F PUSH2 0x12A4 JUMP JUMPDEST SWAP1 POP PUSH2 0x137B DUP3 DUP3 PUSH2 0x1335 JUMP JUMPDEST SWAP2 SWAP1 POP JUMP JUMPDEST PUSH0 PUSH8 0xFFFFFFFFFFFFFFFF DUP3 GT ISZERO PUSH2 0x139A JUMPI PUSH2 0x1399 PUSH2 0x1308 JUMP JUMPDEST JUMPDEST PUSH2 0x13A3 DUP3 PUSH2 0x12F8 JUMP JUMPDEST SWAP1 POP PUSH1 0x20 DUP2 ADD SWAP1 POP SWAP2 SWAP1 POP JUMP JUMPDEST DUP3 DUP2 DUP4 CALLDATACOPY PUSH0 DUP4 DUP4 ADD MSTORE POP POP POP JUMP JUMPDEST PUSH0 PUSH2 0x13D0 PUSH2 0x13CB DUP5 PUSH2 0x1380 JUMP JUMPDEST PUSH2 0x1366 JUMP JUMPDEST SWAP1 POP DUP3 DUP2 MSTORE PUSH1 0x20 DUP2 ADD DUP5 DUP5 DUP5 ADD GT ISZERO PUSH2 0x13EC JUMPI PUSH2 0x13EB PUSH2 0x12F4 JUMP JUMPDEST JUMPDEST PUSH2 0x13F7 DUP5 DUP3 DUP6 PUSH2 0x13B0 JUMP JUMPDEST POP SWAP4 SWAP3 POP POP POP JUMP JUMPDEST PUSH0 DUP3 PUSH1 0x1F DUP4 ADD SLT PUSH2 0x1413 JUMPI PUSH2 0x1412 PUSH2 0x12F0 JUMP JUMPDEST JUMPDEST DUP2 CALLDATALOAD PUSH2 0x1423 DUP5 DUP3 PUSH1 0x20 DUP7 ADD PUSH2 0x13BE JUMP JUMPDEST SWAP2 POP POP SWAP3 SWAP2 POP POP JUMP JUMPDEST PUSH0 PUSH0 PUSH1 0x40 DUP4 DUP6 SUB SLT ISZERO PUSH2 0x1442 JUMPI PUSH2 0x1441 PUSH2 0x12AD JUMP JUMPDEST JUMPDEST PUSH0 PUSH2 0x144F DUP6 DUP3 DUP7 ADD PUSH2 0x12DC JUMP JUMPDEST SWAP3 POP POP PUSH1 0x20 DUP4 ADD CALLDATALOAD PUSH8 0xFFFFFFFFFFFFFFFF DUP2 GT ISZERO PUSH2 0x1470 JUMPI PUSH2 0x146F PUSH2 0x12B1 JUMP JUMPDEST JUMPDEST PUSH2 0x147C DUP6 DUP3 DUP7 ADD PUSH2 0x13FF JUMP JUMPDEST SWAP2 POP POP SWAP3 POP SWAP3 SWAP1 POP JUMP JUMPDEST PUSH0 DUP2 SWAP1 POP SWAP2 SWAP1 POP JUMP JUMPDEST PUSH2 0x1498 DUP2 PUSH2 0x1486 JUMP JUMPDEST DUP3 MSTORE POP POP JUMP JUMPDEST PUSH0 PUSH1 0x20 DUP3 ADD SWAP1 POP PUSH2 0x14B1 PUSH0 DUP4 ADD DUP5 PUSH2 0x148F JUMP JUMPDEST SWAP3 SWAP2 POP POP JUMP JUMPDEST PUSH0 DUP2 SWAP1 POP SWAP2 SWAP1 POP JUMP JUMPDEST PUSH2 0x14C9 DUP2 PUSH2 0x14B7 JUMP JUMPDEST DUP2 EQ PUSH2 0x14D3 JUMPI PUSH0 PUSH0 REVERT JUMPDEST POP JUMP JUMPDEST PUSH0 DUP2 CALLDATALOAD SWAP1 POP PUSH2 0x14E4 DUP2 PUSH2 0x14C0 JUMP JUMPDEST SWAP3 SWAP2 POP POP JUMP JUMPDEST PUSH0 PUSH6 0xFFFFFFFFFFFF DUP3 AND SWAP1 POP SWAP2 SWAP1 POP JUMP JUMPDEST PUSH2 0x1504 DUP2 PUSH2 0x14EA JUMP JUMPDEST DUP2 EQ PUSH2 0x150E JUMPI PUSH0 PUSH0 REVERT JUMPDEST POP JUMP JUMPDEST PUSH0 DUP2 CALLDATALOAD SWAP1 POP PUSH2 0x151F DUP2 PUSH2 0x14FB JUMP JUMPDEST SWAP3 SWAP2 POP POP JUMP JUMPDEST PUSH0 PUSH0 REVERT JUMPDEST PUSH0 PUSH0 REVERT JUMPDEST PUSH0 PUSH0 DUP4 PUSH1 0x1F DUP5 ADD SLT PUSH2 0x1542 JUMPI PUSH2 0x1541 PUSH2 0x12F0 JUMP JUMPDEST JUMPDEST DUP3 CALLDATALOAD SWAP1 POP PUSH8 0xFFFFFFFFFFFFFFFF DUP2 GT ISZERO PUSH2 0x155F JUMPI PUSH2 0x155E PUSH2 0x1525 JUMP JUMPDEST JUMPDEST PUSH1 0x20 DUP4 ADD SWAP2 POP DUP4 PUSH1 0x1 DUP3 MUL DUP4 ADD GT ISZERO PUSH2 0x157B JUMPI PUSH2 0x157A PUSH2 0x1529 JUMP JUMPDEST JUMPDEST SWAP3 POP SWAP3 SWAP1 POP JUMP JUMPDEST PUSH0 PUSH0 PUSH0 PUSH0 PUSH0 PUSH0 PUSH1 0xA0 DUP8 DUP10 SUB SLT ISZERO PUSH2 0x159C JUMPI PUSH2 0x159B PUSH2 0x12AD JUMP JUMPDEST JUMPDEST PUSH0 PUSH2 0x15A9 DUP10 DUP3 DUP11 ADD PUSH2 0x12DC JUMP JUMPDEST SWAP7 POP POP PUSH1 0x20 PUSH2 0x15BA DUP10 DUP3 DUP11 ADD PUSH2 0x14D6 JUMP JUMPDEST SWAP6 POP POP PUSH1 0x40 PUSH2 0x15CB DUP10 DUP3 DUP11 ADD PUSH2 0x1511 JUMP JUMPDEST SWAP5 POP POP PUSH1 0x60 DUP8 ADD CALLDATALOAD PUSH8 0xFFFFFFFFFFFFFFFF DUP2 GT ISZERO PUSH2 0x15EC JUMPI PUSH2 0x15EB PUSH2 0x12B1 JUMP JUMPDEST JUMPDEST PUSH2 0x15F8 DUP10 DUP3 DUP11 ADD PUSH2 0x152D JUMP JUMPDEST SWAP4 POP SWAP4 POP POP PUSH1 0x80 PUSH2 0x160B DUP10 DUP3 DUP11 ADD PUSH2 0x12DC JUMP JUMPDEST SWAP2 POP POP SWAP3 SWAP6 POP SWAP3 SWAP6 POP SWAP3 SWAP6 JUMP JUMPDEST PUSH2 0x1621 DUP2 PUSH2 0x12B5 JUMP JUMPDEST DUP3 MSTORE POP POP JUMP JUMPDEST PUSH0 PUSH1 0x20 DUP3 ADD SWAP1 POP PUSH2 0x163A PUSH0 DUP4 ADD DUP5 PUSH2 0x1618 JUMP JUMPDEST SWAP3 SWAP2 POP POP JUMP JUMPDEST PUSH0 PUSH2 0x164A DUP3 PUSH2 0x125A JUMP JUMPDEST SWAP1 POP SWAP2 SWAP1 POP JUMP JUMPDEST PUSH2 0x165A DUP2 PUSH2 0x1640 JUMP JUMPDEST DUP3 MSTORE POP POP JUMP JUMPDEST PUSH0 PUSH1 0x20 DUP3 ADD SWAP1 POP PUSH2 0x1673 PUSH0 DUP4 ADD DUP5 PUSH2 0x1651 JUMP JUMPDEST SWAP3 SWAP2 POP POP JUMP JUMPDEST PUSH0 DUP2 MLOAD SWAP1 POP SWAP2 SWAP1 POP JUMP JUMPDEST PUSH0 DUP3 DUP3 MSTORE PUSH1 0x20 DUP3 ADD SWAP1 POP SWAP3 SWAP2 POP POP JUMP JUMPDEST DUP3 DUP2 DUP4 MCOPY PUSH0 DUP4 DUP4 ADD MSTORE POP POP POP JUMP JUMPDEST PUSH0 PUSH2 0x16AB DUP3 PUSH2 0x1679 JUMP JUMPDEST PUSH2 0x16B5 DUP2 DUP6 PUSH2 0x1683 JUMP JUMPDEST SWAP4 POP PUSH2 0x16C5 DUP2 DUP6 PUSH1 0x20 DUP7 ADD PUSH2 0x1693 JUMP JUMPDEST PUSH2 0x16CE DUP2 PUSH2 0x12F8 JUMP JUMPDEST DUP5 ADD SWAP2 POP POP SWAP3 SWAP2 POP POP JUMP JUMPDEST PUSH0 PUSH1 0x20 DUP3 ADD SWAP1 POP DUP2 DUP2 SUB PUSH0 DUP4 ADD MSTORE PUSH2 0x16F1 DUP2 DUP5 PUSH2 0x16A1 JUMP JUMPDEST SWAP1 POP SWAP3 SWAP2 POP POP JUMP JUMPDEST PUSH0 PUSH0 PUSH0 PUSH1 0x60 DUP5 DUP7 SUB SLT ISZERO PUSH2 0x1710 JUMPI PUSH2 0x170F PUSH2 0x12AD JUMP JUMPDEST JUMPDEST PUSH0 PUSH2 0x171D DUP7 DUP3 DUP8 ADD PUSH2 0x12DC JUMP JUMPDEST SWAP4 POP POP PUSH1 0x20 PUSH2 0x172E DUP7 DUP3 DUP8 ADD PUSH2 0x12DC JUMP JUMPDEST SWAP3 POP POP PUSH1 0x40 PUSH2 0x173F DUP7 DUP3 DUP8 ADD PUSH2 0x12DC JUMP JUMPDEST SWAP2 POP POP SWAP3 POP SWAP3 POP SWAP3 JUMP JUMPDEST PUSH0 PUSH2 0x1753 DUP3 PUSH2 0x125A JUMP JUMPDEST SWAP1 POP SWAP2 SWAP1 POP JUMP JUMPDEST PUSH2 0x1763 DUP2 PUSH2 0x1749 JUMP JUMPDEST DUP3 MSTORE POP POP JUMP JUMPDEST PUSH0 PUSH1 0x20 DUP3 ADD SWAP1 POP PUSH2 0x177C PUSH0 DUP4 ADD DUP5 PUSH2 0x175A JUMP JUMPDEST SWAP3 SWAP2 POP POP JUMP JUMPDEST PUSH0 PUSH1 0x20 DUP3 DUP5 SUB SLT ISZERO PUSH2 0x1797 JUMPI PUSH2 0x1796 PUSH2 0x12AD JUMP JUMPDEST JUMPDEST PUSH0 PUSH2 0x17A4 DUP5 DUP3 DUP6 ADD PUSH2 0x12DC JUMP JUMPDEST SWAP2 POP POP SWAP3 SWAP2 POP POP JUMP JUMPDEST PUSH32 0x4E487B7100000000000000000000000000000000000000000000000000000000 PUSH0 MSTORE PUSH1 0x21 PUSH1 0x4 MSTORE PUSH1 0x24 PUSH0 REVERT JUMPDEST PUSH1 0x4 DUP2 LT PUSH2 0x17EB JUMPI PUSH2 0x17EA PUSH2 0x17AD JUMP JUMPDEST JUMPDEST POP JUMP JUMPDEST PUSH0 DUP2 SWAP1 POP PUSH2 0x17FB DUP3 PUSH2 0x17DA JUMP JUMPDEST SWAP2 SWAP1 POP JUMP JUMPDEST PUSH0 PUSH2 0x180A DUP3 PUSH2 0x17EE JUMP JUMPDEST SWAP1 POP SWAP2 SWAP1 POP JUMP JUMPDEST PUSH2 0x181A DUP2 PUSH2 0x1800 JUMP JUMPDEST DUP3 MSTORE POP POP JUMP JUMPDEST PUSH0 PUSH1 0x40 DUP3 ADD SWAP1 POP PUSH2 0x1833 PUSH0 DUP4 ADD DUP6 PUSH2 0x1618 JUMP JUMPDEST PUSH2 0x1840 PUSH1 0x20 DUP4 ADD DUP5 PUSH2 0x1811 JUMP JUMPDEST SWAP4 SWAP3 POP POP POP JUMP JUMPDEST PUSH0 DUP2 ISZERO ISZERO SWAP1 POP SWAP2 SWAP1 POP JUMP JUMPDEST PUSH2 0x185B DUP2 PUSH2 0x1847 JUMP JUMPDEST DUP2 EQ PUSH2 0x1865 JUMPI PUSH0 PUSH0 REVERT JUMPDEST POP JUMP JUMPDEST PUSH0 DUP2 MLOAD SWAP1 POP PUSH2 0x1876 DUP2 PUSH2 0x1852 JUMP JUMPDEST SWAP3 SWAP2 POP POP JUMP JUMPDEST PUSH0 PUSH1 0x20 DUP3 DUP5 SUB SLT ISZERO PUSH2 0x1891 JUMPI PUSH2 0x1890 PUSH2 0x12AD JUMP JUMPDEST JUMPDEST PUSH0 PUSH2 0x189E DUP5 DUP3 DUP6 ADD PUSH2 0x1868 JUMP JUMPDEST SWAP2 POP POP SWAP3 SWAP2 POP POP JUMP JUMPDEST PUSH32 0x4E6F206163636573730000000000000000000000000000000000000000000000 PUSH0 DUP3 ADD MSTORE POP JUMP JUMPDEST PUSH0 PUSH2 0x18DB PUSH1 0x9 DUP4 PUSH2 0x1683 JUMP JUMPDEST SWAP2 POP PUSH2 0x18E6 DUP3 PUSH2 0x18A7 JUMP JUMPDEST PUSH1 0x20 DUP3 ADD SWAP1 POP SWAP2 SWAP1 POP JUMP JUMPDEST PUSH0 PUSH1 0x20 DUP3 ADD SWAP1 POP DUP2 DUP2 SUB PUSH0 DUP4 ADD MSTORE PUSH2 0x1908 DUP2 PUSH2 0x18CF JUMP JUMPDEST SWAP1 POP SWAP2 SWAP1 POP JUMP JUMPDEST PUSH2 0x1918 DUP2 PUSH2 0x14B7 JUMP JUMPDEST DUP3 MSTORE POP POP JUMP JUMPDEST PUSH0 PUSH1 0x20 DUP3 ADD SWAP1 POP PUSH2 0x1931 PUSH0 DUP4 ADD DUP5 PUSH2 0x190F JUMP JUMPDEST SWAP3 SWAP2 POP POP JUMP JUMPDEST PUSH0 DUP2 MLOAD SWAP1 POP PUSH2 0x1945 DUP2 PUSH2 0x14C0 JUMP JUMPDEST SWAP3 SWAP2 POP POP JUMP JUMPDEST PUSH0 PUSH1 0x20 DUP3 DUP5 SUB SLT ISZERO PUSH2 0x1960 JUMPI PUSH2 0x195F PUSH2 0x12AD JUMP JUMPDEST JUMPDEST PUSH0 PUSH2 0x196D DUP5 DUP3 DUP6 ADD PUSH2 0x1937 JUMP JUMPDEST SWAP2 POP POP SWAP3 SWAP2 POP POP JUMP JUMPDEST PUSH0 PUSH1 0x60 DUP3 ADD SWAP1 POP PUSH2 0x1989 PUSH0 DUP4 ADD DUP7 PUSH2 0x1618 JUMP JUMPDEST PUSH2 0x1996 PUSH1 0x20 DUP4 ADD DUP6 PUSH2 0x190F JUMP JUMPDEST PUSH2 0x19A3 PUSH1 0x40 DUP4 ADD DUP5 PUSH2 0x190F JUMP JUMPDEST SWAP5 SWAP4 POP POP POP POP JUMP JUMPDEST PUSH32 0x4E487B7100000000000000000000000000000000000000000000000000000000 PUSH0 MSTORE PUSH1 0x11 PUSH1 0x4 MSTORE PUSH1 0x24 PUSH0 REVERT JUMPDEST PUSH0 PUSH2 0x19E2 DUP3 PUSH2 0x14B7 JUMP JUMPDEST SWAP2 POP PUSH2 0x19ED DUP4 PUSH2 0x14B7 JUMP JUMPDEST SWAP3 POP DUP3 DUP3 MUL PUSH2 0x19FB DUP2 PUSH2 0x14B7 JUMP JUMPDEST SWAP2 POP DUP3 DUP3 DIV DUP5 EQ DUP4 ISZERO OR PUSH2 0x1A12 JUMPI PUSH2 0x1A11 PUSH2 0x19AB JUMP JUMPDEST JUMPDEST POP SWAP3 SWAP2 POP POP JUMP JUMPDEST PUSH32 0x4E487B7100000000000000000000000000000000000000000000000000000000 PUSH0 MSTORE PUSH1 0x12 PUSH1 0x4 MSTORE PUSH1 0x24 PUSH0 REVERT JUMPDEST PUSH0 PUSH2 0x1A50 DUP3 PUSH2 0x14B7 JUMP JUMPDEST SWAP2 POP PUSH2 0x1A5B DUP4 PUSH2 0x14B7 JUMP JUMPDEST SWAP3 POP DUP3 PUSH2 0x1A6B JUMPI PUSH2 0x1A6A PUSH2 0x1A19 JUMP JUMPDEST JUMPDEST DUP3 DUP3 DIV SWAP1 POP SWAP3 SWAP2 POP POP JUMP JUMPDEST PUSH2 0x1A7F DUP2 PUSH2 0x14EA JUMP JUMPDEST DUP3 MSTORE POP POP JUMP JUMPDEST PUSH0 PUSH2 0x1A90 DUP4 DUP6 PUSH2 0x1683 JUMP JUMPDEST SWAP4 POP PUSH2 0x1A9D DUP4 DUP6 DUP5 PUSH2 0x13B0 JUMP JUMPDEST PUSH2 0x1AA6 DUP4 PUSH2 0x12F8 JUMP JUMPDEST DUP5 ADD SWAP1 POP SWAP4 SWAP3 POP POP POP JUMP JUMPDEST PUSH0 PUSH1 0xE0 DUP3 ADD SWAP1 POP PUSH2 0x1AC4 PUSH0 DUP4 ADD DUP12 PUSH2 0x1A76 JUMP JUMPDEST PUSH2 0x1AD1 PUSH1 0x20 DUP4 ADD DUP11 PUSH2 0x1618 JUMP JUMPDEST PUSH2 0x1ADE PUSH1 0x40 DUP4 ADD DUP10 PUSH2 0x190F JUMP JUMPDEST PUSH2 0x1AEB PUSH1 0x60 DUP4 ADD DUP9 PUSH2 0x190F JUMP JUMPDEST PUSH2 0x1AF8 PUSH1 0x80 DUP4 ADD DUP8 PUSH2 0x190F JUMP JUMPDEST DUP2 DUP2 SUB PUSH1 0xA0 DUP4 ADD MSTORE PUSH2 0x1B0B DUP2 DUP6 DUP8 PUSH2 0x1A85 JUMP JUMPDEST SWAP1 POP PUSH2 0x1B1A PUSH1 0xC0 DUP4 ADD DUP5 PUSH2 0x1618 JUMP JUMPDEST SWAP10 SWAP9 POP POP POP POP POP POP POP POP POP JUMP JUMPDEST PUSH0 DUP2 SWAP1 POP SWAP2 SWAP1 POP JUMP JUMPDEST PUSH0 PUSH8 0xFFFFFFFFFFFFFFFF DUP3 AND SWAP1 POP SWAP2 SWAP1 POP JUMP JUMPDEST PUSH0 PUSH2 0x1B5D PUSH2 0x1B58 PUSH2 0x1B53 DUP5 PUSH2 0x1B27 JUMP JUMPDEST PUSH2 0x1230 JUMP JUMPDEST PUSH2 0x1B30 JUMP JUMPDEST SWAP1 POP SWAP2 SWAP1 POP JUMP JUMPDEST PUSH2 0x1B6D DUP2 PUSH2 0x1B43 JUMP JUMPDEST DUP3 MSTORE POP POP JUMP JUMPDEST PUSH0 PUSH1 0x20 DUP3 ADD SWAP1 POP PUSH2 0x1B86 PUSH0 DUP4 ADD DUP5 PUSH2 0x1B64 JUMP JUMPDEST SWAP3 SWAP2 POP POP JUMP JUMPDEST PUSH2 0x1B95 DUP2 PUSH2 0x1486 JUMP JUMPDEST DUP2 EQ PUSH2 0x1B9F JUMPI PUSH0 PUSH0 REVERT JUMPDEST POP JUMP JUMPDEST PUSH0 DUP2 MLOAD SWAP1 POP PUSH2 0x1BB0 DUP2 PUSH2 0x1B8C JUMP JUMPDEST SWAP3 SWAP2 POP POP JUMP JUMPDEST PUSH0 PUSH1 0x20 DUP3 DUP5 SUB SLT ISZERO PUSH2 0x1BCB JUMPI PUSH2 0x1BCA PUSH2 0x12AD JUMP JUMPDEST JUMPDEST PUSH0 PUSH2 0x1BD8 DUP5 DUP3 DUP6 ADD PUSH2 0x1BA2 JUMP JUMPDEST SWAP2 POP POP SWAP3 SWAP2 POP POP JUMP JUMPDEST PUSH0 DUP2 MLOAD SWAP1 POP SWAP2 SWAP1 POP JUMP JUMPDEST PUSH0 DUP2 SWAP1 POP SWAP3 SWAP2 POP POP JUMP JUMPDEST PUSH0 PUSH2 0x1BFF DUP3 PUSH2 0x1BE1 JUMP JUMPDEST PUSH2 0x1C09 DUP2 DUP6 PUSH2 0x1BEB JUMP JUMPDEST SWAP4 POP PUSH2 0x1C19 DUP2 DUP6 PUSH1 0x20 DUP7 ADD PUSH2 0x1693 JUMP JUMPDEST DUP1 DUP5 ADD SWAP2 POP POP SWAP3 SWAP2 POP POP JUMP JUMPDEST PUSH0 PUSH2 0x1C30 DUP3 DUP5 PUSH2 0x1BF5 JUMP JUMPDEST SWAP2 POP DUP2 SWAP1 POP SWAP3 SWAP2 POP POP JUMP INVALID LOG2 PUSH5 0x6970667358 0x22 SLT KECCAK256 0xCE SWAP16 PUSH29 0x28E7B7740130D3050251D8A76B7F449E5B2120E67FEE79A133575F7841 PUSH5 0x736F6C6343 STOP ADDMOD 0x1E STOP CALLER "
				},
				"gasEstimates": {
					"creation": {
						"codeDepositCost": "1456200",
						"executionCost": "infinite",
						"totalCost": "infinite"
					},
					"external": {
						"UPGRADE_INTERFACE_VERSION()": "infinite",
						"initialize(address,address,address)": "infinite",
						"logger()": "infinite",
						"owner()": "2566",
						"performAction(address,uint256,uint48,string,address)": "infinite",
						"permissions()": "infinite",
						"proxiableUUID()": "infinite",
						"renounceOwnership()": "infinite",
						"rewardManager()": "infinite",
						"transferOwnership(address)": "infinite",
						"upgradeToAndCall(address,bytes)": "infinite"
					},
					"internal": {
						"_authorizeUpgrade(address)": "infinite"
					}
				},
				"methodIdentifiers": {
					"UPGRADE_INTERFACE_VERSION()": "ad3cb1cc",
					"initialize(address,address,address)": "c0c53b8b",
					"logger()": "f24ccbfe",
					"owner()": "8da5cb5b",
					"performAction(address,uint256,uint48,string,address)": "6d5881c8",
					"permissions()": "ab8c71c0",
					"proxiableUUID()": "52d1902d",
					"renounceOwnership()": "715018a6",
					"rewardManager()": "0f4ef8a6",
					"transferOwnership(address)": "f2fde38b",
					"upgradeToAndCall(address,bytes)": "4f1ef286"
				}
			},
			"storageLayout": {
				"storage": [
					{
						"astId": 1731,
						"contract": "contracts/UCPI.sol:UCPI",
						"label": "permissions",
						"offset": 0,
						"slot": "0",
						"type": "t_contract(Permissions)1612"
					},
					{
						"astId": 1734,
						"contract": "contracts/UCPI.sol:UCPI",
						"label": "rewardManager",
						"offset": 0,
						"slot": "1",
						"type": "t_contract(RewardManager)1714"
					},
					{
						"astId": 1737,
						"contract": "contracts/UCPI.sol:UCPI",
						"label": "logger",
						"offset": 0,
						"slot": "2",
						"type": "t_contract(Logger)1543"
					}
				],
				"types": {
					"t_contract(Logger)1543": {
						"encoding": "inplace",
						"label": "contract Logger",
						"numberOfBytes": "20"
					},
					"t_contract(Permissions)1612": {
						"encoding": "inplace",
						"label": "contract Permissions",
						"numberOfBytes": "20"
					},
					"t_contract(RewardManager)1714": {
						"encoding": "inplace",
						"label": "contract RewardManager",
						"numberOfBytes": "20"
					}
				}
			},
			"userdoc": {
				"kind": "user",
				"methods": {},
				"version": 1
			}
		}
	}
}