{
	"contracts/Logger.sol": {
		"Logger": {
			"abi": [
				{
					"inputs": [],
					"name": "InvalidInitialization",
					"type": "error"
				},
				{
					"inputs": [],
					"name": "NotInitializing",
					"type": "error"
				},
				{
					"inputs": [
						{
							"internalType": "address",
							"name": "owner",
							"type": "address"
						}
					],
					"name": "OwnableInvalidOwner",
					"type": "error"
				},
				{
					"inputs": [
						{
							"internalType": "address",
							"name": "account",
							"type": "address"
						}
					],
					"name": "OwnableUnauthorizedAccount",
					"type": "error"
				},
				{
					"anonymous": false,
					"inputs": [
						{
							"indexed": false,
							"internalType": "uint64",
							"name": "version",
							"type": "uint64"
						}
					],
					"name": "Initialized",
					"type": "event"
				},
				{
					"anonymous": false,
					"inputs": [
						{
							"indexed": true,
							"internalType": "address",
							"name": "previousOwner",
							"type": "address"
						},
						{
							"indexed": true,
							"internalType": "address",
							"name": "newOwner",
							"type": "address"
						}
					],
					"name": "OwnershipTransferred",
					"type": "event"
				},
				{
					"anonymous": false,
					"inputs": [
						{
							"indexed": true,
							"internalType": "address",
							"name": "sender",
							"type": "address"
						},
						{
							"indexed": true,
							"internalType": "address",
							"name": "recipient",
							"type": "address"
						},
						{
							"indexed": false,
							"internalType": "uint256",
							"name": "amount",
							"type": "uint256"
						}
					],
					"name": "TransactionLogged",
					"type": "event"
				},
				{
					"inputs": [],
					"name": "initialize",
					"outputs": [],
					"stateMutability": "nonpayable",
					"type": "function"
				},
				{
					"inputs": [
						{
							"internalType": "uint48",
							"name": "timestamp",
							"type": "uint48"
						},
						{
							"internalType": "address",
							"name": "recipient",
							"type": "address"
						},
						{
							"internalType": "uint256",
							"name": "amount",
							"type": "uint256"
						},
						{
							"internalType": "uint256",
							"name": "fee",
							"type": "uint256"
						},
						{
							"internalType": "uint256",
							"name": "reward",
							"type": "uint256"
						},
						{
							"internalType": "string",
							"name": "txHash",
							"type": "string"
						},
						{
							"internalType": "address",
							"name": "token",
							"type": "address"
						}
					],
					"name": "logTransaction",
					"outputs": [],
					"stateMutability": "nonpayable",
					"type": "function"
				},
				{
					"inputs": [],
					"name": "owner",
					"outputs": [
						{
							"internalType": "address",
							"name": "",
							"type": "address"
						}
					],
					"stateMutability": "view",
					"type": "function"
				},
				{
					"inputs": [],
					"name": "renounceOwnership",
					"outputs": [],
					"stateMutability": "nonpayable",
					"type": "function"
				},
				{
					"inputs": [
						{
							"internalType": "address",
							"name": "newOwner",
							"type": "address"
						}
					],
					"name": "transferOwnership",
					"outputs": [],
					"stateMutability": "nonpayable",
					"type": "function"
				},
				{
					"inputs": [
						{
							"internalType": "address",
							"name": "",
							"type": "address"
						},
						{
							"internalType": "uint256",
							"name": "",
							"type": "uint256"
						}
					],
					"name": "userTransactions",
					"outputs": [
						{
							"internalType": "address",
							"name": "sender",
							"type": "address"
						},
						{
							"internalType": "address",
							"name": "recipient",
							"type": "address"
						},
						{
							"internalType": "uint256",
							"name": "amount",
							"type": "uint256"
						},
						{
							"internalType": "uint256",
							"name": "fee",
							"type": "uint256"
						},
						{
							"internalType": "uint256",
							"name": "reward",
							"type": "uint256"
						},
						{
							"internalType": "uint48",
							"name": "timestamp",
							"type": "uint48"
						},
						{
							"internalType": "string",
							"name": "txHash",
							"type": "string"
						},
						{
							"internalType": "address",
							"name": "token",
							"type": "address"
						}
					],
					"stateMutability": "view",
					"type": "function"
				}
			],
			"devdoc": {
				"errors": {
					"InvalidInitialization()": [
						{
							"details": "The contract is already initialized."
						}
					],
					"NotInitializing()": [
						{
							"details": "The contract is not initializing."
						}
					],
					"OwnableInvalidOwner(address)": [
						{
							"details": "The owner is not a valid owner account. (eg. `address(0)`)"
						}
					],
					"OwnableUnauthorizedAccount(address)": [
						{
							"details": "The caller account is not authorized to perform an operation."
						}
					]
				},
				"events": {
					"Initialized(uint64)": {
						"details": "Triggered when the contract has been initialized or reinitialized."
					}
				},
				"kind": "dev",
				"methods": {
					"owner()": {
						"details": "Returns the address of the current owner."
					},
					"renounceOwnership()": {
						"details": "Leaves the contract without owner. It will not be possible to call `onlyOwner` functions. Can only be called by the current owner. NOTE: Renouncing ownership will leave the contract without an owner, thereby disabling any functionality that is only available to the owner."
					},
					"transferOwnership(address)": {
						"details": "Transfers ownership of the contract to a new account (`newOwner`). Can only be called by the current owner."
					}
				},
				"version": 1
			},
			"evm": {
				"assembly": "    /* \"contracts/Logger.sol\":297:1477  contract Logger is Initializable, OwnableUpgradeable {... */\n  mstore(0x40, 0x80)\n  callvalue\n  dup1\n  iszero\n  tag_1\n  jumpi\n  revert(0x00, 0x00)\ntag_1:\n  pop\n  dataSize(sub_0)\n  dup1\n  dataOffset(sub_0)\n  0x00\n  codecopy\n  0x00\n  return\nstop\n\nsub_0: assembly {\n        /* \"contracts/Logger.sol\":297:1477  contract Logger is Initializable, OwnableUpgradeable {... */\n      mstore(0x40, 0x80)\n      callvalue\n      dup1\n      iszero\n      tag_1\n      jumpi\n      revert(0x00, 0x00)\n    tag_1:\n      pop\n      jumpi(tag_2, lt(calldatasize, 0x04))\n      shr(0xe0, calldataload(0x00))\n      dup1\n      0x715018a6\n      eq\n      tag_3\n      jumpi\n      dup1\n      0x8129fc1c\n      eq\n      tag_4\n      jumpi\n      dup1\n      0x83dc65f2\n      eq\n      tag_5\n      jumpi\n      dup1\n      0x8da5cb5b\n      eq\n      tag_6\n      jumpi\n      dup1\n      0xb842ec44\n      eq\n      tag_7\n      jumpi\n      dup1\n      0xf2fde38b\n      eq\n      tag_8\n      jumpi\n    tag_2:\n      revert(0x00, 0x00)\n        /* \"@openzeppelin/contracts-upgradeable/access/OwnableUpgradeable.sol\":3155:3256  function renounceOwnership() public virtual onlyOwner {... */\n    tag_3:\n      tag_9\n      tag_10\n      jump\t// in\n    tag_9:\n      stop\n        /* \"contracts/Logger.sol\":757:843  function initialize() public initializer {... */\n    tag_4:\n      tag_11\n      tag_12\n      jump\t// in\n    tag_11:\n      stop\n        /* \"contracts/Logger.sol\":851:1474  function logTransaction(uint48 timestamp, address recipient,   uint256 amount, uint256 fee, uint256 reward, string calldata txHash, address token) external {... */\n    tag_5:\n      tag_13\n      0x04\n      dup1\n      calldatasize\n      sub\n      dup2\n      add\n      swap1\n      tag_14\n      swap2\n      swap1\n      tag_15\n      jump\t// in\n    tag_14:\n      tag_16\n      jump\t// in\n    tag_13:\n      stop\n        /* \"@openzeppelin/contracts-upgradeable/access/OwnableUpgradeable.sol\":2441:2585  function owner() public view virtual returns (address) {... */\n    tag_6:\n      tag_17\n      tag_18\n      jump\t// in\n    tag_17:\n      mload(0x40)\n      tag_19\n      swap2\n      swap1\n      tag_20\n      jump\t// in\n    tag_19:\n      mload(0x40)\n      dup1\n      swap2\n      sub\n      swap1\n      return\n        /* \"contracts/Logger.sol\":592:649  mapping(address => Transaction[]) public userTransactions */\n    tag_7:\n      tag_21\n      0x04\n      dup1\n      calldatasize\n      sub\n      dup2\n      add\n      swap1\n      tag_22\n      swap2\n      swap1\n      tag_23\n      jump\t// in\n    tag_22:\n      tag_24\n      jump\t// in\n    tag_21:\n      mload(0x40)\n      tag_25\n      swap9\n      swap8\n      swap7\n      swap6\n      swap5\n      swap4\n      swap3\n      swap2\n      swap1\n      tag_26\n      jump\t// in\n    tag_25:\n      mload(0x40)\n      dup1\n      swap2\n      sub\n      swap1\n      return\n        /* \"@openzeppelin/contracts-upgradeable/access/OwnableUpgradeable.sol\":3405:3620  function transferOwnership(address newOwner) public virtual onlyOwner {... */\n    tag_8:\n      tag_27\n      0x04\n      dup1\n      calldatasize\n      sub\n      dup2\n      add\n      swap1\n      tag_28\n      swap2\n      swap1\n      tag_29\n      jump\t// in\n    tag_28:\n      tag_30\n      jump\t// in\n    tag_27:\n      stop\n        /* \"@openzeppelin/contracts-upgradeable/access/OwnableUpgradeable.sol\":3155:3256  function renounceOwnership() public virtual onlyOwner {... */\n    tag_10:\n        /* \"@openzeppelin/contracts-upgradeable/access/OwnableUpgradeable.sol\":2334:2347  _checkOwner() */\n      tag_32\n        /* \"@openzeppelin/contracts-upgradeable/access/OwnableUpgradeable.sol\":2334:2345  _checkOwner */\n      tag_33\n        /* \"@openzeppelin/contracts-upgradeable/access/OwnableUpgradeable.sol\":2334:2347  _checkOwner() */\n      jump\t// in\n    tag_32:\n        /* \"@openzeppelin/contracts-upgradeable/access/OwnableUpgradeable.sol\":3219:3249  _transferOwnership(address(0)) */\n      tag_35\n        /* \"@openzeppelin/contracts-upgradeable/access/OwnableUpgradeable.sol\":3246:3247  0 */\n      0x00\n        /* \"@openzeppelin/contracts-upgradeable/access/OwnableUpgradeable.sol\":3219:3237  _transferOwnership */\n      tag_36\n        /* \"@openzeppelin/contracts-upgradeable/access/OwnableUpgradeable.sol\":3219:3249  _transferOwnership(address(0)) */\n      jump\t// in\n    tag_35:\n        /* \"@openzeppelin/contracts-upgradeable/access/OwnableUpgradeable.sol\":3155:3256  function renounceOwnership() public virtual onlyOwner {... */\n      jump\t// out\n        /* \"contracts/Logger.sol\":757:843  function initialize() public initializer {... */\n    tag_12:\n        /* \"@openzeppelin/contracts-upgradeable/proxy/utils/Initializable.sol\":4158:4188  InitializableStorage storage $ */\n      0x00\n        /* \"@openzeppelin/contracts-upgradeable/proxy/utils/Initializable.sol\":4191:4217  _getInitializableStorage() */\n      tag_38\n        /* \"@openzeppelin/contracts-upgradeable/proxy/utils/Initializable.sol\":4191:4215  _getInitializableStorage */\n      tag_39\n        /* \"@openzeppelin/contracts-upgradeable/proxy/utils/Initializable.sol\":4191:4217  _getInitializableStorage() */\n      jump\t// in\n    tag_38:\n        /* \"@openzeppelin/contracts-upgradeable/proxy/utils/Initializable.sol\":4158:4217  InitializableStorage storage $ = _getInitializableStorage() */\n      swap1\n      pop\n        /* \"@openzeppelin/contracts-upgradeable/proxy/utils/Initializable.sol\":4279:4298  bool isTopLevelCall */\n      0x00\n        /* \"@openzeppelin/contracts-upgradeable/proxy/utils/Initializable.sol\":4302:4303  $ */\n      dup2\n        /* \"@openzeppelin/contracts-upgradeable/proxy/utils/Initializable.sol\":4302:4317  $._initializing */\n      0x00\n      add\n      0x08\n      swap1\n      sload\n      swap1\n      0x0100\n      exp\n      swap1\n      div\n      0xff\n      and\n        /* \"@openzeppelin/contracts-upgradeable/proxy/utils/Initializable.sol\":4301:4317  !$._initializing */\n      iszero\n        /* \"@openzeppelin/contracts-upgradeable/proxy/utils/Initializable.sol\":4279:4317  bool isTopLevelCall = !$._initializing */\n      swap1\n      pop\n        /* \"@openzeppelin/contracts-upgradeable/proxy/utils/Initializable.sol\":4327:4345  uint64 initialized */\n      0x00\n        /* \"@openzeppelin/contracts-upgradeable/proxy/utils/Initializable.sol\":4348:4349  $ */\n      dup3\n        /* \"@openzeppelin/contracts-upgradeable/proxy/utils/Initializable.sol\":4348:4362  $._initialized */\n      0x00\n      add\n      0x00\n      swap1\n      sload\n      swap1\n      0x0100\n      exp\n      swap1\n      div\n      0xffffffffffffffff\n      and\n        /* \"@openzeppelin/contracts-upgradeable/proxy/utils/Initializable.sol\":4327:4362  uint64 initialized = $._initialized */\n      swap1\n      pop\n        /* \"@openzeppelin/contracts-upgradeable/proxy/utils/Initializable.sol\":4704:4721  bool initialSetup */\n      0x00\n        /* \"@openzeppelin/contracts-upgradeable/proxy/utils/Initializable.sol\":4739:4740  0 */\n      0x00\n        /* \"@openzeppelin/contracts-upgradeable/proxy/utils/Initializable.sol\":4724:4735  initialized */\n      dup3\n        /* \"@openzeppelin/contracts-upgradeable/proxy/utils/Initializable.sol\":4724:4740  initialized == 0 */\n      0xffffffffffffffff\n      and\n      eq\n        /* \"@openzeppelin/contracts-upgradeable/proxy/utils/Initializable.sol\":4724:4758  initialized == 0 && isTopLevelCall */\n      dup1\n      iszero\n      tag_40\n      jumpi\n      pop\n        /* \"@openzeppelin/contracts-upgradeable/proxy/utils/Initializable.sol\":4744:4758  isTopLevelCall */\n      dup3\n        /* \"@openzeppelin/contracts-upgradeable/proxy/utils/Initializable.sol\":4724:4758  initialized == 0 && isTopLevelCall */\n    tag_40:\n        /* \"@openzeppelin/contracts-upgradeable/proxy/utils/Initializable.sol\":4704:4758  bool initialSetup = initialized == 0 && isTopLevelCall */\n      swap1\n      pop\n        /* \"@openzeppelin/contracts-upgradeable/proxy/utils/Initializable.sol\":4768:4785  bool construction */\n      0x00\n        /* \"@openzeppelin/contracts-upgradeable/proxy/utils/Initializable.sol\":4803:4804  1 */\n      0x01\n        /* \"@openzeppelin/contracts-upgradeable/proxy/utils/Initializable.sol\":4788:4799  initialized */\n      dup4\n        /* \"@openzeppelin/contracts-upgradeable/proxy/utils/Initializable.sol\":4788:4804  initialized == 1 */\n      0xffffffffffffffff\n      and\n      eq\n        /* \"@openzeppelin/contracts-upgradeable/proxy/utils/Initializable.sol\":4788:4838  initialized == 1 && address(this).code.length == 0 */\n      dup1\n      iszero\n      tag_41\n      jumpi\n      pop\n        /* \"@openzeppelin/contracts-upgradeable/proxy/utils/Initializable.sol\":4837:4838  0 */\n      0x00\n        /* \"@openzeppelin/contracts-upgradeable/proxy/utils/Initializable.sol\":4816:4820  this */\n      address\n        /* \"@openzeppelin/contracts-upgradeable/proxy/utils/Initializable.sol\":4808:4833  address(this).code.length */\n      0xffffffffffffffffffffffffffffffffffffffff\n      and\n      extcodesize\n        /* \"@openzeppelin/contracts-upgradeable/proxy/utils/Initializable.sol\":4808:4838  address(this).code.length == 0 */\n      eq\n        /* \"@openzeppelin/contracts-upgradeable/proxy/utils/Initializable.sol\":4788:4838  initialized == 1 && address(this).code.length == 0 */\n    tag_41:\n        /* \"@openzeppelin/contracts-upgradeable/proxy/utils/Initializable.sol\":4768:4838  bool construction = initialized == 1 && address(this).code.length == 0 */\n      swap1\n      pop\n        /* \"@openzeppelin/contracts-upgradeable/proxy/utils/Initializable.sol\":4854:4866  initialSetup */\n      dup2\n        /* \"@openzeppelin/contracts-upgradeable/proxy/utils/Initializable.sol\":4853:4866  !initialSetup */\n      iszero\n        /* \"@openzeppelin/contracts-upgradeable/proxy/utils/Initializable.sol\":4853:4883  !initialSetup && !construction */\n      dup1\n      iszero\n      tag_42\n      jumpi\n      pop\n        /* \"@openzeppelin/contracts-upgradeable/proxy/utils/Initializable.sol\":4871:4883  construction */\n      dup1\n        /* \"@openzeppelin/contracts-upgradeable/proxy/utils/Initializable.sol\":4870:4883  !construction */\n      iszero\n        /* \"@openzeppelin/contracts-upgradeable/proxy/utils/Initializable.sol\":4853:4883  !initialSetup && !construction */\n    tag_42:\n        /* \"@openzeppelin/contracts-upgradeable/proxy/utils/Initializable.sol\":4849:4940  if (!initialSetup && !construction) {... */\n      iszero\n      tag_43\n      jumpi\n        /* \"@openzeppelin/contracts-upgradeable/proxy/utils/Initializable.sol\":4906:4929  InvalidInitialization() */\n      mload(0x40)\n      0xf92ee8a900000000000000000000000000000000000000000000000000000000\n      dup2\n      mstore\n      0x04\n      add\n      mload(0x40)\n      dup1\n      swap2\n      sub\n      swap1\n      revert\n        /* \"@openzeppelin/contracts-upgradeable/proxy/utils/Initializable.sol\":4849:4940  if (!initialSetup && !construction) {... */\n    tag_43:\n        /* \"@openzeppelin/contracts-upgradeable/proxy/utils/Initializable.sol\":4966:4967  1 */\n      0x01\n        /* \"@openzeppelin/contracts-upgradeable/proxy/utils/Initializable.sol\":4949:4950  $ */\n      dup6\n        /* \"@openzeppelin/contracts-upgradeable/proxy/utils/Initializable.sol\":4949:4963  $._initialized */\n      0x00\n      add\n      0x00\n        /* \"@openzeppelin/contracts-upgradeable/proxy/utils/Initializable.sol\":4949:4967  $._initialized = 1 */\n      0x0100\n      exp\n      dup2\n      sload\n      dup2\n      0xffffffffffffffff\n      mul\n      not\n      and\n      swap1\n      dup4\n      0xffffffffffffffff\n      and\n      mul\n      or\n      swap1\n      sstore\n      pop\n        /* \"@openzeppelin/contracts-upgradeable/proxy/utils/Initializable.sol\":4981:4995  isTopLevelCall */\n      dup4\n        /* \"@openzeppelin/contracts-upgradeable/proxy/utils/Initializable.sol\":4977:5044  if (isTopLevelCall) {... */\n      iszero\n      tag_44\n      jumpi\n        /* \"@openzeppelin/contracts-upgradeable/proxy/utils/Initializable.sol\":5029:5033  true */\n      0x01\n        /* \"@openzeppelin/contracts-upgradeable/proxy/utils/Initializable.sol\":5011:5012  $ */\n      dup6\n        /* \"@openzeppelin/contracts-upgradeable/proxy/utils/Initializable.sol\":5011:5026  $._initializing */\n      0x00\n      add\n      0x08\n        /* \"@openzeppelin/contracts-upgradeable/proxy/utils/Initializable.sol\":5011:5033  $._initializing = true */\n      0x0100\n      exp\n      dup2\n      sload\n      dup2\n      0xff\n      mul\n      not\n      and\n      swap1\n      dup4\n      iszero\n      iszero\n      mul\n      or\n      swap1\n      sstore\n      pop\n        /* \"@openzeppelin/contracts-upgradeable/proxy/utils/Initializable.sol\":4977:5044  if (isTopLevelCall) {... */\n    tag_44:\n        /* \"contracts/Logger.sol\":809:835  __Ownable_init(msg.sender) */\n      tag_46\n        /* \"contracts/Logger.sol\":824:834  msg.sender */\n      caller\n        /* \"contracts/Logger.sol\":809:823  __Ownable_init */\n      tag_47\n        /* \"contracts/Logger.sol\":809:835  __Ownable_init(msg.sender) */\n      jump\t// in\n    tag_46:\n        /* \"@openzeppelin/contracts-upgradeable/proxy/utils/Initializable.sol\":5068:5082  isTopLevelCall */\n      dup4\n        /* \"@openzeppelin/contracts-upgradeable/proxy/utils/Initializable.sol\":5064:5165  if (isTopLevelCall) {... */\n      iszero\n      tag_48\n      jumpi\n        /* \"@openzeppelin/contracts-upgradeable/proxy/utils/Initializable.sol\":5116:5121  false */\n      0x00\n        /* \"@openzeppelin/contracts-upgradeable/proxy/utils/Initializable.sol\":5098:5099  $ */\n      dup6\n        /* \"@openzeppelin/contracts-upgradeable/proxy/utils/Initializable.sol\":5098:5113  $._initializing */\n      0x00\n      add\n      0x08\n        /* \"@openzeppelin/contracts-upgradeable/proxy/utils/Initializable.sol\":5098:5121  $._initializing = false */\n      0x0100\n      exp\n      dup2\n      sload\n      dup2\n      0xff\n      mul\n      not\n      and\n      swap1\n      dup4\n      iszero\n      iszero\n      mul\n      or\n      swap1\n      sstore\n      pop\n        /* \"@openzeppelin/contracts-upgradeable/proxy/utils/Initializable.sol\":5140:5154  Initialized(1) */\n      0xc7f505b2f371ae2175ee4913f4499e1f2633a7b5936321eed1cdaeb6115181d2\n        /* \"@openzeppelin/contracts-upgradeable/proxy/utils/Initializable.sol\":5152:5153  1 */\n      0x01\n        /* \"@openzeppelin/contracts-upgradeable/proxy/utils/Initializable.sol\":5140:5154  Initialized(1) */\n      mload(0x40)\n      tag_49\n      swap2\n      swap1\n      tag_50\n      jump\t// in\n    tag_49:\n      mload(0x40)\n      dup1\n      swap2\n      sub\n      swap1\n      log1\n        /* \"@openzeppelin/contracts-upgradeable/proxy/utils/Initializable.sol\":5064:5165  if (isTopLevelCall) {... */\n    tag_48:\n        /* \"@openzeppelin/contracts-upgradeable/proxy/utils/Initializable.sol\":4092:5171  {... */\n      pop\n      pop\n      pop\n      pop\n      pop\n        /* \"contracts/Logger.sol\":757:843  function initialize() public initializer {... */\n      jump\t// out\n        /* \"contracts/Logger.sol\":851:1474  function logTransaction(uint48 timestamp, address recipient,   uint256 amount, uint256 fee, uint256 reward, string calldata txHash, address token) external {... */\n    tag_16:\n        /* \"contracts/Logger.sol\":1047:1048  0 */\n      0x00\n        /* \"contracts/Logger.sol\":1026:1049  recipient != address(0) */\n      0xffffffffffffffffffffffffffffffffffffffff\n      and\n        /* \"contracts/Logger.sol\":1026:1035  recipient */\n      dup8\n        /* \"contracts/Logger.sol\":1026:1049  recipient != address(0) */\n      0xffffffffffffffffffffffffffffffffffffffff\n      and\n      eq\n      iszero\n        /* \"contracts/Logger.sol\":1026:1072  recipient != address(0) && token != address(0) */\n      dup1\n      iszero\n      tag_52\n      jumpi\n      pop\n        /* \"contracts/Logger.sol\":1070:1071  0 */\n      0x00\n        /* \"contracts/Logger.sol\":1053:1072  token != address(0) */\n      0xffffffffffffffffffffffffffffffffffffffff\n      and\n        /* \"contracts/Logger.sol\":1053:1058  token */\n      dup2\n        /* \"contracts/Logger.sol\":1053:1072  token != address(0) */\n      0xffffffffffffffffffffffffffffffffffffffff\n      and\n      eq\n      iszero\n        /* \"contracts/Logger.sol\":1026:1072  recipient != address(0) && token != address(0) */\n    tag_52:\n        /* \"contracts/Logger.sol\":1018:1092  require(recipient != address(0) && token != address(0), \"Invalid address\") */\n      tag_53\n      jumpi\n      mload(0x40)\n      0x08c379a000000000000000000000000000000000000000000000000000000000\n      dup2\n      mstore\n      0x04\n      add\n      tag_54\n      swap1\n      tag_55\n      jump\t// in\n    tag_54:\n      mload(0x40)\n      dup1\n      swap2\n      sub\n      swap1\n      revert\n    tag_53:\n        /* \"contracts/Logger.sol\":1103:1119  userTransactions */\n      0x00\n        /* \"contracts/Logger.sol\":1103:1131  userTransactions[msg.sender] */\n      0x00\n        /* \"contracts/Logger.sol\":1120:1130  msg.sender */\n      caller\n        /* \"contracts/Logger.sol\":1103:1131  userTransactions[msg.sender] */\n      0xffffffffffffffffffffffffffffffffffffffff\n      and\n      0xffffffffffffffffffffffffffffffffffffffff\n      and\n      dup2\n      mstore\n      0x20\n      add\n      swap1\n      dup2\n      mstore\n      0x20\n      add\n      0x00\n      keccak256\n        /* \"contracts/Logger.sol\":1137:1401  Transaction({... */\n      mload(0x40)\n      dup1\n      0x0100\n      add\n      0x40\n      mstore\n      dup1\n        /* \"contracts/Logger.sol\":1172:1182  msg.sender */\n      caller\n        /* \"contracts/Logger.sol\":1137:1401  Transaction({... */\n      0xffffffffffffffffffffffffffffffffffffffff\n      and\n      dup2\n      mstore\n      0x20\n      add\n        /* \"contracts/Logger.sol\":1208:1217  recipient */\n      dup10\n        /* \"contracts/Logger.sol\":1137:1401  Transaction({... */\n      0xffffffffffffffffffffffffffffffffffffffff\n      and\n      dup2\n      mstore\n      0x20\n      add\n        /* \"contracts/Logger.sol\":1240:1246  amount */\n      dup9\n        /* \"contracts/Logger.sol\":1137:1401  Transaction({... */\n      dup2\n      mstore\n      0x20\n      add\n        /* \"contracts/Logger.sol\":1266:1269  fee */\n      dup8\n        /* \"contracts/Logger.sol\":1137:1401  Transaction({... */\n      dup2\n      mstore\n      0x20\n      add\n        /* \"contracts/Logger.sol\":1292:1298  reward */\n      dup7\n        /* \"contracts/Logger.sol\":1137:1401  Transaction({... */\n      dup2\n      mstore\n      0x20\n      add\n        /* \"contracts/Logger.sol\":1324:1333  timestamp */\n      dup11\n        /* \"contracts/Logger.sol\":1137:1401  Transaction({... */\n      0xffffffffffff\n      and\n      dup2\n      mstore\n      0x20\n      add\n        /* \"contracts/Logger.sol\":1356:1362  txHash */\n      dup6\n      dup6\n        /* \"contracts/Logger.sol\":1137:1401  Transaction({... */\n      dup1\n      dup1\n      0x1f\n      add\n      0x20\n      dup1\n      swap2\n      div\n      mul\n      0x20\n      add\n      mload(0x40)\n      swap1\n      dup2\n      add\n      0x40\n      mstore\n      dup1\n      swap4\n      swap3\n      swap2\n      swap1\n      dup2\n      dup2\n      mstore\n      0x20\n      add\n      dup4\n      dup4\n      dup1\n      dup3\n      dup5\n      calldatacopy\n      0x00\n      dup2\n      dup5\n      add\n      mstore\n      not(0x1f)\n      0x1f\n      dup3\n      add\n      and\n      swap1\n      pop\n      dup1\n      dup4\n      add\n      swap3\n      pop\n      pop\n      pop\n      pop\n      pop\n      pop\n      pop\n      dup2\n      mstore\n      0x20\n      add\n        /* \"contracts/Logger.sol\":1384:1389  token */\n      dup4\n        /* \"contracts/Logger.sol\":1137:1401  Transaction({... */\n      0xffffffffffffffffffffffffffffffffffffffff\n      and\n      dup2\n      mstore\n      pop\n        /* \"contracts/Logger.sol\":1103:1402  userTransactions[msg.sender].push(Transaction({... */\n      swap1\n      dup1\n      0x01\n      dup2\n      sload\n      add\n      dup1\n      dup3\n      sstore\n      dup1\n      swap2\n      pop\n      pop\n      0x01\n      swap1\n      sub\n      swap1\n      0x00\n      mstore\n      keccak256(0x00, 0x20)\n      swap1\n      0x08\n      mul\n      add\n      0x00\n      swap1\n      swap2\n      swap1\n      swap2\n      swap1\n      swap2\n      pop\n      0x00\n      dup3\n      add\n      mload\n      dup2\n      0x00\n      add\n      exp(0x0100, 0x00)\n      dup2\n      sload\n      dup2\n      0xffffffffffffffffffffffffffffffffffffffff\n      mul\n      not\n      and\n      swap1\n      dup4\n      0xffffffffffffffffffffffffffffffffffffffff\n      and\n      mul\n      or\n      swap1\n      sstore\n      pop\n      0x20\n      dup3\n      add\n      mload\n      dup2\n      0x01\n      add\n      exp(0x0100, 0x00)\n      dup2\n      sload\n      dup2\n      0xffffffffffffffffffffffffffffffffffffffff\n      mul\n      not\n      and\n      swap1\n      dup4\n      0xffffffffffffffffffffffffffffffffffffffff\n      and\n      mul\n      or\n      swap1\n      sstore\n      pop\n      0x40\n      dup3\n      add\n      mload\n      dup2\n      0x02\n      add\n      sstore\n      0x60\n      dup3\n      add\n      mload\n      dup2\n      0x03\n      add\n      sstore\n      0x80\n      dup3\n      add\n      mload\n      dup2\n      0x04\n      add\n      sstore\n      0xa0\n      dup3\n      add\n      mload\n      dup2\n      0x05\n      add\n      exp(0x0100, 0x00)\n      dup2\n      sload\n      dup2\n      0xffffffffffff\n      mul\n      not\n      and\n      swap1\n      dup4\n      0xffffffffffff\n      and\n      mul\n      or\n      swap1\n      sstore\n      pop\n      0xc0\n      dup3\n      add\n      mload\n      dup2\n      0x06\n      add\n      swap1\n      dup2\n      tag_57\n      swap2\n      swap1\n      tag_58\n      jump\t// in\n    tag_57:\n      pop\n      0xe0\n      dup3\n      add\n      mload\n      dup2\n      0x07\n      add\n      exp(0x0100, 0x00)\n      dup2\n      sload\n      dup2\n      0xffffffffffffffffffffffffffffffffffffffff\n      mul\n      not\n      and\n      swap1\n      dup4\n      0xffffffffffffffffffffffffffffffffffffffff\n      and\n      mul\n      or\n      swap1\n      sstore\n      pop\n      pop\n      pop\n        /* \"contracts/Logger.sol\":1448:1457  recipient */\n      dup7\n        /* \"contracts/Logger.sol\":1418:1466  TransactionLogged(msg.sender, recipient, amount) */\n      0xffffffffffffffffffffffffffffffffffffffff\n      and\n        /* \"contracts/Logger.sol\":1436:1446  msg.sender */\n      caller\n        /* \"contracts/Logger.sol\":1418:1466  TransactionLogged(msg.sender, recipient, amount) */\n      0xffffffffffffffffffffffffffffffffffffffff\n      and\n      0xc46393c51fb2221caaec70cc70adecd0bbd1f605f3a19747f4ec3a8aff00cf7c\n        /* \"contracts/Logger.sol\":1459:1465  amount */\n      dup9\n        /* \"contracts/Logger.sol\":1418:1466  TransactionLogged(msg.sender, recipient, amount) */\n      mload(0x40)\n      tag_59\n      swap2\n      swap1\n      tag_60\n      jump\t// in\n    tag_59:\n      mload(0x40)\n      dup1\n      swap2\n      sub\n      swap1\n      log3\n        /* \"contracts/Logger.sol\":851:1474  function logTransaction(uint48 timestamp, address recipient,   uint256 amount, uint256 fee, uint256 reward, string calldata txHash, address token) external {... */\n      pop\n      pop\n      pop\n      pop\n      pop\n      pop\n      pop\n      pop\n      jump\t// out\n        /* \"@openzeppelin/contracts-upgradeable/access/OwnableUpgradeable.sol\":2441:2585  function owner() public view virtual returns (address) {... */\n    tag_18:\n        /* \"@openzeppelin/contracts-upgradeable/access/OwnableUpgradeable.sol\":2487:2494  address */\n      0x00\n        /* \"@openzeppelin/contracts-upgradeable/access/OwnableUpgradeable.sol\":2506:2530  OwnableStorage storage $ */\n      0x00\n        /* \"@openzeppelin/contracts-upgradeable/access/OwnableUpgradeable.sol\":2533:2553  _getOwnableStorage() */\n      tag_62\n        /* \"@openzeppelin/contracts-upgradeable/access/OwnableUpgradeable.sol\":2533:2551  _getOwnableStorage */\n      tag_63\n        /* \"@openzeppelin/contracts-upgradeable/access/OwnableUpgradeable.sol\":2533:2553  _getOwnableStorage() */\n      jump\t// in\n    tag_62:\n        /* \"@openzeppelin/contracts-upgradeable/access/OwnableUpgradeable.sol\":2506:2553  OwnableStorage storage $ = _getOwnableStorage() */\n      swap1\n      pop\n        /* \"@openzeppelin/contracts-upgradeable/access/OwnableUpgradeable.sol\":2570:2571  $ */\n      dup1\n        /* \"@openzeppelin/contracts-upgradeable/access/OwnableUpgradeable.sol\":2570:2578  $._owner */\n      0x00\n      add\n      0x00\n      swap1\n      sload\n      swap1\n      0x0100\n      exp\n      swap1\n      div\n      0xffffffffffffffffffffffffffffffffffffffff\n      and\n        /* \"@openzeppelin/contracts-upgradeable/access/OwnableUpgradeable.sol\":2563:2578  return $._owner */\n      swap2\n      pop\n      pop\n        /* \"@openzeppelin/contracts-upgradeable/access/OwnableUpgradeable.sol\":2441:2585  function owner() public view virtual returns (address) {... */\n      swap1\n      jump\t// out\n        /* \"contracts/Logger.sol\":592:649  mapping(address => Transaction[]) public userTransactions */\n    tag_24:\n      mstore(0x20, 0x00)\n      dup2\n      0x00\n      mstore\n      keccak256(0x00, 0x40)\n      dup2\n      dup2\n      sload\n      dup2\n      lt\n      tag_64\n      jumpi\n      0x00\n      dup1\n      revert\n    tag_64:\n      swap1\n      0x00\n      mstore\n      keccak256(0x00, 0x20)\n      swap1\n      0x08\n      mul\n      add\n      0x00\n      swap2\n      pop\n      swap2\n      pop\n      pop\n      dup1\n      0x00\n      add\n      0x00\n      swap1\n      sload\n      swap1\n      0x0100\n      exp\n      swap1\n      div\n      0xffffffffffffffffffffffffffffffffffffffff\n      and\n      swap1\n      dup1\n      0x01\n      add\n      0x00\n      swap1\n      sload\n      swap1\n      0x0100\n      exp\n      swap1\n      div\n      0xffffffffffffffffffffffffffffffffffffffff\n      and\n      swap1\n      dup1\n      0x02\n      add\n      sload\n      swap1\n      dup1\n      0x03\n      add\n      sload\n      swap1\n      dup1\n      0x04\n      add\n      sload\n      swap1\n      dup1\n      0x05\n      add\n      0x00\n      swap1\n      sload\n      swap1\n      0x0100\n      exp\n      swap1\n      div\n      0xffffffffffff\n      and\n      swap1\n      dup1\n      0x06\n      add\n      dup1\n      sload\n      tag_66\n      swap1\n      tag_67\n      jump\t// in\n    tag_66:\n      dup1\n      0x1f\n      add\n      0x20\n      dup1\n      swap2\n      div\n      mul\n      0x20\n      add\n      mload(0x40)\n      swap1\n      dup2\n      add\n      0x40\n      mstore\n      dup1\n      swap3\n      swap2\n      swap1\n      dup2\n      dup2\n      mstore\n      0x20\n      add\n      dup3\n      dup1\n      sload\n      tag_68\n      swap1\n      tag_67\n      jump\t// in\n    tag_68:\n      dup1\n      iszero\n      tag_69\n      jumpi\n      dup1\n      0x1f\n      lt\n      tag_70\n      jumpi\n      0x0100\n      dup1\n      dup4\n      sload\n      div\n      mul\n      dup4\n      mstore\n      swap2\n      0x20\n      add\n      swap2\n      jump(tag_69)\n    tag_70:\n      dup3\n      add\n      swap2\n      swap1\n      0x00\n      mstore\n      keccak256(0x00, 0x20)\n      swap1\n    tag_71:\n      dup2\n      sload\n      dup2\n      mstore\n      swap1\n      0x01\n      add\n      swap1\n      0x20\n      add\n      dup1\n      dup4\n      gt\n      tag_71\n      jumpi\n      dup3\n      swap1\n      sub\n      0x1f\n      and\n      dup3\n      add\n      swap2\n    tag_69:\n      pop\n      pop\n      pop\n      pop\n      pop\n      swap1\n      dup1\n      0x07\n      add\n      0x00\n      swap1\n      sload\n      swap1\n      0x0100\n      exp\n      swap1\n      div\n      0xffffffffffffffffffffffffffffffffffffffff\n      and\n      swap1\n      pop\n      dup9\n      jump\t// out\n        /* \"@openzeppelin/contracts-upgradeable/access/OwnableUpgradeable.sol\":3405:3620  function transferOwnership(address newOwner) public virtual onlyOwner {... */\n    tag_30:\n        /* \"@openzeppelin/contracts-upgradeable/access/OwnableUpgradeable.sol\":2334:2347  _checkOwner() */\n      tag_73\n        /* \"@openzeppelin/contracts-upgradeable/access/OwnableUpgradeable.sol\":2334:2345  _checkOwner */\n      tag_33\n        /* \"@openzeppelin/contracts-upgradeable/access/OwnableUpgradeable.sol\":2334:2347  _checkOwner() */\n      jump\t// in\n    tag_73:\n        /* \"@openzeppelin/contracts-upgradeable/access/OwnableUpgradeable.sol\":3509:3510  0 */\n      0x00\n        /* \"@openzeppelin/contracts-upgradeable/access/OwnableUpgradeable.sol\":3489:3511  newOwner == address(0) */\n      0xffffffffffffffffffffffffffffffffffffffff\n      and\n        /* \"@openzeppelin/contracts-upgradeable/access/OwnableUpgradeable.sol\":3489:3497  newOwner */\n      dup2\n        /* \"@openzeppelin/contracts-upgradeable/access/OwnableUpgradeable.sol\":3489:3511  newOwner == address(0) */\n      0xffffffffffffffffffffffffffffffffffffffff\n      and\n      sub\n        /* \"@openzeppelin/contracts-upgradeable/access/OwnableUpgradeable.sol\":3485:3576  if (newOwner == address(0)) {... */\n      tag_75\n      jumpi\n        /* \"@openzeppelin/contracts-upgradeable/access/OwnableUpgradeable.sol\":3562:3563  0 */\n      0x00\n        /* \"@openzeppelin/contracts-upgradeable/access/OwnableUpgradeable.sol\":3534:3565  OwnableInvalidOwner(address(0)) */\n      mload(0x40)\n      0x1e4fbdf700000000000000000000000000000000000000000000000000000000\n      dup2\n      mstore\n      0x04\n      add\n      tag_76\n      swap2\n      swap1\n      tag_20\n      jump\t// in\n    tag_76:\n      mload(0x40)\n      dup1\n      swap2\n      sub\n      swap1\n      revert\n        /* \"@openzeppelin/contracts-upgradeable/access/OwnableUpgradeable.sol\":3485:3576  if (newOwner == address(0)) {... */\n    tag_75:\n        /* \"@openzeppelin/contracts-upgradeable/access/OwnableUpgradeable.sol\":3585:3613  _transferOwnership(newOwner) */\n      tag_77\n        /* \"@openzeppelin/contracts-upgradeable/access/OwnableUpgradeable.sol\":3604:3612  newOwner */\n      dup2\n        /* \"@openzeppelin/contracts-upgradeable/access/OwnableUpgradeable.sol\":3585:3603  _transferOwnership */\n      tag_36\n        /* \"@openzeppelin/contracts-upgradeable/access/OwnableUpgradeable.sol\":3585:3613  _transferOwnership(newOwner) */\n      jump\t// in\n    tag_77:\n        /* \"@openzeppelin/contracts-upgradeable/access/OwnableUpgradeable.sol\":3405:3620  function transferOwnership(address newOwner) public virtual onlyOwner {... */\n      pop\n      jump\t// out\n        /* \"@openzeppelin/contracts-upgradeable/access/OwnableUpgradeable.sol\":2658:2820  function _checkOwner() internal view virtual {... */\n    tag_33:\n        /* \"@openzeppelin/contracts-upgradeable/access/OwnableUpgradeable.sol\":2728:2740  _msgSender() */\n      tag_79\n        /* \"@openzeppelin/contracts-upgradeable/access/OwnableUpgradeable.sol\":2728:2738  _msgSender */\n      tag_80\n        /* \"@openzeppelin/contracts-upgradeable/access/OwnableUpgradeable.sol\":2728:2740  _msgSender() */\n      jump\t// in\n    tag_79:\n        /* \"@openzeppelin/contracts-upgradeable/access/OwnableUpgradeable.sol\":2717:2740  owner() != _msgSender() */\n      0xffffffffffffffffffffffffffffffffffffffff\n      and\n        /* \"@openzeppelin/contracts-upgradeable/access/OwnableUpgradeable.sol\":2717:2724  owner() */\n      tag_81\n        /* \"@openzeppelin/contracts-upgradeable/access/OwnableUpgradeable.sol\":2717:2722  owner */\n      tag_18\n        /* \"@openzeppelin/contracts-upgradeable/access/OwnableUpgradeable.sol\":2717:2724  owner() */\n      jump\t// in\n    tag_81:\n        /* \"@openzeppelin/contracts-upgradeable/access/OwnableUpgradeable.sol\":2717:2740  owner() != _msgSender() */\n      0xffffffffffffffffffffffffffffffffffffffff\n      and\n      eq\n        /* \"@openzeppelin/contracts-upgradeable/access/OwnableUpgradeable.sol\":2713:2814  if (owner() != _msgSender()) {... */\n      tag_82\n      jumpi\n        /* \"@openzeppelin/contracts-upgradeable/access/OwnableUpgradeable.sol\":2790:2802  _msgSender() */\n      tag_83\n        /* \"@openzeppelin/contracts-upgradeable/access/OwnableUpgradeable.sol\":2790:2800  _msgSender */\n      tag_80\n        /* \"@openzeppelin/contracts-upgradeable/access/OwnableUpgradeable.sol\":2790:2802  _msgSender() */\n      jump\t// in\n    tag_83:\n        /* \"@openzeppelin/contracts-upgradeable/access/OwnableUpgradeable.sol\":2763:2803  OwnableUnauthorizedAccount(_msgSender()) */\n      mload(0x40)\n      0x118cdaa700000000000000000000000000000000000000000000000000000000\n      dup2\n      mstore\n      0x04\n      add\n      tag_84\n      swap2\n      swap1\n      tag_20\n      jump\t// in\n    tag_84:\n      mload(0x40)\n      dup1\n      swap2\n      sub\n      swap1\n      revert\n        /* \"@openzeppelin/contracts-upgradeable/access/OwnableUpgradeable.sol\":2713:2814  if (owner() != _msgSender()) {... */\n    tag_82:\n        /* \"@openzeppelin/contracts-upgradeable/access/OwnableUpgradeable.sol\":2658:2820  function _checkOwner() internal view virtual {... */\n      jump\t// out\n        /* \"@openzeppelin/contracts-upgradeable/access/OwnableUpgradeable.sol\":3774:4022  function _transferOwnership(address newOwner) internal virtual {... */\n    tag_36:\n        /* \"@openzeppelin/contracts-upgradeable/access/OwnableUpgradeable.sol\":3847:3871  OwnableStorage storage $ */\n      0x00\n        /* \"@openzeppelin/contracts-upgradeable/access/OwnableUpgradeable.sol\":3874:3894  _getOwnableStorage() */\n      tag_86\n        /* \"@openzeppelin/contracts-upgradeable/access/OwnableUpgradeable.sol\":3874:3892  _getOwnableStorage */\n      tag_63\n        /* \"@openzeppelin/contracts-upgradeable/access/OwnableUpgradeable.sol\":3874:3894  _getOwnableStorage() */\n      jump\t// in\n    tag_86:\n        /* \"@openzeppelin/contracts-upgradeable/access/OwnableUpgradeable.sol\":3847:3894  OwnableStorage storage $ = _getOwnableStorage() */\n      swap1\n      pop\n        /* \"@openzeppelin/contracts-upgradeable/access/OwnableUpgradeable.sol\":3904:3920  address oldOwner */\n      0x00\n        /* \"@openzeppelin/contracts-upgradeable/access/OwnableUpgradeable.sol\":3923:3924  $ */\n      dup2\n        /* \"@openzeppelin/contracts-upgradeable/access/OwnableUpgradeable.sol\":3923:3931  $._owner */\n      0x00\n      add\n      0x00\n      swap1\n      sload\n      swap1\n      0x0100\n      exp\n      swap1\n      div\n      0xffffffffffffffffffffffffffffffffffffffff\n      and\n        /* \"@openzeppelin/contracts-upgradeable/access/OwnableUpgradeable.sol\":3904:3931  address oldOwner = $._owner */\n      swap1\n      pop\n        /* \"@openzeppelin/contracts-upgradeable/access/OwnableUpgradeable.sol\":3952:3960  newOwner */\n      dup3\n        /* \"@openzeppelin/contracts-upgradeable/access/OwnableUpgradeable.sol\":3941:3942  $ */\n      dup3\n        /* \"@openzeppelin/contracts-upgradeable/access/OwnableUpgradeable.sol\":3941:3949  $._owner */\n      0x00\n      add\n      0x00\n        /* \"@openzeppelin/contracts-upgradeable/access/OwnableUpgradeable.sol\":3941:3960  $._owner = newOwner */\n      0x0100\n      exp\n      dup2\n      sload\n      dup2\n      0xffffffffffffffffffffffffffffffffffffffff\n      mul\n      not\n      and\n      swap1\n      dup4\n      0xffffffffffffffffffffffffffffffffffffffff\n      and\n      mul\n      or\n      swap1\n      sstore\n      pop\n        /* \"@openzeppelin/contracts-upgradeable/access/OwnableUpgradeable.sol\":4006:4014  newOwner */\n      dup3\n        /* \"@openzeppelin/contracts-upgradeable/access/OwnableUpgradeable.sol\":3975:4015  OwnershipTransferred(oldOwner, newOwner) */\n      0xffffffffffffffffffffffffffffffffffffffff\n      and\n        /* \"@openzeppelin/contracts-upgradeable/access/OwnableUpgradeable.sol\":3996:4004  oldOwner */\n      dup2\n        /* \"@openzeppelin/contracts-upgradeable/access/OwnableUpgradeable.sol\":3975:4015  OwnershipTransferred(oldOwner, newOwner) */\n      0xffffffffffffffffffffffffffffffffffffffff\n      and\n      0x8be0079c531659141344cd1fd0a4f28419497f9722a3daafe3b4186f6b6457e0\n      mload(0x40)\n      mload(0x40)\n      dup1\n      swap2\n      sub\n      swap1\n      log3\n        /* \"@openzeppelin/contracts-upgradeable/access/OwnableUpgradeable.sol\":3837:4022  {... */\n      pop\n      pop\n        /* \"@openzeppelin/contracts-upgradeable/access/OwnableUpgradeable.sol\":3774:4022  function _transferOwnership(address newOwner) internal virtual {... */\n      pop\n      jump\t// out\n        /* \"@openzeppelin/contracts-upgradeable/proxy/utils/Initializable.sol\":9071:9276  function _getInitializableStorage() private pure returns (InitializableStorage storage $) {... */\n    tag_39:\n        /* \"@openzeppelin/contracts-upgradeable/proxy/utils/Initializable.sol\":9129:9159  InitializableStorage storage $ */\n      0x00\n        /* \"@openzeppelin/contracts-upgradeable/proxy/utils/Initializable.sol\":9171:9183  bytes32 slot */\n      0x00\n        /* \"@openzeppelin/contracts-upgradeable/proxy/utils/Initializable.sol\":9186:9213  _initializableStorageSlot() */\n      tag_88\n        /* \"@openzeppelin/contracts-upgradeable/proxy/utils/Initializable.sol\":9186:9211  _initializableStorageSlot */\n      tag_89\n        /* \"@openzeppelin/contracts-upgradeable/proxy/utils/Initializable.sol\":9186:9213  _initializableStorageSlot() */\n      jump\t// in\n    tag_88:\n        /* \"@openzeppelin/contracts-upgradeable/proxy/utils/Initializable.sol\":9171:9213  bytes32 slot = _initializableStorageSlot() */\n      swap1\n      pop\n        /* \"@openzeppelin/contracts-upgradeable/proxy/utils/Initializable.sol\":9256:9260  slot */\n      dup1\n        /* \"@openzeppelin/contracts-upgradeable/proxy/utils/Initializable.sol\":9246:9260  $.slot := slot */\n      swap2\n      pop\n        /* \"@openzeppelin/contracts-upgradeable/proxy/utils/Initializable.sol\":9232:9270  {... */\n      pop\n        /* \"@openzeppelin/contracts-upgradeable/proxy/utils/Initializable.sol\":9071:9276  function _getInitializableStorage() private pure returns (InitializableStorage storage $) {... */\n      swap1\n      jump\t// out\n        /* \"@openzeppelin/contracts-upgradeable/access/OwnableUpgradeable.sol\":1847:1974  function __Ownable_init(address initialOwner) internal onlyInitializing {... */\n    tag_47:\n        /* \"@openzeppelin/contracts-upgradeable/proxy/utils/Initializable.sol\":6929:6949  _checkInitializing() */\n      tag_91\n        /* \"@openzeppelin/contracts-upgradeable/proxy/utils/Initializable.sol\":6929:6947  _checkInitializing */\n      tag_92\n        /* \"@openzeppelin/contracts-upgradeable/proxy/utils/Initializable.sol\":6929:6949  _checkInitializing() */\n      jump\t// in\n    tag_91:\n        /* \"@openzeppelin/contracts-upgradeable/access/OwnableUpgradeable.sol\":1929:1967  __Ownable_init_unchained(initialOwner) */\n      tag_94\n        /* \"@openzeppelin/contracts-upgradeable/access/OwnableUpgradeable.sol\":1954:1966  initialOwner */\n      dup2\n        /* \"@openzeppelin/contracts-upgradeable/access/OwnableUpgradeable.sol\":1929:1953  __Ownable_init_unchained */\n      tag_95\n        /* \"@openzeppelin/contracts-upgradeable/access/OwnableUpgradeable.sol\":1929:1967  __Ownable_init_unchained(initialOwner) */\n      jump\t// in\n    tag_94:\n        /* \"@openzeppelin/contracts-upgradeable/access/OwnableUpgradeable.sol\":1847:1974  function __Ownable_init(address initialOwner) internal onlyInitializing {... */\n      pop\n      jump\t// out\n        /* \"@openzeppelin/contracts-upgradeable/access/OwnableUpgradeable.sol\":1192:1351  function _getOwnableStorage() private pure returns (OwnableStorage storage $) {... */\n    tag_63:\n        /* \"@openzeppelin/contracts-upgradeable/access/OwnableUpgradeable.sol\":1244:1268  OwnableStorage storage $ */\n      0x00\n        /* \"@openzeppelin/contracts-upgradeable/access/OwnableUpgradeable.sol\":1313:1335  OwnableStorageLocation */\n      0x9016d09d72d40fdae2fd8ceac6b6234c7706214fd39c1cd1e609a0528c199300\n        /* \"@openzeppelin/contracts-upgradeable/access/OwnableUpgradeable.sol\":1303:1335  $.slot := OwnableStorageLocation */\n      swap1\n      pop\n        /* \"@openzeppelin/contracts-upgradeable/access/OwnableUpgradeable.sol\":1192:1351  function _getOwnableStorage() private pure returns (OwnableStorage storage $) {... */\n      swap1\n      jump\t// out\n        /* \"@openzeppelin/contracts-upgradeable/utils/ContextUpgradeable.sol\":887:983  function _msgSender() internal view virtual returns (address) {... */\n    tag_80:\n        /* \"@openzeppelin/contracts-upgradeable/utils/ContextUpgradeable.sol\":940:947  address */\n      0x00\n        /* \"@openzeppelin/contracts-upgradeable/utils/ContextUpgradeable.sol\":966:976  msg.sender */\n      caller\n        /* \"@openzeppelin/contracts-upgradeable/utils/ContextUpgradeable.sol\":959:976  return msg.sender */\n      swap1\n      pop\n        /* \"@openzeppelin/contracts-upgradeable/utils/ContextUpgradeable.sol\":887:983  function _msgSender() internal view virtual returns (address) {... */\n      swap1\n      jump\t// out\n        /* \"@openzeppelin/contracts-upgradeable/proxy/utils/Initializable.sol\":8819:8941  function _initializableStorageSlot() internal pure virtual returns (bytes32) {... */\n    tag_89:\n        /* \"@openzeppelin/contracts-upgradeable/proxy/utils/Initializable.sol\":8887:8894  bytes32 */\n      0x00\n        /* \"@openzeppelin/contracts-upgradeable/proxy/utils/Initializable.sol\":3147:3213  0xf0c57e16840df040f15088dc2f81fe391c3923bec73e23a9662efc9c229c6a00 */\n      0xf0c57e16840df040f15088dc2f81fe391c3923bec73e23a9662efc9c229c6a00\n        /* \"@openzeppelin/contracts-upgradeable/proxy/utils/Initializable.sol\":8913:8934  INITIALIZABLE_STORAGE */\n      0x00\n      shl\n        /* \"@openzeppelin/contracts-upgradeable/proxy/utils/Initializable.sol\":8906:8934  return INITIALIZABLE_STORAGE */\n      swap1\n      pop\n        /* \"@openzeppelin/contracts-upgradeable/proxy/utils/Initializable.sol\":8819:8941  function _initializableStorageSlot() internal pure virtual returns (bytes32) {... */\n      swap1\n      jump\t// out\n        /* \"@openzeppelin/contracts-upgradeable/proxy/utils/Initializable.sol\":7082:7223  function _checkInitializing() internal view virtual {... */\n    tag_92:\n        /* \"@openzeppelin/contracts-upgradeable/proxy/utils/Initializable.sol\":7149:7166  _isInitializing() */\n      tag_100\n        /* \"@openzeppelin/contracts-upgradeable/proxy/utils/Initializable.sol\":7149:7164  _isInitializing */\n      tag_101\n        /* \"@openzeppelin/contracts-upgradeable/proxy/utils/Initializable.sol\":7149:7166  _isInitializing() */\n      jump\t// in\n    tag_100:\n        /* \"@openzeppelin/contracts-upgradeable/proxy/utils/Initializable.sol\":7144:7217  if (!_isInitializing()) {... */\n      tag_102\n      jumpi\n        /* \"@openzeppelin/contracts-upgradeable/proxy/utils/Initializable.sol\":7189:7206  NotInitializing() */\n      mload(0x40)\n      0xd7e6bcf800000000000000000000000000000000000000000000000000000000\n      dup2\n      mstore\n      0x04\n      add\n      mload(0x40)\n      dup1\n      swap2\n      sub\n      swap1\n      revert\n        /* \"@openzeppelin/contracts-upgradeable/proxy/utils/Initializable.sol\":7144:7217  if (!_isInitializing()) {... */\n    tag_102:\n        /* \"@openzeppelin/contracts-upgradeable/proxy/utils/Initializable.sol\":7082:7223  function _checkInitializing() internal view virtual {... */\n      jump\t// out\n        /* \"@openzeppelin/contracts-upgradeable/access/OwnableUpgradeable.sol\":1980:2215  function __Ownable_init_unchained(address initialOwner) internal onlyInitializing {... */\n    tag_95:\n        /* \"@openzeppelin/contracts-upgradeable/proxy/utils/Initializable.sol\":6929:6949  _checkInitializing() */\n      tag_104\n        /* \"@openzeppelin/contracts-upgradeable/proxy/utils/Initializable.sol\":6929:6947  _checkInitializing */\n      tag_92\n        /* \"@openzeppelin/contracts-upgradeable/proxy/utils/Initializable.sol\":6929:6949  _checkInitializing() */\n      jump\t// in\n    tag_104:\n        /* \"@openzeppelin/contracts-upgradeable/access/OwnableUpgradeable.sol\":2100:2101  0 */\n      0x00\n        /* \"@openzeppelin/contracts-upgradeable/access/OwnableUpgradeable.sol\":2076:2102  initialOwner == address(0) */\n      0xffffffffffffffffffffffffffffffffffffffff\n      and\n        /* \"@openzeppelin/contracts-upgradeable/access/OwnableUpgradeable.sol\":2076:2088  initialOwner */\n      dup2\n        /* \"@openzeppelin/contracts-upgradeable/access/OwnableUpgradeable.sol\":2076:2102  initialOwner == address(0) */\n      0xffffffffffffffffffffffffffffffffffffffff\n      and\n      sub\n        /* \"@openzeppelin/contracts-upgradeable/access/OwnableUpgradeable.sol\":2072:2167  if (initialOwner == address(0)) {... */\n      tag_106\n      jumpi\n        /* \"@openzeppelin/contracts-upgradeable/access/OwnableUpgradeable.sol\":2153:2154  0 */\n      0x00\n        /* \"@openzeppelin/contracts-upgradeable/access/OwnableUpgradeable.sol\":2125:2156  OwnableInvalidOwner(address(0)) */\n      mload(0x40)\n      0x1e4fbdf700000000000000000000000000000000000000000000000000000000\n      dup2\n      mstore\n      0x04\n      add\n      tag_107\n      swap2\n      swap1\n      tag_20\n      jump\t// in\n    tag_107:\n      mload(0x40)\n      dup1\n      swap2\n      sub\n      swap1\n      revert\n        /* \"@openzeppelin/contracts-upgradeable/access/OwnableUpgradeable.sol\":2072:2167  if (initialOwner == address(0)) {... */\n    tag_106:\n        /* \"@openzeppelin/contracts-upgradeable/access/OwnableUpgradeable.sol\":2176:2208  _transferOwnership(initialOwner) */\n      tag_108\n        /* \"@openzeppelin/contracts-upgradeable/access/OwnableUpgradeable.sol\":2195:2207  initialOwner */\n      dup2\n        /* \"@openzeppelin/contracts-upgradeable/access/OwnableUpgradeable.sol\":2176:2194  _transferOwnership */\n      tag_36\n        /* \"@openzeppelin/contracts-upgradeable/access/OwnableUpgradeable.sol\":2176:2208  _transferOwnership(initialOwner) */\n      jump\t// in\n    tag_108:\n        /* \"@openzeppelin/contracts-upgradeable/access/OwnableUpgradeable.sol\":1980:2215  function __Ownable_init_unchained(address initialOwner) internal onlyInitializing {... */\n      pop\n      jump\t// out\n        /* \"@openzeppelin/contracts-upgradeable/proxy/utils/Initializable.sol\":8485:8605  function _isInitializing() internal view returns (bool) {... */\n    tag_101:\n        /* \"@openzeppelin/contracts-upgradeable/proxy/utils/Initializable.sol\":8535:8539  bool */\n      0x00\n        /* \"@openzeppelin/contracts-upgradeable/proxy/utils/Initializable.sol\":8558:8584  _getInitializableStorage() */\n      tag_110\n        /* \"@openzeppelin/contracts-upgradeable/proxy/utils/Initializable.sol\":8558:8582  _getInitializableStorage */\n      tag_39\n        /* \"@openzeppelin/contracts-upgradeable/proxy/utils/Initializable.sol\":8558:8584  _getInitializableStorage() */\n      jump\t// in\n    tag_110:\n        /* \"@openzeppelin/contracts-upgradeable/proxy/utils/Initializable.sol\":8558:8598  _getInitializableStorage()._initializing */\n      0x00\n      add\n      0x08\n      swap1\n      sload\n      swap1\n      0x0100\n      exp\n      swap1\n      div\n      0xff\n      and\n        /* \"@openzeppelin/contracts-upgradeable/proxy/utils/Initializable.sol\":8551:8598  return _getInitializableStorage()._initializing */\n      swap1\n      pop\n        /* \"@openzeppelin/contracts-upgradeable/proxy/utils/Initializable.sol\":8485:8605  function _isInitializing() internal view returns (bool) {... */\n      swap1\n      jump\t// out\n        /* \"#utility.yul\":88:205   */\n    tag_112:\n        /* \"#utility.yul\":197:198   */\n      0x00\n        /* \"#utility.yul\":194:195   */\n      0x00\n        /* \"#utility.yul\":187:199   */\n      revert\n        /* \"#utility.yul\":211:328   */\n    tag_113:\n        /* \"#utility.yul\":320:321   */\n      0x00\n        /* \"#utility.yul\":317:318   */\n      0x00\n        /* \"#utility.yul\":310:322   */\n      revert\n        /* \"#utility.yul\":334:431   */\n    tag_114:\n        /* \"#utility.yul\":370:377   */\n      0x00\n        /* \"#utility.yul\":410:424   */\n      0xffffffffffff\n        /* \"#utility.yul\":403:408   */\n      dup3\n        /* \"#utility.yul\":399:425   */\n      and\n        /* \"#utility.yul\":388:425   */\n      swap1\n      pop\n        /* \"#utility.yul\":334:431   */\n      swap2\n      swap1\n      pop\n      jump\t// out\n        /* \"#utility.yul\":437:557   */\n    tag_115:\n        /* \"#utility.yul\":509:532   */\n      tag_165\n        /* \"#utility.yul\":526:531   */\n      dup2\n        /* \"#utility.yul\":509:532   */\n      tag_114\n      jump\t// in\n    tag_165:\n        /* \"#utility.yul\":502:507   */\n      dup2\n        /* \"#utility.yul\":499:533   */\n      eq\n        /* \"#utility.yul\":489:551   */\n      tag_166\n      jumpi\n        /* \"#utility.yul\":547:548   */\n      0x00\n        /* \"#utility.yul\":544:545   */\n      0x00\n        /* \"#utility.yul\":537:549   */\n      revert\n        /* \"#utility.yul\":489:551   */\n    tag_166:\n        /* \"#utility.yul\":437:557   */\n      pop\n      jump\t// out\n        /* \"#utility.yul\":563:700   */\n    tag_116:\n        /* \"#utility.yul\":608:613   */\n      0x00\n        /* \"#utility.yul\":646:652   */\n      dup2\n        /* \"#utility.yul\":633:653   */\n      calldataload\n        /* \"#utility.yul\":624:653   */\n      swap1\n      pop\n        /* \"#utility.yul\":662:694   */\n      tag_168\n        /* \"#utility.yul\":688:693   */\n      dup2\n        /* \"#utility.yul\":662:694   */\n      tag_115\n      jump\t// in\n    tag_168:\n        /* \"#utility.yul\":563:700   */\n      swap3\n      swap2\n      pop\n      pop\n      jump\t// out\n        /* \"#utility.yul\":706:832   */\n    tag_117:\n        /* \"#utility.yul\":743:750   */\n      0x00\n        /* \"#utility.yul\":783:825   */\n      0xffffffffffffffffffffffffffffffffffffffff\n        /* \"#utility.yul\":776:781   */\n      dup3\n        /* \"#utility.yul\":772:826   */\n      and\n        /* \"#utility.yul\":761:826   */\n      swap1\n      pop\n        /* \"#utility.yul\":706:832   */\n      swap2\n      swap1\n      pop\n      jump\t// out\n        /* \"#utility.yul\":838:934   */\n    tag_118:\n        /* \"#utility.yul\":875:882   */\n      0x00\n        /* \"#utility.yul\":904:928   */\n      tag_171\n        /* \"#utility.yul\":922:927   */\n      dup3\n        /* \"#utility.yul\":904:928   */\n      tag_117\n      jump\t// in\n    tag_171:\n        /* \"#utility.yul\":893:928   */\n      swap1\n      pop\n        /* \"#utility.yul\":838:934   */\n      swap2\n      swap1\n      pop\n      jump\t// out\n        /* \"#utility.yul\":940:1062   */\n    tag_119:\n        /* \"#utility.yul\":1013:1037   */\n      tag_173\n        /* \"#utility.yul\":1031:1036   */\n      dup2\n        /* \"#utility.yul\":1013:1037   */\n      tag_118\n      jump\t// in\n    tag_173:\n        /* \"#utility.yul\":1006:1011   */\n      dup2\n        /* \"#utility.yul\":1003:1038   */\n      eq\n        /* \"#utility.yul\":993:1056   */\n      tag_174\n      jumpi\n        /* \"#utility.yul\":1052:1053   */\n      0x00\n        /* \"#utility.yul\":1049:1050   */\n      0x00\n        /* \"#utility.yul\":1042:1054   */\n      revert\n        /* \"#utility.yul\":993:1056   */\n    tag_174:\n        /* \"#utility.yul\":940:1062   */\n      pop\n      jump\t// out\n        /* \"#utility.yul\":1068:1207   */\n    tag_120:\n        /* \"#utility.yul\":1114:1119   */\n      0x00\n        /* \"#utility.yul\":1152:1158   */\n      dup2\n        /* \"#utility.yul\":1139:1159   */\n      calldataload\n        /* \"#utility.yul\":1130:1159   */\n      swap1\n      pop\n        /* \"#utility.yul\":1168:1201   */\n      tag_176\n        /* \"#utility.yul\":1195:1200   */\n      dup2\n        /* \"#utility.yul\":1168:1201   */\n      tag_119\n      jump\t// in\n    tag_176:\n        /* \"#utility.yul\":1068:1207   */\n      swap3\n      swap2\n      pop\n      pop\n      jump\t// out\n        /* \"#utility.yul\":1213:1290   */\n    tag_121:\n        /* \"#utility.yul\":1250:1257   */\n      0x00\n        /* \"#utility.yul\":1279:1284   */\n      dup2\n        /* \"#utility.yul\":1268:1284   */\n      swap1\n      pop\n        /* \"#utility.yul\":1213:1290   */\n      swap2\n      swap1\n      pop\n      jump\t// out\n        /* \"#utility.yul\":1296:1418   */\n    tag_122:\n        /* \"#utility.yul\":1369:1393   */\n      tag_179\n        /* \"#utility.yul\":1387:1392   */\n      dup2\n        /* \"#utility.yul\":1369:1393   */\n      tag_121\n      jump\t// in\n    tag_179:\n        /* \"#utility.yul\":1362:1367   */\n      dup2\n        /* \"#utility.yul\":1359:1394   */\n      eq\n        /* \"#utility.yul\":1349:1412   */\n      tag_180\n      jumpi\n        /* \"#utility.yul\":1408:1409   */\n      0x00\n        /* \"#utility.yul\":1405:1406   */\n      0x00\n        /* \"#utility.yul\":1398:1410   */\n      revert\n        /* \"#utility.yul\":1349:1412   */\n    tag_180:\n        /* \"#utility.yul\":1296:1418   */\n      pop\n      jump\t// out\n        /* \"#utility.yul\":1424:1563   */\n    tag_123:\n        /* \"#utility.yul\":1470:1475   */\n      0x00\n        /* \"#utility.yul\":1508:1514   */\n      dup2\n        /* \"#utility.yul\":1495:1515   */\n      calldataload\n        /* \"#utility.yul\":1486:1515   */\n      swap1\n      pop\n        /* \"#utility.yul\":1524:1557   */\n      tag_182\n        /* \"#utility.yul\":1551:1556   */\n      dup2\n        /* \"#utility.yul\":1524:1557   */\n      tag_122\n      jump\t// in\n    tag_182:\n        /* \"#utility.yul\":1424:1563   */\n      swap3\n      swap2\n      pop\n      pop\n      jump\t// out\n        /* \"#utility.yul\":1569:1686   */\n    tag_124:\n        /* \"#utility.yul\":1678:1679   */\n      0x00\n        /* \"#utility.yul\":1675:1676   */\n      0x00\n        /* \"#utility.yul\":1668:1680   */\n      revert\n        /* \"#utility.yul\":1692:1809   */\n    tag_125:\n        /* \"#utility.yul\":1801:1802   */\n      0x00\n        /* \"#utility.yul\":1798:1799   */\n      0x00\n        /* \"#utility.yul\":1791:1803   */\n      revert\n        /* \"#utility.yul\":1815:1932   */\n    tag_126:\n        /* \"#utility.yul\":1924:1925   */\n      0x00\n        /* \"#utility.yul\":1921:1922   */\n      0x00\n        /* \"#utility.yul\":1914:1926   */\n      revert\n        /* \"#utility.yul\":1952:2505   */\n    tag_127:\n        /* \"#utility.yul\":2010:2018   */\n      0x00\n        /* \"#utility.yul\":2020:2026   */\n      0x00\n        /* \"#utility.yul\":2070:2073   */\n      dup4\n        /* \"#utility.yul\":2063:2067   */\n      0x1f\n        /* \"#utility.yul\":2055:2061   */\n      dup5\n        /* \"#utility.yul\":2051:2068   */\n      add\n        /* \"#utility.yul\":2047:2074   */\n      slt\n        /* \"#utility.yul\":2037:2159   */\n      tag_187\n      jumpi\n        /* \"#utility.yul\":2078:2157   */\n      tag_188\n      tag_124\n      jump\t// in\n    tag_188:\n        /* \"#utility.yul\":2037:2159   */\n    tag_187:\n        /* \"#utility.yul\":2191:2197   */\n      dup3\n        /* \"#utility.yul\":2178:2198   */\n      calldataload\n        /* \"#utility.yul\":2168:2198   */\n      swap1\n      pop\n        /* \"#utility.yul\":2221:2239   */\n      0xffffffffffffffff\n        /* \"#utility.yul\":2213:2219   */\n      dup2\n        /* \"#utility.yul\":2210:2240   */\n      gt\n        /* \"#utility.yul\":2207:2324   */\n      iszero\n      tag_189\n      jumpi\n        /* \"#utility.yul\":2243:2322   */\n      tag_190\n      tag_125\n      jump\t// in\n    tag_190:\n        /* \"#utility.yul\":2207:2324   */\n    tag_189:\n        /* \"#utility.yul\":2357:2361   */\n      0x20\n        /* \"#utility.yul\":2349:2355   */\n      dup4\n        /* \"#utility.yul\":2345:2362   */\n      add\n        /* \"#utility.yul\":2333:2362   */\n      swap2\n      pop\n        /* \"#utility.yul\":2411:2414   */\n      dup4\n        /* \"#utility.yul\":2403:2407   */\n      0x01\n        /* \"#utility.yul\":2395:2401   */\n      dup3\n        /* \"#utility.yul\":2391:2408   */\n      mul\n        /* \"#utility.yul\":2381:2389   */\n      dup4\n        /* \"#utility.yul\":2377:2409   */\n      add\n        /* \"#utility.yul\":2374:2415   */\n      gt\n        /* \"#utility.yul\":2371:2499   */\n      iszero\n      tag_191\n      jumpi\n        /* \"#utility.yul\":2418:2497   */\n      tag_192\n      tag_126\n      jump\t// in\n    tag_192:\n        /* \"#utility.yul\":2371:2499   */\n    tag_191:\n        /* \"#utility.yul\":1952:2505   */\n      swap3\n      pop\n      swap3\n      swap1\n      pop\n      jump\t// out\n        /* \"#utility.yul\":2511:3912   */\n    tag_15:\n        /* \"#utility.yul\":2635:2641   */\n      0x00\n        /* \"#utility.yul\":2643:2649   */\n      0x00\n        /* \"#utility.yul\":2651:2657   */\n      0x00\n        /* \"#utility.yul\":2659:2665   */\n      0x00\n        /* \"#utility.yul\":2667:2673   */\n      0x00\n        /* \"#utility.yul\":2675:2681   */\n      0x00\n        /* \"#utility.yul\":2683:2689   */\n      0x00\n        /* \"#utility.yul\":2691:2697   */\n      0x00\n        /* \"#utility.yul\":2740:2743   */\n      0xe0\n        /* \"#utility.yul\":2728:2737   */\n      dup10\n        /* \"#utility.yul\":2719:2726   */\n      dup12\n        /* \"#utility.yul\":2715:2738   */\n      sub\n        /* \"#utility.yul\":2711:2744   */\n      slt\n        /* \"#utility.yul\":2708:2828   */\n      iszero\n      tag_194\n      jumpi\n        /* \"#utility.yul\":2747:2826   */\n      tag_195\n      tag_112\n      jump\t// in\n    tag_195:\n        /* \"#utility.yul\":2708:2828   */\n    tag_194:\n        /* \"#utility.yul\":2867:2868   */\n      0x00\n        /* \"#utility.yul\":2892:2944   */\n      tag_196\n        /* \"#utility.yul\":2936:2943   */\n      dup12\n        /* \"#utility.yul\":2927:2933   */\n      dup3\n        /* \"#utility.yul\":2916:2925   */\n      dup13\n        /* \"#utility.yul\":2912:2934   */\n      add\n        /* \"#utility.yul\":2892:2944   */\n      tag_116\n      jump\t// in\n    tag_196:\n        /* \"#utility.yul\":2882:2944   */\n      swap9\n      pop\n        /* \"#utility.yul\":2838:2954   */\n      pop\n        /* \"#utility.yul\":2993:2995   */\n      0x20\n        /* \"#utility.yul\":3019:3072   */\n      tag_197\n        /* \"#utility.yul\":3064:3071   */\n      dup12\n        /* \"#utility.yul\":3055:3061   */\n      dup3\n        /* \"#utility.yul\":3044:3053   */\n      dup13\n        /* \"#utility.yul\":3040:3062   */\n      add\n        /* \"#utility.yul\":3019:3072   */\n      tag_120\n      jump\t// in\n    tag_197:\n        /* \"#utility.yul\":3009:3072   */\n      swap8\n      pop\n        /* \"#utility.yul\":2964:3082   */\n      pop\n        /* \"#utility.yul\":3121:3123   */\n      0x40\n        /* \"#utility.yul\":3147:3200   */\n      tag_198\n        /* \"#utility.yul\":3192:3199   */\n      dup12\n        /* \"#utility.yul\":3183:3189   */\n      dup3\n        /* \"#utility.yul\":3172:3181   */\n      dup13\n        /* \"#utility.yul\":3168:3190   */\n      add\n        /* \"#utility.yul\":3147:3200   */\n      tag_123\n      jump\t// in\n    tag_198:\n        /* \"#utility.yul\":3137:3200   */\n      swap7\n      pop\n        /* \"#utility.yul\":3092:3210   */\n      pop\n        /* \"#utility.yul\":3249:3251   */\n      0x60\n        /* \"#utility.yul\":3275:3328   */\n      tag_199\n        /* \"#utility.yul\":3320:3327   */\n      dup12\n        /* \"#utility.yul\":3311:3317   */\n      dup3\n        /* \"#utility.yul\":3300:3309   */\n      dup13\n        /* \"#utility.yul\":3296:3318   */\n      add\n        /* \"#utility.yul\":3275:3328   */\n      tag_123\n      jump\t// in\n    tag_199:\n        /* \"#utility.yul\":3265:3328   */\n      swap6\n      pop\n        /* \"#utility.yul\":3220:3338   */\n      pop\n        /* \"#utility.yul\":3377:3380   */\n      0x80\n        /* \"#utility.yul\":3404:3457   */\n      tag_200\n        /* \"#utility.yul\":3449:3456   */\n      dup12\n        /* \"#utility.yul\":3440:3446   */\n      dup3\n        /* \"#utility.yul\":3429:3438   */\n      dup13\n        /* \"#utility.yul\":3425:3447   */\n      add\n        /* \"#utility.yul\":3404:3457   */\n      tag_123\n      jump\t// in\n    tag_200:\n        /* \"#utility.yul\":3394:3457   */\n      swap5\n      pop\n        /* \"#utility.yul\":3348:3467   */\n      pop\n        /* \"#utility.yul\":3534:3537   */\n      0xa0\n        /* \"#utility.yul\":3523:3532   */\n      dup10\n        /* \"#utility.yul\":3519:3538   */\n      add\n        /* \"#utility.yul\":3506:3539   */\n      calldataload\n        /* \"#utility.yul\":3566:3584   */\n      0xffffffffffffffff\n        /* \"#utility.yul\":3558:3564   */\n      dup2\n        /* \"#utility.yul\":3555:3585   */\n      gt\n        /* \"#utility.yul\":3552:3669   */\n      iszero\n      tag_201\n      jumpi\n        /* \"#utility.yul\":3588:3667   */\n      tag_202\n      tag_113\n      jump\t// in\n    tag_202:\n        /* \"#utility.yul\":3552:3669   */\n    tag_201:\n        /* \"#utility.yul\":3701:3766   */\n      tag_203\n        /* \"#utility.yul\":3758:3765   */\n      dup12\n        /* \"#utility.yul\":3749:3755   */\n      dup3\n        /* \"#utility.yul\":3738:3747   */\n      dup13\n        /* \"#utility.yul\":3734:3756   */\n      add\n        /* \"#utility.yul\":3701:3766   */\n      tag_127\n      jump\t// in\n    tag_203:\n        /* \"#utility.yul\":3683:3766   */\n      swap4\n      pop\n      swap4\n      pop\n        /* \"#utility.yul\":3477:3776   */\n      pop\n        /* \"#utility.yul\":3815:3818   */\n      0xc0\n        /* \"#utility.yul\":3842:3895   */\n      tag_204\n        /* \"#utility.yul\":3887:3894   */\n      dup12\n        /* \"#utility.yul\":3878:3884   */\n      dup3\n        /* \"#utility.yul\":3867:3876   */\n      dup13\n        /* \"#utility.yul\":3863:3885   */\n      add\n        /* \"#utility.yul\":3842:3895   */\n      tag_120\n      jump\t// in\n    tag_204:\n        /* \"#utility.yul\":3832:3895   */\n      swap2\n      pop\n        /* \"#utility.yul\":3786:3905   */\n      pop\n        /* \"#utility.yul\":2511:3912   */\n      swap3\n      swap6\n      swap9\n      pop\n      swap3\n      swap6\n      swap9\n      swap1\n      swap4\n      swap7\n      pop\n      jump\t// out\n        /* \"#utility.yul\":3918:4036   */\n    tag_128:\n        /* \"#utility.yul\":4005:4029   */\n      tag_206\n        /* \"#utility.yul\":4023:4028   */\n      dup2\n        /* \"#utility.yul\":4005:4029   */\n      tag_118\n      jump\t// in\n    tag_206:\n        /* \"#utility.yul\":4000:4003   */\n      dup3\n        /* \"#utility.yul\":3993:4030   */\n      mstore\n        /* \"#utility.yul\":3918:4036   */\n      pop\n      pop\n      jump\t// out\n        /* \"#utility.yul\":4042:4264   */\n    tag_20:\n        /* \"#utility.yul\":4135:4139   */\n      0x00\n        /* \"#utility.yul\":4173:4175   */\n      0x20\n        /* \"#utility.yul\":4162:4171   */\n      dup3\n        /* \"#utility.yul\":4158:4176   */\n      add\n        /* \"#utility.yul\":4150:4176   */\n      swap1\n      pop\n        /* \"#utility.yul\":4186:4257   */\n      tag_208\n        /* \"#utility.yul\":4254:4255   */\n      0x00\n        /* \"#utility.yul\":4243:4252   */\n      dup4\n        /* \"#utility.yul\":4239:4256   */\n      add\n        /* \"#utility.yul\":4230:4236   */\n      dup5\n        /* \"#utility.yul\":4186:4257   */\n      tag_128\n      jump\t// in\n    tag_208:\n        /* \"#utility.yul\":4042:4264   */\n      swap3\n      swap2\n      pop\n      pop\n      jump\t// out\n        /* \"#utility.yul\":4270:4744   */\n    tag_23:\n        /* \"#utility.yul\":4338:4344   */\n      0x00\n        /* \"#utility.yul\":4346:4352   */\n      0x00\n        /* \"#utility.yul\":4395:4397   */\n      0x40\n        /* \"#utility.yul\":4383:4392   */\n      dup4\n        /* \"#utility.yul\":4374:4381   */\n      dup6\n        /* \"#utility.yul\":4370:4393   */\n      sub\n        /* \"#utility.yul\":4366:4398   */\n      slt\n        /* \"#utility.yul\":4363:4482   */\n      iszero\n      tag_210\n      jumpi\n        /* \"#utility.yul\":4401:4480   */\n      tag_211\n      tag_112\n      jump\t// in\n    tag_211:\n        /* \"#utility.yul\":4363:4482   */\n    tag_210:\n        /* \"#utility.yul\":4521:4522   */\n      0x00\n        /* \"#utility.yul\":4546:4599   */\n      tag_212\n        /* \"#utility.yul\":4591:4598   */\n      dup6\n        /* \"#utility.yul\":4582:4588   */\n      dup3\n        /* \"#utility.yul\":4571:4580   */\n      dup7\n        /* \"#utility.yul\":4567:4589   */\n      add\n        /* \"#utility.yul\":4546:4599   */\n      tag_120\n      jump\t// in\n    tag_212:\n        /* \"#utility.yul\":4536:4599   */\n      swap3\n      pop\n        /* \"#utility.yul\":4492:4609   */\n      pop\n        /* \"#utility.yul\":4648:4650   */\n      0x20\n        /* \"#utility.yul\":4674:4727   */\n      tag_213\n        /* \"#utility.yul\":4719:4726   */\n      dup6\n        /* \"#utility.yul\":4710:4716   */\n      dup3\n        /* \"#utility.yul\":4699:4708   */\n      dup7\n        /* \"#utility.yul\":4695:4717   */\n      add\n        /* \"#utility.yul\":4674:4727   */\n      tag_123\n      jump\t// in\n    tag_213:\n        /* \"#utility.yul\":4664:4727   */\n      swap2\n      pop\n        /* \"#utility.yul\":4619:4737   */\n      pop\n        /* \"#utility.yul\":4270:4744   */\n      swap3\n      pop\n      swap3\n      swap1\n      pop\n      jump\t// out\n        /* \"#utility.yul\":4750:4868   */\n    tag_129:\n        /* \"#utility.yul\":4837:4861   */\n      tag_215\n        /* \"#utility.yul\":4855:4860   */\n      dup2\n        /* \"#utility.yul\":4837:4861   */\n      tag_121\n      jump\t// in\n    tag_215:\n        /* \"#utility.yul\":4832:4835   */\n      dup3\n        /* \"#utility.yul\":4825:4862   */\n      mstore\n        /* \"#utility.yul\":4750:4868   */\n      pop\n      pop\n      jump\t// out\n        /* \"#utility.yul\":4874:4989   */\n    tag_130:\n        /* \"#utility.yul\":4959:4982   */\n      tag_217\n        /* \"#utility.yul\":4976:4981   */\n      dup2\n        /* \"#utility.yul\":4959:4982   */\n      tag_114\n      jump\t// in\n    tag_217:\n        /* \"#utility.yul\":4954:4957   */\n      dup3\n        /* \"#utility.yul\":4947:4983   */\n      mstore\n        /* \"#utility.yul\":4874:4989   */\n      pop\n      pop\n      jump\t// out\n        /* \"#utility.yul\":4995:5094   */\n    tag_131:\n        /* \"#utility.yul\":5047:5053   */\n      0x00\n        /* \"#utility.yul\":5081:5086   */\n      dup2\n        /* \"#utility.yul\":5075:5087   */\n      mload\n        /* \"#utility.yul\":5065:5087   */\n      swap1\n      pop\n        /* \"#utility.yul\":4995:5094   */\n      swap2\n      swap1\n      pop\n      jump\t// out\n        /* \"#utility.yul\":5100:5269   */\n    tag_132:\n        /* \"#utility.yul\":5184:5195   */\n      0x00\n        /* \"#utility.yul\":5218:5224   */\n      dup3\n        /* \"#utility.yul\":5213:5216   */\n      dup3\n        /* \"#utility.yul\":5206:5225   */\n      mstore\n        /* \"#utility.yul\":5258:5262   */\n      0x20\n        /* \"#utility.yul\":5253:5256   */\n      dup3\n        /* \"#utility.yul\":5249:5263   */\n      add\n        /* \"#utility.yul\":5234:5263   */\n      swap1\n      pop\n        /* \"#utility.yul\":5100:5269   */\n      swap3\n      swap2\n      pop\n      pop\n      jump\t// out\n        /* \"#utility.yul\":5275:5414   */\n    tag_133:\n        /* \"#utility.yul\":5364:5370   */\n      dup3\n        /* \"#utility.yul\":5359:5362   */\n      dup2\n        /* \"#utility.yul\":5354:5357   */\n      dup4\n        /* \"#utility.yul\":5348:5371   */\n      mcopy\n        /* \"#utility.yul\":5405:5406   */\n      0x00\n        /* \"#utility.yul\":5396:5402   */\n      dup4\n        /* \"#utility.yul\":5391:5394   */\n      dup4\n        /* \"#utility.yul\":5387:5403   */\n      add\n        /* \"#utility.yul\":5380:5407   */\n      mstore\n        /* \"#utility.yul\":5275:5414   */\n      pop\n      pop\n      pop\n      jump\t// out\n        /* \"#utility.yul\":5420:5522   */\n    tag_134:\n        /* \"#utility.yul\":5461:5467   */\n      0x00\n        /* \"#utility.yul\":5512:5514   */\n      0x1f\n        /* \"#utility.yul\":5508:5515   */\n      not\n        /* \"#utility.yul\":5503:5505   */\n      0x1f\n        /* \"#utility.yul\":5496:5501   */\n      dup4\n        /* \"#utility.yul\":5492:5506   */\n      add\n        /* \"#utility.yul\":5488:5516   */\n      and\n        /* \"#utility.yul\":5478:5516   */\n      swap1\n      pop\n        /* \"#utility.yul\":5420:5522   */\n      swap2\n      swap1\n      pop\n      jump\t// out\n        /* \"#utility.yul\":5528:5905   */\n    tag_135:\n        /* \"#utility.yul\":5616:5619   */\n      0x00\n        /* \"#utility.yul\":5644:5683   */\n      tag_223\n        /* \"#utility.yul\":5677:5682   */\n      dup3\n        /* \"#utility.yul\":5644:5683   */\n      tag_131\n      jump\t// in\n    tag_223:\n        /* \"#utility.yul\":5699:5770   */\n      tag_224\n        /* \"#utility.yul\":5763:5769   */\n      dup2\n        /* \"#utility.yul\":5758:5761   */\n      dup6\n        /* \"#utility.yul\":5699:5770   */\n      tag_132\n      jump\t// in\n    tag_224:\n        /* \"#utility.yul\":5692:5770   */\n      swap4\n      pop\n        /* \"#utility.yul\":5779:5844   */\n      tag_225\n        /* \"#utility.yul\":5837:5843   */\n      dup2\n        /* \"#utility.yul\":5832:5835   */\n      dup6\n        /* \"#utility.yul\":5825:5829   */\n      0x20\n        /* \"#utility.yul\":5818:5823   */\n      dup7\n        /* \"#utility.yul\":5814:5830   */\n      add\n        /* \"#utility.yul\":5779:5844   */\n      tag_133\n      jump\t// in\n    tag_225:\n        /* \"#utility.yul\":5869:5898   */\n      tag_226\n        /* \"#utility.yul\":5891:5897   */\n      dup2\n        /* \"#utility.yul\":5869:5898   */\n      tag_134\n      jump\t// in\n    tag_226:\n        /* \"#utility.yul\":5864:5867   */\n      dup5\n        /* \"#utility.yul\":5860:5899   */\n      add\n        /* \"#utility.yul\":5853:5899   */\n      swap2\n      pop\n        /* \"#utility.yul\":5620:5905   */\n      pop\n        /* \"#utility.yul\":5528:5905   */\n      swap3\n      swap2\n      pop\n      pop\n      jump\t// out\n        /* \"#utility.yul\":5911:6995   */\n    tag_26:\n        /* \"#utility.yul\":6218:6222   */\n      0x00\n        /* \"#utility.yul\":6256:6259   */\n      0x0100\n        /* \"#utility.yul\":6245:6254   */\n      dup3\n        /* \"#utility.yul\":6241:6260   */\n      add\n        /* \"#utility.yul\":6233:6260   */\n      swap1\n      pop\n        /* \"#utility.yul\":6270:6341   */\n      tag_228\n        /* \"#utility.yul\":6338:6339   */\n      0x00\n        /* \"#utility.yul\":6327:6336   */\n      dup4\n        /* \"#utility.yul\":6323:6340   */\n      add\n        /* \"#utility.yul\":6314:6320   */\n      dup12\n        /* \"#utility.yul\":6270:6341   */\n      tag_128\n      jump\t// in\n    tag_228:\n        /* \"#utility.yul\":6351:6423   */\n      tag_229\n        /* \"#utility.yul\":6419:6421   */\n      0x20\n        /* \"#utility.yul\":6408:6417   */\n      dup4\n        /* \"#utility.yul\":6404:6422   */\n      add\n        /* \"#utility.yul\":6395:6401   */\n      dup11\n        /* \"#utility.yul\":6351:6423   */\n      tag_128\n      jump\t// in\n    tag_229:\n        /* \"#utility.yul\":6433:6505   */\n      tag_230\n        /* \"#utility.yul\":6501:6503   */\n      0x40\n        /* \"#utility.yul\":6490:6499   */\n      dup4\n        /* \"#utility.yul\":6486:6504   */\n      add\n        /* \"#utility.yul\":6477:6483   */\n      dup10\n        /* \"#utility.yul\":6433:6505   */\n      tag_129\n      jump\t// in\n    tag_230:\n        /* \"#utility.yul\":6515:6587   */\n      tag_231\n        /* \"#utility.yul\":6583:6585   */\n      0x60\n        /* \"#utility.yul\":6572:6581   */\n      dup4\n        /* \"#utility.yul\":6568:6586   */\n      add\n        /* \"#utility.yul\":6559:6565   */\n      dup9\n        /* \"#utility.yul\":6515:6587   */\n      tag_129\n      jump\t// in\n    tag_231:\n        /* \"#utility.yul\":6597:6670   */\n      tag_232\n        /* \"#utility.yul\":6665:6668   */\n      0x80\n        /* \"#utility.yul\":6654:6663   */\n      dup4\n        /* \"#utility.yul\":6650:6669   */\n      add\n        /* \"#utility.yul\":6641:6647   */\n      dup8\n        /* \"#utility.yul\":6597:6670   */\n      tag_129\n      jump\t// in\n    tag_232:\n        /* \"#utility.yul\":6680:6751   */\n      tag_233\n        /* \"#utility.yul\":6746:6749   */\n      0xa0\n        /* \"#utility.yul\":6735:6744   */\n      dup4\n        /* \"#utility.yul\":6731:6750   */\n      add\n        /* \"#utility.yul\":6722:6728   */\n      dup7\n        /* \"#utility.yul\":6680:6751   */\n      tag_130\n      jump\t// in\n    tag_233:\n        /* \"#utility.yul\":6799:6808   */\n      dup2\n        /* \"#utility.yul\":6793:6797   */\n      dup2\n        /* \"#utility.yul\":6789:6809   */\n      sub\n        /* \"#utility.yul\":6783:6786   */\n      0xc0\n        /* \"#utility.yul\":6772:6781   */\n      dup4\n        /* \"#utility.yul\":6768:6787   */\n      add\n        /* \"#utility.yul\":6761:6810   */\n      mstore\n        /* \"#utility.yul\":6827:6905   */\n      tag_234\n        /* \"#utility.yul\":6900:6904   */\n      dup2\n        /* \"#utility.yul\":6891:6897   */\n      dup6\n        /* \"#utility.yul\":6827:6905   */\n      tag_135\n      jump\t// in\n    tag_234:\n        /* \"#utility.yul\":6819:6905   */\n      swap1\n      pop\n        /* \"#utility.yul\":6915:6988   */\n      tag_235\n        /* \"#utility.yul\":6983:6986   */\n      0xe0\n        /* \"#utility.yul\":6972:6981   */\n      dup4\n        /* \"#utility.yul\":6968:6987   */\n      add\n        /* \"#utility.yul\":6959:6965   */\n      dup5\n        /* \"#utility.yul\":6915:6988   */\n      tag_128\n      jump\t// in\n    tag_235:\n        /* \"#utility.yul\":5911:6995   */\n      swap10\n      swap9\n      pop\n      pop\n      pop\n      pop\n      pop\n      pop\n      pop\n      pop\n      pop\n      jump\t// out\n        /* \"#utility.yul\":7001:7330   */\n    tag_29:\n        /* \"#utility.yul\":7060:7066   */\n      0x00\n        /* \"#utility.yul\":7109:7111   */\n      0x20\n        /* \"#utility.yul\":7097:7106   */\n      dup3\n        /* \"#utility.yul\":7088:7095   */\n      dup5\n        /* \"#utility.yul\":7084:7107   */\n      sub\n        /* \"#utility.yul\":7080:7112   */\n      slt\n        /* \"#utility.yul\":7077:7196   */\n      iszero\n      tag_237\n      jumpi\n        /* \"#utility.yul\":7115:7194   */\n      tag_238\n      tag_112\n      jump\t// in\n    tag_238:\n        /* \"#utility.yul\":7077:7196   */\n    tag_237:\n        /* \"#utility.yul\":7235:7236   */\n      0x00\n        /* \"#utility.yul\":7260:7313   */\n      tag_239\n        /* \"#utility.yul\":7305:7312   */\n      dup5\n        /* \"#utility.yul\":7296:7302   */\n      dup3\n        /* \"#utility.yul\":7285:7294   */\n      dup6\n        /* \"#utility.yul\":7281:7303   */\n      add\n        /* \"#utility.yul\":7260:7313   */\n      tag_120\n      jump\t// in\n    tag_239:\n        /* \"#utility.yul\":7250:7313   */\n      swap2\n      pop\n        /* \"#utility.yul\":7206:7323   */\n      pop\n        /* \"#utility.yul\":7001:7330   */\n      swap3\n      swap2\n      pop\n      pop\n      jump\t// out\n        /* \"#utility.yul\":7336:7421   */\n    tag_136:\n        /* \"#utility.yul\":7381:7388   */\n      0x00\n        /* \"#utility.yul\":7410:7415   */\n      dup2\n        /* \"#utility.yul\":7399:7415   */\n      swap1\n      pop\n        /* \"#utility.yul\":7336:7421   */\n      swap2\n      swap1\n      pop\n      jump\t// out\n        /* \"#utility.yul\":7427:7528   */\n    tag_137:\n        /* \"#utility.yul\":7463:7470   */\n      0x00\n        /* \"#utility.yul\":7503:7521   */\n      0xffffffffffffffff\n        /* \"#utility.yul\":7496:7501   */\n      dup3\n        /* \"#utility.yul\":7492:7522   */\n      and\n        /* \"#utility.yul\":7481:7522   */\n      swap1\n      pop\n        /* \"#utility.yul\":7427:7528   */\n      swap2\n      swap1\n      pop\n      jump\t// out\n        /* \"#utility.yul\":7534:7594   */\n    tag_138:\n        /* \"#utility.yul\":7562:7565   */\n      0x00\n        /* \"#utility.yul\":7583:7588   */\n      dup2\n        /* \"#utility.yul\":7576:7588   */\n      swap1\n      pop\n        /* \"#utility.yul\":7534:7594   */\n      swap2\n      swap1\n      pop\n      jump\t// out\n        /* \"#utility.yul\":7600:7756   */\n    tag_139:\n        /* \"#utility.yul\":7657:7666   */\n      0x00\n        /* \"#utility.yul\":7690:7750   */\n      tag_244\n        /* \"#utility.yul\":7707:7749   */\n      tag_245\n        /* \"#utility.yul\":7716:7748   */\n      tag_246\n        /* \"#utility.yul\":7742:7747   */\n      dup5\n        /* \"#utility.yul\":7716:7748   */\n      tag_136\n      jump\t// in\n    tag_246:\n        /* \"#utility.yul\":7707:7749   */\n      tag_138\n      jump\t// in\n    tag_245:\n        /* \"#utility.yul\":7690:7750   */\n      tag_137\n      jump\t// in\n    tag_244:\n        /* \"#utility.yul\":7677:7750   */\n      swap1\n      pop\n        /* \"#utility.yul\":7600:7756   */\n      swap2\n      swap1\n      pop\n      jump\t// out\n        /* \"#utility.yul\":7762:7907   */\n    tag_140:\n        /* \"#utility.yul\":7856:7900   */\n      tag_248\n        /* \"#utility.yul\":7894:7899   */\n      dup2\n        /* \"#utility.yul\":7856:7900   */\n      tag_139\n      jump\t// in\n    tag_248:\n        /* \"#utility.yul\":7851:7854   */\n      dup3\n        /* \"#utility.yul\":7844:7901   */\n      mstore\n        /* \"#utility.yul\":7762:7907   */\n      pop\n      pop\n      jump\t// out\n        /* \"#utility.yul\":7913:8149   */\n    tag_50:\n        /* \"#utility.yul\":8013:8017   */\n      0x00\n        /* \"#utility.yul\":8051:8053   */\n      0x20\n        /* \"#utility.yul\":8040:8049   */\n      dup3\n        /* \"#utility.yul\":8036:8054   */\n      add\n        /* \"#utility.yul\":8028:8054   */\n      swap1\n      pop\n        /* \"#utility.yul\":8064:8142   */\n      tag_250\n        /* \"#utility.yul\":8139:8140   */\n      0x00\n        /* \"#utility.yul\":8128:8137   */\n      dup4\n        /* \"#utility.yul\":8124:8141   */\n      add\n        /* \"#utility.yul\":8115:8121   */\n      dup5\n        /* \"#utility.yul\":8064:8142   */\n      tag_140\n      jump\t// in\n    tag_250:\n        /* \"#utility.yul\":7913:8149   */\n      swap3\n      swap2\n      pop\n      pop\n      jump\t// out\n        /* \"#utility.yul\":8155:8320   */\n    tag_141:\n        /* \"#utility.yul\":8295:8312   */\n      0x496e76616c696420616464726573730000000000000000000000000000000000\n        /* \"#utility.yul\":8291:8292   */\n      0x00\n        /* \"#utility.yul\":8283:8289   */\n      dup3\n        /* \"#utility.yul\":8279:8293   */\n      add\n        /* \"#utility.yul\":8272:8313   */\n      mstore\n        /* \"#utility.yul\":8155:8320   */\n      pop\n      jump\t// out\n        /* \"#utility.yul\":8326:8692   */\n    tag_142:\n        /* \"#utility.yul\":8468:8471   */\n      0x00\n        /* \"#utility.yul\":8489:8556   */\n      tag_253\n        /* \"#utility.yul\":8553:8555   */\n      0x0f\n        /* \"#utility.yul\":8548:8551   */\n      dup4\n        /* \"#utility.yul\":8489:8556   */\n      tag_132\n      jump\t// in\n    tag_253:\n        /* \"#utility.yul\":8482:8556   */\n      swap2\n      pop\n        /* \"#utility.yul\":8565:8658   */\n      tag_254\n        /* \"#utility.yul\":8654:8657   */\n      dup3\n        /* \"#utility.yul\":8565:8658   */\n      tag_141\n      jump\t// in\n    tag_254:\n        /* \"#utility.yul\":8683:8685   */\n      0x20\n        /* \"#utility.yul\":8678:8681   */\n      dup3\n        /* \"#utility.yul\":8674:8686   */\n      add\n        /* \"#utility.yul\":8667:8686   */\n      swap1\n      pop\n        /* \"#utility.yul\":8326:8692   */\n      swap2\n      swap1\n      pop\n      jump\t// out\n        /* \"#utility.yul\":8698:9117   */\n    tag_55:\n        /* \"#utility.yul\":8864:8868   */\n      0x00\n        /* \"#utility.yul\":8902:8904   */\n      0x20\n        /* \"#utility.yul\":8891:8900   */\n      dup3\n        /* \"#utility.yul\":8887:8905   */\n      add\n        /* \"#utility.yul\":8879:8905   */\n      swap1\n      pop\n        /* \"#utility.yul\":8951:8960   */\n      dup2\n        /* \"#utility.yul\":8945:8949   */\n      dup2\n        /* \"#utility.yul\":8941:8961   */\n      sub\n        /* \"#utility.yul\":8937:8938   */\n      0x00\n        /* \"#utility.yul\":8926:8935   */\n      dup4\n        /* \"#utility.yul\":8922:8939   */\n      add\n        /* \"#utility.yul\":8915:8962   */\n      mstore\n        /* \"#utility.yul\":8979:9110   */\n      tag_256\n        /* \"#utility.yul\":9105:9109   */\n      dup2\n        /* \"#utility.yul\":8979:9110   */\n      tag_142\n      jump\t// in\n    tag_256:\n        /* \"#utility.yul\":8971:9110   */\n      swap1\n      pop\n        /* \"#utility.yul\":8698:9117   */\n      swap2\n      swap1\n      pop\n      jump\t// out\n        /* \"#utility.yul\":9123:9303   */\n    tag_143:\n        /* \"#utility.yul\":9171:9248   */\n      0x4e487b7100000000000000000000000000000000000000000000000000000000\n        /* \"#utility.yul\":9168:9169   */\n      0x00\n        /* \"#utility.yul\":9161:9249   */\n      mstore\n        /* \"#utility.yul\":9268:9272   */\n      0x41\n        /* \"#utility.yul\":9265:9266   */\n      0x04\n        /* \"#utility.yul\":9258:9273   */\n      mstore\n        /* \"#utility.yul\":9292:9296   */\n      0x24\n        /* \"#utility.yul\":9289:9290   */\n      0x00\n        /* \"#utility.yul\":9282:9297   */\n      revert\n        /* \"#utility.yul\":9309:9489   */\n    tag_144:\n        /* \"#utility.yul\":9357:9434   */\n      0x4e487b7100000000000000000000000000000000000000000000000000000000\n        /* \"#utility.yul\":9354:9355   */\n      0x00\n        /* \"#utility.yul\":9347:9435   */\n      mstore\n        /* \"#utility.yul\":9454:9458   */\n      0x22\n        /* \"#utility.yul\":9451:9452   */\n      0x04\n        /* \"#utility.yul\":9444:9459   */\n      mstore\n        /* \"#utility.yul\":9478:9482   */\n      0x24\n        /* \"#utility.yul\":9475:9476   */\n      0x00\n        /* \"#utility.yul\":9468:9483   */\n      revert\n        /* \"#utility.yul\":9495:9815   */\n    tag_67:\n        /* \"#utility.yul\":9539:9545   */\n      0x00\n        /* \"#utility.yul\":9576:9577   */\n      0x02\n        /* \"#utility.yul\":9570:9574   */\n      dup3\n        /* \"#utility.yul\":9566:9578   */\n      div\n        /* \"#utility.yul\":9556:9578   */\n      swap1\n      pop\n        /* \"#utility.yul\":9623:9624   */\n      0x01\n        /* \"#utility.yul\":9617:9621   */\n      dup3\n        /* \"#utility.yul\":9613:9625   */\n      and\n        /* \"#utility.yul\":9644:9662   */\n      dup1\n        /* \"#utility.yul\":9634:9715   */\n      tag_260\n      jumpi\n        /* \"#utility.yul\":9700:9704   */\n      0x7f\n        /* \"#utility.yul\":9692:9698   */\n      dup3\n        /* \"#utility.yul\":9688:9705   */\n      and\n        /* \"#utility.yul\":9678:9705   */\n      swap2\n      pop\n        /* \"#utility.yul\":9634:9715   */\n    tag_260:\n        /* \"#utility.yul\":9762:9764   */\n      0x20\n        /* \"#utility.yul\":9754:9760   */\n      dup3\n        /* \"#utility.yul\":9751:9765   */\n      lt\n        /* \"#utility.yul\":9731:9749   */\n      dup2\n        /* \"#utility.yul\":9728:9766   */\n      sub\n        /* \"#utility.yul\":9725:9809   */\n      tag_261\n      jumpi\n        /* \"#utility.yul\":9781:9799   */\n      tag_262\n      tag_144\n      jump\t// in\n    tag_262:\n        /* \"#utility.yul\":9725:9809   */\n    tag_261:\n        /* \"#utility.yul\":9546:9815   */\n      pop\n        /* \"#utility.yul\":9495:9815   */\n      swap2\n      swap1\n      pop\n      jump\t// out\n        /* \"#utility.yul\":9821:9962   */\n    tag_145:\n        /* \"#utility.yul\":9870:9874   */\n      0x00\n        /* \"#utility.yul\":9893:9896   */\n      dup2\n        /* \"#utility.yul\":9885:9896   */\n      swap1\n      pop\n        /* \"#utility.yul\":9916:9919   */\n      dup2\n        /* \"#utility.yul\":9913:9914   */\n      0x00\n        /* \"#utility.yul\":9906:9920   */\n      mstore\n        /* \"#utility.yul\":9950:9954   */\n      0x20\n        /* \"#utility.yul\":9947:9948   */\n      0x00\n        /* \"#utility.yul\":9937:9955   */\n      keccak256\n        /* \"#utility.yul\":9929:9955   */\n      swap1\n      pop\n        /* \"#utility.yul\":9821:9962   */\n      swap2\n      swap1\n      pop\n      jump\t// out\n        /* \"#utility.yul\":9968:10061   */\n    tag_146:\n        /* \"#utility.yul\":10005:10011   */\n      0x00\n        /* \"#utility.yul\":10052:10054   */\n      0x20\n        /* \"#utility.yul\":10047:10049   */\n      0x1f\n        /* \"#utility.yul\":10040:10045   */\n      dup4\n        /* \"#utility.yul\":10036:10050   */\n      add\n        /* \"#utility.yul\":10032:10055   */\n      div\n        /* \"#utility.yul\":10022:10055   */\n      swap1\n      pop\n        /* \"#utility.yul\":9968:10061   */\n      swap2\n      swap1\n      pop\n      jump\t// out\n        /* \"#utility.yul\":10067:10174   */\n    tag_147:\n        /* \"#utility.yul\":10111:10119   */\n      0x00\n        /* \"#utility.yul\":10161:10166   */\n      dup3\n        /* \"#utility.yul\":10155:10159   */\n      dup3\n        /* \"#utility.yul\":10151:10167   */\n      shl\n        /* \"#utility.yul\":10130:10167   */\n      swap1\n      pop\n        /* \"#utility.yul\":10067:10174   */\n      swap3\n      swap2\n      pop\n      pop\n      jump\t// out\n        /* \"#utility.yul\":10180:10573   */\n    tag_148:\n        /* \"#utility.yul\":10249:10255   */\n      0x00\n        /* \"#utility.yul\":10299:10300   */\n      0x08\n        /* \"#utility.yul\":10287:10297   */\n      dup4\n        /* \"#utility.yul\":10283:10301   */\n      mul\n        /* \"#utility.yul\":10322:10419   */\n      tag_267\n        /* \"#utility.yul\":10352:10418   */\n      0xffffffffffffffffffffffffffffffffffffffffffffffffffffffffffffffff\n        /* \"#utility.yul\":10341:10350   */\n      dup3\n        /* \"#utility.yul\":10322:10419   */\n      tag_147\n      jump\t// in\n    tag_267:\n        /* \"#utility.yul\":10440:10479   */\n      tag_268\n        /* \"#utility.yul\":10470:10478   */\n      dup7\n        /* \"#utility.yul\":10459:10468   */\n      dup4\n        /* \"#utility.yul\":10440:10479   */\n      tag_147\n      jump\t// in\n    tag_268:\n        /* \"#utility.yul\":10428:10479   */\n      swap6\n      pop\n        /* \"#utility.yul\":10512:10516   */\n      dup1\n        /* \"#utility.yul\":10508:10517   */\n      not\n        /* \"#utility.yul\":10501:10506   */\n      dup5\n        /* \"#utility.yul\":10497:10518   */\n      and\n        /* \"#utility.yul\":10488:10518   */\n      swap4\n      pop\n        /* \"#utility.yul\":10561:10565   */\n      dup1\n        /* \"#utility.yul\":10551:10559   */\n      dup7\n        /* \"#utility.yul\":10547:10566   */\n      and\n        /* \"#utility.yul\":10540:10545   */\n      dup5\n        /* \"#utility.yul\":10537:10567   */\n      or\n        /* \"#utility.yul\":10527:10567   */\n      swap3\n      pop\n        /* \"#utility.yul\":10256:10573   */\n      pop\n      pop\n        /* \"#utility.yul\":10180:10573   */\n      swap4\n      swap3\n      pop\n      pop\n      pop\n      jump\t// out\n        /* \"#utility.yul\":10579:10721   */\n    tag_149:\n        /* \"#utility.yul\":10629:10638   */\n      0x00\n        /* \"#utility.yul\":10662:10715   */\n      tag_270\n        /* \"#utility.yul\":10680:10714   */\n      tag_271\n        /* \"#utility.yul\":10689:10713   */\n      tag_272\n        /* \"#utility.yul\":10707:10712   */\n      dup5\n        /* \"#utility.yul\":10689:10713   */\n      tag_121\n      jump\t// in\n    tag_272:\n        /* \"#utility.yul\":10680:10714   */\n      tag_138\n      jump\t// in\n    tag_271:\n        /* \"#utility.yul\":10662:10715   */\n      tag_121\n      jump\t// in\n    tag_270:\n        /* \"#utility.yul\":10649:10715   */\n      swap1\n      pop\n        /* \"#utility.yul\":10579:10721   */\n      swap2\n      swap1\n      pop\n      jump\t// out\n        /* \"#utility.yul\":10727:10802   */\n    tag_150:\n        /* \"#utility.yul\":10770:10773   */\n      0x00\n        /* \"#utility.yul\":10791:10796   */\n      dup2\n        /* \"#utility.yul\":10784:10796   */\n      swap1\n      pop\n        /* \"#utility.yul\":10727:10802   */\n      swap2\n      swap1\n      pop\n      jump\t// out\n        /* \"#utility.yul\":10808:11077   */\n    tag_151:\n        /* \"#utility.yul\":10918:10957   */\n      tag_275\n        /* \"#utility.yul\":10949:10956   */\n      dup4\n        /* \"#utility.yul\":10918:10957   */\n      tag_149\n      jump\t// in\n    tag_275:\n        /* \"#utility.yul\":10979:11070   */\n      tag_276\n        /* \"#utility.yul\":11028:11069   */\n      tag_277\n        /* \"#utility.yul\":11052:11068   */\n      dup3\n        /* \"#utility.yul\":11028:11069   */\n      tag_150\n      jump\t// in\n    tag_277:\n        /* \"#utility.yul\":11020:11026   */\n      dup5\n        /* \"#utility.yul\":11013:11017   */\n      dup5\n        /* \"#utility.yul\":11007:11018   */\n      sload\n        /* \"#utility.yul\":10979:11070   */\n      tag_148\n      jump\t// in\n    tag_276:\n        /* \"#utility.yul\":10973:10977   */\n      dup3\n        /* \"#utility.yul\":10966:11071   */\n      sstore\n        /* \"#utility.yul\":10884:11077   */\n      pop\n        /* \"#utility.yul\":10808:11077   */\n      pop\n      pop\n      pop\n      jump\t// out\n        /* \"#utility.yul\":11083:11156   */\n    tag_152:\n        /* \"#utility.yul\":11128:11131   */\n      0x00\n        /* \"#utility.yul\":11149:11150   */\n      0x00\n        /* \"#utility.yul\":11142:11150   */\n      swap1\n      pop\n        /* \"#utility.yul\":11083:11156   */\n      swap1\n      jump\t// out\n        /* \"#utility.yul\":11162:11351   */\n    tag_153:\n        /* \"#utility.yul\":11239:11271   */\n      tag_280\n      tag_152\n      jump\t// in\n    tag_280:\n        /* \"#utility.yul\":11280:11345   */\n      tag_281\n        /* \"#utility.yul\":11338:11344   */\n      dup2\n        /* \"#utility.yul\":11330:11336   */\n      dup5\n        /* \"#utility.yul\":11324:11328   */\n      dup5\n        /* \"#utility.yul\":11280:11345   */\n      tag_151\n      jump\t// in\n    tag_281:\n        /* \"#utility.yul\":11215:11351   */\n      pop\n        /* \"#utility.yul\":11162:11351   */\n      pop\n      pop\n      jump\t// out\n        /* \"#utility.yul\":11357:11543   */\n    tag_154:\n        /* \"#utility.yul\":11417:11537   */\n    tag_283:\n        /* \"#utility.yul\":11434:11437   */\n      dup2\n        /* \"#utility.yul\":11427:11432   */\n      dup2\n        /* \"#utility.yul\":11424:11438   */\n      lt\n        /* \"#utility.yul\":11417:11537   */\n      iszero\n      tag_285\n      jumpi\n        /* \"#utility.yul\":11488:11527   */\n      tag_286\n        /* \"#utility.yul\":11525:11526   */\n      0x00\n        /* \"#utility.yul\":11518:11523   */\n      dup3\n        /* \"#utility.yul\":11488:11527   */\n      tag_153\n      jump\t// in\n    tag_286:\n        /* \"#utility.yul\":11461:11462   */\n      0x01\n        /* \"#utility.yul\":11454:11459   */\n      dup2\n        /* \"#utility.yul\":11450:11463   */\n      add\n        /* \"#utility.yul\":11441:11463   */\n      swap1\n      pop\n        /* \"#utility.yul\":11417:11537   */\n      jump(tag_283)\n    tag_285:\n        /* \"#utility.yul\":11357:11543   */\n      pop\n      pop\n      jump\t// out\n        /* \"#utility.yul\":11549:12092   */\n    tag_155:\n        /* \"#utility.yul\":11650:11652   */\n      0x1f\n        /* \"#utility.yul\":11645:11648   */\n      dup3\n        /* \"#utility.yul\":11642:11653   */\n      gt\n        /* \"#utility.yul\":11639:12085   */\n      iszero\n      tag_288\n      jumpi\n        /* \"#utility.yul\":11684:11722   */\n      tag_289\n        /* \"#utility.yul\":11716:11721   */\n      dup2\n        /* \"#utility.yul\":11684:11722   */\n      tag_145\n      jump\t// in\n    tag_289:\n        /* \"#utility.yul\":11768:11797   */\n      tag_290\n        /* \"#utility.yul\":11786:11796   */\n      dup5\n        /* \"#utility.yul\":11768:11797   */\n      tag_146\n      jump\t// in\n    tag_290:\n        /* \"#utility.yul\":11758:11766   */\n      dup2\n        /* \"#utility.yul\":11754:11798   */\n      add\n        /* \"#utility.yul\":11951:11953   */\n      0x20\n        /* \"#utility.yul\":11939:11949   */\n      dup6\n        /* \"#utility.yul\":11936:11954   */\n      lt\n        /* \"#utility.yul\":11933:11982   */\n      iszero\n      tag_291\n      jumpi\n        /* \"#utility.yul\":11972:11980   */\n      dup2\n        /* \"#utility.yul\":11957:11980   */\n      swap1\n      pop\n        /* \"#utility.yul\":11933:11982   */\n    tag_291:\n        /* \"#utility.yul\":11995:12075   */\n      tag_292\n        /* \"#utility.yul\":12051:12073   */\n      tag_293\n        /* \"#utility.yul\":12069:12072   */\n      dup6\n        /* \"#utility.yul\":12051:12073   */\n      tag_146\n      jump\t// in\n    tag_293:\n        /* \"#utility.yul\":12041:12049   */\n      dup4\n        /* \"#utility.yul\":12037:12074   */\n      add\n        /* \"#utility.yul\":12024:12035   */\n      dup3\n        /* \"#utility.yul\":11995:12075   */\n      tag_154\n      jump\t// in\n    tag_292:\n        /* \"#utility.yul\":11654:12085   */\n      pop\n      pop\n        /* \"#utility.yul\":11639:12085   */\n    tag_288:\n        /* \"#utility.yul\":11549:12092   */\n      pop\n      pop\n      pop\n      jump\t// out\n        /* \"#utility.yul\":12098:12215   */\n    tag_156:\n        /* \"#utility.yul\":12152:12160   */\n      0x00\n        /* \"#utility.yul\":12202:12207   */\n      dup3\n        /* \"#utility.yul\":12196:12200   */\n      dup3\n        /* \"#utility.yul\":12192:12208   */\n      shr\n        /* \"#utility.yul\":12171:12208   */\n      swap1\n      pop\n        /* \"#utility.yul\":12098:12215   */\n      swap3\n      swap2\n      pop\n      pop\n      jump\t// out\n        /* \"#utility.yul\":12221:12390   */\n    tag_157:\n        /* \"#utility.yul\":12265:12271   */\n      0x00\n        /* \"#utility.yul\":12298:12349   */\n      tag_296\n        /* \"#utility.yul\":12346:12347   */\n      0x00\n        /* \"#utility.yul\":12342:12348   */\n      not\n        /* \"#utility.yul\":12334:12339   */\n      dup5\n        /* \"#utility.yul\":12331:12332   */\n      0x08\n        /* \"#utility.yul\":12327:12340   */\n      mul\n        /* \"#utility.yul\":12298:12349   */\n      tag_156\n      jump\t// in\n    tag_296:\n        /* \"#utility.yul\":12294:12350   */\n      not\n        /* \"#utility.yul\":12379:12383   */\n      dup1\n        /* \"#utility.yul\":12373:12377   */\n      dup4\n        /* \"#utility.yul\":12369:12384   */\n      and\n        /* \"#utility.yul\":12359:12384   */\n      swap2\n      pop\n        /* \"#utility.yul\":12272:12390   */\n      pop\n        /* \"#utility.yul\":12221:12390   */\n      swap3\n      swap2\n      pop\n      pop\n      jump\t// out\n        /* \"#utility.yul\":12395:12690   */\n    tag_158:\n        /* \"#utility.yul\":12471:12475   */\n      0x00\n        /* \"#utility.yul\":12617:12646   */\n      tag_298\n        /* \"#utility.yul\":12642:12645   */\n      dup4\n        /* \"#utility.yul\":12636:12640   */\n      dup4\n        /* \"#utility.yul\":12617:12646   */\n      tag_157\n      jump\t// in\n    tag_298:\n        /* \"#utility.yul\":12609:12646   */\n      swap2\n      pop\n        /* \"#utility.yul\":12679:12682   */\n      dup3\n        /* \"#utility.yul\":12676:12677   */\n      0x02\n        /* \"#utility.yul\":12672:12683   */\n      mul\n        /* \"#utility.yul\":12666:12670   */\n      dup3\n        /* \"#utility.yul\":12663:12684   */\n      or\n        /* \"#utility.yul\":12655:12684   */\n      swap1\n      pop\n        /* \"#utility.yul\":12395:12690   */\n      swap3\n      swap2\n      pop\n      pop\n      jump\t// out\n        /* \"#utility.yul\":12695:14090   */\n    tag_58:\n        /* \"#utility.yul\":12812:12849   */\n      tag_300\n        /* \"#utility.yul\":12845:12848   */\n      dup3\n        /* \"#utility.yul\":12812:12849   */\n      tag_131\n      jump\t// in\n    tag_300:\n        /* \"#utility.yul\":12914:12932   */\n      0xffffffffffffffff\n        /* \"#utility.yul\":12906:12912   */\n      dup2\n        /* \"#utility.yul\":12903:12933   */\n      gt\n        /* \"#utility.yul\":12900:12956   */\n      iszero\n      tag_301\n      jumpi\n        /* \"#utility.yul\":12936:12954   */\n      tag_302\n      tag_143\n      jump\t// in\n    tag_302:\n        /* \"#utility.yul\":12900:12956   */\n    tag_301:\n        /* \"#utility.yul\":12980:13018   */\n      tag_303\n        /* \"#utility.yul\":13012:13016   */\n      dup3\n        /* \"#utility.yul\":13006:13017   */\n      sload\n        /* \"#utility.yul\":12980:13018   */\n      tag_67\n      jump\t// in\n    tag_303:\n        /* \"#utility.yul\":13065:13132   */\n      tag_304\n        /* \"#utility.yul\":13125:13131   */\n      dup3\n        /* \"#utility.yul\":13117:13123   */\n      dup3\n        /* \"#utility.yul\":13111:13115   */\n      dup6\n        /* \"#utility.yul\":13065:13132   */\n      tag_155\n      jump\t// in\n    tag_304:\n        /* \"#utility.yul\":13159:13160   */\n      0x00\n        /* \"#utility.yul\":13183:13187   */\n      0x20\n        /* \"#utility.yul\":13170:13187   */\n      swap1\n      pop\n        /* \"#utility.yul\":13215:13217   */\n      0x1f\n        /* \"#utility.yul\":13207:13213   */\n      dup4\n        /* \"#utility.yul\":13204:13218   */\n      gt\n        /* \"#utility.yul\":13232:13233   */\n      0x01\n        /* \"#utility.yul\":13227:13845   */\n      dup2\n      eq\n      tag_306\n      jumpi\n        /* \"#utility.yul\":13889:13890   */\n      0x00\n        /* \"#utility.yul\":13906:13912   */\n      dup5\n        /* \"#utility.yul\":13903:13980   */\n      iszero\n      tag_307\n      jumpi\n        /* \"#utility.yul\":13955:13964   */\n      dup3\n        /* \"#utility.yul\":13950:13953   */\n      dup8\n        /* \"#utility.yul\":13946:13965   */\n      add\n        /* \"#utility.yul\":13940:13966   */\n      mload\n        /* \"#utility.yul\":13931:13966   */\n      swap1\n      pop\n        /* \"#utility.yul\":13903:13980   */\n    tag_307:\n        /* \"#utility.yul\":14006:14073   */\n      tag_308\n        /* \"#utility.yul\":14066:14072   */\n      dup6\n        /* \"#utility.yul\":14059:14064   */\n      dup3\n        /* \"#utility.yul\":14006:14073   */\n      tag_158\n      jump\t// in\n    tag_308:\n        /* \"#utility.yul\":14000:14004   */\n      dup7\n        /* \"#utility.yul\":13993:14074   */\n      sstore\n        /* \"#utility.yul\":13862:14084   */\n      pop\n        /* \"#utility.yul\":13197:14084   */\n      jump(tag_305)\n        /* \"#utility.yul\":13227:13845   */\n    tag_306:\n        /* \"#utility.yul\":13279:13283   */\n      0x1f\n        /* \"#utility.yul\":13275:13284   */\n      not\n        /* \"#utility.yul\":13267:13273   */\n      dup5\n        /* \"#utility.yul\":13263:13285   */\n      and\n        /* \"#utility.yul\":13313:13350   */\n      tag_309\n        /* \"#utility.yul\":13345:13349   */\n      dup7\n        /* \"#utility.yul\":13313:13350   */\n      tag_145\n      jump\t// in\n    tag_309:\n        /* \"#utility.yul\":13372:13373   */\n      0x00\n        /* \"#utility.yul\":13386:13594   */\n    tag_310:\n        /* \"#utility.yul\":13400:13407   */\n      dup3\n        /* \"#utility.yul\":13397:13398   */\n      dup2\n        /* \"#utility.yul\":13394:13408   */\n      lt\n        /* \"#utility.yul\":13386:13594   */\n      iszero\n      tag_312\n      jumpi\n        /* \"#utility.yul\":13479:13488   */\n      dup5\n        /* \"#utility.yul\":13474:13477   */\n      dup10\n        /* \"#utility.yul\":13470:13489   */\n      add\n        /* \"#utility.yul\":13464:13490   */\n      mload\n        /* \"#utility.yul\":13456:13462   */\n      dup3\n        /* \"#utility.yul\":13449:13491   */\n      sstore\n        /* \"#utility.yul\":13530:13531   */\n      0x01\n        /* \"#utility.yul\":13522:13528   */\n      dup3\n        /* \"#utility.yul\":13518:13532   */\n      add\n        /* \"#utility.yul\":13508:13532   */\n      swap2\n      pop\n        /* \"#utility.yul\":13577:13579   */\n      0x20\n        /* \"#utility.yul\":13566:13575   */\n      dup6\n        /* \"#utility.yul\":13562:13580   */\n      add\n        /* \"#utility.yul\":13549:13580   */\n      swap5\n      pop\n        /* \"#utility.yul\":13423:13427   */\n      0x20\n        /* \"#utility.yul\":13420:13421   */\n      dup2\n        /* \"#utility.yul\":13416:13428   */\n      add\n        /* \"#utility.yul\":13411:13428   */\n      swap1\n      pop\n        /* \"#utility.yul\":13386:13594   */\n      jump(tag_310)\n    tag_312:\n        /* \"#utility.yul\":13622:13628   */\n      dup7\n        /* \"#utility.yul\":13613:13620   */\n      dup4\n        /* \"#utility.yul\":13610:13629   */\n      lt\n        /* \"#utility.yul\":13607:13786   */\n      iszero\n      tag_313\n      jumpi\n        /* \"#utility.yul\":13680:13689   */\n      dup5\n        /* \"#utility.yul\":13675:13678   */\n      dup10\n        /* \"#utility.yul\":13671:13690   */\n      add\n        /* \"#utility.yul\":13665:13691   */\n      mload\n        /* \"#utility.yul\":13723:13771   */\n      tag_314\n        /* \"#utility.yul\":13765:13769   */\n      0x1f\n        /* \"#utility.yul\":13757:13763   */\n      dup10\n        /* \"#utility.yul\":13753:13770   */\n      and\n        /* \"#utility.yul\":13742:13751   */\n      dup3\n        /* \"#utility.yul\":13723:13771   */\n      tag_157\n      jump\t// in\n    tag_314:\n        /* \"#utility.yul\":13715:13721   */\n      dup4\n        /* \"#utility.yul\":13708:13772   */\n      sstore\n        /* \"#utility.yul\":13630:13786   */\n      pop\n        /* \"#utility.yul\":13607:13786   */\n    tag_313:\n        /* \"#utility.yul\":13832:13833   */\n      0x01\n        /* \"#utility.yul\":13828:13829   */\n      0x02\n        /* \"#utility.yul\":13820:13826   */\n      dup9\n        /* \"#utility.yul\":13816:13830   */\n      mul\n        /* \"#utility.yul\":13812:13834   */\n      add\n        /* \"#utility.yul\":13806:13810   */\n      dup9\n        /* \"#utility.yul\":13799:13835   */\n      sstore\n        /* \"#utility.yul\":13234:13845   */\n      pop\n      pop\n      pop\n        /* \"#utility.yul\":13197:14084   */\n    tag_305:\n      pop\n        /* \"#utility.yul\":12787:14090   */\n      pop\n      pop\n      pop\n        /* \"#utility.yul\":12695:14090   */\n      pop\n      pop\n      jump\t// out\n        /* \"#utility.yul\":14096:14318   */\n    tag_60:\n        /* \"#utility.yul\":14189:14193   */\n      0x00\n        /* \"#utility.yul\":14227:14229   */\n      0x20\n        /* \"#utility.yul\":14216:14225   */\n      dup3\n        /* \"#utility.yul\":14212:14230   */\n      add\n        /* \"#utility.yul\":14204:14230   */\n      swap1\n      pop\n        /* \"#utility.yul\":14240:14311   */\n      tag_316\n        /* \"#utility.yul\":14308:14309   */\n      0x00\n        /* \"#utility.yul\":14297:14306   */\n      dup4\n        /* \"#utility.yul\":14293:14310   */\n      add\n        /* \"#utility.yul\":14284:14290   */\n      dup5\n        /* \"#utility.yul\":14240:14311   */\n      tag_129\n      jump\t// in\n    tag_316:\n        /* \"#utility.yul\":14096:14318   */\n      swap3\n      swap2\n      pop\n      pop\n      jump\t// out\n\n    auxdata: 0xa2646970667358221220d5242b8c9d47dd81af19fa7adbe60b865414a51554862264e102bbff2a397dab64736f6c634300081e0033\n}\n",
				"bytecode": {
					"linkReferences": {},
					"object": "6080604052348015600e575f5ffd5b5061126e8061001c5f395ff3fe608060405234801561000f575f5ffd5b5060043610610060575f3560e01c8063715018a6146100645780638129fc1c1461006e57806383dc65f2146100785780638da5cb5b14610094578063b842ec44146100b2578063f2fde38b146100e9575b5f5ffd5b61006c610105565b005b610076610118565b005b610092600480360381019061008d9190610bfa565b610298565b005b61009c610607565b6040516100a99190610cc6565b60405180910390f35b6100cc60048036038101906100c79190610cdf565b61063c565b6040516100e0989796959493929190610dab565b60405180910390f35b61010360048036038101906100fe9190610e2e565b61078d565b005b61010d610811565b6101165f610898565b565b5f610121610969565b90505f815f0160089054906101000a900460ff161590505f825f015f9054906101000a900467ffffffffffffffff1690505f5f8267ffffffffffffffff161480156101695750825b90505f60018367ffffffffffffffff1614801561019c57505f3073ffffffffffffffffffffffffffffffffffffffff163b145b9050811580156101aa575080155b156101e1576040517ff92ee8a900000000000000000000000000000000000000000000000000000000815260040160405180910390fd5b6001855f015f6101000a81548167ffffffffffffffff021916908367ffffffffffffffff160217905550831561022e576001855f0160086101000a81548160ff0219169083151502179055505b6102373361097c565b8315610291575f855f0160086101000a81548160ff0219169083151502179055507fc7f505b2f371ae2175ee4913f4499e1f2633a7b5936321eed1cdaeb6115181d260016040516102889190610eae565b60405180910390a15b5050505050565b5f73ffffffffffffffffffffffffffffffffffffffff168773ffffffffffffffffffffffffffffffffffffffff161415801561030057505f73ffffffffffffffffffffffffffffffffffffffff168173ffffffffffffffffffffffffffffffffffffffff1614155b61033f576040517f08c379a000000000000000000000000000000000000000000000000000000000815260040161033690610f11565b60405180910390fd5b5f5f3373ffffffffffffffffffffffffffffffffffffffff1673ffffffffffffffffffffffffffffffffffffffff1681526020019081526020015f206040518061010001604052803373ffffffffffffffffffffffffffffffffffffffff1681526020018973ffffffffffffffffffffffffffffffffffffffff1681526020018881526020018781526020018681526020018a65ffffffffffff16815260200185858080601f0160208091040260200160405190810160405280939291908181526020018383808284375f81840152601f19601f8201169050808301925050505050505081526020018373ffffffffffffffffffffffffffffffffffffffff16815250908060018154018082558091505060019003905f5260205f2090600802015f909190919091505f820151815f015f6101000a81548173ffffffffffffffffffffffffffffffffffffffff021916908373ffffffffffffffffffffffffffffffffffffffff1602179055506020820151816001015f6101000a81548173ffffffffffffffffffffffffffffffffffffffff021916908373ffffffffffffffffffffffffffffffffffffffff16021790555060408201518160020155606082015181600301556080820151816004015560a0820151816005015f6101000a81548165ffffffffffff021916908365ffffffffffff16021790555060c082015181600601908161054f9190611150565b5060e0820151816007015f6101000a81548173ffffffffffffffffffffffffffffffffffffffff021916908373ffffffffffffffffffffffffffffffffffffffff16021790555050508673ffffffffffffffffffffffffffffffffffffffff163373ffffffffffffffffffffffffffffffffffffffff167fc46393c51fb2221caaec70cc70adecd0bbd1f605f3a19747f4ec3a8aff00cf7c886040516105f5919061121f565b60405180910390a35050505050505050565b5f5f610611610990565b9050805f015f9054906101000a900473ffffffffffffffffffffffffffffffffffffffff1691505090565b5f602052815f5260405f208181548110610654575f80fd5b905f5260205f2090600802015f9150915050805f015f9054906101000a900473ffffffffffffffffffffffffffffffffffffffff1690806001015f9054906101000a900473ffffffffffffffffffffffffffffffffffffffff1690806002015490806003015490806004015490806005015f9054906101000a900465ffffffffffff16908060060180546106e790610f89565b80601f016020809104026020016040519081016040528092919081815260200182805461071390610f89565b801561075e5780601f106107355761010080835404028352916020019161075e565b820191905f5260205f20905b81548152906001019060200180831161074157829003601f168201915b505050505090806007015f9054906101000a900473ffffffffffffffffffffffffffffffffffffffff16905088565b610795610811565b5f73ffffffffffffffffffffffffffffffffffffffff168173ffffffffffffffffffffffffffffffffffffffff1603610805575f6040517f1e4fbdf70000000000000000000000000000000000000000000000000000000081526004016107fc9190610cc6565b60405180910390fd5b61080e81610898565b50565b6108196109b7565b73ffffffffffffffffffffffffffffffffffffffff16610837610607565b73ffffffffffffffffffffffffffffffffffffffff16146108965761085a6109b7565b6040517f118cdaa700000000000000000000000000000000000000000000000000000000815260040161088d9190610cc6565b60405180910390fd5b565b5f6108a1610990565b90505f815f015f9054906101000a900473ffffffffffffffffffffffffffffffffffffffff16905082825f015f6101000a81548173ffffffffffffffffffffffffffffffffffffffff021916908373ffffffffffffffffffffffffffffffffffffffff1602179055508273ffffffffffffffffffffffffffffffffffffffff168173ffffffffffffffffffffffffffffffffffffffff167f8be0079c531659141344cd1fd0a4f28419497f9722a3daafe3b4186f6b6457e060405160405180910390a3505050565b5f5f6109736109be565b90508091505090565b6109846109e7565b61098d81610a27565b50565b5f7f9016d09d72d40fdae2fd8ceac6b6234c7706214fd39c1cd1e609a0528c199300905090565b5f33905090565b5f7ff0c57e16840df040f15088dc2f81fe391c3923bec73e23a9662efc9c229c6a005f1b905090565b6109ef610aab565b610a25576040517fd7e6bcf800000000000000000000000000000000000000000000000000000000815260040160405180910390fd5b565b610a2f6109e7565b5f73ffffffffffffffffffffffffffffffffffffffff168173ffffffffffffffffffffffffffffffffffffffff1603610a9f575f6040517f1e4fbdf7000000000000000000000000000000000000000000000000000000008152600401610a969190610cc6565b60405180910390fd5b610aa881610898565b50565b5f610ab4610969565b5f0160089054906101000a900460ff16905090565b5f5ffd5b5f5ffd5b5f65ffffffffffff82169050919050565b610aeb81610ad1565b8114610af5575f5ffd5b50565b5f81359050610b0681610ae2565b92915050565b5f73ffffffffffffffffffffffffffffffffffffffff82169050919050565b5f610b3582610b0c565b9050919050565b610b4581610b2b565b8114610b4f575f5ffd5b50565b5f81359050610b6081610b3c565b92915050565b5f819050919050565b610b7881610b66565b8114610b82575f5ffd5b50565b5f81359050610b9381610b6f565b92915050565b5f5ffd5b5f5ffd5b5f5ffd5b5f5f83601f840112610bba57610bb9610b99565b5b8235905067ffffffffffffffff811115610bd757610bd6610b9d565b5b602083019150836001820283011115610bf357610bf2610ba1565b5b9250929050565b5f5f5f5f5f5f5f5f60e0898b031215610c1657610c15610ac9565b5b5f610c238b828c01610af8565b9850506020610c348b828c01610b52565b9750506040610c458b828c01610b85565b9650506060610c568b828c01610b85565b9550506080610c678b828c01610b85565b94505060a089013567ffffffffffffffff811115610c8857610c87610acd565b5b610c948b828c01610ba5565b935093505060c0610ca78b828c01610b52565b9150509295985092959890939650565b610cc081610b2b565b82525050565b5f602082019050610cd95f830184610cb7565b92915050565b5f5f60408385031215610cf557610cf4610ac9565b5b5f610d0285828601610b52565b9250506020610d1385828601610b85565b9150509250929050565b610d2681610b66565b82525050565b610d3581610ad1565b82525050565b5f81519050919050565b5f82825260208201905092915050565b8281835e5f83830152505050565b5f601f19601f8301169050919050565b5f610d7d82610d3b565b610d878185610d45565b9350610d97818560208601610d55565b610da081610d63565b840191505092915050565b5f61010082019050610dbf5f83018b610cb7565b610dcc602083018a610cb7565b610dd96040830189610d1d565b610de66060830188610d1d565b610df36080830187610d1d565b610e0060a0830186610d2c565b81810360c0830152610e128185610d73565b9050610e2160e0830184610cb7565b9998505050505050505050565b5f60208284031215610e4357610e42610ac9565b5b5f610e5084828501610b52565b91505092915050565b5f819050919050565b5f67ffffffffffffffff82169050919050565b5f819050919050565b5f610e98610e93610e8e84610e59565b610e75565b610e62565b9050919050565b610ea881610e7e565b82525050565b5f602082019050610ec15f830184610e9f565b92915050565b7f496e76616c6964206164647265737300000000000000000000000000000000005f82015250565b5f610efb600f83610d45565b9150610f0682610ec7565b602082019050919050565b5f6020820190508181035f830152610f2881610eef565b9050919050565b7f4e487b71000000000000000000000000000000000000000000000000000000005f52604160045260245ffd5b7f4e487b71000000000000000000000000000000000000000000000000000000005f52602260045260245ffd5b5f6002820490506001821680610fa057607f821691505b602082108103610fb357610fb2610f5c565b5b50919050565b5f819050815f5260205f209050919050565b5f6020601f8301049050919050565b5f82821b905092915050565b5f600883026110157fffffffffffffffffffffffffffffffffffffffffffffffffffffffffffffffff82610fda565b61101f8683610fda565b95508019841693508086168417925050509392505050565b5f61105161104c61104784610b66565b610e75565b610b66565b9050919050565b5f819050919050565b61106a83611037565b61107e61107682611058565b848454610fe6565b825550505050565b5f5f905090565b611095611086565b6110a0818484611061565b505050565b5b818110156110c3576110b85f8261108d565b6001810190506110a6565b5050565b601f821115611108576110d981610fb9565b6110e284610fcb565b810160208510156110f1578190505b6111056110fd85610fcb565b8301826110a5565b50505b505050565b5f82821c905092915050565b5f6111285f198460080261110d565b1980831691505092915050565b5f6111408383611119565b9150826002028217905092915050565b61115982610d3b565b67ffffffffffffffff81111561117257611171610f2f565b5b61117c8254610f89565b6111878282856110c7565b5f60209050601f8311600181146111b8575f84156111a6578287015190505b6111b08582611135565b865550611217565b601f1984166111c686610fb9565b5f5b828110156111ed578489015182556001820191506020850194506020810190506111c8565b8683101561120a5784890151611206601f891682611119565b8355505b6001600288020188555050505b505050505050565b5f6020820190506112325f830184610d1d565b9291505056fea2646970667358221220d5242b8c9d47dd81af19fa7adbe60b865414a51554862264e102bbff2a397dab64736f6c634300081e0033",
					"opcodes": "PUSH1 0x80 PUSH1 0x40 MSTORE CALLVALUE DUP1 ISZERO PUSH1 0xE JUMPI PUSH0 PUSH0 REVERT JUMPDEST POP PUSH2 0x126E DUP1 PUSH2 0x1C PUSH0 CODECOPY PUSH0 RETURN INVALID PUSH1 0x80 PUSH1 0x40 MSTORE CALLVALUE DUP1 ISZERO PUSH2 0xF JUMPI PUSH0 PUSH0 REVERT JUMPDEST POP PUSH1 0x4 CALLDATASIZE LT PUSH2 0x60 JUMPI PUSH0 CALLDATALOAD PUSH1 0xE0 SHR DUP1 PUSH4 0x715018A6 EQ PUSH2 0x64 JUMPI DUP1 PUSH4 0x8129FC1C EQ PUSH2 0x6E JUMPI DUP1 PUSH4 0x83DC65F2 EQ PUSH2 0x78 JUMPI DUP1 PUSH4 0x8DA5CB5B EQ PUSH2 0x94 JUMPI DUP1 PUSH4 0xB842EC44 EQ PUSH2 0xB2 JUMPI DUP1 PUSH4 0xF2FDE38B EQ PUSH2 0xE9 JUMPI JUMPDEST PUSH0 PUSH0 REVERT JUMPDEST PUSH2 0x6C PUSH2 0x105 JUMP JUMPDEST STOP JUMPDEST PUSH2 0x76 PUSH2 0x118 JUMP JUMPDEST STOP JUMPDEST PUSH2 0x92 PUSH1 0x4 DUP1 CALLDATASIZE SUB DUP2 ADD SWAP1 PUSH2 0x8D SWAP2 SWAP1 PUSH2 0xBFA JUMP JUMPDEST PUSH2 0x298 JUMP JUMPDEST STOP JUMPDEST PUSH2 0x9C PUSH2 0x607 JUMP JUMPDEST PUSH1 0x40 MLOAD PUSH2 0xA9 SWAP2 SWAP1 PUSH2 0xCC6 JUMP JUMPDEST PUSH1 0x40 MLOAD DUP1 SWAP2 SUB SWAP1 RETURN JUMPDEST PUSH2 0xCC PUSH1 0x4 DUP1 CALLDATASIZE SUB DUP2 ADD SWAP1 PUSH2 0xC7 SWAP2 SWAP1 PUSH2 0xCDF JUMP JUMPDEST PUSH2 0x63C JUMP JUMPDEST PUSH1 0x40 MLOAD PUSH2 0xE0 SWAP9 SWAP8 SWAP7 SWAP6 SWAP5 SWAP4 SWAP3 SWAP2 SWAP1 PUSH2 0xDAB JUMP JUMPDEST PUSH1 0x40 MLOAD DUP1 SWAP2 SUB SWAP1 RETURN JUMPDEST PUSH2 0x103 PUSH1 0x4 DUP1 CALLDATASIZE SUB DUP2 ADD SWAP1 PUSH2 0xFE SWAP2 SWAP1 PUSH2 0xE2E JUMP JUMPDEST PUSH2 0x78D JUMP JUMPDEST STOP JUMPDEST PUSH2 0x10D PUSH2 0x811 JUMP JUMPDEST PUSH2 0x116 PUSH0 PUSH2 0x898 JUMP JUMPDEST JUMP JUMPDEST PUSH0 PUSH2 0x121 PUSH2 0x969 JUMP JUMPDEST SWAP1 POP PUSH0 DUP2 PUSH0 ADD PUSH1 0x8 SWAP1 SLOAD SWAP1 PUSH2 0x100 EXP SWAP1 DIV PUSH1 0xFF AND ISZERO SWAP1 POP PUSH0 DUP3 PUSH0 ADD PUSH0 SWAP1 SLOAD SWAP1 PUSH2 0x100 EXP SWAP1 DIV PUSH8 0xFFFFFFFFFFFFFFFF AND SWAP1 POP PUSH0 PUSH0 DUP3 PUSH8 0xFFFFFFFFFFFFFFFF AND EQ DUP1 ISZERO PUSH2 0x169 JUMPI POP DUP3 JUMPDEST SWAP1 POP PUSH0 PUSH1 0x1 DUP4 PUSH8 0xFFFFFFFFFFFFFFFF AND EQ DUP1 ISZERO PUSH2 0x19C JUMPI POP PUSH0 ADDRESS PUSH20 0xFFFFFFFFFFFFFFFFFFFFFFFFFFFFFFFFFFFFFFFF AND EXTCODESIZE EQ JUMPDEST SWAP1 POP DUP2 ISZERO DUP1 ISZERO PUSH2 0x1AA JUMPI POP DUP1 ISZERO JUMPDEST ISZERO PUSH2 0x1E1 JUMPI PUSH1 0x40 MLOAD PUSH32 0xF92EE8A900000000000000000000000000000000000000000000000000000000 DUP2 MSTORE PUSH1 0x4 ADD PUSH1 0x40 MLOAD DUP1 SWAP2 SUB SWAP1 REVERT JUMPDEST PUSH1 0x1 DUP6 PUSH0 ADD PUSH0 PUSH2 0x100 EXP DUP2 SLOAD DUP2 PUSH8 0xFFFFFFFFFFFFFFFF MUL NOT AND SWAP1 DUP4 PUSH8 0xFFFFFFFFFFFFFFFF AND MUL OR SWAP1 SSTORE POP DUP4 ISZERO PUSH2 0x22E JUMPI PUSH1 0x1 DUP6 PUSH0 ADD PUSH1 0x8 PUSH2 0x100 EXP DUP2 SLOAD DUP2 PUSH1 0xFF MUL NOT AND SWAP1 DUP4 ISZERO ISZERO MUL OR SWAP1 SSTORE POP JUMPDEST PUSH2 0x237 CALLER PUSH2 0x97C JUMP JUMPDEST DUP4 ISZERO PUSH2 0x291 JUMPI PUSH0 DUP6 PUSH0 ADD PUSH1 0x8 PUSH2 0x100 EXP DUP2 SLOAD DUP2 PUSH1 0xFF MUL NOT AND SWAP1 DUP4 ISZERO ISZERO MUL OR SWAP1 SSTORE POP PUSH32 0xC7F505B2F371AE2175EE4913F4499E1F2633A7B5936321EED1CDAEB6115181D2 PUSH1 0x1 PUSH1 0x40 MLOAD PUSH2 0x288 SWAP2 SWAP1 PUSH2 0xEAE JUMP JUMPDEST PUSH1 0x40 MLOAD DUP1 SWAP2 SUB SWAP1 LOG1 JUMPDEST POP POP POP POP POP JUMP JUMPDEST PUSH0 PUSH20 0xFFFFFFFFFFFFFFFFFFFFFFFFFFFFFFFFFFFFFFFF AND DUP8 PUSH20 0xFFFFFFFFFFFFFFFFFFFFFFFFFFFFFFFFFFFFFFFF AND EQ ISZERO DUP1 ISZERO PUSH2 0x300 JUMPI POP PUSH0 PUSH20 0xFFFFFFFFFFFFFFFFFFFFFFFFFFFFFFFFFFFFFFFF AND DUP2 PUSH20 0xFFFFFFFFFFFFFFFFFFFFFFFFFFFFFFFFFFFFFFFF AND EQ ISZERO JUMPDEST PUSH2 0x33F JUMPI PUSH1 0x40 MLOAD PUSH32 0x8C379A000000000000000000000000000000000000000000000000000000000 DUP2 MSTORE PUSH1 0x4 ADD PUSH2 0x336 SWAP1 PUSH2 0xF11 JUMP JUMPDEST PUSH1 0x40 MLOAD DUP1 SWAP2 SUB SWAP1 REVERT JUMPDEST PUSH0 PUSH0 CALLER PUSH20 0xFFFFFFFFFFFFFFFFFFFFFFFFFFFFFFFFFFFFFFFF AND PUSH20 0xFFFFFFFFFFFFFFFFFFFFFFFFFFFFFFFFFFFFFFFF AND DUP2 MSTORE PUSH1 0x20 ADD SWAP1 DUP2 MSTORE PUSH1 0x20 ADD PUSH0 KECCAK256 PUSH1 0x40 MLOAD DUP1 PUSH2 0x100 ADD PUSH1 0x40 MSTORE DUP1 CALLER PUSH20 0xFFFFFFFFFFFFFFFFFFFFFFFFFFFFFFFFFFFFFFFF AND DUP2 MSTORE PUSH1 0x20 ADD DUP10 PUSH20 0xFFFFFFFFFFFFFFFFFFFFFFFFFFFFFFFFFFFFFFFF AND DUP2 MSTORE PUSH1 0x20 ADD DUP9 DUP2 MSTORE PUSH1 0x20 ADD DUP8 DUP2 MSTORE PUSH1 0x20 ADD DUP7 DUP2 MSTORE PUSH1 0x20 ADD DUP11 PUSH6 0xFFFFFFFFFFFF AND DUP2 MSTORE PUSH1 0x20 ADD DUP6 DUP6 DUP1 DUP1 PUSH1 0x1F ADD PUSH1 0x20 DUP1 SWAP2 DIV MUL PUSH1 0x20 ADD PUSH1 0x40 MLOAD SWAP1 DUP2 ADD PUSH1 0x40 MSTORE DUP1 SWAP4 SWAP3 SWAP2 SWAP1 DUP2 DUP2 MSTORE PUSH1 0x20 ADD DUP4 DUP4 DUP1 DUP3 DUP5 CALLDATACOPY PUSH0 DUP2 DUP5 ADD MSTORE PUSH1 0x1F NOT PUSH1 0x1F DUP3 ADD AND SWAP1 POP DUP1 DUP4 ADD SWAP3 POP POP POP POP POP POP POP DUP2 MSTORE PUSH1 0x20 ADD DUP4 PUSH20 0xFFFFFFFFFFFFFFFFFFFFFFFFFFFFFFFFFFFFFFFF AND DUP2 MSTORE POP SWAP1 DUP1 PUSH1 0x1 DUP2 SLOAD ADD DUP1 DUP3 SSTORE DUP1 SWAP2 POP POP PUSH1 0x1 SWAP1 SUB SWAP1 PUSH0 MSTORE PUSH1 0x20 PUSH0 KECCAK256 SWAP1 PUSH1 0x8 MUL ADD PUSH0 SWAP1 SWAP2 SWAP1 SWAP2 SWAP1 SWAP2 POP PUSH0 DUP3 ADD MLOAD DUP2 PUSH0 ADD PUSH0 PUSH2 0x100 EXP DUP2 SLOAD DUP2 PUSH20 0xFFFFFFFFFFFFFFFFFFFFFFFFFFFFFFFFFFFFFFFF MUL NOT AND SWAP1 DUP4 PUSH20 0xFFFFFFFFFFFFFFFFFFFFFFFFFFFFFFFFFFFFFFFF AND MUL OR SWAP1 SSTORE POP PUSH1 0x20 DUP3 ADD MLOAD DUP2 PUSH1 0x1 ADD PUSH0 PUSH2 0x100 EXP DUP2 SLOAD DUP2 PUSH20 0xFFFFFFFFFFFFFFFFFFFFFFFFFFFFFFFFFFFFFFFF MUL NOT AND SWAP1 DUP4 PUSH20 0xFFFFFFFFFFFFFFFFFFFFFFFFFFFFFFFFFFFFFFFF AND MUL OR SWAP1 SSTORE POP PUSH1 0x40 DUP3 ADD MLOAD DUP2 PUSH1 0x2 ADD SSTORE PUSH1 0x60 DUP3 ADD MLOAD DUP2 PUSH1 0x3 ADD SSTORE PUSH1 0x80 DUP3 ADD MLOAD DUP2 PUSH1 0x4 ADD SSTORE PUSH1 0xA0 DUP3 ADD MLOAD DUP2 PUSH1 0x5 ADD PUSH0 PUSH2 0x100 EXP DUP2 SLOAD DUP2 PUSH6 0xFFFFFFFFFFFF MUL NOT AND SWAP1 DUP4 PUSH6 0xFFFFFFFFFFFF AND MUL OR SWAP1 SSTORE POP PUSH1 0xC0 DUP3 ADD MLOAD DUP2 PUSH1 0x6 ADD SWAP1 DUP2 PUSH2 0x54F SWAP2 SWAP1 PUSH2 0x1150 JUMP JUMPDEST POP PUSH1 0xE0 DUP3 ADD MLOAD DUP2 PUSH1 0x7 ADD PUSH0 PUSH2 0x100 EXP DUP2 SLOAD DUP2 PUSH20 0xFFFFFFFFFFFFFFFFFFFFFFFFFFFFFFFFFFFFFFFF MUL NOT AND SWAP1 DUP4 PUSH20 0xFFFFFFFFFFFFFFFFFFFFFFFFFFFFFFFFFFFFFFFF AND MUL OR SWAP1 SSTORE POP POP POP DUP7 PUSH20 0xFFFFFFFFFFFFFFFFFFFFFFFFFFFFFFFFFFFFFFFF AND CALLER PUSH20 0xFFFFFFFFFFFFFFFFFFFFFFFFFFFFFFFFFFFFFFFF AND PUSH32 0xC46393C51FB2221CAAEC70CC70ADECD0BBD1F605F3A19747F4EC3A8AFF00CF7C DUP9 PUSH1 0x40 MLOAD PUSH2 0x5F5 SWAP2 SWAP1 PUSH2 0x121F JUMP JUMPDEST PUSH1 0x40 MLOAD DUP1 SWAP2 SUB SWAP1 LOG3 POP POP POP POP POP POP POP POP JUMP JUMPDEST PUSH0 PUSH0 PUSH2 0x611 PUSH2 0x990 JUMP JUMPDEST SWAP1 POP DUP1 PUSH0 ADD PUSH0 SWAP1 SLOAD SWAP1 PUSH2 0x100 EXP SWAP1 DIV PUSH20 0xFFFFFFFFFFFFFFFFFFFFFFFFFFFFFFFFFFFFFFFF AND SWAP2 POP POP SWAP1 JUMP JUMPDEST PUSH0 PUSH1 0x20 MSTORE DUP2 PUSH0 MSTORE PUSH1 0x40 PUSH0 KECCAK256 DUP2 DUP2 SLOAD DUP2 LT PUSH2 0x654 JUMPI PUSH0 DUP1 REVERT JUMPDEST SWAP1 PUSH0 MSTORE PUSH1 0x20 PUSH0 KECCAK256 SWAP1 PUSH1 0x8 MUL ADD PUSH0 SWAP2 POP SWAP2 POP POP DUP1 PUSH0 ADD PUSH0 SWAP1 SLOAD SWAP1 PUSH2 0x100 EXP SWAP1 DIV PUSH20 0xFFFFFFFFFFFFFFFFFFFFFFFFFFFFFFFFFFFFFFFF AND SWAP1 DUP1 PUSH1 0x1 ADD PUSH0 SWAP1 SLOAD SWAP1 PUSH2 0x100 EXP SWAP1 DIV PUSH20 0xFFFFFFFFFFFFFFFFFFFFFFFFFFFFFFFFFFFFFFFF AND SWAP1 DUP1 PUSH1 0x2 ADD SLOAD SWAP1 DUP1 PUSH1 0x3 ADD SLOAD SWAP1 DUP1 PUSH1 0x4 ADD SLOAD SWAP1 DUP1 PUSH1 0x5 ADD PUSH0 SWAP1 SLOAD SWAP1 PUSH2 0x100 EXP SWAP1 DIV PUSH6 0xFFFFFFFFFFFF AND SWAP1 DUP1 PUSH1 0x6 ADD DUP1 SLOAD PUSH2 0x6E7 SWAP1 PUSH2 0xF89 JUMP JUMPDEST DUP1 PUSH1 0x1F ADD PUSH1 0x20 DUP1 SWAP2 DIV MUL PUSH1 0x20 ADD PUSH1 0x40 MLOAD SWAP1 DUP2 ADD PUSH1 0x40 MSTORE DUP1 SWAP3 SWAP2 SWAP1 DUP2 DUP2 MSTORE PUSH1 0x20 ADD DUP3 DUP1 SLOAD PUSH2 0x713 SWAP1 PUSH2 0xF89 JUMP JUMPDEST DUP1 ISZERO PUSH2 0x75E JUMPI DUP1 PUSH1 0x1F LT PUSH2 0x735 JUMPI PUSH2 0x100 DUP1 DUP4 SLOAD DIV MUL DUP4 MSTORE SWAP2 PUSH1 0x20 ADD SWAP2 PUSH2 0x75E JUMP JUMPDEST DUP3 ADD SWAP2 SWAP1 PUSH0 MSTORE PUSH1 0x20 PUSH0 KECCAK256 SWAP1 JUMPDEST DUP2 SLOAD DUP2 MSTORE SWAP1 PUSH1 0x1 ADD SWAP1 PUSH1 0x20 ADD DUP1 DUP4 GT PUSH2 0x741 JUMPI DUP3 SWAP1 SUB PUSH1 0x1F AND DUP3 ADD SWAP2 JUMPDEST POP POP POP POP POP SWAP1 DUP1 PUSH1 0x7 ADD PUSH0 SWAP1 SLOAD SWAP1 PUSH2 0x100 EXP SWAP1 DIV PUSH20 0xFFFFFFFFFFFFFFFFFFFFFFFFFFFFFFFFFFFFFFFF AND SWAP1 POP DUP9 JUMP JUMPDEST PUSH2 0x795 PUSH2 0x811 JUMP JUMPDEST PUSH0 PUSH20 0xFFFFFFFFFFFFFFFFFFFFFFFFFFFFFFFFFFFFFFFF AND DUP2 PUSH20 0xFFFFFFFFFFFFFFFFFFFFFFFFFFFFFFFFFFFFFFFF AND SUB PUSH2 0x805 JUMPI PUSH0 PUSH1 0x40 MLOAD PUSH32 0x1E4FBDF700000000000000000000000000000000000000000000000000000000 DUP2 MSTORE PUSH1 0x4 ADD PUSH2 0x7FC SWAP2 SWAP1 PUSH2 0xCC6 JUMP JUMPDEST PUSH1 0x40 MLOAD DUP1 SWAP2 SUB SWAP1 REVERT JUMPDEST PUSH2 0x80E DUP2 PUSH2 0x898 JUMP JUMPDEST POP JUMP JUMPDEST PUSH2 0x819 PUSH2 0x9B7 JUMP JUMPDEST PUSH20 0xFFFFFFFFFFFFFFFFFFFFFFFFFFFFFFFFFFFFFFFF AND PUSH2 0x837 PUSH2 0x607 JUMP JUMPDEST PUSH20 0xFFFFFFFFFFFFFFFFFFFFFFFFFFFFFFFFFFFFFFFF AND EQ PUSH2 0x896 JUMPI PUSH2 0x85A PUSH2 0x9B7 JUMP JUMPDEST PUSH1 0x40 MLOAD PUSH32 0x118CDAA700000000000000000000000000000000000000000000000000000000 DUP2 MSTORE PUSH1 0x4 ADD PUSH2 0x88D SWAP2 SWAP1 PUSH2 0xCC6 JUMP JUMPDEST PUSH1 0x40 MLOAD DUP1 SWAP2 SUB SWAP1 REVERT JUMPDEST JUMP JUMPDEST PUSH0 PUSH2 0x8A1 PUSH2 0x990 JUMP JUMPDEST SWAP1 POP PUSH0 DUP2 PUSH0 ADD PUSH0 SWAP1 SLOAD SWAP1 PUSH2 0x100 EXP SWAP1 DIV PUSH20 0xFFFFFFFFFFFFFFFFFFFFFFFFFFFFFFFFFFFFFFFF AND SWAP1 POP DUP3 DUP3 PUSH0 ADD PUSH0 PUSH2 0x100 EXP DUP2 SLOAD DUP2 PUSH20 0xFFFFFFFFFFFFFFFFFFFFFFFFFFFFFFFFFFFFFFFF MUL NOT AND SWAP1 DUP4 PUSH20 0xFFFFFFFFFFFFFFFFFFFFFFFFFFFFFFFFFFFFFFFF AND MUL OR SWAP1 SSTORE POP DUP3 PUSH20 0xFFFFFFFFFFFFFFFFFFFFFFFFFFFFFFFFFFFFFFFF AND DUP2 PUSH20 0xFFFFFFFFFFFFFFFFFFFFFFFFFFFFFFFFFFFFFFFF AND PUSH32 0x8BE0079C531659141344CD1FD0A4F28419497F9722A3DAAFE3B4186F6B6457E0 PUSH1 0x40 MLOAD PUSH1 0x40 MLOAD DUP1 SWAP2 SUB SWAP1 LOG3 POP POP POP JUMP JUMPDEST PUSH0 PUSH0 PUSH2 0x973 PUSH2 0x9BE JUMP JUMPDEST SWAP1 POP DUP1 SWAP2 POP POP SWAP1 JUMP JUMPDEST PUSH2 0x984 PUSH2 0x9E7 JUMP JUMPDEST PUSH2 0x98D DUP2 PUSH2 0xA27 JUMP JUMPDEST POP JUMP JUMPDEST PUSH0 PUSH32 0x9016D09D72D40FDAE2FD8CEAC6B6234C7706214FD39C1CD1E609A0528C199300 SWAP1 POP SWAP1 JUMP JUMPDEST PUSH0 CALLER SWAP1 POP SWAP1 JUMP JUMPDEST PUSH0 PUSH32 0xF0C57E16840DF040F15088DC2F81FE391C3923BEC73E23A9662EFC9C229C6A00 PUSH0 SHL SWAP1 POP SWAP1 JUMP JUMPDEST PUSH2 0x9EF PUSH2 0xAAB JUMP JUMPDEST PUSH2 0xA25 JUMPI PUSH1 0x40 MLOAD PUSH32 0xD7E6BCF800000000000000000000000000000000000000000000000000000000 DUP2 MSTORE PUSH1 0x4 ADD PUSH1 0x40 MLOAD DUP1 SWAP2 SUB SWAP1 REVERT JUMPDEST JUMP JUMPDEST PUSH2 0xA2F PUSH2 0x9E7 JUMP JUMPDEST PUSH0 PUSH20 0xFFFFFFFFFFFFFFFFFFFFFFFFFFFFFFFFFFFFFFFF AND DUP2 PUSH20 0xFFFFFFFFFFFFFFFFFFFFFFFFFFFFFFFFFFFFFFFF AND SUB PUSH2 0xA9F JUMPI PUSH0 PUSH1 0x40 MLOAD PUSH32 0x1E4FBDF700000000000000000000000000000000000000000000000000000000 DUP2 MSTORE PUSH1 0x4 ADD PUSH2 0xA96 SWAP2 SWAP1 PUSH2 0xCC6 JUMP JUMPDEST PUSH1 0x40 MLOAD DUP1 SWAP2 SUB SWAP1 REVERT JUMPDEST PUSH2 0xAA8 DUP2 PUSH2 0x898 JUMP JUMPDEST POP JUMP JUMPDEST PUSH0 PUSH2 0xAB4 PUSH2 0x969 JUMP JUMPDEST PUSH0 ADD PUSH1 0x8 SWAP1 SLOAD SWAP1 PUSH2 0x100 EXP SWAP1 DIV PUSH1 0xFF AND SWAP1 POP SWAP1 JUMP JUMPDEST PUSH0 PUSH0 REVERT JUMPDEST PUSH0 PUSH0 REVERT JUMPDEST PUSH0 PUSH6 0xFFFFFFFFFFFF DUP3 AND SWAP1 POP SWAP2 SWAP1 POP JUMP JUMPDEST PUSH2 0xAEB DUP2 PUSH2 0xAD1 JUMP JUMPDEST DUP2 EQ PUSH2 0xAF5 JUMPI PUSH0 PUSH0 REVERT JUMPDEST POP JUMP JUMPDEST PUSH0 DUP2 CALLDATALOAD SWAP1 POP PUSH2 0xB06 DUP2 PUSH2 0xAE2 JUMP JUMPDEST SWAP3 SWAP2 POP POP JUMP JUMPDEST PUSH0 PUSH20 0xFFFFFFFFFFFFFFFFFFFFFFFFFFFFFFFFFFFFFFFF DUP3 AND SWAP1 POP SWAP2 SWAP1 POP JUMP JUMPDEST PUSH0 PUSH2 0xB35 DUP3 PUSH2 0xB0C JUMP JUMPDEST SWAP1 POP SWAP2 SWAP1 POP JUMP JUMPDEST PUSH2 0xB45 DUP2 PUSH2 0xB2B JUMP JUMPDEST DUP2 EQ PUSH2 0xB4F JUMPI PUSH0 PUSH0 REVERT JUMPDEST POP JUMP JUMPDEST PUSH0 DUP2 CALLDATALOAD SWAP1 POP PUSH2 0xB60 DUP2 PUSH2 0xB3C JUMP JUMPDEST SWAP3 SWAP2 POP POP JUMP JUMPDEST PUSH0 DUP2 SWAP1 POP SWAP2 SWAP1 POP JUMP JUMPDEST PUSH2 0xB78 DUP2 PUSH2 0xB66 JUMP JUMPDEST DUP2 EQ PUSH2 0xB82 JUMPI PUSH0 PUSH0 REVERT JUMPDEST POP JUMP JUMPDEST PUSH0 DUP2 CALLDATALOAD SWAP1 POP PUSH2 0xB93 DUP2 PUSH2 0xB6F JUMP JUMPDEST SWAP3 SWAP2 POP POP JUMP JUMPDEST PUSH0 PUSH0 REVERT JUMPDEST PUSH0 PUSH0 REVERT JUMPDEST PUSH0 PUSH0 REVERT JUMPDEST PUSH0 PUSH0 DUP4 PUSH1 0x1F DUP5 ADD SLT PUSH2 0xBBA JUMPI PUSH2 0xBB9 PUSH2 0xB99 JUMP JUMPDEST JUMPDEST DUP3 CALLDATALOAD SWAP1 POP PUSH8 0xFFFFFFFFFFFFFFFF DUP2 GT ISZERO PUSH2 0xBD7 JUMPI PUSH2 0xBD6 PUSH2 0xB9D JUMP JUMPDEST JUMPDEST PUSH1 0x20 DUP4 ADD SWAP2 POP DUP4 PUSH1 0x1 DUP3 MUL DUP4 ADD GT ISZERO PUSH2 0xBF3 JUMPI PUSH2 0xBF2 PUSH2 0xBA1 JUMP JUMPDEST JUMPDEST SWAP3 POP SWAP3 SWAP1 POP JUMP JUMPDEST PUSH0 PUSH0 PUSH0 PUSH0 PUSH0 PUSH0 PUSH0 PUSH0 PUSH1 0xE0 DUP10 DUP12 SUB SLT ISZERO PUSH2 0xC16 JUMPI PUSH2 0xC15 PUSH2 0xAC9 JUMP JUMPDEST JUMPDEST PUSH0 PUSH2 0xC23 DUP12 DUP3 DUP13 ADD PUSH2 0xAF8 JUMP JUMPDEST SWAP9 POP POP PUSH1 0x20 PUSH2 0xC34 DUP12 DUP3 DUP13 ADD PUSH2 0xB52 JUMP JUMPDEST SWAP8 POP POP PUSH1 0x40 PUSH2 0xC45 DUP12 DUP3 DUP13 ADD PUSH2 0xB85 JUMP JUMPDEST SWAP7 POP POP PUSH1 0x60 PUSH2 0xC56 DUP12 DUP3 DUP13 ADD PUSH2 0xB85 JUMP JUMPDEST SWAP6 POP POP PUSH1 0x80 PUSH2 0xC67 DUP12 DUP3 DUP13 ADD PUSH2 0xB85 JUMP JUMPDEST SWAP5 POP POP PUSH1 0xA0 DUP10 ADD CALLDATALOAD PUSH8 0xFFFFFFFFFFFFFFFF DUP2 GT ISZERO PUSH2 0xC88 JUMPI PUSH2 0xC87 PUSH2 0xACD JUMP JUMPDEST JUMPDEST PUSH2 0xC94 DUP12 DUP3 DUP13 ADD PUSH2 0xBA5 JUMP JUMPDEST SWAP4 POP SWAP4 POP POP PUSH1 0xC0 PUSH2 0xCA7 DUP12 DUP3 DUP13 ADD PUSH2 0xB52 JUMP JUMPDEST SWAP2 POP POP SWAP3 SWAP6 SWAP9 POP SWAP3 SWAP6 SWAP9 SWAP1 SWAP4 SWAP7 POP JUMP JUMPDEST PUSH2 0xCC0 DUP2 PUSH2 0xB2B JUMP JUMPDEST DUP3 MSTORE POP POP JUMP JUMPDEST PUSH0 PUSH1 0x20 DUP3 ADD SWAP1 POP PUSH2 0xCD9 PUSH0 DUP4 ADD DUP5 PUSH2 0xCB7 JUMP JUMPDEST SWAP3 SWAP2 POP POP JUMP JUMPDEST PUSH0 PUSH0 PUSH1 0x40 DUP4 DUP6 SUB SLT ISZERO PUSH2 0xCF5 JUMPI PUSH2 0xCF4 PUSH2 0xAC9 JUMP JUMPDEST JUMPDEST PUSH0 PUSH2 0xD02 DUP6 DUP3 DUP7 ADD PUSH2 0xB52 JUMP JUMPDEST SWAP3 POP POP PUSH1 0x20 PUSH2 0xD13 DUP6 DUP3 DUP7 ADD PUSH2 0xB85 JUMP JUMPDEST SWAP2 POP POP SWAP3 POP SWAP3 SWAP1 POP JUMP JUMPDEST PUSH2 0xD26 DUP2 PUSH2 0xB66 JUMP JUMPDEST DUP3 MSTORE POP POP JUMP JUMPDEST PUSH2 0xD35 DUP2 PUSH2 0xAD1 JUMP JUMPDEST DUP3 MSTORE POP POP JUMP JUMPDEST PUSH0 DUP2 MLOAD SWAP1 POP SWAP2 SWAP1 POP JUMP JUMPDEST PUSH0 DUP3 DUP3 MSTORE PUSH1 0x20 DUP3 ADD SWAP1 POP SWAP3 SWAP2 POP POP JUMP JUMPDEST DUP3 DUP2 DUP4 MCOPY PUSH0 DUP4 DUP4 ADD MSTORE POP POP POP JUMP JUMPDEST PUSH0 PUSH1 0x1F NOT PUSH1 0x1F DUP4 ADD AND SWAP1 POP SWAP2 SWAP1 POP JUMP JUMPDEST PUSH0 PUSH2 0xD7D DUP3 PUSH2 0xD3B JUMP JUMPDEST PUSH2 0xD87 DUP2 DUP6 PUSH2 0xD45 JUMP JUMPDEST SWAP4 POP PUSH2 0xD97 DUP2 DUP6 PUSH1 0x20 DUP7 ADD PUSH2 0xD55 JUMP JUMPDEST PUSH2 0xDA0 DUP2 PUSH2 0xD63 JUMP JUMPDEST DUP5 ADD SWAP2 POP POP SWAP3 SWAP2 POP POP JUMP JUMPDEST PUSH0 PUSH2 0x100 DUP3 ADD SWAP1 POP PUSH2 0xDBF PUSH0 DUP4 ADD DUP12 PUSH2 0xCB7 JUMP JUMPDEST PUSH2 0xDCC PUSH1 0x20 DUP4 ADD DUP11 PUSH2 0xCB7 JUMP JUMPDEST PUSH2 0xDD9 PUSH1 0x40 DUP4 ADD DUP10 PUSH2 0xD1D JUMP JUMPDEST PUSH2 0xDE6 PUSH1 0x60 DUP4 ADD DUP9 PUSH2 0xD1D JUMP JUMPDEST PUSH2 0xDF3 PUSH1 0x80 DUP4 ADD DUP8 PUSH2 0xD1D JUMP JUMPDEST PUSH2 0xE00 PUSH1 0xA0 DUP4 ADD DUP7 PUSH2 0xD2C JUMP JUMPDEST DUP2 DUP2 SUB PUSH1 0xC0 DUP4 ADD MSTORE PUSH2 0xE12 DUP2 DUP6 PUSH2 0xD73 JUMP JUMPDEST SWAP1 POP PUSH2 0xE21 PUSH1 0xE0 DUP4 ADD DUP5 PUSH2 0xCB7 JUMP JUMPDEST SWAP10 SWAP9 POP POP POP POP POP POP POP POP POP JUMP JUMPDEST PUSH0 PUSH1 0x20 DUP3 DUP5 SUB SLT ISZERO PUSH2 0xE43 JUMPI PUSH2 0xE42 PUSH2 0xAC9 JUMP JUMPDEST JUMPDEST PUSH0 PUSH2 0xE50 DUP5 DUP3 DUP6 ADD PUSH2 0xB52 JUMP JUMPDEST SWAP2 POP POP SWAP3 SWAP2 POP POP JUMP JUMPDEST PUSH0 DUP2 SWAP1 POP SWAP2 SWAP1 POP JUMP JUMPDEST PUSH0 PUSH8 0xFFFFFFFFFFFFFFFF DUP3 AND SWAP1 POP SWAP2 SWAP1 POP JUMP JUMPDEST PUSH0 DUP2 SWAP1 POP SWAP2 SWAP1 POP JUMP JUMPDEST PUSH0 PUSH2 0xE98 PUSH2 0xE93 PUSH2 0xE8E DUP5 PUSH2 0xE59 JUMP JUMPDEST PUSH2 0xE75 JUMP JUMPDEST PUSH2 0xE62 JUMP JUMPDEST SWAP1 POP SWAP2 SWAP1 POP JUMP JUMPDEST PUSH2 0xEA8 DUP2 PUSH2 0xE7E JUMP JUMPDEST DUP3 MSTORE POP POP JUMP JUMPDEST PUSH0 PUSH1 0x20 DUP3 ADD SWAP1 POP PUSH2 0xEC1 PUSH0 DUP4 ADD DUP5 PUSH2 0xE9F JUMP JUMPDEST SWAP3 SWAP2 POP POP JUMP JUMPDEST PUSH32 0x496E76616C696420616464726573730000000000000000000000000000000000 PUSH0 DUP3 ADD MSTORE POP JUMP JUMPDEST PUSH0 PUSH2 0xEFB PUSH1 0xF DUP4 PUSH2 0xD45 JUMP JUMPDEST SWAP2 POP PUSH2 0xF06 DUP3 PUSH2 0xEC7 JUMP JUMPDEST PUSH1 0x20 DUP3 ADD SWAP1 POP SWAP2 SWAP1 POP JUMP JUMPDEST PUSH0 PUSH1 0x20 DUP3 ADD SWAP1 POP DUP2 DUP2 SUB PUSH0 DUP4 ADD MSTORE PUSH2 0xF28 DUP2 PUSH2 0xEEF JUMP JUMPDEST SWAP1 POP SWAP2 SWAP1 POP JUMP JUMPDEST PUSH32 0x4E487B7100000000000000000000000000000000000000000000000000000000 PUSH0 MSTORE PUSH1 0x41 PUSH1 0x4 MSTORE PUSH1 0x24 PUSH0 REVERT JUMPDEST PUSH32 0x4E487B7100000000000000000000000000000000000000000000000000000000 PUSH0 MSTORE PUSH1 0x22 PUSH1 0x4 MSTORE PUSH1 0x24 PUSH0 REVERT JUMPDEST PUSH0 PUSH1 0x2 DUP3 DIV SWAP1 POP PUSH1 0x1 DUP3 AND DUP1 PUSH2 0xFA0 JUMPI PUSH1 0x7F DUP3 AND SWAP2 POP JUMPDEST PUSH1 0x20 DUP3 LT DUP2 SUB PUSH2 0xFB3 JUMPI PUSH2 0xFB2 PUSH2 0xF5C JUMP JUMPDEST JUMPDEST POP SWAP2 SWAP1 POP JUMP JUMPDEST PUSH0 DUP2 SWAP1 POP DUP2 PUSH0 MSTORE PUSH1 0x20 PUSH0 KECCAK256 SWAP1 POP SWAP2 SWAP1 POP JUMP JUMPDEST PUSH0 PUSH1 0x20 PUSH1 0x1F DUP4 ADD DIV SWAP1 POP SWAP2 SWAP1 POP JUMP JUMPDEST PUSH0 DUP3 DUP3 SHL SWAP1 POP SWAP3 SWAP2 POP POP JUMP JUMPDEST PUSH0 PUSH1 0x8 DUP4 MUL PUSH2 0x1015 PUSH32 0xFFFFFFFFFFFFFFFFFFFFFFFFFFFFFFFFFFFFFFFFFFFFFFFFFFFFFFFFFFFFFFFF DUP3 PUSH2 0xFDA JUMP JUMPDEST PUSH2 0x101F DUP7 DUP4 PUSH2 0xFDA JUMP JUMPDEST SWAP6 POP DUP1 NOT DUP5 AND SWAP4 POP DUP1 DUP7 AND DUP5 OR SWAP3 POP POP POP SWAP4 SWAP3 POP POP POP JUMP JUMPDEST PUSH0 PUSH2 0x1051 PUSH2 0x104C PUSH2 0x1047 DUP5 PUSH2 0xB66 JUMP JUMPDEST PUSH2 0xE75 JUMP JUMPDEST PUSH2 0xB66 JUMP JUMPDEST SWAP1 POP SWAP2 SWAP1 POP JUMP JUMPDEST PUSH0 DUP2 SWAP1 POP SWAP2 SWAP1 POP JUMP JUMPDEST PUSH2 0x106A DUP4 PUSH2 0x1037 JUMP JUMPDEST PUSH2 0x107E PUSH2 0x1076 DUP3 PUSH2 0x1058 JUMP JUMPDEST DUP5 DUP5 SLOAD PUSH2 0xFE6 JUMP JUMPDEST DUP3 SSTORE POP POP POP POP JUMP JUMPDEST PUSH0 PUSH0 SWAP1 POP SWAP1 JUMP JUMPDEST PUSH2 0x1095 PUSH2 0x1086 JUMP JUMPDEST PUSH2 0x10A0 DUP2 DUP5 DUP5 PUSH2 0x1061 JUMP JUMPDEST POP POP POP JUMP JUMPDEST JUMPDEST DUP2 DUP2 LT ISZERO PUSH2 0x10C3 JUMPI PUSH2 0x10B8 PUSH0 DUP3 PUSH2 0x108D JUMP JUMPDEST PUSH1 0x1 DUP2 ADD SWAP1 POP PUSH2 0x10A6 JUMP JUMPDEST POP POP JUMP JUMPDEST PUSH1 0x1F DUP3 GT ISZERO PUSH2 0x1108 JUMPI PUSH2 0x10D9 DUP2 PUSH2 0xFB9 JUMP JUMPDEST PUSH2 0x10E2 DUP5 PUSH2 0xFCB JUMP JUMPDEST DUP2 ADD PUSH1 0x20 DUP6 LT ISZERO PUSH2 0x10F1 JUMPI DUP2 SWAP1 POP JUMPDEST PUSH2 0x1105 PUSH2 0x10FD DUP6 PUSH2 0xFCB JUMP JUMPDEST DUP4 ADD DUP3 PUSH2 0x10A5 JUMP JUMPDEST POP POP JUMPDEST POP POP POP JUMP JUMPDEST PUSH0 DUP3 DUP3 SHR SWAP1 POP SWAP3 SWAP2 POP POP JUMP JUMPDEST PUSH0 PUSH2 0x1128 PUSH0 NOT DUP5 PUSH1 0x8 MUL PUSH2 0x110D JUMP JUMPDEST NOT DUP1 DUP4 AND SWAP2 POP POP SWAP3 SWAP2 POP POP JUMP JUMPDEST PUSH0 PUSH2 0x1140 DUP4 DUP4 PUSH2 0x1119 JUMP JUMPDEST SWAP2 POP DUP3 PUSH1 0x2 MUL DUP3 OR SWAP1 POP SWAP3 SWAP2 POP POP JUMP JUMPDEST PUSH2 0x1159 DUP3 PUSH2 0xD3B JUMP JUMPDEST PUSH8 0xFFFFFFFFFFFFFFFF DUP2 GT ISZERO PUSH2 0x1172 JUMPI PUSH2 0x1171 PUSH2 0xF2F JUMP JUMPDEST JUMPDEST PUSH2 0x117C DUP3 SLOAD PUSH2 0xF89 JUMP JUMPDEST PUSH2 0x1187 DUP3 DUP3 DUP6 PUSH2 0x10C7 JUMP JUMPDEST PUSH0 PUSH1 0x20 SWAP1 POP PUSH1 0x1F DUP4 GT PUSH1 0x1 DUP2 EQ PUSH2 0x11B8 JUMPI PUSH0 DUP5 ISZERO PUSH2 0x11A6 JUMPI DUP3 DUP8 ADD MLOAD SWAP1 POP JUMPDEST PUSH2 0x11B0 DUP6 DUP3 PUSH2 0x1135 JUMP JUMPDEST DUP7 SSTORE POP PUSH2 0x1217 JUMP JUMPDEST PUSH1 0x1F NOT DUP5 AND PUSH2 0x11C6 DUP7 PUSH2 0xFB9 JUMP JUMPDEST PUSH0 JUMPDEST DUP3 DUP2 LT ISZERO PUSH2 0x11ED JUMPI DUP5 DUP10 ADD MLOAD DUP3 SSTORE PUSH1 0x1 DUP3 ADD SWAP2 POP PUSH1 0x20 DUP6 ADD SWAP5 POP PUSH1 0x20 DUP2 ADD SWAP1 POP PUSH2 0x11C8 JUMP JUMPDEST DUP7 DUP4 LT ISZERO PUSH2 0x120A JUMPI DUP5 DUP10 ADD MLOAD PUSH2 0x1206 PUSH1 0x1F DUP10 AND DUP3 PUSH2 0x1119 JUMP JUMPDEST DUP4 SSTORE POP JUMPDEST PUSH1 0x1 PUSH1 0x2 DUP9 MUL ADD DUP9 SSTORE POP POP POP JUMPDEST POP POP POP POP POP POP JUMP JUMPDEST PUSH0 PUSH1 0x20 DUP3 ADD SWAP1 POP PUSH2 0x1232 PUSH0 DUP4 ADD DUP5 PUSH2 0xD1D JUMP JUMPDEST SWAP3 SWAP2 POP POP JUMP INVALID LOG2 PUSH5 0x6970667358 0x22 SLT KECCAK256 0xD5 0x24 0x2B DUP13 SWAP14 SELFBALANCE 0xDD DUP2 0xAF NOT STATICCALL PUSH27 0xDBE60B865414A51554862264E102BBFF2A397DAB64736F6C634300 ADDMOD 0x1E STOP CALLER "
				},
				"gasEstimates": {
					"creation": {
						"codeDepositCost": "943600",
						"executionCost": "979",
						"totalCost": "944579"
					},
					"external": {
						"initialize()": "infinite",
						"logTransaction(uint48,address,uint256,uint256,uint256,string,address)": "infinite",
						"owner()": "2610",
						"renounceOwnership()": "infinite",
						"transferOwnership(address)": "infinite",
						"userTransactions(address,uint256)": "infinite"
					}
				},
				"methodIdentifiers": {
					"initialize()": "8129fc1c",
					"logTransaction(uint48,address,uint256,uint256,uint256,string,address)": "83dc65f2",
					"owner()": "8da5cb5b",
					"renounceOwnership()": "715018a6",
					"transferOwnership(address)": "f2fde38b",
					"userTransactions(address,uint256)": "b842ec44"
				}
			},
			"storageLayout": {
				"storage": [
					{
						"astId": 1463,
						"contract": "contracts/Logger.sol:Logger",
						"label": "userTransactions",
						"offset": 0,
						"slot": "0",
						"type": "t_mapping(t_address,t_array(t_struct(Transaction)1457_storage)dyn_storage)"
					}
				],
				"types": {
					"t_address": {
						"encoding": "inplace",
						"label": "address",
						"numberOfBytes": "20"
					},
					"t_array(t_struct(Transaction)1457_storage)dyn_storage": {
						"base": "t_struct(Transaction)1457_storage",
						"encoding": "dynamic_array",
						"label": "struct Logger.Transaction[]",
						"numberOfBytes": "32"
					},
					"t_mapping(t_address,t_array(t_struct(Transaction)1457_storage)dyn_storage)": {
						"encoding": "mapping",
						"key": "t_address",
						"label": "mapping(address => struct Logger.Transaction[])",
						"numberOfBytes": "32",
						"value": "t_array(t_struct(Transaction)1457_storage)dyn_storage"
					},
					"t_string_storage": {
						"encoding": "bytes",
						"label": "string",
						"numberOfBytes": "32"
					},
					"t_struct(Transaction)1457_storage": {
						"encoding": "inplace",
						"label": "struct Logger.Transaction",
						"members": [
							{
								"astId": 1442,
								"contract": "contracts/Logger.sol:Logger",
								"label": "sender",
								"offset": 0,
								"slot": "0",
								"type": "t_address"
							},
							{
								"astId": 1444,
								"contract": "contracts/Logger.sol:Logger",
								"label": "recipient",
								"offset": 0,
								"slot": "1",
								"type": "t_address"
							},
							{
								"astId": 1446,
								"contract": "contracts/Logger.sol:Logger",
								"label": "amount",
								"offset": 0,
								"slot": "2",
								"type": "t_uint256"
							},
							{
								"astId": 1448,
								"contract": "contracts/Logger.sol:Logger",
								"label": "fee",
								"offset": 0,
								"slot": "3",
								"type": "t_uint256"
							},
							{
								"astId": 1450,
								"contract": "contracts/Logger.sol:Logger",
								"label": "reward",
								"offset": 0,
								"slot": "4",
								"type": "t_uint256"
							},
							{
								"astId": 1452,
								"contract": "contracts/Logger.sol:Logger",
								"label": "timestamp",
								"offset": 0,
								"slot": "5",
								"type": "t_uint48"
							},
							{
								"astId": 1454,
								"contract": "contracts/Logger.sol:Logger",
								"label": "txHash",
								"offset": 0,
								"slot": "6",
								"type": "t_string_storage"
							},
							{
								"astId": 1456,
								"contract": "contracts/Logger.sol:Logger",
								"label": "token",
								"offset": 0,
								"slot": "7",
								"type": "t_address"
							}
						],
						"numberOfBytes": "256"
					},
					"t_uint256": {
						"encoding": "inplace",
						"label": "uint256",
						"numberOfBytes": "32"
					},
					"t_uint48": {
						"encoding": "inplace",
						"label": "uint48",
						"numberOfBytes": "6"
					}
				}
			},
			"userdoc": {
				"kind": "user",
				"methods": {},
				"version": 1
			}
		}
	}
}