{
	"contracts/RewardManager.sol": {
		"RewardManager": {
			"abi": [
				{
					"inputs": [],
					"name": "InvalidInitialization",
					"type": "error"
				},
				{
					"inputs": [],
					"name": "NotInitializing",
					"type": "error"
				},
				{
					"inputs": [
						{
							"internalType": "address",
							"name": "owner",
							"type": "address"
						}
					],
					"name": "OwnableInvalidOwner",
					"type": "error"
				},
				{
					"inputs": [
						{
							"internalType": "address",
							"name": "account",
							"type": "address"
						}
					],
					"name": "OwnableUnauthorizedAccount",
					"type": "error"
				},
				{
					"anonymous": false,
					"inputs": [
						{
							"indexed": false,
							"internalType": "uint64",
							"name": "version",
							"type": "uint64"
						}
					],
					"name": "Initialized",
					"type": "event"
				},
				{
					"anonymous": false,
					"inputs": [
						{
							"indexed": true,
							"internalType": "address",
							"name": "previousOwner",
							"type": "address"
						},
						{
							"indexed": true,
							"internalType": "address",
							"name": "newOwner",
							"type": "address"
						}
					],
					"name": "OwnershipTransferred",
					"type": "event"
				},
				{
					"anonymous": false,
					"inputs": [
						{
							"indexed": true,
							"internalType": "address",
							"name": "user",
							"type": "address"
						},
						{
							"indexed": false,
							"internalType": "uint256",
							"name": "points",
							"type": "uint256"
						}
					],
					"name": "RewardDistributed",
					"type": "event"
				},
				{
					"inputs": [
						{
							"internalType": "uint256",
							"name": "amount",
							"type": "uint256"
						},
						{
							"internalType": "address",
							"name": "user",
							"type": "address"
						}
					],
					"name": "calculateReward",
					"outputs": [
						{
							"internalType": "uint256",
							"name": "",
							"type": "uint256"
						}
					],
					"stateMutability": "view",
					"type": "function"
				},
				{
					"inputs": [
						{
							"internalType": "address",
							"name": "user",
							"type": "address"
						},
						{
							"internalType": "uint256",
							"name": "amount",
							"type": "uint256"
						},
						{
							"internalType": "uint256",
							"name": "reward",
							"type": "uint256"
						}
					],
					"name": "distributeReward",
					"outputs": [],
					"stateMutability": "nonpayable",
					"type": "function"
				},
				{
					"inputs": [
						{
							"internalType": "uint256",
							"name": "_fee",
							"type": "uint256"
						},
						{
							"internalType": "uint256",
							"name": "_maxPoints",
							"type": "uint256"
						}
					],
					"name": "initialize",
					"outputs": [],
					"stateMutability": "nonpayable",
					"type": "function"
				},
				{
					"inputs": [],
					"name": "maxRewardPoints",
					"outputs": [
						{
							"internalType": "uint256",
							"name": "",
							"type": "uint256"
						}
					],
					"stateMutability": "view",
					"type": "function"
				},
				{
					"inputs": [],
					"name": "owner",
					"outputs": [
						{
							"internalType": "address",
							"name": "",
							"type": "address"
						}
					],
					"stateMutability": "view",
					"type": "function"
				},
				{
					"inputs": [],
					"name": "platformFee",
					"outputs": [
						{
							"internalType": "uint256",
							"name": "",
							"type": "uint256"
						}
					],
					"stateMutability": "view",
					"type": "function"
				},
				{
					"inputs": [],
					"name": "renounceOwnership",
					"outputs": [],
					"stateMutability": "nonpayable",
					"type": "function"
				},
				{
					"inputs": [],
					"name": "rewardToken",
					"outputs": [
						{
							"internalType": "contract IERC20",
							"name": "",
							"type": "address"
						}
					],
					"stateMutability": "view",
					"type": "function"
				},
				{
					"inputs": [
						{
							"internalType": "address",
							"name": "_token",
							"type": "address"
						}
					],
					"name": "setRewardToken",
					"outputs": [],
					"stateMutability": "nonpayable",
					"type": "function"
				},
				{
					"inputs": [
						{
							"internalType": "address",
							"name": "_ucpi",
							"type": "address"
						}
					],
					"name": "setUCPIContract",
					"outputs": [],
					"stateMutability": "nonpayable",
					"type": "function"
				},
				{
					"inputs": [
						{
							"internalType": "address",
							"name": "newOwner",
							"type": "address"
						}
					],
					"name": "transferOwnership",
					"outputs": [],
					"stateMutability": "nonpayable",
					"type": "function"
				},
				{
					"inputs": [],
					"name": "ucpiContract",
					"outputs": [
						{
							"internalType": "address",
							"name": "",
							"type": "address"
						}
					],
					"stateMutability": "view",
					"type": "function"
				}
			],
			"devdoc": {
				"errors": {
					"InvalidInitialization()": [
						{
							"details": "The contract is already initialized."
						}
					],
					"NotInitializing()": [
						{
							"details": "The contract is not initializing."
						}
					],
					"OwnableInvalidOwner(address)": [
						{
							"details": "The owner is not a valid owner account. (eg. `address(0)`)"
						}
					],
					"OwnableUnauthorizedAccount(address)": [
						{
							"details": "The caller account is not authorized to perform an operation."
						}
					]
				},
				"events": {
					"Initialized(uint64)": {
						"details": "Triggered when the contract has been initialized or reinitialized."
					}
				},
				"kind": "dev",
				"methods": {
					"owner()": {
						"details": "Returns the address of the current owner."
					},
					"renounceOwnership()": {
						"details": "Leaves the contract without owner. It will not be possible to call `onlyOwner` functions. Can only be called by the current owner. NOTE: Renouncing ownership will leave the contract without an owner, thereby disabling any functionality that is only available to the owner."
					},
					"transferOwnership(address)": {
						"details": "Transfers ownership of the contract to a new account (`newOwner`). Can only be called by the current owner."
					}
				},
				"version": 1
			},
			"evm": {
				"assembly": "    /* \"contracts/RewardManager.sol\":356:2098  contract RewardManager is Initializable, OwnableUpgradeable {... */\n  mstore(0x40, 0x80)\n  callvalue\n  dup1\n  iszero\n  tag_1\n  jumpi\n  revert(0x00, 0x00)\ntag_1:\n  pop\n  dataSize(sub_0)\n  dup1\n  dataOffset(sub_0)\n  0x00\n  codecopy\n  0x00\n  return\nstop\n\nsub_0: assembly {\n        /* \"contracts/RewardManager.sol\":356:2098  contract RewardManager is Initializable, OwnableUpgradeable {... */\n      mstore(0x40, 0x80)\n      callvalue\n      dup1\n      iszero\n      tag_1\n      jumpi\n      revert(0x00, 0x00)\n    tag_1:\n      pop\n      jumpi(tag_2, lt(calldatasize, 0x04))\n      shr(0xe0, calldataload(0x00))\n      dup1\n      0xb1a5232e\n      gt\n      tag_15\n      jumpi\n      dup1\n      0xb1a5232e\n      eq\n      tag_9\n      jumpi\n      dup1\n      0xde5b71f7\n      eq\n      tag_10\n      jumpi\n      dup1\n      0xe4a30116\n      eq\n      tag_11\n      jumpi\n      dup1\n      0xf2fde38b\n      eq\n      tag_12\n      jumpi\n      dup1\n      0xf7c618c1\n      eq\n      tag_13\n      jumpi\n      dup1\n      0xfe95fc1a\n      eq\n      tag_14\n      jumpi\n      jump(tag_2)\n    tag_15:\n      dup1\n      0x26232a2e\n      eq\n      tag_3\n      jumpi\n      dup1\n      0x49880782\n      eq\n      tag_4\n      jumpi\n      dup1\n      0x715018a6\n      eq\n      tag_5\n      jumpi\n      dup1\n      0x8aee8127\n      eq\n      tag_6\n      jumpi\n      dup1\n      0x8da5cb5b\n      eq\n      tag_7\n      jumpi\n      dup1\n      0xa18f07a0\n      eq\n      tag_8\n      jumpi\n    tag_2:\n      revert(0x00, 0x00)\n        /* \"contracts/RewardManager.sol\":423:449  uint256 public platformFee */\n    tag_3:\n      tag_16\n      tag_17\n      jump\t// in\n    tag_16:\n      mload(0x40)\n      tag_18\n      swap2\n      swap1\n      tag_19\n      jump\t// in\n    tag_18:\n      mload(0x40)\n      dup1\n      swap2\n      sub\n      swap1\n      return\n        /* \"contracts/RewardManager.sol\":456:486  uint256 public maxRewardPoints */\n    tag_4:\n      tag_20\n      tag_21\n      jump\t// in\n    tag_20:\n      mload(0x40)\n      tag_22\n      swap2\n      swap1\n      tag_19\n      jump\t// in\n    tag_22:\n      mload(0x40)\n      dup1\n      swap2\n      sub\n      swap1\n      return\n        /* \"@openzeppelin/contracts-upgradeable/access/OwnableUpgradeable.sol\":3155:3256  function renounceOwnership() public virtual onlyOwner {... */\n    tag_5:\n      tag_23\n      tag_24\n      jump\t// in\n    tag_23:\n      stop\n        /* \"contracts/RewardManager.sol\":931:1037  function setRewardToken(address _token) external onlyOwner {... */\n    tag_6:\n      tag_25\n      0x04\n      dup1\n      calldatasize\n      sub\n      dup2\n      add\n      swap1\n      tag_26\n      swap2\n      swap1\n      tag_27\n      jump\t// in\n    tag_26:\n      tag_28\n      jump\t// in\n    tag_25:\n      stop\n        /* \"@openzeppelin/contracts-upgradeable/access/OwnableUpgradeable.sol\":2441:2585  function owner() public view virtual returns (address) {... */\n    tag_7:\n      tag_29\n      tag_30\n      jump\t// in\n    tag_29:\n      mload(0x40)\n      tag_31\n      swap2\n      swap1\n      tag_32\n      jump\t// in\n    tag_31:\n      mload(0x40)\n      dup1\n      swap2\n      sub\n      swap1\n      return\n        /* \"contracts/RewardManager.sol\":1650:2095  function calculateReward(uint256 amount, address user) external view returns (uint256) {... */\n    tag_8:\n      tag_33\n      0x04\n      dup1\n      calldatasize\n      sub\n      dup2\n      add\n      swap1\n      tag_34\n      swap2\n      swap1\n      tag_35\n      jump\t// in\n    tag_34:\n      tag_36\n      jump\t// in\n    tag_33:\n      mload(0x40)\n      tag_37\n      swap2\n      swap1\n      tag_19\n      jump\t// in\n    tag_37:\n      mload(0x40)\n      dup1\n      swap2\n      sub\n      swap1\n      return\n        /* \"contracts/RewardManager.sol\":525:552  address public ucpiContract */\n    tag_9:\n      tag_38\n      tag_39\n      jump\t// in\n    tag_38:\n      mload(0x40)\n      tag_40\n      swap2\n      swap1\n      tag_32\n      jump\t// in\n    tag_40:\n      mload(0x40)\n      dup1\n      swap2\n      sub\n      swap1\n      return\n        /* \"contracts/RewardManager.sol\":1191:1639  function distributeReward(address user, uint256 amount, uint256 reward) external onlyUCPIOrOwner {... */\n    tag_10:\n      tag_41\n      0x04\n      dup1\n      calldatasize\n      sub\n      dup2\n      add\n      swap1\n      tag_42\n      swap2\n      swap1\n      tag_43\n      jump\t// in\n    tag_42:\n      tag_44\n      jump\t// in\n    tag_41:\n      stop\n        /* \"contracts/RewardManager.sol\":631:817  function initialize(uint256 _fee, uint256 _maxPoints) public initializer {... */\n    tag_11:\n      tag_45\n      0x04\n      dup1\n      calldatasize\n      sub\n      dup2\n      add\n      swap1\n      tag_46\n      swap2\n      swap1\n      tag_47\n      jump\t// in\n    tag_46:\n      tag_48\n      jump\t// in\n    tag_45:\n      stop\n        /* \"@openzeppelin/contracts-upgradeable/access/OwnableUpgradeable.sol\":3405:3620  function transferOwnership(address newOwner) public virtual onlyOwner {... */\n    tag_12:\n      tag_49\n      0x04\n      dup1\n      calldatasize\n      sub\n      dup2\n      add\n      swap1\n      tag_50\n      swap2\n      swap1\n      tag_27\n      jump\t// in\n    tag_50:\n      tag_51\n      jump\t// in\n    tag_49:\n      stop\n        /* \"contracts/RewardManager.sol\":493:518  IERC20 public rewardToken */\n    tag_13:\n      tag_52\n      tag_53\n      jump\t// in\n    tag_52:\n      mload(0x40)\n      tag_54\n      swap2\n      swap1\n      tag_55\n      jump\t// in\n    tag_54:\n      mload(0x40)\n      dup1\n      swap2\n      sub\n      swap1\n      return\n        /* \"contracts/RewardManager.sol\":825:923  function setUCPIContract(address _ucpi) external onlyOwner {... */\n    tag_14:\n      tag_56\n      0x04\n      dup1\n      calldatasize\n      sub\n      dup2\n      add\n      swap1\n      tag_57\n      swap2\n      swap1\n      tag_27\n      jump\t// in\n    tag_57:\n      tag_58\n      jump\t// in\n    tag_56:\n      stop\n        /* \"contracts/RewardManager.sol\":423:449  uint256 public platformFee */\n    tag_17:\n      sload(0x00)\n      dup2\n      jump\t// out\n        /* \"contracts/RewardManager.sol\":456:486  uint256 public maxRewardPoints */\n    tag_21:\n      sload(0x01)\n      dup2\n      jump\t// out\n        /* \"@openzeppelin/contracts-upgradeable/access/OwnableUpgradeable.sol\":3155:3256  function renounceOwnership() public virtual onlyOwner {... */\n    tag_24:\n        /* \"@openzeppelin/contracts-upgradeable/access/OwnableUpgradeable.sol\":2334:2347  _checkOwner() */\n      tag_60\n        /* \"@openzeppelin/contracts-upgradeable/access/OwnableUpgradeable.sol\":2334:2345  _checkOwner */\n      tag_61\n        /* \"@openzeppelin/contracts-upgradeable/access/OwnableUpgradeable.sol\":2334:2347  _checkOwner() */\n      jump\t// in\n    tag_60:\n        /* \"@openzeppelin/contracts-upgradeable/access/OwnableUpgradeable.sol\":3219:3249  _transferOwnership(address(0)) */\n      tag_63\n        /* \"@openzeppelin/contracts-upgradeable/access/OwnableUpgradeable.sol\":3246:3247  0 */\n      0x00\n        /* \"@openzeppelin/contracts-upgradeable/access/OwnableUpgradeable.sol\":3219:3237  _transferOwnership */\n      tag_64\n        /* \"@openzeppelin/contracts-upgradeable/access/OwnableUpgradeable.sol\":3219:3249  _transferOwnership(address(0)) */\n      jump\t// in\n    tag_63:\n        /* \"@openzeppelin/contracts-upgradeable/access/OwnableUpgradeable.sol\":3155:3256  function renounceOwnership() public virtual onlyOwner {... */\n      jump\t// out\n        /* \"contracts/RewardManager.sol\":931:1037  function setRewardToken(address _token) external onlyOwner {... */\n    tag_28:\n        /* \"@openzeppelin/contracts-upgradeable/access/OwnableUpgradeable.sol\":2334:2347  _checkOwner() */\n      tag_66\n        /* \"@openzeppelin/contracts-upgradeable/access/OwnableUpgradeable.sol\":2334:2345  _checkOwner */\n      tag_61\n        /* \"@openzeppelin/contracts-upgradeable/access/OwnableUpgradeable.sol\":2334:2347  _checkOwner() */\n      jump\t// in\n    tag_66:\n        /* \"contracts/RewardManager.sol\":1022:1028  _token */\n      dup1\n        /* \"contracts/RewardManager.sol\":1001:1012  rewardToken */\n      0x02\n      0x00\n        /* \"contracts/RewardManager.sol\":1001:1029  rewardToken = IERC20(_token) */\n      0x0100\n      exp\n      dup2\n      sload\n      dup2\n      0xffffffffffffffffffffffffffffffffffffffff\n      mul\n      not\n      and\n      swap1\n      dup4\n      0xffffffffffffffffffffffffffffffffffffffff\n      and\n      mul\n      or\n      swap1\n      sstore\n      pop\n        /* \"contracts/RewardManager.sol\":931:1037  function setRewardToken(address _token) external onlyOwner {... */\n      pop\n      jump\t// out\n        /* \"@openzeppelin/contracts-upgradeable/access/OwnableUpgradeable.sol\":2441:2585  function owner() public view virtual returns (address) {... */\n    tag_30:\n        /* \"@openzeppelin/contracts-upgradeable/access/OwnableUpgradeable.sol\":2487:2494  address */\n      0x00\n        /* \"@openzeppelin/contracts-upgradeable/access/OwnableUpgradeable.sol\":2506:2530  OwnableStorage storage $ */\n      0x00\n        /* \"@openzeppelin/contracts-upgradeable/access/OwnableUpgradeable.sol\":2533:2553  _getOwnableStorage() */\n      tag_69\n        /* \"@openzeppelin/contracts-upgradeable/access/OwnableUpgradeable.sol\":2533:2551  _getOwnableStorage */\n      tag_70\n        /* \"@openzeppelin/contracts-upgradeable/access/OwnableUpgradeable.sol\":2533:2553  _getOwnableStorage() */\n      jump\t// in\n    tag_69:\n        /* \"@openzeppelin/contracts-upgradeable/access/OwnableUpgradeable.sol\":2506:2553  OwnableStorage storage $ = _getOwnableStorage() */\n      swap1\n      pop\n        /* \"@openzeppelin/contracts-upgradeable/access/OwnableUpgradeable.sol\":2570:2571  $ */\n      dup1\n        /* \"@openzeppelin/contracts-upgradeable/access/OwnableUpgradeable.sol\":2570:2578  $._owner */\n      0x00\n      add\n      0x00\n      swap1\n      sload\n      swap1\n      0x0100\n      exp\n      swap1\n      div\n      0xffffffffffffffffffffffffffffffffffffffff\n      and\n        /* \"@openzeppelin/contracts-upgradeable/access/OwnableUpgradeable.sol\":2563:2578  return $._owner */\n      swap2\n      pop\n      pop\n        /* \"@openzeppelin/contracts-upgradeable/access/OwnableUpgradeable.sol\":2441:2585  function owner() public view virtual returns (address) {... */\n      swap1\n      jump\t// out\n        /* \"contracts/RewardManager.sol\":1650:2095  function calculateReward(uint256 amount, address user) external view returns (uint256) {... */\n    tag_36:\n        /* \"contracts/RewardManager.sol\":1728:1735  uint256 */\n      0x00\n        /* \"contracts/RewardManager.sol\":1748:1766  uint256 baseReward */\n      0x00\n        /* \"contracts/RewardManager.sol\":1792:1797  10000 */\n      0x2710\n        /* \"contracts/RewardManager.sol\":1778:1789  platformFee */\n      sload(0x00)\n        /* \"contracts/RewardManager.sol\":1769:1775  amount */\n      dup6\n        /* \"contracts/RewardManager.sol\":1769:1789  amount * platformFee */\n      tag_72\n      swap2\n      swap1\n      tag_73\n      jump\t// in\n    tag_72:\n        /* \"contracts/RewardManager.sol\":1769:1797  amount * platformFee / 10000 */\n      tag_74\n      swap2\n      swap1\n      tag_75\n      jump\t// in\n    tag_74:\n        /* \"contracts/RewardManager.sol\":1748:1797  uint256 baseReward = amount * platformFee / 10000 */\n      swap1\n      pop\n        /* \"contracts/RewardManager.sol\":1864:1877  uint256 bonus */\n      0x00\n        /* \"contracts/RewardManager.sol\":1970:1971  1 */\n      0x01\n        /* \"contracts/RewardManager.sol\":1964:1967  100 */\n      0x64\n        /* \"contracts/RewardManager.sol\":1951:1961  baseReward */\n      dup4\n        /* \"contracts/RewardManager.sol\":1951:1967  baseReward / 100 */\n      tag_76\n      swap2\n      swap1\n      tag_75\n      jump\t// in\n    tag_76:\n        /* \"contracts/RewardManager.sol\":1951:1971  baseReward / 100 + 1 */\n      tag_77\n      swap2\n      swap1\n      tag_78\n      jump\t// in\n    tag_77:\n        /* \"contracts/RewardManager.sol\":1915:1919  user */\n      dup5\n        /* \"contracts/RewardManager.sol\":1921:1936  block.timestamp */\n      timestamp\n        /* \"contracts/RewardManager.sol\":1938:1944  amount */\n      dup8\n        /* \"contracts/RewardManager.sol\":1898:1945  abi.encodePacked(user, block.timestamp, amount) */\n      add(0x20, mload(0x40))\n      tag_79\n      swap4\n      swap3\n      swap2\n      swap1\n      tag_80\n      jump\t// in\n    tag_79:\n      mload(0x40)\n      0x20\n      dup2\n      dup4\n      sub\n      sub\n      dup2\n      mstore\n      swap1\n      0x40\n      mstore\n        /* \"contracts/RewardManager.sol\":1888:1946  keccak256(abi.encodePacked(user, block.timestamp, amount)) */\n      dup1\n      mload\n      swap1\n      0x20\n      add\n      keccak256\n        /* \"contracts/RewardManager.sol\":1880:1947  uint256(keccak256(abi.encodePacked(user, block.timestamp, amount))) */\n      0x00\n      shr\n        /* \"contracts/RewardManager.sol\":1880:1972  uint256(keccak256(abi.encodePacked(user, block.timestamp, amount))) % (baseReward / 100 + 1) */\n      tag_81\n      swap2\n      swap1\n      tag_82\n      jump\t// in\n    tag_81:\n        /* \"contracts/RewardManager.sol\":1864:1972  uint256 bonus = uint256(keccak256(abi.encodePacked(user, block.timestamp, amount))) % (baseReward / 100 + 1) */\n      swap1\n      pop\n        /* \"contracts/RewardManager.sol\":1983:1997  uint256 reward */\n      0x00\n        /* \"contracts/RewardManager.sol\":2013:2018  bonus */\n      dup2\n        /* \"contracts/RewardManager.sol\":2000:2010  baseReward */\n      dup4\n        /* \"contracts/RewardManager.sol\":2000:2018  baseReward + bonus */\n      tag_83\n      swap2\n      swap1\n      tag_78\n      jump\t// in\n    tag_83:\n        /* \"contracts/RewardManager.sol\":1983:2018  uint256 reward = baseReward + bonus */\n      swap1\n      pop\n        /* \"contracts/RewardManager.sol\":2045:2060  maxRewardPoints */\n      sload(0x01)\n        /* \"contracts/RewardManager.sol\":2036:2042  reward */\n      dup2\n        /* \"contracts/RewardManager.sol\":2036:2060  reward > maxRewardPoints */\n      gt\n        /* \"contracts/RewardManager.sol\":2036:2087  reward > maxRewardPoints ? maxRewardPoints : reward */\n      tag_84\n      jumpi\n        /* \"contracts/RewardManager.sol\":2081:2087  reward */\n      dup1\n        /* \"contracts/RewardManager.sol\":2036:2087  reward > maxRewardPoints ? maxRewardPoints : reward */\n      jump(tag_85)\n    tag_84:\n        /* \"contracts/RewardManager.sol\":2063:2078  maxRewardPoints */\n      sload(0x01)\n        /* \"contracts/RewardManager.sol\":2036:2087  reward > maxRewardPoints ? maxRewardPoints : reward */\n    tag_85:\n        /* \"contracts/RewardManager.sol\":2029:2087  return reward > maxRewardPoints ? maxRewardPoints : reward */\n      swap4\n      pop\n      pop\n      pop\n      pop\n        /* \"contracts/RewardManager.sol\":1650:2095  function calculateReward(uint256 amount, address user) external view returns (uint256) {... */\n      swap3\n      swap2\n      pop\n      pop\n      jump\t// out\n        /* \"contracts/RewardManager.sol\":525:552  address public ucpiContract */\n    tag_39:\n      0x03\n      0x00\n      swap1\n      sload\n      swap1\n      0x0100\n      exp\n      swap1\n      div\n      0xffffffffffffffffffffffffffffffffffffffff\n      and\n      dup2\n      jump\t// out\n        /* \"contracts/RewardManager.sol\":1191:1639  function distributeReward(address user, uint256 amount, uint256 reward) external onlyUCPIOrOwner {... */\n    tag_44:\n        /* \"contracts/RewardManager.sol\":1105:1112  owner() */\n      tag_87\n        /* \"contracts/RewardManager.sol\":1105:1110  owner */\n      tag_30\n        /* \"contracts/RewardManager.sol\":1105:1112  owner() */\n      jump\t// in\n    tag_87:\n        /* \"contracts/RewardManager.sol\":1091:1112  msg.sender == owner() */\n      0xffffffffffffffffffffffffffffffffffffffff\n      and\n        /* \"contracts/RewardManager.sol\":1091:1101  msg.sender */\n      caller\n        /* \"contracts/RewardManager.sol\":1091:1112  msg.sender == owner() */\n      0xffffffffffffffffffffffffffffffffffffffff\n      and\n      eq\n        /* \"contracts/RewardManager.sol\":1091:1142  msg.sender == owner() || msg.sender == ucpiContract */\n      dup1\n      tag_88\n      jumpi\n      pop\n        /* \"contracts/RewardManager.sol\":1130:1142  ucpiContract */\n      0x03\n      0x00\n      swap1\n      sload\n      swap1\n      0x0100\n      exp\n      swap1\n      div\n      0xffffffffffffffffffffffffffffffffffffffff\n      and\n        /* \"contracts/RewardManager.sol\":1116:1142  msg.sender == ucpiContract */\n      0xffffffffffffffffffffffffffffffffffffffff\n      and\n        /* \"contracts/RewardManager.sol\":1116:1126  msg.sender */\n      caller\n        /* \"contracts/RewardManager.sol\":1116:1142  msg.sender == ucpiContract */\n      0xffffffffffffffffffffffffffffffffffffffff\n      and\n      eq\n        /* \"contracts/RewardManager.sol\":1091:1142  msg.sender == owner() || msg.sender == ucpiContract */\n    tag_88:\n        /* \"contracts/RewardManager.sol\":1083:1161  require(msg.sender == owner() || msg.sender == ucpiContract, \"Not authorized\") */\n      tag_89\n      jumpi\n      mload(0x40)\n      0x08c379a000000000000000000000000000000000000000000000000000000000\n      dup2\n      mstore\n      0x04\n      add\n      tag_90\n      swap1\n      tag_91\n      jump\t// in\n    tag_90:\n      mload(0x40)\n      dup1\n      swap2\n      sub\n      swap1\n      revert\n    tag_89:\n        /* \"contracts/RewardManager.sol\":1323:1324  0 */\n      0x00\n        /* \"contracts/RewardManager.sol\":1307:1325  user != address(0) */\n      0xffffffffffffffffffffffffffffffffffffffff\n      and\n        /* \"contracts/RewardManager.sol\":1307:1311  user */\n      dup4\n        /* \"contracts/RewardManager.sol\":1307:1325  user != address(0) */\n      0xffffffffffffffffffffffffffffffffffffffff\n      and\n      sub\n        /* \"contracts/RewardManager.sol\":1299:1356  require(user != address(0), \"Cannot reward zero address\") */\n      tag_93\n      jumpi\n      mload(0x40)\n      0x08c379a000000000000000000000000000000000000000000000000000000000\n      dup2\n      mstore\n      0x04\n      add\n      tag_94\n      swap1\n      tag_95\n      jump\t// in\n    tag_94:\n      mload(0x40)\n      dup1\n      swap2\n      sub\n      swap1\n      revert\n    tag_93:\n        /* \"contracts/RewardManager.sol\":1384:1385  0 */\n      0x00\n        /* \"contracts/RewardManager.sol\":1375:1381  amount */\n      dup3\n        /* \"contracts/RewardManager.sol\":1375:1385  amount > 0 */\n      gt\n        /* \"contracts/RewardManager.sol\":1367:1408  require(amount > 0, \"Amount must be > 0\") */\n      tag_96\n      jumpi\n      mload(0x40)\n      0x08c379a000000000000000000000000000000000000000000000000000000000\n      dup2\n      mstore\n      0x04\n      add\n      tag_97\n      swap1\n      tag_98\n      jump\t// in\n    tag_97:\n      mload(0x40)\n      dup1\n      swap2\n      sub\n      swap1\n      revert\n    tag_96:\n        /* \"contracts/RewardManager.sol\":1467:1473  reward */\n      dup1\n        /* \"contracts/RewardManager.sol\":1427:1438  rewardToken */\n      0x02\n      0x00\n      swap1\n      sload\n      swap1\n      0x0100\n      exp\n      swap1\n      div\n      0xffffffffffffffffffffffffffffffffffffffff\n      and\n        /* \"contracts/RewardManager.sol\":1427:1448  rewardToken.balanceOf */\n      0xffffffffffffffffffffffffffffffffffffffff\n      and\n      0x70a08231\n        /* \"contracts/RewardManager.sol\":1457:1461  this */\n      address\n        /* \"contracts/RewardManager.sol\":1427:1463  rewardToken.balanceOf(address(this)) */\n      mload(0x40)\n      dup3\n      0xffffffff\n      and\n      0xe0\n      shl\n      dup2\n      mstore\n      0x04\n      add\n      tag_99\n      swap2\n      swap1\n      tag_32\n      jump\t// in\n    tag_99:\n      0x20\n      mload(0x40)\n      dup1\n      dup4\n      sub\n      dup2\n      dup7\n      gas\n      staticcall\n      iszero\n      dup1\n      iszero\n      tag_101\n      jumpi\n      returndatacopy(0x00, 0x00, returndatasize)\n      revert(0x00, returndatasize)\n    tag_101:\n      pop\n      pop\n      pop\n      pop\n      mload(0x40)\n      returndatasize\n      not(0x1f)\n      0x1f\n      dup3\n      add\n      and\n      dup3\n      add\n      dup1\n      0x40\n      mstore\n      pop\n      dup2\n      add\n      swap1\n      tag_102\n      swap2\n      swap1\n      tag_103\n      jump\t// in\n    tag_102:\n        /* \"contracts/RewardManager.sol\":1427:1473  rewardToken.balanceOf(address(this)) >= reward */\n      lt\n      iszero\n        /* \"contracts/RewardManager.sol\":1419:1505  require(rewardToken.balanceOf(address(this)) >= reward, \"Insufficient reward balance\") */\n      tag_104\n      jumpi\n      mload(0x40)\n      0x08c379a000000000000000000000000000000000000000000000000000000000\n      dup2\n      mstore\n      0x04\n      add\n      tag_105\n      swap1\n      tag_106\n      jump\t// in\n    tag_105:\n      mload(0x40)\n      dup1\n      swap2\n      sub\n      swap1\n      revert\n    tag_104:\n        /* \"contracts/RewardManager.sol\":1524:1535  rewardToken */\n      0x02\n      0x00\n      swap1\n      sload\n      swap1\n      0x0100\n      exp\n      swap1\n      div\n      0xffffffffffffffffffffffffffffffffffffffff\n      and\n        /* \"contracts/RewardManager.sol\":1524:1544  rewardToken.transfer */\n      0xffffffffffffffffffffffffffffffffffffffff\n      and\n      0xa9059cbb\n        /* \"contracts/RewardManager.sol\":1545:1549  user */\n      dup5\n        /* \"contracts/RewardManager.sol\":1551:1557  reward */\n      dup4\n        /* \"contracts/RewardManager.sol\":1524:1558  rewardToken.transfer(user, reward) */\n      mload(0x40)\n      dup4\n      0xffffffff\n      and\n      0xe0\n      shl\n      dup2\n      mstore\n      0x04\n      add\n      tag_107\n      swap3\n      swap2\n      swap1\n      tag_108\n      jump\t// in\n    tag_107:\n      0x20\n      mload(0x40)\n      dup1\n      dup4\n      sub\n      dup2\n      0x00\n      dup8\n      gas\n      call\n      iszero\n      dup1\n      iszero\n      tag_110\n      jumpi\n      returndatacopy(0x00, 0x00, returndatasize)\n      revert(0x00, returndatasize)\n    tag_110:\n      pop\n      pop\n      pop\n      pop\n      mload(0x40)\n      returndatasize\n      not(0x1f)\n      0x1f\n      dup3\n      add\n      and\n      dup3\n      add\n      dup1\n      0x40\n      mstore\n      pop\n      dup2\n      add\n      swap1\n      tag_111\n      swap2\n      swap1\n      tag_112\n      jump\t// in\n    tag_111:\n        /* \"contracts/RewardManager.sol\":1516:1584  require(rewardToken.transfer(user, reward), \"Token transfer failed\") */\n      tag_113\n      jumpi\n      mload(0x40)\n      0x08c379a000000000000000000000000000000000000000000000000000000000\n      dup2\n      mstore\n      0x04\n      add\n      tag_114\n      swap1\n      tag_115\n      jump\t// in\n    tag_114:\n      mload(0x40)\n      dup1\n      swap2\n      sub\n      swap1\n      revert\n    tag_113:\n        /* \"contracts/RewardManager.sol\":1618:1622  user */\n      dup3\n        /* \"contracts/RewardManager.sol\":1600:1631  RewardDistributed(user, reward) */\n      0xffffffffffffffffffffffffffffffffffffffff\n      and\n      0xe34918ff1c7084970068b53fd71ad6d8b04e9f15d3886cbf006443e6cdc52ea6\n        /* \"contracts/RewardManager.sol\":1624:1630  reward */\n      dup3\n        /* \"contracts/RewardManager.sol\":1600:1631  RewardDistributed(user, reward) */\n      mload(0x40)\n      tag_116\n      swap2\n      swap1\n      tag_19\n      jump\t// in\n    tag_116:\n      mload(0x40)\n      dup1\n      swap2\n      sub\n      swap1\n      log2\n        /* \"contracts/RewardManager.sol\":1191:1639  function distributeReward(address user, uint256 amount, uint256 reward) external onlyUCPIOrOwner {... */\n      pop\n      pop\n      pop\n      jump\t// out\n        /* \"contracts/RewardManager.sol\":631:817  function initialize(uint256 _fee, uint256 _maxPoints) public initializer {... */\n    tag_48:\n        /* \"@openzeppelin/contracts-upgradeable/proxy/utils/Initializable.sol\":4158:4188  InitializableStorage storage $ */\n      0x00\n        /* \"@openzeppelin/contracts-upgradeable/proxy/utils/Initializable.sol\":4191:4217  _getInitializableStorage() */\n      tag_118\n        /* \"@openzeppelin/contracts-upgradeable/proxy/utils/Initializable.sol\":4191:4215  _getInitializableStorage */\n      tag_119\n        /* \"@openzeppelin/contracts-upgradeable/proxy/utils/Initializable.sol\":4191:4217  _getInitializableStorage() */\n      jump\t// in\n    tag_118:\n        /* \"@openzeppelin/contracts-upgradeable/proxy/utils/Initializable.sol\":4158:4217  InitializableStorage storage $ = _getInitializableStorage() */\n      swap1\n      pop\n        /* \"@openzeppelin/contracts-upgradeable/proxy/utils/Initializable.sol\":4279:4298  bool isTopLevelCall */\n      0x00\n        /* \"@openzeppelin/contracts-upgradeable/proxy/utils/Initializable.sol\":4302:4303  $ */\n      dup2\n        /* \"@openzeppelin/contracts-upgradeable/proxy/utils/Initializable.sol\":4302:4317  $._initializing */\n      0x00\n      add\n      0x08\n      swap1\n      sload\n      swap1\n      0x0100\n      exp\n      swap1\n      div\n      0xff\n      and\n        /* \"@openzeppelin/contracts-upgradeable/proxy/utils/Initializable.sol\":4301:4317  !$._initializing */\n      iszero\n        /* \"@openzeppelin/contracts-upgradeable/proxy/utils/Initializable.sol\":4279:4317  bool isTopLevelCall = !$._initializing */\n      swap1\n      pop\n        /* \"@openzeppelin/contracts-upgradeable/proxy/utils/Initializable.sol\":4327:4345  uint64 initialized */\n      0x00\n        /* \"@openzeppelin/contracts-upgradeable/proxy/utils/Initializable.sol\":4348:4349  $ */\n      dup3\n        /* \"@openzeppelin/contracts-upgradeable/proxy/utils/Initializable.sol\":4348:4362  $._initialized */\n      0x00\n      add\n      0x00\n      swap1\n      sload\n      swap1\n      0x0100\n      exp\n      swap1\n      div\n      0xffffffffffffffff\n      and\n        /* \"@openzeppelin/contracts-upgradeable/proxy/utils/Initializable.sol\":4327:4362  uint64 initialized = $._initialized */\n      swap1\n      pop\n        /* \"@openzeppelin/contracts-upgradeable/proxy/utils/Initializable.sol\":4704:4721  bool initialSetup */\n      0x00\n        /* \"@openzeppelin/contracts-upgradeable/proxy/utils/Initializable.sol\":4739:4740  0 */\n      0x00\n        /* \"@openzeppelin/contracts-upgradeable/proxy/utils/Initializable.sol\":4724:4735  initialized */\n      dup3\n        /* \"@openzeppelin/contracts-upgradeable/proxy/utils/Initializable.sol\":4724:4740  initialized == 0 */\n      0xffffffffffffffff\n      and\n      eq\n        /* \"@openzeppelin/contracts-upgradeable/proxy/utils/Initializable.sol\":4724:4758  initialized == 0 && isTopLevelCall */\n      dup1\n      iszero\n      tag_120\n      jumpi\n      pop\n        /* \"@openzeppelin/contracts-upgradeable/proxy/utils/Initializable.sol\":4744:4758  isTopLevelCall */\n      dup3\n        /* \"@openzeppelin/contracts-upgradeable/proxy/utils/Initializable.sol\":4724:4758  initialized == 0 && isTopLevelCall */\n    tag_120:\n        /* \"@openzeppelin/contracts-upgradeable/proxy/utils/Initializable.sol\":4704:4758  bool initialSetup = initialized == 0 && isTopLevelCall */\n      swap1\n      pop\n        /* \"@openzeppelin/contracts-upgradeable/proxy/utils/Initializable.sol\":4768:4785  bool construction */\n      0x00\n        /* \"@openzeppelin/contracts-upgradeable/proxy/utils/Initializable.sol\":4803:4804  1 */\n      0x01\n        /* \"@openzeppelin/contracts-upgradeable/proxy/utils/Initializable.sol\":4788:4799  initialized */\n      dup4\n        /* \"@openzeppelin/contracts-upgradeable/proxy/utils/Initializable.sol\":4788:4804  initialized == 1 */\n      0xffffffffffffffff\n      and\n      eq\n        /* \"@openzeppelin/contracts-upgradeable/proxy/utils/Initializable.sol\":4788:4838  initialized == 1 && address(this).code.length == 0 */\n      dup1\n      iszero\n      tag_121\n      jumpi\n      pop\n        /* \"@openzeppelin/contracts-upgradeable/proxy/utils/Initializable.sol\":4837:4838  0 */\n      0x00\n        /* \"@openzeppelin/contracts-upgradeable/proxy/utils/Initializable.sol\":4816:4820  this */\n      address\n        /* \"@openzeppelin/contracts-upgradeable/proxy/utils/Initializable.sol\":4808:4833  address(this).code.length */\n      0xffffffffffffffffffffffffffffffffffffffff\n      and\n      extcodesize\n        /* \"@openzeppelin/contracts-upgradeable/proxy/utils/Initializable.sol\":4808:4838  address(this).code.length == 0 */\n      eq\n        /* \"@openzeppelin/contracts-upgradeable/proxy/utils/Initializable.sol\":4788:4838  initialized == 1 && address(this).code.length == 0 */\n    tag_121:\n        /* \"@openzeppelin/contracts-upgradeable/proxy/utils/Initializable.sol\":4768:4838  bool construction = initialized == 1 && address(this).code.length == 0 */\n      swap1\n      pop\n        /* \"@openzeppelin/contracts-upgradeable/proxy/utils/Initializable.sol\":4854:4866  initialSetup */\n      dup2\n        /* \"@openzeppelin/contracts-upgradeable/proxy/utils/Initializable.sol\":4853:4866  !initialSetup */\n      iszero\n        /* \"@openzeppelin/contracts-upgradeable/proxy/utils/Initializable.sol\":4853:4883  !initialSetup && !construction */\n      dup1\n      iszero\n      tag_122\n      jumpi\n      pop\n        /* \"@openzeppelin/contracts-upgradeable/proxy/utils/Initializable.sol\":4871:4883  construction */\n      dup1\n        /* \"@openzeppelin/contracts-upgradeable/proxy/utils/Initializable.sol\":4870:4883  !construction */\n      iszero\n        /* \"@openzeppelin/contracts-upgradeable/proxy/utils/Initializable.sol\":4853:4883  !initialSetup && !construction */\n    tag_122:\n        /* \"@openzeppelin/contracts-upgradeable/proxy/utils/Initializable.sol\":4849:4940  if (!initialSetup && !construction) {... */\n      iszero\n      tag_123\n      jumpi\n        /* \"@openzeppelin/contracts-upgradeable/proxy/utils/Initializable.sol\":4906:4929  InvalidInitialization() */\n      mload(0x40)\n      0xf92ee8a900000000000000000000000000000000000000000000000000000000\n      dup2\n      mstore\n      0x04\n      add\n      mload(0x40)\n      dup1\n      swap2\n      sub\n      swap1\n      revert\n        /* \"@openzeppelin/contracts-upgradeable/proxy/utils/Initializable.sol\":4849:4940  if (!initialSetup && !construction) {... */\n    tag_123:\n        /* \"@openzeppelin/contracts-upgradeable/proxy/utils/Initializable.sol\":4966:4967  1 */\n      0x01\n        /* \"@openzeppelin/contracts-upgradeable/proxy/utils/Initializable.sol\":4949:4950  $ */\n      dup6\n        /* \"@openzeppelin/contracts-upgradeable/proxy/utils/Initializable.sol\":4949:4963  $._initialized */\n      0x00\n      add\n      0x00\n        /* \"@openzeppelin/contracts-upgradeable/proxy/utils/Initializable.sol\":4949:4967  $._initialized = 1 */\n      0x0100\n      exp\n      dup2\n      sload\n      dup2\n      0xffffffffffffffff\n      mul\n      not\n      and\n      swap1\n      dup4\n      0xffffffffffffffff\n      and\n      mul\n      or\n      swap1\n      sstore\n      pop\n        /* \"@openzeppelin/contracts-upgradeable/proxy/utils/Initializable.sol\":4981:4995  isTopLevelCall */\n      dup4\n        /* \"@openzeppelin/contracts-upgradeable/proxy/utils/Initializable.sol\":4977:5044  if (isTopLevelCall) {... */\n      iszero\n      tag_124\n      jumpi\n        /* \"@openzeppelin/contracts-upgradeable/proxy/utils/Initializable.sol\":5029:5033  true */\n      0x01\n        /* \"@openzeppelin/contracts-upgradeable/proxy/utils/Initializable.sol\":5011:5012  $ */\n      dup6\n        /* \"@openzeppelin/contracts-upgradeable/proxy/utils/Initializable.sol\":5011:5026  $._initializing */\n      0x00\n      add\n      0x08\n        /* \"@openzeppelin/contracts-upgradeable/proxy/utils/Initializable.sol\":5011:5033  $._initializing = true */\n      0x0100\n      exp\n      dup2\n      sload\n      dup2\n      0xff\n      mul\n      not\n      and\n      swap1\n      dup4\n      iszero\n      iszero\n      mul\n      or\n      swap1\n      sstore\n      pop\n        /* \"@openzeppelin/contracts-upgradeable/proxy/utils/Initializable.sol\":4977:5044  if (isTopLevelCall) {... */\n    tag_124:\n        /* \"contracts/RewardManager.sol\":715:741  __Ownable_init(msg.sender) */\n      tag_126\n        /* \"contracts/RewardManager.sol\":730:740  msg.sender */\n      caller\n        /* \"contracts/RewardManager.sol\":715:729  __Ownable_init */\n      tag_127\n        /* \"contracts/RewardManager.sol\":715:741  __Ownable_init(msg.sender) */\n      jump\t// in\n    tag_126:\n        /* \"contracts/RewardManager.sol\":766:770  _fee */\n      dup7\n        /* \"contracts/RewardManager.sol\":752:763  platformFee */\n      0x00\n        /* \"contracts/RewardManager.sol\":752:770  platformFee = _fee */\n      dup2\n      swap1\n      sstore\n      pop\n        /* \"contracts/RewardManager.sol\":799:809  _maxPoints */\n      dup6\n        /* \"contracts/RewardManager.sol\":781:796  maxRewardPoints */\n      0x01\n        /* \"contracts/RewardManager.sol\":781:809  maxRewardPoints = _maxPoints */\n      dup2\n      swap1\n      sstore\n      pop\n        /* \"@openzeppelin/contracts-upgradeable/proxy/utils/Initializable.sol\":5068:5082  isTopLevelCall */\n      dup4\n        /* \"@openzeppelin/contracts-upgradeable/proxy/utils/Initializable.sol\":5064:5165  if (isTopLevelCall) {... */\n      iszero\n      tag_128\n      jumpi\n        /* \"@openzeppelin/contracts-upgradeable/proxy/utils/Initializable.sol\":5116:5121  false */\n      0x00\n        /* \"@openzeppelin/contracts-upgradeable/proxy/utils/Initializable.sol\":5098:5099  $ */\n      dup6\n        /* \"@openzeppelin/contracts-upgradeable/proxy/utils/Initializable.sol\":5098:5113  $._initializing */\n      0x00\n      add\n      0x08\n        /* \"@openzeppelin/contracts-upgradeable/proxy/utils/Initializable.sol\":5098:5121  $._initializing = false */\n      0x0100\n      exp\n      dup2\n      sload\n      dup2\n      0xff\n      mul\n      not\n      and\n      swap1\n      dup4\n      iszero\n      iszero\n      mul\n      or\n      swap1\n      sstore\n      pop\n        /* \"@openzeppelin/contracts-upgradeable/proxy/utils/Initializable.sol\":5140:5154  Initialized(1) */\n      0xc7f505b2f371ae2175ee4913f4499e1f2633a7b5936321eed1cdaeb6115181d2\n        /* \"@openzeppelin/contracts-upgradeable/proxy/utils/Initializable.sol\":5152:5153  1 */\n      0x01\n        /* \"@openzeppelin/contracts-upgradeable/proxy/utils/Initializable.sol\":5140:5154  Initialized(1) */\n      mload(0x40)\n      tag_129\n      swap2\n      swap1\n      tag_130\n      jump\t// in\n    tag_129:\n      mload(0x40)\n      dup1\n      swap2\n      sub\n      swap1\n      log1\n        /* \"@openzeppelin/contracts-upgradeable/proxy/utils/Initializable.sol\":5064:5165  if (isTopLevelCall) {... */\n    tag_128:\n        /* \"@openzeppelin/contracts-upgradeable/proxy/utils/Initializable.sol\":4092:5171  {... */\n      pop\n      pop\n      pop\n      pop\n      pop\n        /* \"contracts/RewardManager.sol\":631:817  function initialize(uint256 _fee, uint256 _maxPoints) public initializer {... */\n      pop\n      pop\n      jump\t// out\n        /* \"@openzeppelin/contracts-upgradeable/access/OwnableUpgradeable.sol\":3405:3620  function transferOwnership(address newOwner) public virtual onlyOwner {... */\n    tag_51:\n        /* \"@openzeppelin/contracts-upgradeable/access/OwnableUpgradeable.sol\":2334:2347  _checkOwner() */\n      tag_132\n        /* \"@openzeppelin/contracts-upgradeable/access/OwnableUpgradeable.sol\":2334:2345  _checkOwner */\n      tag_61\n        /* \"@openzeppelin/contracts-upgradeable/access/OwnableUpgradeable.sol\":2334:2347  _checkOwner() */\n      jump\t// in\n    tag_132:\n        /* \"@openzeppelin/contracts-upgradeable/access/OwnableUpgradeable.sol\":3509:3510  0 */\n      0x00\n        /* \"@openzeppelin/contracts-upgradeable/access/OwnableUpgradeable.sol\":3489:3511  newOwner == address(0) */\n      0xffffffffffffffffffffffffffffffffffffffff\n      and\n        /* \"@openzeppelin/contracts-upgradeable/access/OwnableUpgradeable.sol\":3489:3497  newOwner */\n      dup2\n        /* \"@openzeppelin/contracts-upgradeable/access/OwnableUpgradeable.sol\":3489:3511  newOwner == address(0) */\n      0xffffffffffffffffffffffffffffffffffffffff\n      and\n      sub\n        /* \"@openzeppelin/contracts-upgradeable/access/OwnableUpgradeable.sol\":3485:3576  if (newOwner == address(0)) {... */\n      tag_134\n      jumpi\n        /* \"@openzeppelin/contracts-upgradeable/access/OwnableUpgradeable.sol\":3562:3563  0 */\n      0x00\n        /* \"@openzeppelin/contracts-upgradeable/access/OwnableUpgradeable.sol\":3534:3565  OwnableInvalidOwner(address(0)) */\n      mload(0x40)\n      0x1e4fbdf700000000000000000000000000000000000000000000000000000000\n      dup2\n      mstore\n      0x04\n      add\n      tag_135\n      swap2\n      swap1\n      tag_32\n      jump\t// in\n    tag_135:\n      mload(0x40)\n      dup1\n      swap2\n      sub\n      swap1\n      revert\n        /* \"@openzeppelin/contracts-upgradeable/access/OwnableUpgradeable.sol\":3485:3576  if (newOwner == address(0)) {... */\n    tag_134:\n        /* \"@openzeppelin/contracts-upgradeable/access/OwnableUpgradeable.sol\":3585:3613  _transferOwnership(newOwner) */\n      tag_136\n        /* \"@openzeppelin/contracts-upgradeable/access/OwnableUpgradeable.sol\":3604:3612  newOwner */\n      dup2\n        /* \"@openzeppelin/contracts-upgradeable/access/OwnableUpgradeable.sol\":3585:3603  _transferOwnership */\n      tag_64\n        /* \"@openzeppelin/contracts-upgradeable/access/OwnableUpgradeable.sol\":3585:3613  _transferOwnership(newOwner) */\n      jump\t// in\n    tag_136:\n        /* \"@openzeppelin/contracts-upgradeable/access/OwnableUpgradeable.sol\":3405:3620  function transferOwnership(address newOwner) public virtual onlyOwner {... */\n      pop\n      jump\t// out\n        /* \"contracts/RewardManager.sol\":493:518  IERC20 public rewardToken */\n    tag_53:\n      0x02\n      0x00\n      swap1\n      sload\n      swap1\n      0x0100\n      exp\n      swap1\n      div\n      0xffffffffffffffffffffffffffffffffffffffff\n      and\n      dup2\n      jump\t// out\n        /* \"contracts/RewardManager.sol\":825:923  function setUCPIContract(address _ucpi) external onlyOwner {... */\n    tag_58:\n        /* \"@openzeppelin/contracts-upgradeable/access/OwnableUpgradeable.sol\":2334:2347  _checkOwner() */\n      tag_138\n        /* \"@openzeppelin/contracts-upgradeable/access/OwnableUpgradeable.sol\":2334:2345  _checkOwner */\n      tag_61\n        /* \"@openzeppelin/contracts-upgradeable/access/OwnableUpgradeable.sol\":2334:2347  _checkOwner() */\n      jump\t// in\n    tag_138:\n        /* \"contracts/RewardManager.sol\":910:915  _ucpi */\n      dup1\n        /* \"contracts/RewardManager.sol\":895:907  ucpiContract */\n      0x03\n      0x00\n        /* \"contracts/RewardManager.sol\":895:915  ucpiContract = _ucpi */\n      0x0100\n      exp\n      dup2\n      sload\n      dup2\n      0xffffffffffffffffffffffffffffffffffffffff\n      mul\n      not\n      and\n      swap1\n      dup4\n      0xffffffffffffffffffffffffffffffffffffffff\n      and\n      mul\n      or\n      swap1\n      sstore\n      pop\n        /* \"contracts/RewardManager.sol\":825:923  function setUCPIContract(address _ucpi) external onlyOwner {... */\n      pop\n      jump\t// out\n        /* \"@openzeppelin/contracts-upgradeable/access/OwnableUpgradeable.sol\":2658:2820  function _checkOwner() internal view virtual {... */\n    tag_61:\n        /* \"@openzeppelin/contracts-upgradeable/access/OwnableUpgradeable.sol\":2728:2740  _msgSender() */\n      tag_141\n        /* \"@openzeppelin/contracts-upgradeable/access/OwnableUpgradeable.sol\":2728:2738  _msgSender */\n      tag_142\n        /* \"@openzeppelin/contracts-upgradeable/access/OwnableUpgradeable.sol\":2728:2740  _msgSender() */\n      jump\t// in\n    tag_141:\n        /* \"@openzeppelin/contracts-upgradeable/access/OwnableUpgradeable.sol\":2717:2740  owner() != _msgSender() */\n      0xffffffffffffffffffffffffffffffffffffffff\n      and\n        /* \"@openzeppelin/contracts-upgradeable/access/OwnableUpgradeable.sol\":2717:2724  owner() */\n      tag_143\n        /* \"@openzeppelin/contracts-upgradeable/access/OwnableUpgradeable.sol\":2717:2722  owner */\n      tag_30\n        /* \"@openzeppelin/contracts-upgradeable/access/OwnableUpgradeable.sol\":2717:2724  owner() */\n      jump\t// in\n    tag_143:\n        /* \"@openzeppelin/contracts-upgradeable/access/OwnableUpgradeable.sol\":2717:2740  owner() != _msgSender() */\n      0xffffffffffffffffffffffffffffffffffffffff\n      and\n      eq\n        /* \"@openzeppelin/contracts-upgradeable/access/OwnableUpgradeable.sol\":2713:2814  if (owner() != _msgSender()) {... */\n      tag_144\n      jumpi\n        /* \"@openzeppelin/contracts-upgradeable/access/OwnableUpgradeable.sol\":2790:2802  _msgSender() */\n      tag_145\n        /* \"@openzeppelin/contracts-upgradeable/access/OwnableUpgradeable.sol\":2790:2800  _msgSender */\n      tag_142\n        /* \"@openzeppelin/contracts-upgradeable/access/OwnableUpgradeable.sol\":2790:2802  _msgSender() */\n      jump\t// in\n    tag_145:\n        /* \"@openzeppelin/contracts-upgradeable/access/OwnableUpgradeable.sol\":2763:2803  OwnableUnauthorizedAccount(_msgSender()) */\n      mload(0x40)\n      0x118cdaa700000000000000000000000000000000000000000000000000000000\n      dup2\n      mstore\n      0x04\n      add\n      tag_146\n      swap2\n      swap1\n      tag_32\n      jump\t// in\n    tag_146:\n      mload(0x40)\n      dup1\n      swap2\n      sub\n      swap1\n      revert\n        /* \"@openzeppelin/contracts-upgradeable/access/OwnableUpgradeable.sol\":2713:2814  if (owner() != _msgSender()) {... */\n    tag_144:\n        /* \"@openzeppelin/contracts-upgradeable/access/OwnableUpgradeable.sol\":2658:2820  function _checkOwner() internal view virtual {... */\n      jump\t// out\n        /* \"@openzeppelin/contracts-upgradeable/access/OwnableUpgradeable.sol\":3774:4022  function _transferOwnership(address newOwner) internal virtual {... */\n    tag_64:\n        /* \"@openzeppelin/contracts-upgradeable/access/OwnableUpgradeable.sol\":3847:3871  OwnableStorage storage $ */\n      0x00\n        /* \"@openzeppelin/contracts-upgradeable/access/OwnableUpgradeable.sol\":3874:3894  _getOwnableStorage() */\n      tag_148\n        /* \"@openzeppelin/contracts-upgradeable/access/OwnableUpgradeable.sol\":3874:3892  _getOwnableStorage */\n      tag_70\n        /* \"@openzeppelin/contracts-upgradeable/access/OwnableUpgradeable.sol\":3874:3894  _getOwnableStorage() */\n      jump\t// in\n    tag_148:\n        /* \"@openzeppelin/contracts-upgradeable/access/OwnableUpgradeable.sol\":3847:3894  OwnableStorage storage $ = _getOwnableStorage() */\n      swap1\n      pop\n        /* \"@openzeppelin/contracts-upgradeable/access/OwnableUpgradeable.sol\":3904:3920  address oldOwner */\n      0x00\n        /* \"@openzeppelin/contracts-upgradeable/access/OwnableUpgradeable.sol\":3923:3924  $ */\n      dup2\n        /* \"@openzeppelin/contracts-upgradeable/access/OwnableUpgradeable.sol\":3923:3931  $._owner */\n      0x00\n      add\n      0x00\n      swap1\n      sload\n      swap1\n      0x0100\n      exp\n      swap1\n      div\n      0xffffffffffffffffffffffffffffffffffffffff\n      and\n        /* \"@openzeppelin/contracts-upgradeable/access/OwnableUpgradeable.sol\":3904:3931  address oldOwner = $._owner */\n      swap1\n      pop\n        /* \"@openzeppelin/contracts-upgradeable/access/OwnableUpgradeable.sol\":3952:3960  newOwner */\n      dup3\n        /* \"@openzeppelin/contracts-upgradeable/access/OwnableUpgradeable.sol\":3941:3942  $ */\n      dup3\n        /* \"@openzeppelin/contracts-upgradeable/access/OwnableUpgradeable.sol\":3941:3949  $._owner */\n      0x00\n      add\n      0x00\n        /* \"@openzeppelin/contracts-upgradeable/access/OwnableUpgradeable.sol\":3941:3960  $._owner = newOwner */\n      0x0100\n      exp\n      dup2\n      sload\n      dup2\n      0xffffffffffffffffffffffffffffffffffffffff\n      mul\n      not\n      and\n      swap1\n      dup4\n      0xffffffffffffffffffffffffffffffffffffffff\n      and\n      mul\n      or\n      swap1\n      sstore\n      pop\n        /* \"@openzeppelin/contracts-upgradeable/access/OwnableUpgradeable.sol\":4006:4014  newOwner */\n      dup3\n        /* \"@openzeppelin/contracts-upgradeable/access/OwnableUpgradeable.sol\":3975:4015  OwnershipTransferred(oldOwner, newOwner) */\n      0xffffffffffffffffffffffffffffffffffffffff\n      and\n        /* \"@openzeppelin/contracts-upgradeable/access/OwnableUpgradeable.sol\":3996:4004  oldOwner */\n      dup2\n        /* \"@openzeppelin/contracts-upgradeable/access/OwnableUpgradeable.sol\":3975:4015  OwnershipTransferred(oldOwner, newOwner) */\n      0xffffffffffffffffffffffffffffffffffffffff\n      and\n      0x8be0079c531659141344cd1fd0a4f28419497f9722a3daafe3b4186f6b6457e0\n      mload(0x40)\n      mload(0x40)\n      dup1\n      swap2\n      sub\n      swap1\n      log3\n        /* \"@openzeppelin/contracts-upgradeable/access/OwnableUpgradeable.sol\":3837:4022  {... */\n      pop\n      pop\n        /* \"@openzeppelin/contracts-upgradeable/access/OwnableUpgradeable.sol\":3774:4022  function _transferOwnership(address newOwner) internal virtual {... */\n      pop\n      jump\t// out\n        /* \"@openzeppelin/contracts-upgradeable/access/OwnableUpgradeable.sol\":1192:1351  function _getOwnableStorage() private pure returns (OwnableStorage storage $) {... */\n    tag_70:\n        /* \"@openzeppelin/contracts-upgradeable/access/OwnableUpgradeable.sol\":1244:1268  OwnableStorage storage $ */\n      0x00\n        /* \"@openzeppelin/contracts-upgradeable/access/OwnableUpgradeable.sol\":1313:1335  OwnableStorageLocation */\n      0x9016d09d72d40fdae2fd8ceac6b6234c7706214fd39c1cd1e609a0528c199300\n        /* \"@openzeppelin/contracts-upgradeable/access/OwnableUpgradeable.sol\":1303:1335  $.slot := OwnableStorageLocation */\n      swap1\n      pop\n        /* \"@openzeppelin/contracts-upgradeable/access/OwnableUpgradeable.sol\":1192:1351  function _getOwnableStorage() private pure returns (OwnableStorage storage $) {... */\n      swap1\n      jump\t// out\n        /* \"@openzeppelin/contracts-upgradeable/proxy/utils/Initializable.sol\":9071:9276  function _getInitializableStorage() private pure returns (InitializableStorage storage $) {... */\n    tag_119:\n        /* \"@openzeppelin/contracts-upgradeable/proxy/utils/Initializable.sol\":9129:9159  InitializableStorage storage $ */\n      0x00\n        /* \"@openzeppelin/contracts-upgradeable/proxy/utils/Initializable.sol\":9171:9183  bytes32 slot */\n      0x00\n        /* \"@openzeppelin/contracts-upgradeable/proxy/utils/Initializable.sol\":9186:9213  _initializableStorageSlot() */\n      tag_151\n        /* \"@openzeppelin/contracts-upgradeable/proxy/utils/Initializable.sol\":9186:9211  _initializableStorageSlot */\n      tag_152\n        /* \"@openzeppelin/contracts-upgradeable/proxy/utils/Initializable.sol\":9186:9213  _initializableStorageSlot() */\n      jump\t// in\n    tag_151:\n        /* \"@openzeppelin/contracts-upgradeable/proxy/utils/Initializable.sol\":9171:9213  bytes32 slot = _initializableStorageSlot() */\n      swap1\n      pop\n        /* \"@openzeppelin/contracts-upgradeable/proxy/utils/Initializable.sol\":9256:9260  slot */\n      dup1\n        /* \"@openzeppelin/contracts-upgradeable/proxy/utils/Initializable.sol\":9246:9260  $.slot := slot */\n      swap2\n      pop\n        /* \"@openzeppelin/contracts-upgradeable/proxy/utils/Initializable.sol\":9232:9270  {... */\n      pop\n        /* \"@openzeppelin/contracts-upgradeable/proxy/utils/Initializable.sol\":9071:9276  function _getInitializableStorage() private pure returns (InitializableStorage storage $) {... */\n      swap1\n      jump\t// out\n        /* \"@openzeppelin/contracts-upgradeable/access/OwnableUpgradeable.sol\":1847:1974  function __Ownable_init(address initialOwner) internal onlyInitializing {... */\n    tag_127:\n        /* \"@openzeppelin/contracts-upgradeable/proxy/utils/Initializable.sol\":6929:6949  _checkInitializing() */\n      tag_154\n        /* \"@openzeppelin/contracts-upgradeable/proxy/utils/Initializable.sol\":6929:6947  _checkInitializing */\n      tag_155\n        /* \"@openzeppelin/contracts-upgradeable/proxy/utils/Initializable.sol\":6929:6949  _checkInitializing() */\n      jump\t// in\n    tag_154:\n        /* \"@openzeppelin/contracts-upgradeable/access/OwnableUpgradeable.sol\":1929:1967  __Ownable_init_unchained(initialOwner) */\n      tag_157\n        /* \"@openzeppelin/contracts-upgradeable/access/OwnableUpgradeable.sol\":1954:1966  initialOwner */\n      dup2\n        /* \"@openzeppelin/contracts-upgradeable/access/OwnableUpgradeable.sol\":1929:1953  __Ownable_init_unchained */\n      tag_158\n        /* \"@openzeppelin/contracts-upgradeable/access/OwnableUpgradeable.sol\":1929:1967  __Ownable_init_unchained(initialOwner) */\n      jump\t// in\n    tag_157:\n        /* \"@openzeppelin/contracts-upgradeable/access/OwnableUpgradeable.sol\":1847:1974  function __Ownable_init(address initialOwner) internal onlyInitializing {... */\n      pop\n      jump\t// out\n        /* \"@openzeppelin/contracts-upgradeable/utils/ContextUpgradeable.sol\":887:983  function _msgSender() internal view virtual returns (address) {... */\n    tag_142:\n        /* \"@openzeppelin/contracts-upgradeable/utils/ContextUpgradeable.sol\":940:947  address */\n      0x00\n        /* \"@openzeppelin/contracts-upgradeable/utils/ContextUpgradeable.sol\":966:976  msg.sender */\n      caller\n        /* \"@openzeppelin/contracts-upgradeable/utils/ContextUpgradeable.sol\":959:976  return msg.sender */\n      swap1\n      pop\n        /* \"@openzeppelin/contracts-upgradeable/utils/ContextUpgradeable.sol\":887:983  function _msgSender() internal view virtual returns (address) {... */\n      swap1\n      jump\t// out\n        /* \"@openzeppelin/contracts-upgradeable/proxy/utils/Initializable.sol\":8819:8941  function _initializableStorageSlot() internal pure virtual returns (bytes32) {... */\n    tag_152:\n        /* \"@openzeppelin/contracts-upgradeable/proxy/utils/Initializable.sol\":8887:8894  bytes32 */\n      0x00\n        /* \"@openzeppelin/contracts-upgradeable/proxy/utils/Initializable.sol\":3147:3213  0xf0c57e16840df040f15088dc2f81fe391c3923bec73e23a9662efc9c229c6a00 */\n      0xf0c57e16840df040f15088dc2f81fe391c3923bec73e23a9662efc9c229c6a00\n        /* \"@openzeppelin/contracts-upgradeable/proxy/utils/Initializable.sol\":8913:8934  INITIALIZABLE_STORAGE */\n      0x00\n      shl\n        /* \"@openzeppelin/contracts-upgradeable/proxy/utils/Initializable.sol\":8906:8934  return INITIALIZABLE_STORAGE */\n      swap1\n      pop\n        /* \"@openzeppelin/contracts-upgradeable/proxy/utils/Initializable.sol\":8819:8941  function _initializableStorageSlot() internal pure virtual returns (bytes32) {... */\n      swap1\n      jump\t// out\n        /* \"@openzeppelin/contracts-upgradeable/proxy/utils/Initializable.sol\":7082:7223  function _checkInitializing() internal view virtual {... */\n    tag_155:\n        /* \"@openzeppelin/contracts-upgradeable/proxy/utils/Initializable.sol\":7149:7166  _isInitializing() */\n      tag_162\n        /* \"@openzeppelin/contracts-upgradeable/proxy/utils/Initializable.sol\":7149:7164  _isInitializing */\n      tag_163\n        /* \"@openzeppelin/contracts-upgradeable/proxy/utils/Initializable.sol\":7149:7166  _isInitializing() */\n      jump\t// in\n    tag_162:\n        /* \"@openzeppelin/contracts-upgradeable/proxy/utils/Initializable.sol\":7144:7217  if (!_isInitializing()) {... */\n      tag_164\n      jumpi\n        /* \"@openzeppelin/contracts-upgradeable/proxy/utils/Initializable.sol\":7189:7206  NotInitializing() */\n      mload(0x40)\n      0xd7e6bcf800000000000000000000000000000000000000000000000000000000\n      dup2\n      mstore\n      0x04\n      add\n      mload(0x40)\n      dup1\n      swap2\n      sub\n      swap1\n      revert\n        /* \"@openzeppelin/contracts-upgradeable/proxy/utils/Initializable.sol\":7144:7217  if (!_isInitializing()) {... */\n    tag_164:\n        /* \"@openzeppelin/contracts-upgradeable/proxy/utils/Initializable.sol\":7082:7223  function _checkInitializing() internal view virtual {... */\n      jump\t// out\n        /* \"@openzeppelin/contracts-upgradeable/access/OwnableUpgradeable.sol\":1980:2215  function __Ownable_init_unchained(address initialOwner) internal onlyInitializing {... */\n    tag_158:\n        /* \"@openzeppelin/contracts-upgradeable/proxy/utils/Initializable.sol\":6929:6949  _checkInitializing() */\n      tag_166\n        /* \"@openzeppelin/contracts-upgradeable/proxy/utils/Initializable.sol\":6929:6947  _checkInitializing */\n      tag_155\n        /* \"@openzeppelin/contracts-upgradeable/proxy/utils/Initializable.sol\":6929:6949  _checkInitializing() */\n      jump\t// in\n    tag_166:\n        /* \"@openzeppelin/contracts-upgradeable/access/OwnableUpgradeable.sol\":2100:2101  0 */\n      0x00\n        /* \"@openzeppelin/contracts-upgradeable/access/OwnableUpgradeable.sol\":2076:2102  initialOwner == address(0) */\n      0xffffffffffffffffffffffffffffffffffffffff\n      and\n        /* \"@openzeppelin/contracts-upgradeable/access/OwnableUpgradeable.sol\":2076:2088  initialOwner */\n      dup2\n        /* \"@openzeppelin/contracts-upgradeable/access/OwnableUpgradeable.sol\":2076:2102  initialOwner == address(0) */\n      0xffffffffffffffffffffffffffffffffffffffff\n      and\n      sub\n        /* \"@openzeppelin/contracts-upgradeable/access/OwnableUpgradeable.sol\":2072:2167  if (initialOwner == address(0)) {... */\n      tag_168\n      jumpi\n        /* \"@openzeppelin/contracts-upgradeable/access/OwnableUpgradeable.sol\":2153:2154  0 */\n      0x00\n        /* \"@openzeppelin/contracts-upgradeable/access/OwnableUpgradeable.sol\":2125:2156  OwnableInvalidOwner(address(0)) */\n      mload(0x40)\n      0x1e4fbdf700000000000000000000000000000000000000000000000000000000\n      dup2\n      mstore\n      0x04\n      add\n      tag_169\n      swap2\n      swap1\n      tag_32\n      jump\t// in\n    tag_169:\n      mload(0x40)\n      dup1\n      swap2\n      sub\n      swap1\n      revert\n        /* \"@openzeppelin/contracts-upgradeable/access/OwnableUpgradeable.sol\":2072:2167  if (initialOwner == address(0)) {... */\n    tag_168:\n        /* \"@openzeppelin/contracts-upgradeable/access/OwnableUpgradeable.sol\":2176:2208  _transferOwnership(initialOwner) */\n      tag_170\n        /* \"@openzeppelin/contracts-upgradeable/access/OwnableUpgradeable.sol\":2195:2207  initialOwner */\n      dup2\n        /* \"@openzeppelin/contracts-upgradeable/access/OwnableUpgradeable.sol\":2176:2194  _transferOwnership */\n      tag_64\n        /* \"@openzeppelin/contracts-upgradeable/access/OwnableUpgradeable.sol\":2176:2208  _transferOwnership(initialOwner) */\n      jump\t// in\n    tag_170:\n        /* \"@openzeppelin/contracts-upgradeable/access/OwnableUpgradeable.sol\":1980:2215  function __Ownable_init_unchained(address initialOwner) internal onlyInitializing {... */\n      pop\n      jump\t// out\n        /* \"@openzeppelin/contracts-upgradeable/proxy/utils/Initializable.sol\":8485:8605  function _isInitializing() internal view returns (bool) {... */\n    tag_163:\n        /* \"@openzeppelin/contracts-upgradeable/proxy/utils/Initializable.sol\":8535:8539  bool */\n      0x00\n        /* \"@openzeppelin/contracts-upgradeable/proxy/utils/Initializable.sol\":8558:8584  _getInitializableStorage() */\n      tag_172\n        /* \"@openzeppelin/contracts-upgradeable/proxy/utils/Initializable.sol\":8558:8582  _getInitializableStorage */\n      tag_119\n        /* \"@openzeppelin/contracts-upgradeable/proxy/utils/Initializable.sol\":8558:8584  _getInitializableStorage() */\n      jump\t// in\n    tag_172:\n        /* \"@openzeppelin/contracts-upgradeable/proxy/utils/Initializable.sol\":8558:8598  _getInitializableStorage()._initializing */\n      0x00\n      add\n      0x08\n      swap1\n      sload\n      swap1\n      0x0100\n      exp\n      swap1\n      div\n      0xff\n      and\n        /* \"@openzeppelin/contracts-upgradeable/proxy/utils/Initializable.sol\":8551:8598  return _getInitializableStorage()._initializing */\n      swap1\n      pop\n        /* \"@openzeppelin/contracts-upgradeable/proxy/utils/Initializable.sol\":8485:8605  function _isInitializing() internal view returns (bool) {... */\n      swap1\n      jump\t// out\n        /* \"#utility.yul\":7:84   */\n    tag_173:\n        /* \"#utility.yul\":44:51   */\n      0x00\n        /* \"#utility.yul\":73:78   */\n      dup2\n        /* \"#utility.yul\":62:78   */\n      swap1\n      pop\n        /* \"#utility.yul\":7:84   */\n      swap2\n      swap1\n      pop\n      jump\t// out\n        /* \"#utility.yul\":90:208   */\n    tag_174:\n        /* \"#utility.yul\":177:201   */\n      tag_220\n        /* \"#utility.yul\":195:200   */\n      dup2\n        /* \"#utility.yul\":177:201   */\n      tag_173\n      jump\t// in\n    tag_220:\n        /* \"#utility.yul\":172:175   */\n      dup3\n        /* \"#utility.yul\":165:202   */\n      mstore\n        /* \"#utility.yul\":90:208   */\n      pop\n      pop\n      jump\t// out\n        /* \"#utility.yul\":214:436   */\n    tag_19:\n        /* \"#utility.yul\":307:311   */\n      0x00\n        /* \"#utility.yul\":345:347   */\n      0x20\n        /* \"#utility.yul\":334:343   */\n      dup3\n        /* \"#utility.yul\":330:348   */\n      add\n        /* \"#utility.yul\":322:348   */\n      swap1\n      pop\n        /* \"#utility.yul\":358:429   */\n      tag_222\n        /* \"#utility.yul\":426:427   */\n      0x00\n        /* \"#utility.yul\":415:424   */\n      dup4\n        /* \"#utility.yul\":411:428   */\n      add\n        /* \"#utility.yul\":402:408   */\n      dup5\n        /* \"#utility.yul\":358:429   */\n      tag_174\n      jump\t// in\n    tag_222:\n        /* \"#utility.yul\":214:436   */\n      swap3\n      swap2\n      pop\n      pop\n      jump\t// out\n        /* \"#utility.yul\":523:640   */\n    tag_176:\n        /* \"#utility.yul\":632:633   */\n      0x00\n        /* \"#utility.yul\":629:630   */\n      0x00\n        /* \"#utility.yul\":622:634   */\n      revert\n        /* \"#utility.yul\":769:895   */\n    tag_178:\n        /* \"#utility.yul\":806:813   */\n      0x00\n        /* \"#utility.yul\":846:888   */\n      0xffffffffffffffffffffffffffffffffffffffff\n        /* \"#utility.yul\":839:844   */\n      dup3\n        /* \"#utility.yul\":835:889   */\n      and\n        /* \"#utility.yul\":824:889   */\n      swap1\n      pop\n        /* \"#utility.yul\":769:895   */\n      swap2\n      swap1\n      pop\n      jump\t// out\n        /* \"#utility.yul\":901:997   */\n    tag_179:\n        /* \"#utility.yul\":938:945   */\n      0x00\n        /* \"#utility.yul\":967:991   */\n      tag_228\n        /* \"#utility.yul\":985:990   */\n      dup3\n        /* \"#utility.yul\":967:991   */\n      tag_178\n      jump\t// in\n    tag_228:\n        /* \"#utility.yul\":956:991   */\n      swap1\n      pop\n        /* \"#utility.yul\":901:997   */\n      swap2\n      swap1\n      pop\n      jump\t// out\n        /* \"#utility.yul\":1003:1125   */\n    tag_180:\n        /* \"#utility.yul\":1076:1100   */\n      tag_230\n        /* \"#utility.yul\":1094:1099   */\n      dup2\n        /* \"#utility.yul\":1076:1100   */\n      tag_179\n      jump\t// in\n    tag_230:\n        /* \"#utility.yul\":1069:1074   */\n      dup2\n        /* \"#utility.yul\":1066:1101   */\n      eq\n        /* \"#utility.yul\":1056:1119   */\n      tag_231\n      jumpi\n        /* \"#utility.yul\":1115:1116   */\n      0x00\n        /* \"#utility.yul\":1112:1113   */\n      0x00\n        /* \"#utility.yul\":1105:1117   */\n      revert\n        /* \"#utility.yul\":1056:1119   */\n    tag_231:\n        /* \"#utility.yul\":1003:1125   */\n      pop\n      jump\t// out\n        /* \"#utility.yul\":1131:1270   */\n    tag_181:\n        /* \"#utility.yul\":1177:1182   */\n      0x00\n        /* \"#utility.yul\":1215:1221   */\n      dup2\n        /* \"#utility.yul\":1202:1222   */\n      calldataload\n        /* \"#utility.yul\":1193:1222   */\n      swap1\n      pop\n        /* \"#utility.yul\":1231:1264   */\n      tag_233\n        /* \"#utility.yul\":1258:1263   */\n      dup2\n        /* \"#utility.yul\":1231:1264   */\n      tag_180\n      jump\t// in\n    tag_233:\n        /* \"#utility.yul\":1131:1270   */\n      swap3\n      swap2\n      pop\n      pop\n      jump\t// out\n        /* \"#utility.yul\":1276:1605   */\n    tag_27:\n        /* \"#utility.yul\":1335:1341   */\n      0x00\n        /* \"#utility.yul\":1384:1386   */\n      0x20\n        /* \"#utility.yul\":1372:1381   */\n      dup3\n        /* \"#utility.yul\":1363:1370   */\n      dup5\n        /* \"#utility.yul\":1359:1382   */\n      sub\n        /* \"#utility.yul\":1355:1387   */\n      slt\n        /* \"#utility.yul\":1352:1471   */\n      iszero\n      tag_235\n      jumpi\n        /* \"#utility.yul\":1390:1469   */\n      tag_236\n      tag_176\n      jump\t// in\n    tag_236:\n        /* \"#utility.yul\":1352:1471   */\n    tag_235:\n        /* \"#utility.yul\":1510:1511   */\n      0x00\n        /* \"#utility.yul\":1535:1588   */\n      tag_237\n        /* \"#utility.yul\":1580:1587   */\n      dup5\n        /* \"#utility.yul\":1571:1577   */\n      dup3\n        /* \"#utility.yul\":1560:1569   */\n      dup6\n        /* \"#utility.yul\":1556:1578   */\n      add\n        /* \"#utility.yul\":1535:1588   */\n      tag_181\n      jump\t// in\n    tag_237:\n        /* \"#utility.yul\":1525:1588   */\n      swap2\n      pop\n        /* \"#utility.yul\":1481:1598   */\n      pop\n        /* \"#utility.yul\":1276:1605   */\n      swap3\n      swap2\n      pop\n      pop\n      jump\t// out\n        /* \"#utility.yul\":1611:1729   */\n    tag_182:\n        /* \"#utility.yul\":1698:1722   */\n      tag_239\n        /* \"#utility.yul\":1716:1721   */\n      dup2\n        /* \"#utility.yul\":1698:1722   */\n      tag_179\n      jump\t// in\n    tag_239:\n        /* \"#utility.yul\":1693:1696   */\n      dup3\n        /* \"#utility.yul\":1686:1723   */\n      mstore\n        /* \"#utility.yul\":1611:1729   */\n      pop\n      pop\n      jump\t// out\n        /* \"#utility.yul\":1735:1957   */\n    tag_32:\n        /* \"#utility.yul\":1828:1832   */\n      0x00\n        /* \"#utility.yul\":1866:1868   */\n      0x20\n        /* \"#utility.yul\":1855:1864   */\n      dup3\n        /* \"#utility.yul\":1851:1869   */\n      add\n        /* \"#utility.yul\":1843:1869   */\n      swap1\n      pop\n        /* \"#utility.yul\":1879:1950   */\n      tag_241\n        /* \"#utility.yul\":1947:1948   */\n      0x00\n        /* \"#utility.yul\":1936:1945   */\n      dup4\n        /* \"#utility.yul\":1932:1949   */\n      add\n        /* \"#utility.yul\":1923:1929   */\n      dup5\n        /* \"#utility.yul\":1879:1950   */\n      tag_182\n      jump\t// in\n    tag_241:\n        /* \"#utility.yul\":1735:1957   */\n      swap3\n      swap2\n      pop\n      pop\n      jump\t// out\n        /* \"#utility.yul\":1963:2085   */\n    tag_183:\n        /* \"#utility.yul\":2036:2060   */\n      tag_243\n        /* \"#utility.yul\":2054:2059   */\n      dup2\n        /* \"#utility.yul\":2036:2060   */\n      tag_173\n      jump\t// in\n    tag_243:\n        /* \"#utility.yul\":2029:2034   */\n      dup2\n        /* \"#utility.yul\":2026:2061   */\n      eq\n        /* \"#utility.yul\":2016:2079   */\n      tag_244\n      jumpi\n        /* \"#utility.yul\":2075:2076   */\n      0x00\n        /* \"#utility.yul\":2072:2073   */\n      0x00\n        /* \"#utility.yul\":2065:2077   */\n      revert\n        /* \"#utility.yul\":2016:2079   */\n    tag_244:\n        /* \"#utility.yul\":1963:2085   */\n      pop\n      jump\t// out\n        /* \"#utility.yul\":2091:2230   */\n    tag_184:\n        /* \"#utility.yul\":2137:2142   */\n      0x00\n        /* \"#utility.yul\":2175:2181   */\n      dup2\n        /* \"#utility.yul\":2162:2182   */\n      calldataload\n        /* \"#utility.yul\":2153:2182   */\n      swap1\n      pop\n        /* \"#utility.yul\":2191:2224   */\n      tag_246\n        /* \"#utility.yul\":2218:2223   */\n      dup2\n        /* \"#utility.yul\":2191:2224   */\n      tag_183\n      jump\t// in\n    tag_246:\n        /* \"#utility.yul\":2091:2230   */\n      swap3\n      swap2\n      pop\n      pop\n      jump\t// out\n        /* \"#utility.yul\":2236:2710   */\n    tag_35:\n        /* \"#utility.yul\":2304:2310   */\n      0x00\n        /* \"#utility.yul\":2312:2318   */\n      0x00\n        /* \"#utility.yul\":2361:2363   */\n      0x40\n        /* \"#utility.yul\":2349:2358   */\n      dup4\n        /* \"#utility.yul\":2340:2347   */\n      dup6\n        /* \"#utility.yul\":2336:2359   */\n      sub\n        /* \"#utility.yul\":2332:2364   */\n      slt\n        /* \"#utility.yul\":2329:2448   */\n      iszero\n      tag_248\n      jumpi\n        /* \"#utility.yul\":2367:2446   */\n      tag_249\n      tag_176\n      jump\t// in\n    tag_249:\n        /* \"#utility.yul\":2329:2448   */\n    tag_248:\n        /* \"#utility.yul\":2487:2488   */\n      0x00\n        /* \"#utility.yul\":2512:2565   */\n      tag_250\n        /* \"#utility.yul\":2557:2564   */\n      dup6\n        /* \"#utility.yul\":2548:2554   */\n      dup3\n        /* \"#utility.yul\":2537:2546   */\n      dup7\n        /* \"#utility.yul\":2533:2555   */\n      add\n        /* \"#utility.yul\":2512:2565   */\n      tag_184\n      jump\t// in\n    tag_250:\n        /* \"#utility.yul\":2502:2565   */\n      swap3\n      pop\n        /* \"#utility.yul\":2458:2575   */\n      pop\n        /* \"#utility.yul\":2614:2616   */\n      0x20\n        /* \"#utility.yul\":2640:2693   */\n      tag_251\n        /* \"#utility.yul\":2685:2692   */\n      dup6\n        /* \"#utility.yul\":2676:2682   */\n      dup3\n        /* \"#utility.yul\":2665:2674   */\n      dup7\n        /* \"#utility.yul\":2661:2683   */\n      add\n        /* \"#utility.yul\":2640:2693   */\n      tag_181\n      jump\t// in\n    tag_251:\n        /* \"#utility.yul\":2630:2693   */\n      swap2\n      pop\n        /* \"#utility.yul\":2585:2703   */\n      pop\n        /* \"#utility.yul\":2236:2710   */\n      swap3\n      pop\n      swap3\n      swap1\n      pop\n      jump\t// out\n        /* \"#utility.yul\":2716:3335   */\n    tag_43:\n        /* \"#utility.yul\":2793:2799   */\n      0x00\n        /* \"#utility.yul\":2801:2807   */\n      0x00\n        /* \"#utility.yul\":2809:2815   */\n      0x00\n        /* \"#utility.yul\":2858:2860   */\n      0x60\n        /* \"#utility.yul\":2846:2855   */\n      dup5\n        /* \"#utility.yul\":2837:2844   */\n      dup7\n        /* \"#utility.yul\":2833:2856   */\n      sub\n        /* \"#utility.yul\":2829:2861   */\n      slt\n        /* \"#utility.yul\":2826:2945   */\n      iszero\n      tag_253\n      jumpi\n        /* \"#utility.yul\":2864:2943   */\n      tag_254\n      tag_176\n      jump\t// in\n    tag_254:\n        /* \"#utility.yul\":2826:2945   */\n    tag_253:\n        /* \"#utility.yul\":2984:2985   */\n      0x00\n        /* \"#utility.yul\":3009:3062   */\n      tag_255\n        /* \"#utility.yul\":3054:3061   */\n      dup7\n        /* \"#utility.yul\":3045:3051   */\n      dup3\n        /* \"#utility.yul\":3034:3043   */\n      dup8\n        /* \"#utility.yul\":3030:3052   */\n      add\n        /* \"#utility.yul\":3009:3062   */\n      tag_181\n      jump\t// in\n    tag_255:\n        /* \"#utility.yul\":2999:3062   */\n      swap4\n      pop\n        /* \"#utility.yul\":2955:3072   */\n      pop\n        /* \"#utility.yul\":3111:3113   */\n      0x20\n        /* \"#utility.yul\":3137:3190   */\n      tag_256\n        /* \"#utility.yul\":3182:3189   */\n      dup7\n        /* \"#utility.yul\":3173:3179   */\n      dup3\n        /* \"#utility.yul\":3162:3171   */\n      dup8\n        /* \"#utility.yul\":3158:3180   */\n      add\n        /* \"#utility.yul\":3137:3190   */\n      tag_184\n      jump\t// in\n    tag_256:\n        /* \"#utility.yul\":3127:3190   */\n      swap3\n      pop\n        /* \"#utility.yul\":3082:3200   */\n      pop\n        /* \"#utility.yul\":3239:3241   */\n      0x40\n        /* \"#utility.yul\":3265:3318   */\n      tag_257\n        /* \"#utility.yul\":3310:3317   */\n      dup7\n        /* \"#utility.yul\":3301:3307   */\n      dup3\n        /* \"#utility.yul\":3290:3299   */\n      dup8\n        /* \"#utility.yul\":3286:3308   */\n      add\n        /* \"#utility.yul\":3265:3318   */\n      tag_184\n      jump\t// in\n    tag_257:\n        /* \"#utility.yul\":3255:3318   */\n      swap2\n      pop\n        /* \"#utility.yul\":3210:3328   */\n      pop\n        /* \"#utility.yul\":2716:3335   */\n      swap3\n      pop\n      swap3\n      pop\n      swap3\n      jump\t// out\n        /* \"#utility.yul\":3341:3815   */\n    tag_47:\n        /* \"#utility.yul\":3409:3415   */\n      0x00\n        /* \"#utility.yul\":3417:3423   */\n      0x00\n        /* \"#utility.yul\":3466:3468   */\n      0x40\n        /* \"#utility.yul\":3454:3463   */\n      dup4\n        /* \"#utility.yul\":3445:3452   */\n      dup6\n        /* \"#utility.yul\":3441:3464   */\n      sub\n        /* \"#utility.yul\":3437:3469   */\n      slt\n        /* \"#utility.yul\":3434:3553   */\n      iszero\n      tag_259\n      jumpi\n        /* \"#utility.yul\":3472:3551   */\n      tag_260\n      tag_176\n      jump\t// in\n    tag_260:\n        /* \"#utility.yul\":3434:3553   */\n    tag_259:\n        /* \"#utility.yul\":3592:3593   */\n      0x00\n        /* \"#utility.yul\":3617:3670   */\n      tag_261\n        /* \"#utility.yul\":3662:3669   */\n      dup6\n        /* \"#utility.yul\":3653:3659   */\n      dup3\n        /* \"#utility.yul\":3642:3651   */\n      dup7\n        /* \"#utility.yul\":3638:3660   */\n      add\n        /* \"#utility.yul\":3617:3670   */\n      tag_184\n      jump\t// in\n    tag_261:\n        /* \"#utility.yul\":3607:3670   */\n      swap3\n      pop\n        /* \"#utility.yul\":3563:3680   */\n      pop\n        /* \"#utility.yul\":3719:3721   */\n      0x20\n        /* \"#utility.yul\":3745:3798   */\n      tag_262\n        /* \"#utility.yul\":3790:3797   */\n      dup6\n        /* \"#utility.yul\":3781:3787   */\n      dup3\n        /* \"#utility.yul\":3770:3779   */\n      dup7\n        /* \"#utility.yul\":3766:3788   */\n      add\n        /* \"#utility.yul\":3745:3798   */\n      tag_184\n      jump\t// in\n    tag_262:\n        /* \"#utility.yul\":3735:3798   */\n      swap2\n      pop\n        /* \"#utility.yul\":3690:3808   */\n      pop\n        /* \"#utility.yul\":3341:3815   */\n      swap3\n      pop\n      swap3\n      swap1\n      pop\n      jump\t// out\n        /* \"#utility.yul\":3821:3881   */\n    tag_185:\n        /* \"#utility.yul\":3849:3852   */\n      0x00\n        /* \"#utility.yul\":3870:3875   */\n      dup2\n        /* \"#utility.yul\":3863:3875   */\n      swap1\n      pop\n        /* \"#utility.yul\":3821:3881   */\n      swap2\n      swap1\n      pop\n      jump\t// out\n        /* \"#utility.yul\":3887:4029   */\n    tag_186:\n        /* \"#utility.yul\":3937:3946   */\n      0x00\n        /* \"#utility.yul\":3970:4023   */\n      tag_265\n        /* \"#utility.yul\":3988:4022   */\n      tag_266\n        /* \"#utility.yul\":3997:4021   */\n      tag_267\n        /* \"#utility.yul\":4015:4020   */\n      dup5\n        /* \"#utility.yul\":3997:4021   */\n      tag_178\n      jump\t// in\n    tag_267:\n        /* \"#utility.yul\":3988:4022   */\n      tag_185\n      jump\t// in\n    tag_266:\n        /* \"#utility.yul\":3970:4023   */\n      tag_178\n      jump\t// in\n    tag_265:\n        /* \"#utility.yul\":3957:4023   */\n      swap1\n      pop\n        /* \"#utility.yul\":3887:4029   */\n      swap2\n      swap1\n      pop\n      jump\t// out\n        /* \"#utility.yul\":4035:4161   */\n    tag_187:\n        /* \"#utility.yul\":4085:4094   */\n      0x00\n        /* \"#utility.yul\":4118:4155   */\n      tag_269\n        /* \"#utility.yul\":4149:4154   */\n      dup3\n        /* \"#utility.yul\":4118:4155   */\n      tag_186\n      jump\t// in\n    tag_269:\n        /* \"#utility.yul\":4105:4155   */\n      swap1\n      pop\n        /* \"#utility.yul\":4035:4161   */\n      swap2\n      swap1\n      pop\n      jump\t// out\n        /* \"#utility.yul\":4167:4308   */\n    tag_188:\n        /* \"#utility.yul\":4232:4241   */\n      0x00\n        /* \"#utility.yul\":4265:4302   */\n      tag_271\n        /* \"#utility.yul\":4296:4301   */\n      dup3\n        /* \"#utility.yul\":4265:4302   */\n      tag_187\n      jump\t// in\n    tag_271:\n        /* \"#utility.yul\":4252:4302   */\n      swap1\n      pop\n        /* \"#utility.yul\":4167:4308   */\n      swap2\n      swap1\n      pop\n      jump\t// out\n        /* \"#utility.yul\":4314:4475   */\n    tag_189:\n        /* \"#utility.yul\":4416:4468   */\n      tag_273\n        /* \"#utility.yul\":4462:4467   */\n      dup2\n        /* \"#utility.yul\":4416:4468   */\n      tag_188\n      jump\t// in\n    tag_273:\n        /* \"#utility.yul\":4411:4414   */\n      dup3\n        /* \"#utility.yul\":4404:4469   */\n      mstore\n        /* \"#utility.yul\":4314:4475   */\n      pop\n      pop\n      jump\t// out\n        /* \"#utility.yul\":4481:4733   */\n    tag_55:\n        /* \"#utility.yul\":4589:4593   */\n      0x00\n        /* \"#utility.yul\":4627:4629   */\n      0x20\n        /* \"#utility.yul\":4616:4625   */\n      dup3\n        /* \"#utility.yul\":4612:4630   */\n      add\n        /* \"#utility.yul\":4604:4630   */\n      swap1\n      pop\n        /* \"#utility.yul\":4640:4726   */\n      tag_275\n        /* \"#utility.yul\":4723:4724   */\n      0x00\n        /* \"#utility.yul\":4712:4721   */\n      dup4\n        /* \"#utility.yul\":4708:4725   */\n      add\n        /* \"#utility.yul\":4699:4705   */\n      dup5\n        /* \"#utility.yul\":4640:4726   */\n      tag_189\n      jump\t// in\n    tag_275:\n        /* \"#utility.yul\":4481:4733   */\n      swap3\n      swap2\n      pop\n      pop\n      jump\t// out\n        /* \"#utility.yul\":4739:4919   */\n    tag_190:\n        /* \"#utility.yul\":4787:4864   */\n      0x4e487b7100000000000000000000000000000000000000000000000000000000\n        /* \"#utility.yul\":4784:4785   */\n      0x00\n        /* \"#utility.yul\":4777:4865   */\n      mstore\n        /* \"#utility.yul\":4884:4888   */\n      0x11\n        /* \"#utility.yul\":4881:4882   */\n      0x04\n        /* \"#utility.yul\":4874:4889   */\n      mstore\n        /* \"#utility.yul\":4908:4912   */\n      0x24\n        /* \"#utility.yul\":4905:4906   */\n      0x00\n        /* \"#utility.yul\":4898:4913   */\n      revert\n        /* \"#utility.yul\":4925:5335   */\n    tag_73:\n        /* \"#utility.yul\":4965:4972   */\n      0x00\n        /* \"#utility.yul\":4988:5008   */\n      tag_278\n        /* \"#utility.yul\":5006:5007   */\n      dup3\n        /* \"#utility.yul\":4988:5008   */\n      tag_173\n      jump\t// in\n    tag_278:\n        /* \"#utility.yul\":4983:5008   */\n      swap2\n      pop\n        /* \"#utility.yul\":5022:5042   */\n      tag_279\n        /* \"#utility.yul\":5040:5041   */\n      dup4\n        /* \"#utility.yul\":5022:5042   */\n      tag_173\n      jump\t// in\n    tag_279:\n        /* \"#utility.yul\":5017:5042   */\n      swap3\n      pop\n        /* \"#utility.yul\":5077:5078   */\n      dup3\n        /* \"#utility.yul\":5074:5075   */\n      dup3\n        /* \"#utility.yul\":5070:5079   */\n      mul\n        /* \"#utility.yul\":5099:5129   */\n      tag_280\n        /* \"#utility.yul\":5117:5128   */\n      dup2\n        /* \"#utility.yul\":5099:5129   */\n      tag_173\n      jump\t// in\n    tag_280:\n        /* \"#utility.yul\":5088:5129   */\n      swap2\n      pop\n        /* \"#utility.yul\":5278:5279   */\n      dup3\n        /* \"#utility.yul\":5269:5276   */\n      dup3\n        /* \"#utility.yul\":5265:5280   */\n      div\n        /* \"#utility.yul\":5262:5263   */\n      dup5\n        /* \"#utility.yul\":5259:5281   */\n      eq\n        /* \"#utility.yul\":5239:5240   */\n      dup4\n        /* \"#utility.yul\":5232:5241   */\n      iszero\n        /* \"#utility.yul\":5212:5295   */\n      or\n        /* \"#utility.yul\":5189:5328   */\n      tag_281\n      jumpi\n        /* \"#utility.yul\":5308:5326   */\n      tag_282\n      tag_190\n      jump\t// in\n    tag_282:\n        /* \"#utility.yul\":5189:5328   */\n    tag_281:\n        /* \"#utility.yul\":4973:5335   */\n      pop\n        /* \"#utility.yul\":4925:5335   */\n      swap3\n      swap2\n      pop\n      pop\n      jump\t// out\n        /* \"#utility.yul\":5341:5521   */\n    tag_191:\n        /* \"#utility.yul\":5389:5466   */\n      0x4e487b7100000000000000000000000000000000000000000000000000000000\n        /* \"#utility.yul\":5386:5387   */\n      0x00\n        /* \"#utility.yul\":5379:5467   */\n      mstore\n        /* \"#utility.yul\":5486:5490   */\n      0x12\n        /* \"#utility.yul\":5483:5484   */\n      0x04\n        /* \"#utility.yul\":5476:5491   */\n      mstore\n        /* \"#utility.yul\":5510:5514   */\n      0x24\n        /* \"#utility.yul\":5507:5508   */\n      0x00\n        /* \"#utility.yul\":5500:5515   */\n      revert\n        /* \"#utility.yul\":5527:5712   */\n    tag_75:\n        /* \"#utility.yul\":5567:5568   */\n      0x00\n        /* \"#utility.yul\":5584:5604   */\n      tag_285\n        /* \"#utility.yul\":5602:5603   */\n      dup3\n        /* \"#utility.yul\":5584:5604   */\n      tag_173\n      jump\t// in\n    tag_285:\n        /* \"#utility.yul\":5579:5604   */\n      swap2\n      pop\n        /* \"#utility.yul\":5618:5638   */\n      tag_286\n        /* \"#utility.yul\":5636:5637   */\n      dup4\n        /* \"#utility.yul\":5618:5638   */\n      tag_173\n      jump\t// in\n    tag_286:\n        /* \"#utility.yul\":5613:5638   */\n      swap3\n      pop\n        /* \"#utility.yul\":5657:5658   */\n      dup3\n        /* \"#utility.yul\":5647:5682   */\n      tag_287\n      jumpi\n        /* \"#utility.yul\":5662:5680   */\n      tag_288\n      tag_191\n      jump\t// in\n    tag_288:\n        /* \"#utility.yul\":5647:5682   */\n    tag_287:\n        /* \"#utility.yul\":5704:5705   */\n      dup3\n        /* \"#utility.yul\":5701:5702   */\n      dup3\n        /* \"#utility.yul\":5697:5706   */\n      div\n        /* \"#utility.yul\":5692:5706   */\n      swap1\n      pop\n        /* \"#utility.yul\":5527:5712   */\n      swap3\n      swap2\n      pop\n      pop\n      jump\t// out\n        /* \"#utility.yul\":5718:5909   */\n    tag_78:\n        /* \"#utility.yul\":5758:5761   */\n      0x00\n        /* \"#utility.yul\":5777:5797   */\n      tag_290\n        /* \"#utility.yul\":5795:5796   */\n      dup3\n        /* \"#utility.yul\":5777:5797   */\n      tag_173\n      jump\t// in\n    tag_290:\n        /* \"#utility.yul\":5772:5797   */\n      swap2\n      pop\n        /* \"#utility.yul\":5811:5831   */\n      tag_291\n        /* \"#utility.yul\":5829:5830   */\n      dup4\n        /* \"#utility.yul\":5811:5831   */\n      tag_173\n      jump\t// in\n    tag_291:\n        /* \"#utility.yul\":5806:5831   */\n      swap3\n      pop\n        /* \"#utility.yul\":5854:5855   */\n      dup3\n        /* \"#utility.yul\":5851:5852   */\n      dup3\n        /* \"#utility.yul\":5847:5856   */\n      add\n        /* \"#utility.yul\":5840:5856   */\n      swap1\n      pop\n        /* \"#utility.yul\":5875:5878   */\n      dup1\n        /* \"#utility.yul\":5872:5873   */\n      dup3\n        /* \"#utility.yul\":5869:5879   */\n      gt\n        /* \"#utility.yul\":5866:5902   */\n      iszero\n      tag_292\n      jumpi\n        /* \"#utility.yul\":5882:5900   */\n      tag_293\n      tag_190\n      jump\t// in\n    tag_293:\n        /* \"#utility.yul\":5866:5902   */\n    tag_292:\n        /* \"#utility.yul\":5718:5909   */\n      swap3\n      swap2\n      pop\n      pop\n      jump\t// out\n        /* \"#utility.yul\":5915:6009   */\n    tag_192:\n        /* \"#utility.yul\":5948:5956   */\n      0x00\n        /* \"#utility.yul\":5996:6001   */\n      dup2\n        /* \"#utility.yul\":5992:5994   */\n      0x60\n        /* \"#utility.yul\":5988:6002   */\n      shl\n        /* \"#utility.yul\":5967:6002   */\n      swap1\n      pop\n        /* \"#utility.yul\":5915:6009   */\n      swap2\n      swap1\n      pop\n      jump\t// out\n        /* \"#utility.yul\":6015:6109   */\n    tag_193:\n        /* \"#utility.yul\":6054:6061   */\n      0x00\n        /* \"#utility.yul\":6083:6103   */\n      tag_296\n        /* \"#utility.yul\":6097:6102   */\n      dup3\n        /* \"#utility.yul\":6083:6103   */\n      tag_192\n      jump\t// in\n    tag_296:\n        /* \"#utility.yul\":6072:6103   */\n      swap1\n      pop\n        /* \"#utility.yul\":6015:6109   */\n      swap2\n      swap1\n      pop\n      jump\t// out\n        /* \"#utility.yul\":6115:6215   */\n    tag_194:\n        /* \"#utility.yul\":6154:6161   */\n      0x00\n        /* \"#utility.yul\":6183:6209   */\n      tag_298\n        /* \"#utility.yul\":6203:6208   */\n      dup3\n        /* \"#utility.yul\":6183:6209   */\n      tag_193\n      jump\t// in\n    tag_298:\n        /* \"#utility.yul\":6172:6209   */\n      swap1\n      pop\n        /* \"#utility.yul\":6115:6215   */\n      swap2\n      swap1\n      pop\n      jump\t// out\n        /* \"#utility.yul\":6221:6378   */\n    tag_195:\n        /* \"#utility.yul\":6326:6371   */\n      tag_300\n        /* \"#utility.yul\":6346:6370   */\n      tag_301\n        /* \"#utility.yul\":6364:6369   */\n      dup3\n        /* \"#utility.yul\":6346:6370   */\n      tag_179\n      jump\t// in\n    tag_301:\n        /* \"#utility.yul\":6326:6371   */\n      tag_194\n      jump\t// in\n    tag_300:\n        /* \"#utility.yul\":6321:6324   */\n      dup3\n        /* \"#utility.yul\":6314:6372   */\n      mstore\n        /* \"#utility.yul\":6221:6378   */\n      pop\n      pop\n      jump\t// out\n        /* \"#utility.yul\":6384:6463   */\n    tag_196:\n        /* \"#utility.yul\":6423:6430   */\n      0x00\n        /* \"#utility.yul\":6452:6457   */\n      dup2\n        /* \"#utility.yul\":6441:6457   */\n      swap1\n      pop\n        /* \"#utility.yul\":6384:6463   */\n      swap2\n      swap1\n      pop\n      jump\t// out\n        /* \"#utility.yul\":6469:6626   */\n    tag_197:\n        /* \"#utility.yul\":6574:6619   */\n      tag_304\n        /* \"#utility.yul\":6594:6618   */\n      tag_305\n        /* \"#utility.yul\":6612:6617   */\n      dup3\n        /* \"#utility.yul\":6594:6618   */\n      tag_173\n      jump\t// in\n    tag_305:\n        /* \"#utility.yul\":6574:6619   */\n      tag_196\n      jump\t// in\n    tag_304:\n        /* \"#utility.yul\":6569:6572   */\n      dup3\n        /* \"#utility.yul\":6562:6620   */\n      mstore\n        /* \"#utility.yul\":6469:6626   */\n      pop\n      pop\n      jump\t// out\n        /* \"#utility.yul\":6632:7170   */\n    tag_80:\n        /* \"#utility.yul\":6800:6803   */\n      0x00\n        /* \"#utility.yul\":6815:6890   */\n      tag_307\n        /* \"#utility.yul\":6886:6889   */\n      dup3\n        /* \"#utility.yul\":6877:6883   */\n      dup7\n        /* \"#utility.yul\":6815:6890   */\n      tag_195\n      jump\t// in\n    tag_307:\n        /* \"#utility.yul\":6915:6917   */\n      0x14\n        /* \"#utility.yul\":6910:6913   */\n      dup3\n        /* \"#utility.yul\":6906:6918   */\n      add\n        /* \"#utility.yul\":6899:6918   */\n      swap2\n      pop\n        /* \"#utility.yul\":6928:7003   */\n      tag_308\n        /* \"#utility.yul\":6999:7002   */\n      dup3\n        /* \"#utility.yul\":6990:6996   */\n      dup6\n        /* \"#utility.yul\":6928:7003   */\n      tag_197\n      jump\t// in\n    tag_308:\n        /* \"#utility.yul\":7028:7030   */\n      0x20\n        /* \"#utility.yul\":7023:7026   */\n      dup3\n        /* \"#utility.yul\":7019:7031   */\n      add\n        /* \"#utility.yul\":7012:7031   */\n      swap2\n      pop\n        /* \"#utility.yul\":7041:7116   */\n      tag_309\n        /* \"#utility.yul\":7112:7115   */\n      dup3\n        /* \"#utility.yul\":7103:7109   */\n      dup5\n        /* \"#utility.yul\":7041:7116   */\n      tag_197\n      jump\t// in\n    tag_309:\n        /* \"#utility.yul\":7141:7143   */\n      0x20\n        /* \"#utility.yul\":7136:7139   */\n      dup3\n        /* \"#utility.yul\":7132:7144   */\n      add\n        /* \"#utility.yul\":7125:7144   */\n      swap2\n      pop\n        /* \"#utility.yul\":7161:7164   */\n      dup2\n        /* \"#utility.yul\":7154:7164   */\n      swap1\n      pop\n        /* \"#utility.yul\":6632:7170   */\n      swap5\n      swap4\n      pop\n      pop\n      pop\n      pop\n      jump\t// out\n        /* \"#utility.yul\":7176:7352   */\n    tag_82:\n        /* \"#utility.yul\":7208:7209   */\n      0x00\n        /* \"#utility.yul\":7225:7245   */\n      tag_311\n        /* \"#utility.yul\":7243:7244   */\n      dup3\n        /* \"#utility.yul\":7225:7245   */\n      tag_173\n      jump\t// in\n    tag_311:\n        /* \"#utility.yul\":7220:7245   */\n      swap2\n      pop\n        /* \"#utility.yul\":7259:7279   */\n      tag_312\n        /* \"#utility.yul\":7277:7278   */\n      dup4\n        /* \"#utility.yul\":7259:7279   */\n      tag_173\n      jump\t// in\n    tag_312:\n        /* \"#utility.yul\":7254:7279   */\n      swap3\n      pop\n        /* \"#utility.yul\":7298:7299   */\n      dup3\n        /* \"#utility.yul\":7288:7323   */\n      tag_313\n      jumpi\n        /* \"#utility.yul\":7303:7321   */\n      tag_314\n      tag_191\n      jump\t// in\n    tag_314:\n        /* \"#utility.yul\":7288:7323   */\n    tag_313:\n        /* \"#utility.yul\":7344:7345   */\n      dup3\n        /* \"#utility.yul\":7341:7342   */\n      dup3\n        /* \"#utility.yul\":7337:7346   */\n      mod\n        /* \"#utility.yul\":7332:7346   */\n      swap1\n      pop\n        /* \"#utility.yul\":7176:7352   */\n      swap3\n      swap2\n      pop\n      pop\n      jump\t// out\n        /* \"#utility.yul\":7358:7527   */\n    tag_198:\n        /* \"#utility.yul\":7442:7453   */\n      0x00\n        /* \"#utility.yul\":7476:7482   */\n      dup3\n        /* \"#utility.yul\":7471:7474   */\n      dup3\n        /* \"#utility.yul\":7464:7483   */\n      mstore\n        /* \"#utility.yul\":7516:7520   */\n      0x20\n        /* \"#utility.yul\":7511:7514   */\n      dup3\n        /* \"#utility.yul\":7507:7521   */\n      add\n        /* \"#utility.yul\":7492:7521   */\n      swap1\n      pop\n        /* \"#utility.yul\":7358:7527   */\n      swap3\n      swap2\n      pop\n      pop\n      jump\t// out\n        /* \"#utility.yul\":7533:7697   */\n    tag_199:\n        /* \"#utility.yul\":7673:7689   */\n      0x4e6f7420617574686f72697a6564000000000000000000000000000000000000\n        /* \"#utility.yul\":7669:7670   */\n      0x00\n        /* \"#utility.yul\":7661:7667   */\n      dup3\n        /* \"#utility.yul\":7657:7671   */\n      add\n        /* \"#utility.yul\":7650:7690   */\n      mstore\n        /* \"#utility.yul\":7533:7697   */\n      pop\n      jump\t// out\n        /* \"#utility.yul\":7703:8069   */\n    tag_200:\n        /* \"#utility.yul\":7845:7848   */\n      0x00\n        /* \"#utility.yul\":7866:7933   */\n      tag_318\n        /* \"#utility.yul\":7930:7932   */\n      0x0e\n        /* \"#utility.yul\":7925:7928   */\n      dup4\n        /* \"#utility.yul\":7866:7933   */\n      tag_198\n      jump\t// in\n    tag_318:\n        /* \"#utility.yul\":7859:7933   */\n      swap2\n      pop\n        /* \"#utility.yul\":7942:8035   */\n      tag_319\n        /* \"#utility.yul\":8031:8034   */\n      dup3\n        /* \"#utility.yul\":7942:8035   */\n      tag_199\n      jump\t// in\n    tag_319:\n        /* \"#utility.yul\":8060:8062   */\n      0x20\n        /* \"#utility.yul\":8055:8058   */\n      dup3\n        /* \"#utility.yul\":8051:8063   */\n      add\n        /* \"#utility.yul\":8044:8063   */\n      swap1\n      pop\n        /* \"#utility.yul\":7703:8069   */\n      swap2\n      swap1\n      pop\n      jump\t// out\n        /* \"#utility.yul\":8075:8494   */\n    tag_91:\n        /* \"#utility.yul\":8241:8245   */\n      0x00\n        /* \"#utility.yul\":8279:8281   */\n      0x20\n        /* \"#utility.yul\":8268:8277   */\n      dup3\n        /* \"#utility.yul\":8264:8282   */\n      add\n        /* \"#utility.yul\":8256:8282   */\n      swap1\n      pop\n        /* \"#utility.yul\":8328:8337   */\n      dup2\n        /* \"#utility.yul\":8322:8326   */\n      dup2\n        /* \"#utility.yul\":8318:8338   */\n      sub\n        /* \"#utility.yul\":8314:8315   */\n      0x00\n        /* \"#utility.yul\":8303:8312   */\n      dup4\n        /* \"#utility.yul\":8299:8316   */\n      add\n        /* \"#utility.yul\":8292:8339   */\n      mstore\n        /* \"#utility.yul\":8356:8487   */\n      tag_321\n        /* \"#utility.yul\":8482:8486   */\n      dup2\n        /* \"#utility.yul\":8356:8487   */\n      tag_200\n      jump\t// in\n    tag_321:\n        /* \"#utility.yul\":8348:8487   */\n      swap1\n      pop\n        /* \"#utility.yul\":8075:8494   */\n      swap2\n      swap1\n      pop\n      jump\t// out\n        /* \"#utility.yul\":8500:8676   */\n    tag_201:\n        /* \"#utility.yul\":8640:8668   */\n      0x43616e6e6f7420726577617264207a65726f2061646472657373000000000000\n        /* \"#utility.yul\":8636:8637   */\n      0x00\n        /* \"#utility.yul\":8628:8634   */\n      dup3\n        /* \"#utility.yul\":8624:8638   */\n      add\n        /* \"#utility.yul\":8617:8669   */\n      mstore\n        /* \"#utility.yul\":8500:8676   */\n      pop\n      jump\t// out\n        /* \"#utility.yul\":8682:9048   */\n    tag_202:\n        /* \"#utility.yul\":8824:8827   */\n      0x00\n        /* \"#utility.yul\":8845:8912   */\n      tag_324\n        /* \"#utility.yul\":8909:8911   */\n      0x1a\n        /* \"#utility.yul\":8904:8907   */\n      dup4\n        /* \"#utility.yul\":8845:8912   */\n      tag_198\n      jump\t// in\n    tag_324:\n        /* \"#utility.yul\":8838:8912   */\n      swap2\n      pop\n        /* \"#utility.yul\":8921:9014   */\n      tag_325\n        /* \"#utility.yul\":9010:9013   */\n      dup3\n        /* \"#utility.yul\":8921:9014   */\n      tag_201\n      jump\t// in\n    tag_325:\n        /* \"#utility.yul\":9039:9041   */\n      0x20\n        /* \"#utility.yul\":9034:9037   */\n      dup3\n        /* \"#utility.yul\":9030:9042   */\n      add\n        /* \"#utility.yul\":9023:9042   */\n      swap1\n      pop\n        /* \"#utility.yul\":8682:9048   */\n      swap2\n      swap1\n      pop\n      jump\t// out\n        /* \"#utility.yul\":9054:9473   */\n    tag_95:\n        /* \"#utility.yul\":9220:9224   */\n      0x00\n        /* \"#utility.yul\":9258:9260   */\n      0x20\n        /* \"#utility.yul\":9247:9256   */\n      dup3\n        /* \"#utility.yul\":9243:9261   */\n      add\n        /* \"#utility.yul\":9235:9261   */\n      swap1\n      pop\n        /* \"#utility.yul\":9307:9316   */\n      dup2\n        /* \"#utility.yul\":9301:9305   */\n      dup2\n        /* \"#utility.yul\":9297:9317   */\n      sub\n        /* \"#utility.yul\":9293:9294   */\n      0x00\n        /* \"#utility.yul\":9282:9291   */\n      dup4\n        /* \"#utility.yul\":9278:9295   */\n      add\n        /* \"#utility.yul\":9271:9318   */\n      mstore\n        /* \"#utility.yul\":9335:9466   */\n      tag_327\n        /* \"#utility.yul\":9461:9465   */\n      dup2\n        /* \"#utility.yul\":9335:9466   */\n      tag_202\n      jump\t// in\n    tag_327:\n        /* \"#utility.yul\":9327:9466   */\n      swap1\n      pop\n        /* \"#utility.yul\":9054:9473   */\n      swap2\n      swap1\n      pop\n      jump\t// out\n        /* \"#utility.yul\":9479:9647   */\n    tag_203:\n        /* \"#utility.yul\":9619:9639   */\n      0x416d6f756e74206d757374206265203e20300000000000000000000000000000\n        /* \"#utility.yul\":9615:9616   */\n      0x00\n        /* \"#utility.yul\":9607:9613   */\n      dup3\n        /* \"#utility.yul\":9603:9617   */\n      add\n        /* \"#utility.yul\":9596:9640   */\n      mstore\n        /* \"#utility.yul\":9479:9647   */\n      pop\n      jump\t// out\n        /* \"#utility.yul\":9653:10019   */\n    tag_204:\n        /* \"#utility.yul\":9795:9798   */\n      0x00\n        /* \"#utility.yul\":9816:9883   */\n      tag_330\n        /* \"#utility.yul\":9880:9882   */\n      0x12\n        /* \"#utility.yul\":9875:9878   */\n      dup4\n        /* \"#utility.yul\":9816:9883   */\n      tag_198\n      jump\t// in\n    tag_330:\n        /* \"#utility.yul\":9809:9883   */\n      swap2\n      pop\n        /* \"#utility.yul\":9892:9985   */\n      tag_331\n        /* \"#utility.yul\":9981:9984   */\n      dup3\n        /* \"#utility.yul\":9892:9985   */\n      tag_203\n      jump\t// in\n    tag_331:\n        /* \"#utility.yul\":10010:10012   */\n      0x20\n        /* \"#utility.yul\":10005:10008   */\n      dup3\n        /* \"#utility.yul\":10001:10013   */\n      add\n        /* \"#utility.yul\":9994:10013   */\n      swap1\n      pop\n        /* \"#utility.yul\":9653:10019   */\n      swap2\n      swap1\n      pop\n      jump\t// out\n        /* \"#utility.yul\":10025:10444   */\n    tag_98:\n        /* \"#utility.yul\":10191:10195   */\n      0x00\n        /* \"#utility.yul\":10229:10231   */\n      0x20\n        /* \"#utility.yul\":10218:10227   */\n      dup3\n        /* \"#utility.yul\":10214:10232   */\n      add\n        /* \"#utility.yul\":10206:10232   */\n      swap1\n      pop\n        /* \"#utility.yul\":10278:10287   */\n      dup2\n        /* \"#utility.yul\":10272:10276   */\n      dup2\n        /* \"#utility.yul\":10268:10288   */\n      sub\n        /* \"#utility.yul\":10264:10265   */\n      0x00\n        /* \"#utility.yul\":10253:10262   */\n      dup4\n        /* \"#utility.yul\":10249:10266   */\n      add\n        /* \"#utility.yul\":10242:10289   */\n      mstore\n        /* \"#utility.yul\":10306:10437   */\n      tag_333\n        /* \"#utility.yul\":10432:10436   */\n      dup2\n        /* \"#utility.yul\":10306:10437   */\n      tag_204\n      jump\t// in\n    tag_333:\n        /* \"#utility.yul\":10298:10437   */\n      swap1\n      pop\n        /* \"#utility.yul\":10025:10444   */\n      swap2\n      swap1\n      pop\n      jump\t// out\n        /* \"#utility.yul\":10450:10593   */\n    tag_205:\n        /* \"#utility.yul\":10507:10512   */\n      0x00\n        /* \"#utility.yul\":10538:10544   */\n      dup2\n        /* \"#utility.yul\":10532:10545   */\n      mload\n        /* \"#utility.yul\":10523:10545   */\n      swap1\n      pop\n        /* \"#utility.yul\":10554:10587   */\n      tag_335\n        /* \"#utility.yul\":10581:10586   */\n      dup2\n        /* \"#utility.yul\":10554:10587   */\n      tag_183\n      jump\t// in\n    tag_335:\n        /* \"#utility.yul\":10450:10593   */\n      swap3\n      swap2\n      pop\n      pop\n      jump\t// out\n        /* \"#utility.yul\":10599:10950   */\n    tag_103:\n        /* \"#utility.yul\":10669:10675   */\n      0x00\n        /* \"#utility.yul\":10718:10720   */\n      0x20\n        /* \"#utility.yul\":10706:10715   */\n      dup3\n        /* \"#utility.yul\":10697:10704   */\n      dup5\n        /* \"#utility.yul\":10693:10716   */\n      sub\n        /* \"#utility.yul\":10689:10721   */\n      slt\n        /* \"#utility.yul\":10686:10805   */\n      iszero\n      tag_337\n      jumpi\n        /* \"#utility.yul\":10724:10803   */\n      tag_338\n      tag_176\n      jump\t// in\n    tag_338:\n        /* \"#utility.yul\":10686:10805   */\n    tag_337:\n        /* \"#utility.yul\":10844:10845   */\n      0x00\n        /* \"#utility.yul\":10869:10933   */\n      tag_339\n        /* \"#utility.yul\":10925:10932   */\n      dup5\n        /* \"#utility.yul\":10916:10922   */\n      dup3\n        /* \"#utility.yul\":10905:10914   */\n      dup6\n        /* \"#utility.yul\":10901:10923   */\n      add\n        /* \"#utility.yul\":10869:10933   */\n      tag_205\n      jump\t// in\n    tag_339:\n        /* \"#utility.yul\":10859:10933   */\n      swap2\n      pop\n        /* \"#utility.yul\":10815:10943   */\n      pop\n        /* \"#utility.yul\":10599:10950   */\n      swap3\n      swap2\n      pop\n      pop\n      jump\t// out\n        /* \"#utility.yul\":10956:11133   */\n    tag_206:\n        /* \"#utility.yul\":11096:11125   */\n      0x496e73756666696369656e74207265776172642062616c616e63650000000000\n        /* \"#utility.yul\":11092:11093   */\n      0x00\n        /* \"#utility.yul\":11084:11090   */\n      dup3\n        /* \"#utility.yul\":11080:11094   */\n      add\n        /* \"#utility.yul\":11073:11126   */\n      mstore\n        /* \"#utility.yul\":10956:11133   */\n      pop\n      jump\t// out\n        /* \"#utility.yul\":11139:11505   */\n    tag_207:\n        /* \"#utility.yul\":11281:11284   */\n      0x00\n        /* \"#utility.yul\":11302:11369   */\n      tag_342\n        /* \"#utility.yul\":11366:11368   */\n      0x1b\n        /* \"#utility.yul\":11361:11364   */\n      dup4\n        /* \"#utility.yul\":11302:11369   */\n      tag_198\n      jump\t// in\n    tag_342:\n        /* \"#utility.yul\":11295:11369   */\n      swap2\n      pop\n        /* \"#utility.yul\":11378:11471   */\n      tag_343\n        /* \"#utility.yul\":11467:11470   */\n      dup3\n        /* \"#utility.yul\":11378:11471   */\n      tag_206\n      jump\t// in\n    tag_343:\n        /* \"#utility.yul\":11496:11498   */\n      0x20\n        /* \"#utility.yul\":11491:11494   */\n      dup3\n        /* \"#utility.yul\":11487:11499   */\n      add\n        /* \"#utility.yul\":11480:11499   */\n      swap1\n      pop\n        /* \"#utility.yul\":11139:11505   */\n      swap2\n      swap1\n      pop\n      jump\t// out\n        /* \"#utility.yul\":11511:11930   */\n    tag_106:\n        /* \"#utility.yul\":11677:11681   */\n      0x00\n        /* \"#utility.yul\":11715:11717   */\n      0x20\n        /* \"#utility.yul\":11704:11713   */\n      dup3\n        /* \"#utility.yul\":11700:11718   */\n      add\n        /* \"#utility.yul\":11692:11718   */\n      swap1\n      pop\n        /* \"#utility.yul\":11764:11773   */\n      dup2\n        /* \"#utility.yul\":11758:11762   */\n      dup2\n        /* \"#utility.yul\":11754:11774   */\n      sub\n        /* \"#utility.yul\":11750:11751   */\n      0x00\n        /* \"#utility.yul\":11739:11748   */\n      dup4\n        /* \"#utility.yul\":11735:11752   */\n      add\n        /* \"#utility.yul\":11728:11775   */\n      mstore\n        /* \"#utility.yul\":11792:11923   */\n      tag_345\n        /* \"#utility.yul\":11918:11922   */\n      dup2\n        /* \"#utility.yul\":11792:11923   */\n      tag_207\n      jump\t// in\n    tag_345:\n        /* \"#utility.yul\":11784:11923   */\n      swap1\n      pop\n        /* \"#utility.yul\":11511:11930   */\n      swap2\n      swap1\n      pop\n      jump\t// out\n        /* \"#utility.yul\":11936:12268   */\n    tag_108:\n        /* \"#utility.yul\":12057:12061   */\n      0x00\n        /* \"#utility.yul\":12095:12097   */\n      0x40\n        /* \"#utility.yul\":12084:12093   */\n      dup3\n        /* \"#utility.yul\":12080:12098   */\n      add\n        /* \"#utility.yul\":12072:12098   */\n      swap1\n      pop\n        /* \"#utility.yul\":12108:12179   */\n      tag_347\n        /* \"#utility.yul\":12176:12177   */\n      0x00\n        /* \"#utility.yul\":12165:12174   */\n      dup4\n        /* \"#utility.yul\":12161:12178   */\n      add\n        /* \"#utility.yul\":12152:12158   */\n      dup6\n        /* \"#utility.yul\":12108:12179   */\n      tag_182\n      jump\t// in\n    tag_347:\n        /* \"#utility.yul\":12189:12261   */\n      tag_348\n        /* \"#utility.yul\":12257:12259   */\n      0x20\n        /* \"#utility.yul\":12246:12255   */\n      dup4\n        /* \"#utility.yul\":12242:12260   */\n      add\n        /* \"#utility.yul\":12233:12239   */\n      dup5\n        /* \"#utility.yul\":12189:12261   */\n      tag_174\n      jump\t// in\n    tag_348:\n        /* \"#utility.yul\":11936:12268   */\n      swap4\n      swap3\n      pop\n      pop\n      pop\n      jump\t// out\n        /* \"#utility.yul\":12274:12364   */\n    tag_208:\n        /* \"#utility.yul\":12308:12315   */\n      0x00\n        /* \"#utility.yul\":12351:12356   */\n      dup2\n        /* \"#utility.yul\":12344:12357   */\n      iszero\n        /* \"#utility.yul\":12337:12358   */\n      iszero\n        /* \"#utility.yul\":12326:12358   */\n      swap1\n      pop\n        /* \"#utility.yul\":12274:12364   */\n      swap2\n      swap1\n      pop\n      jump\t// out\n        /* \"#utility.yul\":12370:12486   */\n    tag_209:\n        /* \"#utility.yul\":12440:12461   */\n      tag_351\n        /* \"#utility.yul\":12455:12460   */\n      dup2\n        /* \"#utility.yul\":12440:12461   */\n      tag_208\n      jump\t// in\n    tag_351:\n        /* \"#utility.yul\":12433:12438   */\n      dup2\n        /* \"#utility.yul\":12430:12462   */\n      eq\n        /* \"#utility.yul\":12420:12480   */\n      tag_352\n      jumpi\n        /* \"#utility.yul\":12476:12477   */\n      0x00\n        /* \"#utility.yul\":12473:12474   */\n      0x00\n        /* \"#utility.yul\":12466:12478   */\n      revert\n        /* \"#utility.yul\":12420:12480   */\n    tag_352:\n        /* \"#utility.yul\":12370:12486   */\n      pop\n      jump\t// out\n        /* \"#utility.yul\":12492:12629   */\n    tag_210:\n        /* \"#utility.yul\":12546:12551   */\n      0x00\n        /* \"#utility.yul\":12577:12583   */\n      dup2\n        /* \"#utility.yul\":12571:12584   */\n      mload\n        /* \"#utility.yul\":12562:12584   */\n      swap1\n      pop\n        /* \"#utility.yul\":12593:12623   */\n      tag_354\n        /* \"#utility.yul\":12617:12622   */\n      dup2\n        /* \"#utility.yul\":12593:12623   */\n      tag_209\n      jump\t// in\n    tag_354:\n        /* \"#utility.yul\":12492:12629   */\n      swap3\n      swap2\n      pop\n      pop\n      jump\t// out\n        /* \"#utility.yul\":12635:12980   */\n    tag_112:\n        /* \"#utility.yul\":12702:12708   */\n      0x00\n        /* \"#utility.yul\":12751:12753   */\n      0x20\n        /* \"#utility.yul\":12739:12748   */\n      dup3\n        /* \"#utility.yul\":12730:12737   */\n      dup5\n        /* \"#utility.yul\":12726:12749   */\n      sub\n        /* \"#utility.yul\":12722:12754   */\n      slt\n        /* \"#utility.yul\":12719:12838   */\n      iszero\n      tag_356\n      jumpi\n        /* \"#utility.yul\":12757:12836   */\n      tag_357\n      tag_176\n      jump\t// in\n    tag_357:\n        /* \"#utility.yul\":12719:12838   */\n    tag_356:\n        /* \"#utility.yul\":12877:12878   */\n      0x00\n        /* \"#utility.yul\":12902:12963   */\n      tag_358\n        /* \"#utility.yul\":12955:12962   */\n      dup5\n        /* \"#utility.yul\":12946:12952   */\n      dup3\n        /* \"#utility.yul\":12935:12944   */\n      dup6\n        /* \"#utility.yul\":12931:12953   */\n      add\n        /* \"#utility.yul\":12902:12963   */\n      tag_210\n      jump\t// in\n    tag_358:\n        /* \"#utility.yul\":12892:12963   */\n      swap2\n      pop\n        /* \"#utility.yul\":12848:12973   */\n      pop\n        /* \"#utility.yul\":12635:12980   */\n      swap3\n      swap2\n      pop\n      pop\n      jump\t// out\n        /* \"#utility.yul\":12986:13157   */\n    tag_211:\n        /* \"#utility.yul\":13126:13149   */\n      0x546f6b656e207472616e73666572206661696c65640000000000000000000000\n        /* \"#utility.yul\":13122:13123   */\n      0x00\n        /* \"#utility.yul\":13114:13120   */\n      dup3\n        /* \"#utility.yul\":13110:13124   */\n      add\n        /* \"#utility.yul\":13103:13150   */\n      mstore\n        /* \"#utility.yul\":12986:13157   */\n      pop\n      jump\t// out\n        /* \"#utility.yul\":13163:13529   */\n    tag_212:\n        /* \"#utility.yul\":13305:13308   */\n      0x00\n        /* \"#utility.yul\":13326:13393   */\n      tag_361\n        /* \"#utility.yul\":13390:13392   */\n      0x15\n        /* \"#utility.yul\":13385:13388   */\n      dup4\n        /* \"#utility.yul\":13326:13393   */\n      tag_198\n      jump\t// in\n    tag_361:\n        /* \"#utility.yul\":13319:13393   */\n      swap2\n      pop\n        /* \"#utility.yul\":13402:13495   */\n      tag_362\n        /* \"#utility.yul\":13491:13494   */\n      dup3\n        /* \"#utility.yul\":13402:13495   */\n      tag_211\n      jump\t// in\n    tag_362:\n        /* \"#utility.yul\":13520:13522   */\n      0x20\n        /* \"#utility.yul\":13515:13518   */\n      dup3\n        /* \"#utility.yul\":13511:13523   */\n      add\n        /* \"#utility.yul\":13504:13523   */\n      swap1\n      pop\n        /* \"#utility.yul\":13163:13529   */\n      swap2\n      swap1\n      pop\n      jump\t// out\n        /* \"#utility.yul\":13535:13954   */\n    tag_115:\n        /* \"#utility.yul\":13701:13705   */\n      0x00\n        /* \"#utility.yul\":13739:13741   */\n      0x20\n        /* \"#utility.yul\":13728:13737   */\n      dup3\n        /* \"#utility.yul\":13724:13742   */\n      add\n        /* \"#utility.yul\":13716:13742   */\n      swap1\n      pop\n        /* \"#utility.yul\":13788:13797   */\n      dup2\n        /* \"#utility.yul\":13782:13786   */\n      dup2\n        /* \"#utility.yul\":13778:13798   */\n      sub\n        /* \"#utility.yul\":13774:13775   */\n      0x00\n        /* \"#utility.yul\":13763:13772   */\n      dup4\n        /* \"#utility.yul\":13759:13776   */\n      add\n        /* \"#utility.yul\":13752:13799   */\n      mstore\n        /* \"#utility.yul\":13816:13947   */\n      tag_364\n        /* \"#utility.yul\":13942:13946   */\n      dup2\n        /* \"#utility.yul\":13816:13947   */\n      tag_212\n      jump\t// in\n    tag_364:\n        /* \"#utility.yul\":13808:13947   */\n      swap1\n      pop\n        /* \"#utility.yul\":13535:13954   */\n      swap2\n      swap1\n      pop\n      jump\t// out\n        /* \"#utility.yul\":13960:14045   */\n    tag_213:\n        /* \"#utility.yul\":14005:14012   */\n      0x00\n        /* \"#utility.yul\":14034:14039   */\n      dup2\n        /* \"#utility.yul\":14023:14039   */\n      swap1\n      pop\n        /* \"#utility.yul\":13960:14045   */\n      swap2\n      swap1\n      pop\n      jump\t// out\n        /* \"#utility.yul\":14051:14152   */\n    tag_214:\n        /* \"#utility.yul\":14087:14094   */\n      0x00\n        /* \"#utility.yul\":14127:14145   */\n      0xffffffffffffffff\n        /* \"#utility.yul\":14120:14125   */\n      dup3\n        /* \"#utility.yul\":14116:14146   */\n      and\n        /* \"#utility.yul\":14105:14146   */\n      swap1\n      pop\n        /* \"#utility.yul\":14051:14152   */\n      swap2\n      swap1\n      pop\n      jump\t// out\n        /* \"#utility.yul\":14158:14314   */\n    tag_215:\n        /* \"#utility.yul\":14215:14224   */\n      0x00\n        /* \"#utility.yul\":14248:14308   */\n      tag_368\n        /* \"#utility.yul\":14265:14307   */\n      tag_369\n        /* \"#utility.yul\":14274:14306   */\n      tag_370\n        /* \"#utility.yul\":14300:14305   */\n      dup5\n        /* \"#utility.yul\":14274:14306   */\n      tag_213\n      jump\t// in\n    tag_370:\n        /* \"#utility.yul\":14265:14307   */\n      tag_185\n      jump\t// in\n    tag_369:\n        /* \"#utility.yul\":14248:14308   */\n      tag_214\n      jump\t// in\n    tag_368:\n        /* \"#utility.yul\":14235:14308   */\n      swap1\n      pop\n        /* \"#utility.yul\":14158:14314   */\n      swap2\n      swap1\n      pop\n      jump\t// out\n        /* \"#utility.yul\":14320:14465   */\n    tag_216:\n        /* \"#utility.yul\":14414:14458   */\n      tag_372\n        /* \"#utility.yul\":14452:14457   */\n      dup2\n        /* \"#utility.yul\":14414:14458   */\n      tag_215\n      jump\t// in\n    tag_372:\n        /* \"#utility.yul\":14409:14412   */\n      dup3\n        /* \"#utility.yul\":14402:14459   */\n      mstore\n        /* \"#utility.yul\":14320:14465   */\n      pop\n      pop\n      jump\t// out\n        /* \"#utility.yul\":14471:14707   */\n    tag_130:\n        /* \"#utility.yul\":14571:14575   */\n      0x00\n        /* \"#utility.yul\":14609:14611   */\n      0x20\n        /* \"#utility.yul\":14598:14607   */\n      dup3\n        /* \"#utility.yul\":14594:14612   */\n      add\n        /* \"#utility.yul\":14586:14612   */\n      swap1\n      pop\n        /* \"#utility.yul\":14622:14700   */\n      tag_374\n        /* \"#utility.yul\":14697:14698   */\n      0x00\n        /* \"#utility.yul\":14686:14695   */\n      dup4\n        /* \"#utility.yul\":14682:14699   */\n      add\n        /* \"#utility.yul\":14673:14679   */\n      dup5\n        /* \"#utility.yul\":14622:14700   */\n      tag_216\n      jump\t// in\n    tag_374:\n        /* \"#utility.yul\":14471:14707   */\n      swap3\n      swap2\n      pop\n      pop\n      jump\t// out\n\n    auxdata: 0xa2646970667358221220b173a8494843163402c4f60c4abce281dcec32739684fda73d5bc7d29f574bde64736f6c634300081e0033\n}\n",
				"bytecode": {
					"linkReferences": {},
					"object": "6080604052348015600e575f5ffd5b506113c78061001c5f395ff3fe608060405234801561000f575f5ffd5b50600436106100b2575f3560e01c8063b1a5232e1161006f578063b1a5232e14610166578063de5b71f714610184578063e4a30116146101a0578063f2fde38b146101bc578063f7c618c1146101d8578063fe95fc1a146101f6576100b2565b806326232a2e146100b657806349880782146100d4578063715018a6146100f25780638aee8127146100fc5780638da5cb5b14610118578063a18f07a014610136575b5f5ffd5b6100be610212565b6040516100cb9190610c4b565b60405180910390f35b6100dc610217565b6040516100e99190610c4b565b60405180910390f35b6100fa61021d565b005b61011660048036038101906101119190610cc2565b610230565b005b61012061027b565b60405161012d9190610cfc565b60405180910390f35b610150600480360381019061014b9190610d3f565b6102b0565b60405161015d9190610c4b565b60405180910390f35b61016e61034e565b60405161017b9190610cfc565b60405180910390f35b61019e60048036038101906101999190610d7d565b610373565b005b6101ba60048036038101906101b59190610dcd565b6106f8565b005b6101d660048036038101906101d19190610cc2565b610887565b005b6101e061090b565b6040516101ed9190610e66565b60405180910390f35b610210600480360381019061020b9190610cc2565b610930565b005b5f5481565b60015481565b61022561097b565b61022e5f610a02565b565b61023861097b565b8060025f6101000a81548173ffffffffffffffffffffffffffffffffffffffff021916908373ffffffffffffffffffffffffffffffffffffffff16021790555050565b5f5f610285610ad3565b9050805f015f9054906101000a900473ffffffffffffffffffffffffffffffffffffffff1691505090565b5f5f6127105f54856102c29190610eac565b6102cc9190610f1a565b90505f60016064836102de9190610f1a565b6102e89190610f4a565b8442876040516020016102fd93929190610fe2565b604051602081830303815290604052805190602001205f1c61031f919061101e565b90505f818361032e9190610f4a565b9050600154811161033f5780610343565b6001545b935050505092915050565b60035f9054906101000a900473ffffffffffffffffffffffffffffffffffffffff1681565b61037b61027b565b73ffffffffffffffffffffffffffffffffffffffff163373ffffffffffffffffffffffffffffffffffffffff161480610400575060035f9054906101000a900473ffffffffffffffffffffffffffffffffffffffff1673ffffffffffffffffffffffffffffffffffffffff163373ffffffffffffffffffffffffffffffffffffffff16145b61043f576040517f08c379a0000000000000000000000000000000000000000000000000000000008152600401610436906110a8565b60405180910390fd5b5f73ffffffffffffffffffffffffffffffffffffffff168373ffffffffffffffffffffffffffffffffffffffff16036104ad576040517f08c379a00000000000000000000000000000000000000000000000000000000081526004016104a490611110565b60405180910390fd5b5f82116104ef576040517f08c379a00000000000000000000000000000000000000000000000000000000081526004016104e690611178565b60405180910390fd5b8060025f9054906101000a900473ffffffffffffffffffffffffffffffffffffffff1673ffffffffffffffffffffffffffffffffffffffff166370a08231306040518263ffffffff1660e01b815260040161054a9190610cfc565b602060405180830381865afa158015610565573d5f5f3e3d5ffd5b505050506040513d601f19601f8201168201806040525081019061058991906111aa565b10156105ca576040517f08c379a00000000000000000000000000000000000000000000000000000000081526004016105c19061121f565b60405180910390fd5b60025f9054906101000a900473ffffffffffffffffffffffffffffffffffffffff1673ffffffffffffffffffffffffffffffffffffffff1663a9059cbb84836040518363ffffffff1660e01b815260040161062692919061123d565b6020604051808303815f875af1158015610642573d5f5f3e3d5ffd5b505050506040513d601f19601f820116820180604052508101906106669190611299565b6106a5576040517f08c379a000000000000000000000000000000000000000000000000000000000815260040161069c9061130e565b60405180910390fd5b8273ffffffffffffffffffffffffffffffffffffffff167fe34918ff1c7084970068b53fd71ad6d8b04e9f15d3886cbf006443e6cdc52ea6826040516106eb9190610c4b565b60405180910390a2505050565b5f610701610afa565b90505f815f0160089054906101000a900460ff161590505f825f015f9054906101000a900467ffffffffffffffff1690505f5f8267ffffffffffffffff161480156107495750825b90505f60018367ffffffffffffffff1614801561077c57505f3073ffffffffffffffffffffffffffffffffffffffff163b145b90508115801561078a575080155b156107c1576040517ff92ee8a900000000000000000000000000000000000000000000000000000000815260040160405180910390fd5b6001855f015f6101000a81548167ffffffffffffffff021916908367ffffffffffffffff160217905550831561080e576001855f0160086101000a81548160ff0219169083151502179055505b61081733610b0d565b865f8190555085600181905550831561087e575f855f0160086101000a81548160ff0219169083151502179055507fc7f505b2f371ae2175ee4913f4499e1f2633a7b5936321eed1cdaeb6115181d260016040516108759190611378565b60405180910390a15b50505050505050565b61088f61097b565b5f73ffffffffffffffffffffffffffffffffffffffff168173ffffffffffffffffffffffffffffffffffffffff16036108ff575f6040517f1e4fbdf70000000000000000000000000000000000000000000000000000000081526004016108f69190610cfc565b60405180910390fd5b61090881610a02565b50565b60025f9054906101000a900473ffffffffffffffffffffffffffffffffffffffff1681565b61093861097b565b8060035f6101000a81548173ffffffffffffffffffffffffffffffffffffffff021916908373ffffffffffffffffffffffffffffffffffffffff16021790555050565b610983610b21565b73ffffffffffffffffffffffffffffffffffffffff166109a161027b565b73ffffffffffffffffffffffffffffffffffffffff1614610a00576109c4610b21565b6040517f118cdaa70000000000000000000000000000000000000000000000000000000081526004016109f79190610cfc565b60405180910390fd5b565b5f610a0b610ad3565b90505f815f015f9054906101000a900473ffffffffffffffffffffffffffffffffffffffff16905082825f015f6101000a81548173ffffffffffffffffffffffffffffffffffffffff021916908373ffffffffffffffffffffffffffffffffffffffff1602179055508273ffffffffffffffffffffffffffffffffffffffff168173ffffffffffffffffffffffffffffffffffffffff167f8be0079c531659141344cd1fd0a4f28419497f9722a3daafe3b4186f6b6457e060405160405180910390a3505050565b5f7f9016d09d72d40fdae2fd8ceac6b6234c7706214fd39c1cd1e609a0528c199300905090565b5f5f610b04610b28565b90508091505090565b610b15610b51565b610b1e81610b91565b50565b5f33905090565b5f7ff0c57e16840df040f15088dc2f81fe391c3923bec73e23a9662efc9c229c6a005f1b905090565b610b59610c15565b610b8f576040517fd7e6bcf800000000000000000000000000000000000000000000000000000000815260040160405180910390fd5b565b610b99610b51565b5f73ffffffffffffffffffffffffffffffffffffffff168173ffffffffffffffffffffffffffffffffffffffff1603610c09575f6040517f1e4fbdf7000000000000000000000000000000000000000000000000000000008152600401610c009190610cfc565b60405180910390fd5b610c1281610a02565b50565b5f610c1e610afa565b5f0160089054906101000a900460ff16905090565b5f819050919050565b610c4581610c33565b82525050565b5f602082019050610c5e5f830184610c3c565b92915050565b5f5ffd5b5f73ffffffffffffffffffffffffffffffffffffffff82169050919050565b5f610c9182610c68565b9050919050565b610ca181610c87565b8114610cab575f5ffd5b50565b5f81359050610cbc81610c98565b92915050565b5f60208284031215610cd757610cd6610c64565b5b5f610ce484828501610cae565b91505092915050565b610cf681610c87565b82525050565b5f602082019050610d0f5f830184610ced565b92915050565b610d1e81610c33565b8114610d28575f5ffd5b50565b5f81359050610d3981610d15565b92915050565b5f5f60408385031215610d5557610d54610c64565b5b5f610d6285828601610d2b565b9250506020610d7385828601610cae565b9150509250929050565b5f5f5f60608486031215610d9457610d93610c64565b5b5f610da186828701610cae565b9350506020610db286828701610d2b565b9250506040610dc386828701610d2b565b9150509250925092565b5f5f60408385031215610de357610de2610c64565b5b5f610df085828601610d2b565b9250506020610e0185828601610d2b565b9150509250929050565b5f819050919050565b5f610e2e610e29610e2484610c68565b610e0b565b610c68565b9050919050565b5f610e3f82610e14565b9050919050565b5f610e5082610e35565b9050919050565b610e6081610e46565b82525050565b5f602082019050610e795f830184610e57565b92915050565b7f4e487b71000000000000000000000000000000000000000000000000000000005f52601160045260245ffd5b5f610eb682610c33565b9150610ec183610c33565b9250828202610ecf81610c33565b91508282048414831517610ee657610ee5610e7f565b5b5092915050565b7f4e487b71000000000000000000000000000000000000000000000000000000005f52601260045260245ffd5b5f610f2482610c33565b9150610f2f83610c33565b925082610f3f57610f3e610eed565b5b828204905092915050565b5f610f5482610c33565b9150610f5f83610c33565b9250828201905080821115610f7757610f76610e7f565b5b92915050565b5f8160601b9050919050565b5f610f9382610f7d565b9050919050565b5f610fa482610f89565b9050919050565b610fbc610fb782610c87565b610f9a565b82525050565b5f819050919050565b610fdc610fd782610c33565b610fc2565b82525050565b5f610fed8286610fab565b601482019150610ffd8285610fcb565b60208201915061100d8284610fcb565b602082019150819050949350505050565b5f61102882610c33565b915061103383610c33565b92508261104357611042610eed565b5b828206905092915050565b5f82825260208201905092915050565b7f4e6f7420617574686f72697a65640000000000000000000000000000000000005f82015250565b5f611092600e8361104e565b915061109d8261105e565b602082019050919050565b5f6020820190508181035f8301526110bf81611086565b9050919050565b7f43616e6e6f7420726577617264207a65726f20616464726573730000000000005f82015250565b5f6110fa601a8361104e565b9150611105826110c6565b602082019050919050565b5f6020820190508181035f830152611127816110ee565b9050919050565b7f416d6f756e74206d757374206265203e203000000000000000000000000000005f82015250565b5f61116260128361104e565b915061116d8261112e565b602082019050919050565b5f6020820190508181035f83015261118f81611156565b9050919050565b5f815190506111a481610d15565b92915050565b5f602082840312156111bf576111be610c64565b5b5f6111cc84828501611196565b91505092915050565b7f496e73756666696369656e74207265776172642062616c616e636500000000005f82015250565b5f611209601b8361104e565b9150611214826111d5565b602082019050919050565b5f6020820190508181035f830152611236816111fd565b9050919050565b5f6040820190506112505f830185610ced565b61125d6020830184610c3c565b9392505050565b5f8115159050919050565b61127881611264565b8114611282575f5ffd5b50565b5f815190506112938161126f565b92915050565b5f602082840312156112ae576112ad610c64565b5b5f6112bb84828501611285565b91505092915050565b7f546f6b656e207472616e73666572206661696c656400000000000000000000005f82015250565b5f6112f860158361104e565b9150611303826112c4565b602082019050919050565b5f6020820190508181035f830152611325816112ec565b9050919050565b5f819050919050565b5f67ffffffffffffffff82169050919050565b5f61136261135d6113588461132c565b610e0b565b611335565b9050919050565b61137281611348565b82525050565b5f60208201905061138b5f830184611369565b9291505056fea2646970667358221220b173a8494843163402c4f60c4abce281dcec32739684fda73d5bc7d29f574bde64736f6c634300081e0033",
					"opcodes": "PUSH1 0x80 PUSH1 0x40 MSTORE CALLVALUE DUP1 ISZERO PUSH1 0xE JUMPI PUSH0 PUSH0 REVERT JUMPDEST POP PUSH2 0x13C7 DUP1 PUSH2 0x1C PUSH0 CODECOPY PUSH0 RETURN INVALID PUSH1 0x80 PUSH1 0x40 MSTORE CALLVALUE DUP1 ISZERO PUSH2 0xF JUMPI PUSH0 PUSH0 REVERT JUMPDEST POP PUSH1 0x4 CALLDATASIZE LT PUSH2 0xB2 JUMPI PUSH0 CALLDATALOAD PUSH1 0xE0 SHR DUP1 PUSH4 0xB1A5232E GT PUSH2 0x6F JUMPI DUP1 PUSH4 0xB1A5232E EQ PUSH2 0x166 JUMPI DUP1 PUSH4 0xDE5B71F7 EQ PUSH2 0x184 JUMPI DUP1 PUSH4 0xE4A30116 EQ PUSH2 0x1A0 JUMPI DUP1 PUSH4 0xF2FDE38B EQ PUSH2 0x1BC JUMPI DUP1 PUSH4 0xF7C618C1 EQ PUSH2 0x1D8 JUMPI DUP1 PUSH4 0xFE95FC1A EQ PUSH2 0x1F6 JUMPI PUSH2 0xB2 JUMP JUMPDEST DUP1 PUSH4 0x26232A2E EQ PUSH2 0xB6 JUMPI DUP1 PUSH4 0x49880782 EQ PUSH2 0xD4 JUMPI DUP1 PUSH4 0x715018A6 EQ PUSH2 0xF2 JUMPI DUP1 PUSH4 0x8AEE8127 EQ PUSH2 0xFC JUMPI DUP1 PUSH4 0x8DA5CB5B EQ PUSH2 0x118 JUMPI DUP1 PUSH4 0xA18F07A0 EQ PUSH2 0x136 JUMPI JUMPDEST PUSH0 PUSH0 REVERT JUMPDEST PUSH2 0xBE PUSH2 0x212 JUMP JUMPDEST PUSH1 0x40 MLOAD PUSH2 0xCB SWAP2 SWAP1 PUSH2 0xC4B JUMP JUMPDEST PUSH1 0x40 MLOAD DUP1 SWAP2 SUB SWAP1 RETURN JUMPDEST PUSH2 0xDC PUSH2 0x217 JUMP JUMPDEST PUSH1 0x40 MLOAD PUSH2 0xE9 SWAP2 SWAP1 PUSH2 0xC4B JUMP JUMPDEST PUSH1 0x40 MLOAD DUP1 SWAP2 SUB SWAP1 RETURN JUMPDEST PUSH2 0xFA PUSH2 0x21D JUMP JUMPDEST STOP JUMPDEST PUSH2 0x116 PUSH1 0x4 DUP1 CALLDATASIZE SUB DUP2 ADD SWAP1 PUSH2 0x111 SWAP2 SWAP1 PUSH2 0xCC2 JUMP JUMPDEST PUSH2 0x230 JUMP JUMPDEST STOP JUMPDEST PUSH2 0x120 PUSH2 0x27B JUMP JUMPDEST PUSH1 0x40 MLOAD PUSH2 0x12D SWAP2 SWAP1 PUSH2 0xCFC JUMP JUMPDEST PUSH1 0x40 MLOAD DUP1 SWAP2 SUB SWAP1 RETURN JUMPDEST PUSH2 0x150 PUSH1 0x4 DUP1 CALLDATASIZE SUB DUP2 ADD SWAP1 PUSH2 0x14B SWAP2 SWAP1 PUSH2 0xD3F JUMP JUMPDEST PUSH2 0x2B0 JUMP JUMPDEST PUSH1 0x40 MLOAD PUSH2 0x15D SWAP2 SWAP1 PUSH2 0xC4B JUMP JUMPDEST PUSH1 0x40 MLOAD DUP1 SWAP2 SUB SWAP1 RETURN JUMPDEST PUSH2 0x16E PUSH2 0x34E JUMP JUMPDEST PUSH1 0x40 MLOAD PUSH2 0x17B SWAP2 SWAP1 PUSH2 0xCFC JUMP JUMPDEST PUSH1 0x40 MLOAD DUP1 SWAP2 SUB SWAP1 RETURN JUMPDEST PUSH2 0x19E PUSH1 0x4 DUP1 CALLDATASIZE SUB DUP2 ADD SWAP1 PUSH2 0x199 SWAP2 SWAP1 PUSH2 0xD7D JUMP JUMPDEST PUSH2 0x373 JUMP JUMPDEST STOP JUMPDEST PUSH2 0x1BA PUSH1 0x4 DUP1 CALLDATASIZE SUB DUP2 ADD SWAP1 PUSH2 0x1B5 SWAP2 SWAP1 PUSH2 0xDCD JUMP JUMPDEST PUSH2 0x6F8 JUMP JUMPDEST STOP JUMPDEST PUSH2 0x1D6 PUSH1 0x4 DUP1 CALLDATASIZE SUB DUP2 ADD SWAP1 PUSH2 0x1D1 SWAP2 SWAP1 PUSH2 0xCC2 JUMP JUMPDEST PUSH2 0x887 JUMP JUMPDEST STOP JUMPDEST PUSH2 0x1E0 PUSH2 0x90B JUMP JUMPDEST PUSH1 0x40 MLOAD PUSH2 0x1ED SWAP2 SWAP1 PUSH2 0xE66 JUMP JUMPDEST PUSH1 0x40 MLOAD DUP1 SWAP2 SUB SWAP1 RETURN JUMPDEST PUSH2 0x210 PUSH1 0x4 DUP1 CALLDATASIZE SUB DUP2 ADD SWAP1 PUSH2 0x20B SWAP2 SWAP1 PUSH2 0xCC2 JUMP JUMPDEST PUSH2 0x930 JUMP JUMPDEST STOP JUMPDEST PUSH0 SLOAD DUP2 JUMP JUMPDEST PUSH1 0x1 SLOAD DUP2 JUMP JUMPDEST PUSH2 0x225 PUSH2 0x97B JUMP JUMPDEST PUSH2 0x22E PUSH0 PUSH2 0xA02 JUMP JUMPDEST JUMP JUMPDEST PUSH2 0x238 PUSH2 0x97B JUMP JUMPDEST DUP1 PUSH1 0x2 PUSH0 PUSH2 0x100 EXP DUP2 SLOAD DUP2 PUSH20 0xFFFFFFFFFFFFFFFFFFFFFFFFFFFFFFFFFFFFFFFF MUL NOT AND SWAP1 DUP4 PUSH20 0xFFFFFFFFFFFFFFFFFFFFFFFFFFFFFFFFFFFFFFFF AND MUL OR SWAP1 SSTORE POP POP JUMP JUMPDEST PUSH0 PUSH0 PUSH2 0x285 PUSH2 0xAD3 JUMP JUMPDEST SWAP1 POP DUP1 PUSH0 ADD PUSH0 SWAP1 SLOAD SWAP1 PUSH2 0x100 EXP SWAP1 DIV PUSH20 0xFFFFFFFFFFFFFFFFFFFFFFFFFFFFFFFFFFFFFFFF AND SWAP2 POP POP SWAP1 JUMP JUMPDEST PUSH0 PUSH0 PUSH2 0x2710 PUSH0 SLOAD DUP6 PUSH2 0x2C2 SWAP2 SWAP1 PUSH2 0xEAC JUMP JUMPDEST PUSH2 0x2CC SWAP2 SWAP1 PUSH2 0xF1A JUMP JUMPDEST SWAP1 POP PUSH0 PUSH1 0x1 PUSH1 0x64 DUP4 PUSH2 0x2DE SWAP2 SWAP1 PUSH2 0xF1A JUMP JUMPDEST PUSH2 0x2E8 SWAP2 SWAP1 PUSH2 0xF4A JUMP JUMPDEST DUP5 TIMESTAMP DUP8 PUSH1 0x40 MLOAD PUSH1 0x20 ADD PUSH2 0x2FD SWAP4 SWAP3 SWAP2 SWAP1 PUSH2 0xFE2 JUMP JUMPDEST PUSH1 0x40 MLOAD PUSH1 0x20 DUP2 DUP4 SUB SUB DUP2 MSTORE SWAP1 PUSH1 0x40 MSTORE DUP1 MLOAD SWAP1 PUSH1 0x20 ADD KECCAK256 PUSH0 SHR PUSH2 0x31F SWAP2 SWAP1 PUSH2 0x101E JUMP JUMPDEST SWAP1 POP PUSH0 DUP2 DUP4 PUSH2 0x32E SWAP2 SWAP1 PUSH2 0xF4A JUMP JUMPDEST SWAP1 POP PUSH1 0x1 SLOAD DUP2 GT PUSH2 0x33F JUMPI DUP1 PUSH2 0x343 JUMP JUMPDEST PUSH1 0x1 SLOAD JUMPDEST SWAP4 POP POP POP POP SWAP3 SWAP2 POP POP JUMP JUMPDEST PUSH1 0x3 PUSH0 SWAP1 SLOAD SWAP1 PUSH2 0x100 EXP SWAP1 DIV PUSH20 0xFFFFFFFFFFFFFFFFFFFFFFFFFFFFFFFFFFFFFFFF AND DUP2 JUMP JUMPDEST PUSH2 0x37B PUSH2 0x27B JUMP JUMPDEST PUSH20 0xFFFFFFFFFFFFFFFFFFFFFFFFFFFFFFFFFFFFFFFF AND CALLER PUSH20 0xFFFFFFFFFFFFFFFFFFFFFFFFFFFFFFFFFFFFFFFF AND EQ DUP1 PUSH2 0x400 JUMPI POP PUSH1 0x3 PUSH0 SWAP1 SLOAD SWAP1 PUSH2 0x100 EXP SWAP1 DIV PUSH20 0xFFFFFFFFFFFFFFFFFFFFFFFFFFFFFFFFFFFFFFFF AND PUSH20 0xFFFFFFFFFFFFFFFFFFFFFFFFFFFFFFFFFFFFFFFF AND CALLER PUSH20 0xFFFFFFFFFFFFFFFFFFFFFFFFFFFFFFFFFFFFFFFF AND EQ JUMPDEST PUSH2 0x43F JUMPI PUSH1 0x40 MLOAD PUSH32 0x8C379A000000000000000000000000000000000000000000000000000000000 DUP2 MSTORE PUSH1 0x4 ADD PUSH2 0x436 SWAP1 PUSH2 0x10A8 JUMP JUMPDEST PUSH1 0x40 MLOAD DUP1 SWAP2 SUB SWAP1 REVERT JUMPDEST PUSH0 PUSH20 0xFFFFFFFFFFFFFFFFFFFFFFFFFFFFFFFFFFFFFFFF AND DUP4 PUSH20 0xFFFFFFFFFFFFFFFFFFFFFFFFFFFFFFFFFFFFFFFF AND SUB PUSH2 0x4AD JUMPI PUSH1 0x40 MLOAD PUSH32 0x8C379A000000000000000000000000000000000000000000000000000000000 DUP2 MSTORE PUSH1 0x4 ADD PUSH2 0x4A4 SWAP1 PUSH2 0x1110 JUMP JUMPDEST PUSH1 0x40 MLOAD DUP1 SWAP2 SUB SWAP1 REVERT JUMPDEST PUSH0 DUP3 GT PUSH2 0x4EF JUMPI PUSH1 0x40 MLOAD PUSH32 0x8C379A000000000000000000000000000000000000000000000000000000000 DUP2 MSTORE PUSH1 0x4 ADD PUSH2 0x4E6 SWAP1 PUSH2 0x1178 JUMP JUMPDEST PUSH1 0x40 MLOAD DUP1 SWAP2 SUB SWAP1 REVERT JUMPDEST DUP1 PUSH1 0x2 PUSH0 SWAP1 SLOAD SWAP1 PUSH2 0x100 EXP SWAP1 DIV PUSH20 0xFFFFFFFFFFFFFFFFFFFFFFFFFFFFFFFFFFFFFFFF AND PUSH20 0xFFFFFFFFFFFFFFFFFFFFFFFFFFFFFFFFFFFFFFFF AND PUSH4 0x70A08231 ADDRESS PUSH1 0x40 MLOAD DUP3 PUSH4 0xFFFFFFFF AND PUSH1 0xE0 SHL DUP2 MSTORE PUSH1 0x4 ADD PUSH2 0x54A SWAP2 SWAP1 PUSH2 0xCFC JUMP JUMPDEST PUSH1 0x20 PUSH1 0x40 MLOAD DUP1 DUP4 SUB DUP2 DUP7 GAS STATICCALL ISZERO DUP1 ISZERO PUSH2 0x565 JUMPI RETURNDATASIZE PUSH0 PUSH0 RETURNDATACOPY RETURNDATASIZE PUSH0 REVERT JUMPDEST POP POP POP POP PUSH1 0x40 MLOAD RETURNDATASIZE PUSH1 0x1F NOT PUSH1 0x1F DUP3 ADD AND DUP3 ADD DUP1 PUSH1 0x40 MSTORE POP DUP2 ADD SWAP1 PUSH2 0x589 SWAP2 SWAP1 PUSH2 0x11AA JUMP JUMPDEST LT ISZERO PUSH2 0x5CA JUMPI PUSH1 0x40 MLOAD PUSH32 0x8C379A000000000000000000000000000000000000000000000000000000000 DUP2 MSTORE PUSH1 0x4 ADD PUSH2 0x5C1 SWAP1 PUSH2 0x121F JUMP JUMPDEST PUSH1 0x40 MLOAD DUP1 SWAP2 SUB SWAP1 REVERT JUMPDEST PUSH1 0x2 PUSH0 SWAP1 SLOAD SWAP1 PUSH2 0x100 EXP SWAP1 DIV PUSH20 0xFFFFFFFFFFFFFFFFFFFFFFFFFFFFFFFFFFFFFFFF AND PUSH20 0xFFFFFFFFFFFFFFFFFFFFFFFFFFFFFFFFFFFFFFFF AND PUSH4 0xA9059CBB DUP5 DUP4 PUSH1 0x40 MLOAD DUP4 PUSH4 0xFFFFFFFF AND PUSH1 0xE0 SHL DUP2 MSTORE PUSH1 0x4 ADD PUSH2 0x626 SWAP3 SWAP2 SWAP1 PUSH2 0x123D JUMP JUMPDEST PUSH1 0x20 PUSH1 0x40 MLOAD DUP1 DUP4 SUB DUP2 PUSH0 DUP8 GAS CALL ISZERO DUP1 ISZERO PUSH2 0x642 JUMPI RETURNDATASIZE PUSH0 PUSH0 RETURNDATACOPY RETURNDATASIZE PUSH0 REVERT JUMPDEST POP POP POP POP PUSH1 0x40 MLOAD RETURNDATASIZE PUSH1 0x1F NOT PUSH1 0x1F DUP3 ADD AND DUP3 ADD DUP1 PUSH1 0x40 MSTORE POP DUP2 ADD SWAP1 PUSH2 0x666 SWAP2 SWAP1 PUSH2 0x1299 JUMP JUMPDEST PUSH2 0x6A5 JUMPI PUSH1 0x40 MLOAD PUSH32 0x8C379A000000000000000000000000000000000000000000000000000000000 DUP2 MSTORE PUSH1 0x4 ADD PUSH2 0x69C SWAP1 PUSH2 0x130E JUMP JUMPDEST PUSH1 0x40 MLOAD DUP1 SWAP2 SUB SWAP1 REVERT JUMPDEST DUP3 PUSH20 0xFFFFFFFFFFFFFFFFFFFFFFFFFFFFFFFFFFFFFFFF AND PUSH32 0xE34918FF1C7084970068B53FD71AD6D8B04E9F15D3886CBF006443E6CDC52EA6 DUP3 PUSH1 0x40 MLOAD PUSH2 0x6EB SWAP2 SWAP1 PUSH2 0xC4B JUMP JUMPDEST PUSH1 0x40 MLOAD DUP1 SWAP2 SUB SWAP1 LOG2 POP POP POP JUMP JUMPDEST PUSH0 PUSH2 0x701 PUSH2 0xAFA JUMP JUMPDEST SWAP1 POP PUSH0 DUP2 PUSH0 ADD PUSH1 0x8 SWAP1 SLOAD SWAP1 PUSH2 0x100 EXP SWAP1 DIV PUSH1 0xFF AND ISZERO SWAP1 POP PUSH0 DUP3 PUSH0 ADD PUSH0 SWAP1 SLOAD SWAP1 PUSH2 0x100 EXP SWAP1 DIV PUSH8 0xFFFFFFFFFFFFFFFF AND SWAP1 POP PUSH0 PUSH0 DUP3 PUSH8 0xFFFFFFFFFFFFFFFF AND EQ DUP1 ISZERO PUSH2 0x749 JUMPI POP DUP3 JUMPDEST SWAP1 POP PUSH0 PUSH1 0x1 DUP4 PUSH8 0xFFFFFFFFFFFFFFFF AND EQ DUP1 ISZERO PUSH2 0x77C JUMPI POP PUSH0 ADDRESS PUSH20 0xFFFFFFFFFFFFFFFFFFFFFFFFFFFFFFFFFFFFFFFF AND EXTCODESIZE EQ JUMPDEST SWAP1 POP DUP2 ISZERO DUP1 ISZERO PUSH2 0x78A JUMPI POP DUP1 ISZERO JUMPDEST ISZERO PUSH2 0x7C1 JUMPI PUSH1 0x40 MLOAD PUSH32 0xF92EE8A900000000000000000000000000000000000000000000000000000000 DUP2 MSTORE PUSH1 0x4 ADD PUSH1 0x40 MLOAD DUP1 SWAP2 SUB SWAP1 REVERT JUMPDEST PUSH1 0x1 DUP6 PUSH0 ADD PUSH0 PUSH2 0x100 EXP DUP2 SLOAD DUP2 PUSH8 0xFFFFFFFFFFFFFFFF MUL NOT AND SWAP1 DUP4 PUSH8 0xFFFFFFFFFFFFFFFF AND MUL OR SWAP1 SSTORE POP DUP4 ISZERO PUSH2 0x80E JUMPI PUSH1 0x1 DUP6 PUSH0 ADD PUSH1 0x8 PUSH2 0x100 EXP DUP2 SLOAD DUP2 PUSH1 0xFF MUL NOT AND SWAP1 DUP4 ISZERO ISZERO MUL OR SWAP1 SSTORE POP JUMPDEST PUSH2 0x817 CALLER PUSH2 0xB0D JUMP JUMPDEST DUP7 PUSH0 DUP2 SWAP1 SSTORE POP DUP6 PUSH1 0x1 DUP2 SWAP1 SSTORE POP DUP4 ISZERO PUSH2 0x87E JUMPI PUSH0 DUP6 PUSH0 ADD PUSH1 0x8 PUSH2 0x100 EXP DUP2 SLOAD DUP2 PUSH1 0xFF MUL NOT AND SWAP1 DUP4 ISZERO ISZERO MUL OR SWAP1 SSTORE POP PUSH32 0xC7F505B2F371AE2175EE4913F4499E1F2633A7B5936321EED1CDAEB6115181D2 PUSH1 0x1 PUSH1 0x40 MLOAD PUSH2 0x875 SWAP2 SWAP1 PUSH2 0x1378 JUMP JUMPDEST PUSH1 0x40 MLOAD DUP1 SWAP2 SUB SWAP1 LOG1 JUMPDEST POP POP POP POP POP POP POP JUMP JUMPDEST PUSH2 0x88F PUSH2 0x97B JUMP JUMPDEST PUSH0 PUSH20 0xFFFFFFFFFFFFFFFFFFFFFFFFFFFFFFFFFFFFFFFF AND DUP2 PUSH20 0xFFFFFFFFFFFFFFFFFFFFFFFFFFFFFFFFFFFFFFFF AND SUB PUSH2 0x8FF JUMPI PUSH0 PUSH1 0x40 MLOAD PUSH32 0x1E4FBDF700000000000000000000000000000000000000000000000000000000 DUP2 MSTORE PUSH1 0x4 ADD PUSH2 0x8F6 SWAP2 SWAP1 PUSH2 0xCFC JUMP JUMPDEST PUSH1 0x40 MLOAD DUP1 SWAP2 SUB SWAP1 REVERT JUMPDEST PUSH2 0x908 DUP2 PUSH2 0xA02 JUMP JUMPDEST POP JUMP JUMPDEST PUSH1 0x2 PUSH0 SWAP1 SLOAD SWAP1 PUSH2 0x100 EXP SWAP1 DIV PUSH20 0xFFFFFFFFFFFFFFFFFFFFFFFFFFFFFFFFFFFFFFFF AND DUP2 JUMP JUMPDEST PUSH2 0x938 PUSH2 0x97B JUMP JUMPDEST DUP1 PUSH1 0x3 PUSH0 PUSH2 0x100 EXP DUP2 SLOAD DUP2 PUSH20 0xFFFFFFFFFFFFFFFFFFFFFFFFFFFFFFFFFFFFFFFF MUL NOT AND SWAP1 DUP4 PUSH20 0xFFFFFFFFFFFFFFFFFFFFFFFFFFFFFFFFFFFFFFFF AND MUL OR SWAP1 SSTORE POP POP JUMP JUMPDEST PUSH2 0x983 PUSH2 0xB21 JUMP JUMPDEST PUSH20 0xFFFFFFFFFFFFFFFFFFFFFFFFFFFFFFFFFFFFFFFF AND PUSH2 0x9A1 PUSH2 0x27B JUMP JUMPDEST PUSH20 0xFFFFFFFFFFFFFFFFFFFFFFFFFFFFFFFFFFFFFFFF AND EQ PUSH2 0xA00 JUMPI PUSH2 0x9C4 PUSH2 0xB21 JUMP JUMPDEST PUSH1 0x40 MLOAD PUSH32 0x118CDAA700000000000000000000000000000000000000000000000000000000 DUP2 MSTORE PUSH1 0x4 ADD PUSH2 0x9F7 SWAP2 SWAP1 PUSH2 0xCFC JUMP JUMPDEST PUSH1 0x40 MLOAD DUP1 SWAP2 SUB SWAP1 REVERT JUMPDEST JUMP JUMPDEST PUSH0 PUSH2 0xA0B PUSH2 0xAD3 JUMP JUMPDEST SWAP1 POP PUSH0 DUP2 PUSH0 ADD PUSH0 SWAP1 SLOAD SWAP1 PUSH2 0x100 EXP SWAP1 DIV PUSH20 0xFFFFFFFFFFFFFFFFFFFFFFFFFFFFFFFFFFFFFFFF AND SWAP1 POP DUP3 DUP3 PUSH0 ADD PUSH0 PUSH2 0x100 EXP DUP2 SLOAD DUP2 PUSH20 0xFFFFFFFFFFFFFFFFFFFFFFFFFFFFFFFFFFFFFFFF MUL NOT AND SWAP1 DUP4 PUSH20 0xFFFFFFFFFFFFFFFFFFFFFFFFFFFFFFFFFFFFFFFF AND MUL OR SWAP1 SSTORE POP DUP3 PUSH20 0xFFFFFFFFFFFFFFFFFFFFFFFFFFFFFFFFFFFFFFFF AND DUP2 PUSH20 0xFFFFFFFFFFFFFFFFFFFFFFFFFFFFFFFFFFFFFFFF AND PUSH32 0x8BE0079C531659141344CD1FD0A4F28419497F9722A3DAAFE3B4186F6B6457E0 PUSH1 0x40 MLOAD PUSH1 0x40 MLOAD DUP1 SWAP2 SUB SWAP1 LOG3 POP POP POP JUMP JUMPDEST PUSH0 PUSH32 0x9016D09D72D40FDAE2FD8CEAC6B6234C7706214FD39C1CD1E609A0528C199300 SWAP1 POP SWAP1 JUMP JUMPDEST PUSH0 PUSH0 PUSH2 0xB04 PUSH2 0xB28 JUMP JUMPDEST SWAP1 POP DUP1 SWAP2 POP POP SWAP1 JUMP JUMPDEST PUSH2 0xB15 PUSH2 0xB51 JUMP JUMPDEST PUSH2 0xB1E DUP2 PUSH2 0xB91 JUMP JUMPDEST POP JUMP JUMPDEST PUSH0 CALLER SWAP1 POP SWAP1 JUMP JUMPDEST PUSH0 PUSH32 0xF0C57E16840DF040F15088DC2F81FE391C3923BEC73E23A9662EFC9C229C6A00 PUSH0 SHL SWAP1 POP SWAP1 JUMP JUMPDEST PUSH2 0xB59 PUSH2 0xC15 JUMP JUMPDEST PUSH2 0xB8F JUMPI PUSH1 0x40 MLOAD PUSH32 0xD7E6BCF800000000000000000000000000000000000000000000000000000000 DUP2 MSTORE PUSH1 0x4 ADD PUSH1 0x40 MLOAD DUP1 SWAP2 SUB SWAP1 REVERT JUMPDEST JUMP JUMPDEST PUSH2 0xB99 PUSH2 0xB51 JUMP JUMPDEST PUSH0 PUSH20 0xFFFFFFFFFFFFFFFFFFFFFFFFFFFFFFFFFFFFFFFF AND DUP2 PUSH20 0xFFFFFFFFFFFFFFFFFFFFFFFFFFFFFFFFFFFFFFFF AND SUB PUSH2 0xC09 JUMPI PUSH0 PUSH1 0x40 MLOAD PUSH32 0x1E4FBDF700000000000000000000000000000000000000000000000000000000 DUP2 MSTORE PUSH1 0x4 ADD PUSH2 0xC00 SWAP2 SWAP1 PUSH2 0xCFC JUMP JUMPDEST PUSH1 0x40 MLOAD DUP1 SWAP2 SUB SWAP1 REVERT JUMPDEST PUSH2 0xC12 DUP2 PUSH2 0xA02 JUMP JUMPDEST POP JUMP JUMPDEST PUSH0 PUSH2 0xC1E PUSH2 0xAFA JUMP JUMPDEST PUSH0 ADD PUSH1 0x8 SWAP1 SLOAD SWAP1 PUSH2 0x100 EXP SWAP1 DIV PUSH1 0xFF AND SWAP1 POP SWAP1 JUMP JUMPDEST PUSH0 DUP2 SWAP1 POP SWAP2 SWAP1 POP JUMP JUMPDEST PUSH2 0xC45 DUP2 PUSH2 0xC33 JUMP JUMPDEST DUP3 MSTORE POP POP JUMP JUMPDEST PUSH0 PUSH1 0x20 DUP3 ADD SWAP1 POP PUSH2 0xC5E PUSH0 DUP4 ADD DUP5 PUSH2 0xC3C JUMP JUMPDEST SWAP3 SWAP2 POP POP JUMP JUMPDEST PUSH0 PUSH0 REVERT JUMPDEST PUSH0 PUSH20 0xFFFFFFFFFFFFFFFFFFFFFFFFFFFFFFFFFFFFFFFF DUP3 AND SWAP1 POP SWAP2 SWAP1 POP JUMP JUMPDEST PUSH0 PUSH2 0xC91 DUP3 PUSH2 0xC68 JUMP JUMPDEST SWAP1 POP SWAP2 SWAP1 POP JUMP JUMPDEST PUSH2 0xCA1 DUP2 PUSH2 0xC87 JUMP JUMPDEST DUP2 EQ PUSH2 0xCAB JUMPI PUSH0 PUSH0 REVERT JUMPDEST POP JUMP JUMPDEST PUSH0 DUP2 CALLDATALOAD SWAP1 POP PUSH2 0xCBC DUP2 PUSH2 0xC98 JUMP JUMPDEST SWAP3 SWAP2 POP POP JUMP JUMPDEST PUSH0 PUSH1 0x20 DUP3 DUP5 SUB SLT ISZERO PUSH2 0xCD7 JUMPI PUSH2 0xCD6 PUSH2 0xC64 JUMP JUMPDEST JUMPDEST PUSH0 PUSH2 0xCE4 DUP5 DUP3 DUP6 ADD PUSH2 0xCAE JUMP JUMPDEST SWAP2 POP POP SWAP3 SWAP2 POP POP JUMP JUMPDEST PUSH2 0xCF6 DUP2 PUSH2 0xC87 JUMP JUMPDEST DUP3 MSTORE POP POP JUMP JUMPDEST PUSH0 PUSH1 0x20 DUP3 ADD SWAP1 POP PUSH2 0xD0F PUSH0 DUP4 ADD DUP5 PUSH2 0xCED JUMP JUMPDEST SWAP3 SWAP2 POP POP JUMP JUMPDEST PUSH2 0xD1E DUP2 PUSH2 0xC33 JUMP JUMPDEST DUP2 EQ PUSH2 0xD28 JUMPI PUSH0 PUSH0 REVERT JUMPDEST POP JUMP JUMPDEST PUSH0 DUP2 CALLDATALOAD SWAP1 POP PUSH2 0xD39 DUP2 PUSH2 0xD15 JUMP JUMPDEST SWAP3 SWAP2 POP POP JUMP JUMPDEST PUSH0 PUSH0 PUSH1 0x40 DUP4 DUP6 SUB SLT ISZERO PUSH2 0xD55 JUMPI PUSH2 0xD54 PUSH2 0xC64 JUMP JUMPDEST JUMPDEST PUSH0 PUSH2 0xD62 DUP6 DUP3 DUP7 ADD PUSH2 0xD2B JUMP JUMPDEST SWAP3 POP POP PUSH1 0x20 PUSH2 0xD73 DUP6 DUP3 DUP7 ADD PUSH2 0xCAE JUMP JUMPDEST SWAP2 POP POP SWAP3 POP SWAP3 SWAP1 POP JUMP JUMPDEST PUSH0 PUSH0 PUSH0 PUSH1 0x60 DUP5 DUP7 SUB SLT ISZERO PUSH2 0xD94 JUMPI PUSH2 0xD93 PUSH2 0xC64 JUMP JUMPDEST JUMPDEST PUSH0 PUSH2 0xDA1 DUP7 DUP3 DUP8 ADD PUSH2 0xCAE JUMP JUMPDEST SWAP4 POP POP PUSH1 0x20 PUSH2 0xDB2 DUP7 DUP3 DUP8 ADD PUSH2 0xD2B JUMP JUMPDEST SWAP3 POP POP PUSH1 0x40 PUSH2 0xDC3 DUP7 DUP3 DUP8 ADD PUSH2 0xD2B JUMP JUMPDEST SWAP2 POP POP SWAP3 POP SWAP3 POP SWAP3 JUMP JUMPDEST PUSH0 PUSH0 PUSH1 0x40 DUP4 DUP6 SUB SLT ISZERO PUSH2 0xDE3 JUMPI PUSH2 0xDE2 PUSH2 0xC64 JUMP JUMPDEST JUMPDEST PUSH0 PUSH2 0xDF0 DUP6 DUP3 DUP7 ADD PUSH2 0xD2B JUMP JUMPDEST SWAP3 POP POP PUSH1 0x20 PUSH2 0xE01 DUP6 DUP3 DUP7 ADD PUSH2 0xD2B JUMP JUMPDEST SWAP2 POP POP SWAP3 POP SWAP3 SWAP1 POP JUMP JUMPDEST PUSH0 DUP2 SWAP1 POP SWAP2 SWAP1 POP JUMP JUMPDEST PUSH0 PUSH2 0xE2E PUSH2 0xE29 PUSH2 0xE24 DUP5 PUSH2 0xC68 JUMP JUMPDEST PUSH2 0xE0B JUMP JUMPDEST PUSH2 0xC68 JUMP JUMPDEST SWAP1 POP SWAP2 SWAP1 POP JUMP JUMPDEST PUSH0 PUSH2 0xE3F DUP3 PUSH2 0xE14 JUMP JUMPDEST SWAP1 POP SWAP2 SWAP1 POP JUMP JUMPDEST PUSH0 PUSH2 0xE50 DUP3 PUSH2 0xE35 JUMP JUMPDEST SWAP1 POP SWAP2 SWAP1 POP JUMP JUMPDEST PUSH2 0xE60 DUP2 PUSH2 0xE46 JUMP JUMPDEST DUP3 MSTORE POP POP JUMP JUMPDEST PUSH0 PUSH1 0x20 DUP3 ADD SWAP1 POP PUSH2 0xE79 PUSH0 DUP4 ADD DUP5 PUSH2 0xE57 JUMP JUMPDEST SWAP3 SWAP2 POP POP JUMP JUMPDEST PUSH32 0x4E487B7100000000000000000000000000000000000000000000000000000000 PUSH0 MSTORE PUSH1 0x11 PUSH1 0x4 MSTORE PUSH1 0x24 PUSH0 REVERT JUMPDEST PUSH0 PUSH2 0xEB6 DUP3 PUSH2 0xC33 JUMP JUMPDEST SWAP2 POP PUSH2 0xEC1 DUP4 PUSH2 0xC33 JUMP JUMPDEST SWAP3 POP DUP3 DUP3 MUL PUSH2 0xECF DUP2 PUSH2 0xC33 JUMP JUMPDEST SWAP2 POP DUP3 DUP3 DIV DUP5 EQ DUP4 ISZERO OR PUSH2 0xEE6 JUMPI PUSH2 0xEE5 PUSH2 0xE7F JUMP JUMPDEST JUMPDEST POP SWAP3 SWAP2 POP POP JUMP JUMPDEST PUSH32 0x4E487B7100000000000000000000000000000000000000000000000000000000 PUSH0 MSTORE PUSH1 0x12 PUSH1 0x4 MSTORE PUSH1 0x24 PUSH0 REVERT JUMPDEST PUSH0 PUSH2 0xF24 DUP3 PUSH2 0xC33 JUMP JUMPDEST SWAP2 POP PUSH2 0xF2F DUP4 PUSH2 0xC33 JUMP JUMPDEST SWAP3 POP DUP3 PUSH2 0xF3F JUMPI PUSH2 0xF3E PUSH2 0xEED JUMP JUMPDEST JUMPDEST DUP3 DUP3 DIV SWAP1 POP SWAP3 SWAP2 POP POP JUMP JUMPDEST PUSH0 PUSH2 0xF54 DUP3 PUSH2 0xC33 JUMP JUMPDEST SWAP2 POP PUSH2 0xF5F DUP4 PUSH2 0xC33 JUMP JUMPDEST SWAP3 POP DUP3 DUP3 ADD SWAP1 POP DUP1 DUP3 GT ISZERO PUSH2 0xF77 JUMPI PUSH2 0xF76 PUSH2 0xE7F JUMP JUMPDEST JUMPDEST SWAP3 SWAP2 POP POP JUMP JUMPDEST PUSH0 DUP2 PUSH1 0x60 SHL SWAP1 POP SWAP2 SWAP1 POP JUMP JUMPDEST PUSH0 PUSH2 0xF93 DUP3 PUSH2 0xF7D JUMP JUMPDEST SWAP1 POP SWAP2 SWAP1 POP JUMP JUMPDEST PUSH0 PUSH2 0xFA4 DUP3 PUSH2 0xF89 JUMP JUMPDEST SWAP1 POP SWAP2 SWAP1 POP JUMP JUMPDEST PUSH2 0xFBC PUSH2 0xFB7 DUP3 PUSH2 0xC87 JUMP JUMPDEST PUSH2 0xF9A JUMP JUMPDEST DUP3 MSTORE POP POP JUMP JUMPDEST PUSH0 DUP2 SWAP1 POP SWAP2 SWAP1 POP JUMP JUMPDEST PUSH2 0xFDC PUSH2 0xFD7 DUP3 PUSH2 0xC33 JUMP JUMPDEST PUSH2 0xFC2 JUMP JUMPDEST DUP3 MSTORE POP POP JUMP JUMPDEST PUSH0 PUSH2 0xFED DUP3 DUP7 PUSH2 0xFAB JUMP JUMPDEST PUSH1 0x14 DUP3 ADD SWAP2 POP PUSH2 0xFFD DUP3 DUP6 PUSH2 0xFCB JUMP JUMPDEST PUSH1 0x20 DUP3 ADD SWAP2 POP PUSH2 0x100D DUP3 DUP5 PUSH2 0xFCB JUMP JUMPDEST PUSH1 0x20 DUP3 ADD SWAP2 POP DUP2 SWAP1 POP SWAP5 SWAP4 POP POP POP POP JUMP JUMPDEST PUSH0 PUSH2 0x1028 DUP3 PUSH2 0xC33 JUMP JUMPDEST SWAP2 POP PUSH2 0x1033 DUP4 PUSH2 0xC33 JUMP JUMPDEST SWAP3 POP DUP3 PUSH2 0x1043 JUMPI PUSH2 0x1042 PUSH2 0xEED JUMP JUMPDEST JUMPDEST DUP3 DUP3 MOD SWAP1 POP SWAP3 SWAP2 POP POP JUMP JUMPDEST PUSH0 DUP3 DUP3 MSTORE PUSH1 0x20 DUP3 ADD SWAP1 POP SWAP3 SWAP2 POP POP JUMP JUMPDEST PUSH32 0x4E6F7420617574686F72697A6564000000000000000000000000000000000000 PUSH0 DUP3 ADD MSTORE POP JUMP JUMPDEST PUSH0 PUSH2 0x1092 PUSH1 0xE DUP4 PUSH2 0x104E JUMP JUMPDEST SWAP2 POP PUSH2 0x109D DUP3 PUSH2 0x105E JUMP JUMPDEST PUSH1 0x20 DUP3 ADD SWAP1 POP SWAP2 SWAP1 POP JUMP JUMPDEST PUSH0 PUSH1 0x20 DUP3 ADD SWAP1 POP DUP2 DUP2 SUB PUSH0 DUP4 ADD MSTORE PUSH2 0x10BF DUP2 PUSH2 0x1086 JUMP JUMPDEST SWAP1 POP SWAP2 SWAP1 POP JUMP JUMPDEST PUSH32 0x43616E6E6F7420726577617264207A65726F2061646472657373000000000000 PUSH0 DUP3 ADD MSTORE POP JUMP JUMPDEST PUSH0 PUSH2 0x10FA PUSH1 0x1A DUP4 PUSH2 0x104E JUMP JUMPDEST SWAP2 POP PUSH2 0x1105 DUP3 PUSH2 0x10C6 JUMP JUMPDEST PUSH1 0x20 DUP3 ADD SWAP1 POP SWAP2 SWAP1 POP JUMP JUMPDEST PUSH0 PUSH1 0x20 DUP3 ADD SWAP1 POP DUP2 DUP2 SUB PUSH0 DUP4 ADD MSTORE PUSH2 0x1127 DUP2 PUSH2 0x10EE JUMP JUMPDEST SWAP1 POP SWAP2 SWAP1 POP JUMP JUMPDEST PUSH32 0x416D6F756E74206D757374206265203E20300000000000000000000000000000 PUSH0 DUP3 ADD MSTORE POP JUMP JUMPDEST PUSH0 PUSH2 0x1162 PUSH1 0x12 DUP4 PUSH2 0x104E JUMP JUMPDEST SWAP2 POP PUSH2 0x116D DUP3 PUSH2 0x112E JUMP JUMPDEST PUSH1 0x20 DUP3 ADD SWAP1 POP SWAP2 SWAP1 POP JUMP JUMPDEST PUSH0 PUSH1 0x20 DUP3 ADD SWAP1 POP DUP2 DUP2 SUB PUSH0 DUP4 ADD MSTORE PUSH2 0x118F DUP2 PUSH2 0x1156 JUMP JUMPDEST SWAP1 POP SWAP2 SWAP1 POP JUMP JUMPDEST PUSH0 DUP2 MLOAD SWAP1 POP PUSH2 0x11A4 DUP2 PUSH2 0xD15 JUMP JUMPDEST SWAP3 SWAP2 POP POP JUMP JUMPDEST PUSH0 PUSH1 0x20 DUP3 DUP5 SUB SLT ISZERO PUSH2 0x11BF JUMPI PUSH2 0x11BE PUSH2 0xC64 JUMP JUMPDEST JUMPDEST PUSH0 PUSH2 0x11CC DUP5 DUP3 DUP6 ADD PUSH2 0x1196 JUMP JUMPDEST SWAP2 POP POP SWAP3 SWAP2 POP POP JUMP JUMPDEST PUSH32 0x496E73756666696369656E74207265776172642062616C616E63650000000000 PUSH0 DUP3 ADD MSTORE POP JUMP JUMPDEST PUSH0 PUSH2 0x1209 PUSH1 0x1B DUP4 PUSH2 0x104E JUMP JUMPDEST SWAP2 POP PUSH2 0x1214 DUP3 PUSH2 0x11D5 JUMP JUMPDEST PUSH1 0x20 DUP3 ADD SWAP1 POP SWAP2 SWAP1 POP JUMP JUMPDEST PUSH0 PUSH1 0x20 DUP3 ADD SWAP1 POP DUP2 DUP2 SUB PUSH0 DUP4 ADD MSTORE PUSH2 0x1236 DUP2 PUSH2 0x11FD JUMP JUMPDEST SWAP1 POP SWAP2 SWAP1 POP JUMP JUMPDEST PUSH0 PUSH1 0x40 DUP3 ADD SWAP1 POP PUSH2 0x1250 PUSH0 DUP4 ADD DUP6 PUSH2 0xCED JUMP JUMPDEST PUSH2 0x125D PUSH1 0x20 DUP4 ADD DUP5 PUSH2 0xC3C JUMP JUMPDEST SWAP4 SWAP3 POP POP POP JUMP JUMPDEST PUSH0 DUP2 ISZERO ISZERO SWAP1 POP SWAP2 SWAP1 POP JUMP JUMPDEST PUSH2 0x1278 DUP2 PUSH2 0x1264 JUMP JUMPDEST DUP2 EQ PUSH2 0x1282 JUMPI PUSH0 PUSH0 REVERT JUMPDEST POP JUMP JUMPDEST PUSH0 DUP2 MLOAD SWAP1 POP PUSH2 0x1293 DUP2 PUSH2 0x126F JUMP JUMPDEST SWAP3 SWAP2 POP POP JUMP JUMPDEST PUSH0 PUSH1 0x20 DUP3 DUP5 SUB SLT ISZERO PUSH2 0x12AE JUMPI PUSH2 0x12AD PUSH2 0xC64 JUMP JUMPDEST JUMPDEST PUSH0 PUSH2 0x12BB DUP5 DUP3 DUP6 ADD PUSH2 0x1285 JUMP JUMPDEST SWAP2 POP POP SWAP3 SWAP2 POP POP JUMP JUMPDEST PUSH32 0x546F6B656E207472616E73666572206661696C65640000000000000000000000 PUSH0 DUP3 ADD MSTORE POP JUMP JUMPDEST PUSH0 PUSH2 0x12F8 PUSH1 0x15 DUP4 PUSH2 0x104E JUMP JUMPDEST SWAP2 POP PUSH2 0x1303 DUP3 PUSH2 0x12C4 JUMP JUMPDEST PUSH1 0x20 DUP3 ADD SWAP1 POP SWAP2 SWAP1 POP JUMP JUMPDEST PUSH0 PUSH1 0x20 DUP3 ADD SWAP1 POP DUP2 DUP2 SUB PUSH0 DUP4 ADD MSTORE PUSH2 0x1325 DUP2 PUSH2 0x12EC JUMP JUMPDEST SWAP1 POP SWAP2 SWAP1 POP JUMP JUMPDEST PUSH0 DUP2 SWAP1 POP SWAP2 SWAP1 POP JUMP JUMPDEST PUSH0 PUSH8 0xFFFFFFFFFFFFFFFF DUP3 AND SWAP1 POP SWAP2 SWAP1 POP JUMP JUMPDEST PUSH0 PUSH2 0x1362 PUSH2 0x135D PUSH2 0x1358 DUP5 PUSH2 0x132C JUMP JUMPDEST PUSH2 0xE0B JUMP JUMPDEST PUSH2 0x1335 JUMP JUMPDEST SWAP1 POP SWAP2 SWAP1 POP JUMP JUMPDEST PUSH2 0x1372 DUP2 PUSH2 0x1348 JUMP JUMPDEST DUP3 MSTORE POP POP JUMP JUMPDEST PUSH0 PUSH1 0x20 DUP3 ADD SWAP1 POP PUSH2 0x138B PUSH0 DUP4 ADD DUP5 PUSH2 0x1369 JUMP JUMPDEST SWAP3 SWAP2 POP POP JUMP INVALID LOG2 PUSH5 0x6970667358 0x22 SLT KECCAK256 0xB1 PUSH20 0xA8494843163402C4F60C4ABCE281DCEC32739684 REVERT 0xA7 RETURNDATASIZE JUMPDEST 0xC7 0xD2 SWAP16 JUMPI 0x4B 0xDE PUSH5 0x736F6C6343 STOP ADDMOD 0x1E STOP CALLER "
				},
				"gasEstimates": {
					"creation": {
						"codeDepositCost": "1012600",
						"executionCost": "1052",
						"totalCost": "1013652"
					},
					"external": {
						"calculateReward(uint256,address)": "infinite",
						"distributeReward(address,uint256,uint256)": "infinite",
						"initialize(uint256,uint256)": "infinite",
						"maxRewardPoints()": "2448",
						"owner()": "2655",
						"platformFee()": "2425",
						"renounceOwnership()": "infinite",
						"rewardToken()": "infinite",
						"setRewardToken(address)": "infinite",
						"setUCPIContract(address)": "infinite",
						"transferOwnership(address)": "infinite",
						"ucpiContract()": "2508"
					}
				},
				"methodIdentifiers": {
					"calculateReward(uint256,address)": "a18f07a0",
					"distributeReward(address,uint256,uint256)": "de5b71f7",
					"initialize(uint256,uint256)": "e4a30116",
					"maxRewardPoints()": "49880782",
					"owner()": "8da5cb5b",
					"platformFee()": "26232a2e",
					"renounceOwnership()": "715018a6",
					"rewardToken()": "f7c618c1",
					"setRewardToken(address)": "8aee8127",
					"setUCPIContract(address)": "fe95fc1a",
					"transferOwnership(address)": "f2fde38b",
					"ucpiContract()": "b1a5232e"
				}
			},
			"storageLayout": {
				"storage": [
					{
						"astId": 1521,
						"contract": "contracts/RewardManager.sol:RewardManager",
						"label": "platformFee",
						"offset": 0,
						"slot": "0",
						"type": "t_uint256"
					},
					{
						"astId": 1523,
						"contract": "contracts/RewardManager.sol:RewardManager",
						"label": "maxRewardPoints",
						"offset": 0,
						"slot": "1",
						"type": "t_uint256"
					},
					{
						"astId": 1526,
						"contract": "contracts/RewardManager.sol:RewardManager",
						"label": "rewardToken",
						"offset": 0,
						"slot": "2",
						"type": "t_contract(IERC20)1103"
					},
					{
						"astId": 1528,
						"contract": "contracts/RewardManager.sol:RewardManager",
						"label": "ucpiContract",
						"offset": 0,
						"slot": "3",
						"type": "t_address"
					}
				],
				"types": {
					"t_address": {
						"encoding": "inplace",
						"label": "address",
						"numberOfBytes": "20"
					},
					"t_contract(IERC20)1103": {
						"encoding": "inplace",
						"label": "contract IERC20",
						"numberOfBytes": "20"
					},
					"t_uint256": {
						"encoding": "inplace",
						"label": "uint256",
						"numberOfBytes": "32"
					}
				}
			},
			"userdoc": {
				"kind": "user",
				"methods": {},
				"version": 1
			}
		}
	}
}