{
	"contracts/Permission.sol": {
		"Permissions": {
			"abi": [
				{
					"inputs": [],
					"stateMutability": "nonpayable",
					"type": "constructor"
				},
				{
					"inputs": [
						{
							"internalType": "address",
							"name": "user",
							"type": "address"
						},
						{
							"internalType": "enum Permissions.Access",
							"name": "accessLevel",
							"type": "uint8"
						}
					],
					"name": "hasAccess",
					"outputs": [
						{
							"internalType": "bool",
							"name": "",
							"type": "bool"
						}
					],
					"stateMutability": "view",
					"type": "function"
				},
				{
					"inputs": [
						{
							"internalType": "address",
							"name": "user",
							"type": "address"
						},
						{
							"internalType": "enum Permissions.Access",
							"name": "accessLevel",
							"type": "uint8"
						}
					],
					"name": "setAccess",
					"outputs": [],
					"stateMutability": "nonpayable",
					"type": "function"
				},
				{
					"inputs": [
						{
							"internalType": "address",
							"name": "",
							"type": "address"
						},
						{
							"internalType": "enum Permissions.Access",
							"name": "",
							"type": "uint8"
						}
					],
					"name": "userPermissions",
					"outputs": [
						{
							"internalType": "bool",
							"name": "",
							"type": "bool"
						}
					],
					"stateMutability": "view",
					"type": "function"
				}
			],
			"devdoc": {
				"kind": "dev",
				"methods": {},
				"version": 1
			},
			"evm": {
				"assembly": "    /* \"contracts/Permission.sol\":60:778  contract Permissions {... */\n  mstore(0x40, 0x80)\n    /* \"contracts/Permission.sol\":207:257  constructor(){... */\n  callvalue\n  dup1\n  iszero\n  tag_1\n  jumpi\n  revert(0x00, 0x00)\ntag_1:\n  pop\n    /* \"contracts/Permission.sol\":239:249  msg.sender */\n  caller\n    /* \"contracts/Permission.sol\":231:236  owner */\n  0x00\n  0x00\n    /* \"contracts/Permission.sol\":231:249  owner = msg.sender */\n  0x0100\n  exp\n  dup2\n  sload\n  dup2\n  0xffffffffffffffffffffffffffffffffffffffff\n  mul\n  not\n  and\n  swap1\n  dup4\n  0xffffffffffffffffffffffffffffffffffffffff\n  and\n  mul\n  or\n  swap1\n  sstore\n  pop\n    /* \"contracts/Permission.sol\":60:778  contract Permissions {... */\n  dataSize(sub_0)\n  dup1\n  dataOffset(sub_0)\n  0x00\n  codecopy\n  0x00\n  return\nstop\n\nsub_0: assembly {\n        /* \"contracts/Permission.sol\":60:778  contract Permissions {... */\n      mstore(0x40, 0x80)\n      callvalue\n      dup1\n      iszero\n      tag_1\n      jumpi\n      revert(0x00, 0x00)\n    tag_1:\n      pop\n      jumpi(tag_2, lt(calldatasize, 0x04))\n      shr(0xe0, calldataload(0x00))\n      dup1\n      0x1560ad10\n      eq\n      tag_3\n      jumpi\n      dup1\n      0x9de60667\n      eq\n      tag_4\n      jumpi\n      dup1\n      0xa1b1cb43\n      eq\n      tag_5\n      jumpi\n    tag_2:\n      revert(0x00, 0x00)\n        /* \"contracts/Permission.sol\":468:602  function setAccess(address user, Access accessLevel)  external  onlyOwner {... */\n    tag_3:\n      tag_6\n      0x04\n      dup1\n      calldatasize\n      sub\n      dup2\n      add\n      swap1\n      tag_7\n      swap2\n      swap1\n      tag_8\n      jump\t// in\n    tag_7:\n      tag_9\n      jump\t// in\n    tag_6:\n      stop\n        /* \"contracts/Permission.sol\":393:459  mapping(address => mapping(Access => bool)) public userPermissions */\n    tag_4:\n      tag_10\n      0x04\n      dup1\n      calldatasize\n      sub\n      dup2\n      add\n      swap1\n      tag_11\n      swap2\n      swap1\n      tag_8\n      jump\t// in\n    tag_11:\n      tag_12\n      jump\t// in\n    tag_10:\n      mload(0x40)\n      tag_13\n      swap2\n      swap1\n      tag_14\n      jump\t// in\n    tag_13:\n      mload(0x40)\n      dup1\n      swap2\n      sub\n      swap1\n      return\n        /* \"contracts/Permission.sol\":610:762  function hasAccess(address user, Access accessLevel) external view onlyOwner returns (bool) {... */\n    tag_5:\n      tag_15\n      0x04\n      dup1\n      calldatasize\n      sub\n      dup2\n      add\n      swap1\n      tag_16\n      swap2\n      swap1\n      tag_8\n      jump\t// in\n    tag_16:\n      tag_17\n      jump\t// in\n    tag_15:\n      mload(0x40)\n      tag_18\n      swap2\n      swap1\n      tag_14\n      jump\t// in\n    tag_18:\n      mload(0x40)\n      dup1\n      swap2\n      sub\n      swap1\n      return\n        /* \"contracts/Permission.sol\":468:602  function setAccess(address user, Access accessLevel)  external  onlyOwner {... */\n    tag_9:\n        /* \"contracts/Permission.sol\":319:324  owner */\n      0x00\n      0x00\n      swap1\n      sload\n      swap1\n      0x0100\n      exp\n      swap1\n      div\n      0xffffffffffffffffffffffffffffffffffffffff\n      and\n        /* \"contracts/Permission.sol\":305:324  msg.sender == owner */\n      0xffffffffffffffffffffffffffffffffffffffff\n      and\n        /* \"contracts/Permission.sol\":305:315  msg.sender */\n      caller\n        /* \"contracts/Permission.sol\":305:324  msg.sender == owner */\n      0xffffffffffffffffffffffffffffffffffffffff\n      and\n      eq\n        /* \"contracts/Permission.sol\":297:363  require(msg.sender == owner, \"Only admin can perform this action\") */\n      tag_20\n      jumpi\n      mload(0x40)\n      0x08c379a000000000000000000000000000000000000000000000000000000000\n      dup2\n      mstore\n      0x04\n      add\n      tag_21\n      swap1\n      tag_22\n      jump\t// in\n    tag_21:\n      mload(0x40)\n      dup1\n      swap2\n      sub\n      swap1\n      revert\n    tag_20:\n        /* \"contracts/Permission.sol\":590:594  true */\n      0x01\n        /* \"contracts/Permission.sol\":553:568  userPermissions */\n      dup1\n        /* \"contracts/Permission.sol\":553:574  userPermissions[user] */\n      0x00\n        /* \"contracts/Permission.sol\":569:573  user */\n      dup5\n        /* \"contracts/Permission.sol\":553:574  userPermissions[user] */\n      0xffffffffffffffffffffffffffffffffffffffff\n      and\n      0xffffffffffffffffffffffffffffffffffffffff\n      and\n      dup2\n      mstore\n      0x20\n      add\n      swap1\n      dup2\n      mstore\n      0x20\n      add\n      0x00\n      keccak256\n        /* \"contracts/Permission.sol\":553:587  userPermissions[user][accessLevel] */\n      0x00\n        /* \"contracts/Permission.sol\":575:586  accessLevel */\n      dup4\n        /* \"contracts/Permission.sol\":553:587  userPermissions[user][accessLevel] */\n      0x03\n      dup2\n      gt\n      iszero\n      tag_24\n      jumpi\n      tag_25\n      tag_26\n      jump\t// in\n    tag_25:\n    tag_24:\n      0x03\n      dup2\n      gt\n      iszero\n      tag_27\n      jumpi\n      tag_28\n      tag_26\n      jump\t// in\n    tag_28:\n    tag_27:\n      dup2\n      mstore\n      0x20\n      add\n      swap1\n      dup2\n      mstore\n      0x20\n      add\n      0x00\n      keccak256\n      0x00\n        /* \"contracts/Permission.sol\":553:594  userPermissions[user][accessLevel] = true */\n      0x0100\n      exp\n      dup2\n      sload\n      dup2\n      0xff\n      mul\n      not\n      and\n      swap1\n      dup4\n      iszero\n      iszero\n      mul\n      or\n      swap1\n      sstore\n      pop\n        /* \"contracts/Permission.sol\":468:602  function setAccess(address user, Access accessLevel)  external  onlyOwner {... */\n      pop\n      pop\n      jump\t// out\n        /* \"contracts/Permission.sol\":393:459  mapping(address => mapping(Access => bool)) public userPermissions */\n    tag_12:\n      mstore(0x20, 0x01)\n      dup2\n      0x00\n      mstore\n      mstore(0x20, keccak256(0x00, 0x40))\n      dup1\n      0x00\n      mstore\n      keccak256(0x00, 0x40)\n      0x00\n      swap2\n      pop\n      swap2\n      pop\n      swap1\n      sload\n      swap1\n      0x0100\n      exp\n      swap1\n      div\n      0xff\n      and\n      dup2\n      jump\t// out\n        /* \"contracts/Permission.sol\":610:762  function hasAccess(address user, Access accessLevel) external view onlyOwner returns (bool) {... */\n    tag_17:\n        /* \"contracts/Permission.sol\":696:700  bool */\n      0x00\n        /* \"contracts/Permission.sol\":319:324  owner */\n      0x00\n      0x00\n      swap1\n      sload\n      swap1\n      0x0100\n      exp\n      swap1\n      div\n      0xffffffffffffffffffffffffffffffffffffffff\n      and\n        /* \"contracts/Permission.sol\":305:324  msg.sender == owner */\n      0xffffffffffffffffffffffffffffffffffffffff\n      and\n        /* \"contracts/Permission.sol\":305:315  msg.sender */\n      caller\n        /* \"contracts/Permission.sol\":305:324  msg.sender == owner */\n      0xffffffffffffffffffffffffffffffffffffffff\n      and\n      eq\n        /* \"contracts/Permission.sol\":297:363  require(msg.sender == owner, \"Only admin can perform this action\") */\n      tag_30\n      jumpi\n      mload(0x40)\n      0x08c379a000000000000000000000000000000000000000000000000000000000\n      dup2\n      mstore\n      0x04\n      add\n      tag_31\n      swap1\n      tag_22\n      jump\t// in\n    tag_31:\n      mload(0x40)\n      dup1\n      swap2\n      sub\n      swap1\n      revert\n    tag_30:\n        /* \"contracts/Permission.sol\":720:735  userPermissions */\n      0x01\n        /* \"contracts/Permission.sol\":720:741  userPermissions[user] */\n      0x00\n        /* \"contracts/Permission.sol\":736:740  user */\n      dup5\n        /* \"contracts/Permission.sol\":720:741  userPermissions[user] */\n      0xffffffffffffffffffffffffffffffffffffffff\n      and\n      0xffffffffffffffffffffffffffffffffffffffff\n      and\n      dup2\n      mstore\n      0x20\n      add\n      swap1\n      dup2\n      mstore\n      0x20\n      add\n      0x00\n      keccak256\n        /* \"contracts/Permission.sol\":720:754  userPermissions[user][accessLevel] */\n      0x00\n        /* \"contracts/Permission.sol\":742:753  accessLevel */\n      dup4\n        /* \"contracts/Permission.sol\":720:754  userPermissions[user][accessLevel] */\n      0x03\n      dup2\n      gt\n      iszero\n      tag_33\n      jumpi\n      tag_34\n      tag_26\n      jump\t// in\n    tag_34:\n    tag_33:\n      0x03\n      dup2\n      gt\n      iszero\n      tag_35\n      jumpi\n      tag_36\n      tag_26\n      jump\t// in\n    tag_36:\n    tag_35:\n      dup2\n      mstore\n      0x20\n      add\n      swap1\n      dup2\n      mstore\n      0x20\n      add\n      0x00\n      keccak256\n      0x00\n      swap1\n      sload\n      swap1\n      0x0100\n      exp\n      swap1\n      div\n      0xff\n      and\n        /* \"contracts/Permission.sol\":713:754  return userPermissions[user][accessLevel] */\n      swap1\n      pop\n        /* \"contracts/Permission.sol\":610:762  function hasAccess(address user, Access accessLevel) external view onlyOwner returns (bool) {... */\n      swap3\n      swap2\n      pop\n      pop\n      jump\t// out\n        /* \"#utility.yul\":88:205   */\n    tag_38:\n        /* \"#utility.yul\":197:198   */\n      0x00\n        /* \"#utility.yul\":194:195   */\n      0x00\n        /* \"#utility.yul\":187:199   */\n      revert\n        /* \"#utility.yul\":334:460   */\n    tag_40:\n        /* \"#utility.yul\":371:378   */\n      0x00\n        /* \"#utility.yul\":411:453   */\n      0xffffffffffffffffffffffffffffffffffffffff\n        /* \"#utility.yul\":404:409   */\n      dup3\n        /* \"#utility.yul\":400:454   */\n      and\n        /* \"#utility.yul\":389:454   */\n      swap1\n      pop\n        /* \"#utility.yul\":334:460   */\n      swap2\n      swap1\n      pop\n      jump\t// out\n        /* \"#utility.yul\":466:562   */\n    tag_41:\n        /* \"#utility.yul\":503:510   */\n      0x00\n        /* \"#utility.yul\":532:556   */\n      tag_57\n        /* \"#utility.yul\":550:555   */\n      dup3\n        /* \"#utility.yul\":532:556   */\n      tag_40\n      jump\t// in\n    tag_57:\n        /* \"#utility.yul\":521:556   */\n      swap1\n      pop\n        /* \"#utility.yul\":466:562   */\n      swap2\n      swap1\n      pop\n      jump\t// out\n        /* \"#utility.yul\":568:690   */\n    tag_42:\n        /* \"#utility.yul\":641:665   */\n      tag_59\n        /* \"#utility.yul\":659:664   */\n      dup2\n        /* \"#utility.yul\":641:665   */\n      tag_41\n      jump\t// in\n    tag_59:\n        /* \"#utility.yul\":634:639   */\n      dup2\n        /* \"#utility.yul\":631:666   */\n      eq\n        /* \"#utility.yul\":621:684   */\n      tag_60\n      jumpi\n        /* \"#utility.yul\":680:681   */\n      0x00\n        /* \"#utility.yul\":677:678   */\n      0x00\n        /* \"#utility.yul\":670:682   */\n      revert\n        /* \"#utility.yul\":621:684   */\n    tag_60:\n        /* \"#utility.yul\":568:690   */\n      pop\n      jump\t// out\n        /* \"#utility.yul\":696:835   */\n    tag_43:\n        /* \"#utility.yul\":742:747   */\n      0x00\n        /* \"#utility.yul\":780:786   */\n      dup2\n        /* \"#utility.yul\":767:787   */\n      calldataload\n        /* \"#utility.yul\":758:787   */\n      swap1\n      pop\n        /* \"#utility.yul\":796:829   */\n      tag_62\n        /* \"#utility.yul\":823:828   */\n      dup2\n        /* \"#utility.yul\":796:829   */\n      tag_42\n      jump\t// in\n    tag_62:\n        /* \"#utility.yul\":696:835   */\n      swap3\n      swap2\n      pop\n      pop\n      jump\t// out\n        /* \"#utility.yul\":841:948   */\n    tag_44:\n        /* \"#utility.yul\":922:923   */\n      0x04\n        /* \"#utility.yul\":915:920   */\n      dup2\n        /* \"#utility.yul\":912:924   */\n      lt\n        /* \"#utility.yul\":902:942   */\n      tag_64\n      jumpi\n        /* \"#utility.yul\":938:939   */\n      0x00\n        /* \"#utility.yul\":935:936   */\n      0x00\n        /* \"#utility.yul\":928:940   */\n      revert\n        /* \"#utility.yul\":902:942   */\n    tag_64:\n        /* \"#utility.yul\":841:948   */\n      pop\n      jump\t// out\n        /* \"#utility.yul\":954:1109   */\n    tag_45:\n        /* \"#utility.yul\":1008:1013   */\n      0x00\n        /* \"#utility.yul\":1046:1052   */\n      dup2\n        /* \"#utility.yul\":1033:1053   */\n      calldataload\n        /* \"#utility.yul\":1024:1053   */\n      swap1\n      pop\n        /* \"#utility.yul\":1062:1103   */\n      tag_66\n        /* \"#utility.yul\":1097:1102   */\n      dup2\n        /* \"#utility.yul\":1062:1103   */\n      tag_44\n      jump\t// in\n    tag_66:\n        /* \"#utility.yul\":954:1109   */\n      swap3\n      swap2\n      pop\n      pop\n      jump\t// out\n        /* \"#utility.yul\":1115:1605   */\n    tag_8:\n        /* \"#utility.yul\":1191:1197   */\n      0x00\n        /* \"#utility.yul\":1199:1205   */\n      0x00\n        /* \"#utility.yul\":1248:1250   */\n      0x40\n        /* \"#utility.yul\":1236:1245   */\n      dup4\n        /* \"#utility.yul\":1227:1234   */\n      dup6\n        /* \"#utility.yul\":1223:1246   */\n      sub\n        /* \"#utility.yul\":1219:1251   */\n      slt\n        /* \"#utility.yul\":1216:1335   */\n      iszero\n      tag_68\n      jumpi\n        /* \"#utility.yul\":1254:1333   */\n      tag_69\n      tag_38\n      jump\t// in\n    tag_69:\n        /* \"#utility.yul\":1216:1335   */\n    tag_68:\n        /* \"#utility.yul\":1374:1375   */\n      0x00\n        /* \"#utility.yul\":1399:1452   */\n      tag_70\n        /* \"#utility.yul\":1444:1451   */\n      dup6\n        /* \"#utility.yul\":1435:1441   */\n      dup3\n        /* \"#utility.yul\":1424:1433   */\n      dup7\n        /* \"#utility.yul\":1420:1442   */\n      add\n        /* \"#utility.yul\":1399:1452   */\n      tag_43\n      jump\t// in\n    tag_70:\n        /* \"#utility.yul\":1389:1452   */\n      swap3\n      pop\n        /* \"#utility.yul\":1345:1462   */\n      pop\n        /* \"#utility.yul\":1501:1503   */\n      0x20\n        /* \"#utility.yul\":1527:1588   */\n      tag_71\n        /* \"#utility.yul\":1580:1587   */\n      dup6\n        /* \"#utility.yul\":1571:1577   */\n      dup3\n        /* \"#utility.yul\":1560:1569   */\n      dup7\n        /* \"#utility.yul\":1556:1578   */\n      add\n        /* \"#utility.yul\":1527:1588   */\n      tag_45\n      jump\t// in\n    tag_71:\n        /* \"#utility.yul\":1517:1588   */\n      swap2\n      pop\n        /* \"#utility.yul\":1472:1598   */\n      pop\n        /* \"#utility.yul\":1115:1605   */\n      swap3\n      pop\n      swap3\n      swap1\n      pop\n      jump\t// out\n        /* \"#utility.yul\":1611:1701   */\n    tag_46:\n        /* \"#utility.yul\":1645:1652   */\n      0x00\n        /* \"#utility.yul\":1688:1693   */\n      dup2\n        /* \"#utility.yul\":1681:1694   */\n      iszero\n        /* \"#utility.yul\":1674:1695   */\n      iszero\n        /* \"#utility.yul\":1663:1695   */\n      swap1\n      pop\n        /* \"#utility.yul\":1611:1701   */\n      swap2\n      swap1\n      pop\n      jump\t// out\n        /* \"#utility.yul\":1707:1816   */\n    tag_47:\n        /* \"#utility.yul\":1788:1809   */\n      tag_74\n        /* \"#utility.yul\":1803:1808   */\n      dup2\n        /* \"#utility.yul\":1788:1809   */\n      tag_46\n      jump\t// in\n    tag_74:\n        /* \"#utility.yul\":1783:1786   */\n      dup3\n        /* \"#utility.yul\":1776:1810   */\n      mstore\n        /* \"#utility.yul\":1707:1816   */\n      pop\n      pop\n      jump\t// out\n        /* \"#utility.yul\":1822:2032   */\n    tag_14:\n        /* \"#utility.yul\":1909:1913   */\n      0x00\n        /* \"#utility.yul\":1947:1949   */\n      0x20\n        /* \"#utility.yul\":1936:1945   */\n      dup3\n        /* \"#utility.yul\":1932:1950   */\n      add\n        /* \"#utility.yul\":1924:1950   */\n      swap1\n      pop\n        /* \"#utility.yul\":1960:2025   */\n      tag_76\n        /* \"#utility.yul\":2022:2023   */\n      0x00\n        /* \"#utility.yul\":2011:2020   */\n      dup4\n        /* \"#utility.yul\":2007:2024   */\n      add\n        /* \"#utility.yul\":1998:2004   */\n      dup5\n        /* \"#utility.yul\":1960:2025   */\n      tag_47\n      jump\t// in\n    tag_76:\n        /* \"#utility.yul\":1822:2032   */\n      swap3\n      swap2\n      pop\n      pop\n      jump\t// out\n        /* \"#utility.yul\":2038:2207   */\n    tag_48:\n        /* \"#utility.yul\":2122:2133   */\n      0x00\n        /* \"#utility.yul\":2156:2162   */\n      dup3\n        /* \"#utility.yul\":2151:2154   */\n      dup3\n        /* \"#utility.yul\":2144:2163   */\n      mstore\n        /* \"#utility.yul\":2196:2200   */\n      0x20\n        /* \"#utility.yul\":2191:2194   */\n      dup3\n        /* \"#utility.yul\":2187:2201   */\n      add\n        /* \"#utility.yul\":2172:2201   */\n      swap1\n      pop\n        /* \"#utility.yul\":2038:2207   */\n      swap3\n      swap2\n      pop\n      pop\n      jump\t// out\n        /* \"#utility.yul\":2213:2434   */\n    tag_49:\n        /* \"#utility.yul\":2353:2387   */\n      0x4f6e6c792061646d696e2063616e20706572666f726d20746869732061637469\n        /* \"#utility.yul\":2349:2350   */\n      0x00\n        /* \"#utility.yul\":2341:2347   */\n      dup3\n        /* \"#utility.yul\":2337:2351   */\n      add\n        /* \"#utility.yul\":2330:2388   */\n      mstore\n        /* \"#utility.yul\":2422:2426   */\n      0x6f6e000000000000000000000000000000000000000000000000000000000000\n        /* \"#utility.yul\":2417:2419   */\n      0x20\n        /* \"#utility.yul\":2409:2415   */\n      dup3\n        /* \"#utility.yul\":2405:2420   */\n      add\n        /* \"#utility.yul\":2398:2427   */\n      mstore\n        /* \"#utility.yul\":2213:2434   */\n      pop\n      jump\t// out\n        /* \"#utility.yul\":2440:2806   */\n    tag_50:\n        /* \"#utility.yul\":2582:2585   */\n      0x00\n        /* \"#utility.yul\":2603:2670   */\n      tag_80\n        /* \"#utility.yul\":2667:2669   */\n      0x22\n        /* \"#utility.yul\":2662:2665   */\n      dup4\n        /* \"#utility.yul\":2603:2670   */\n      tag_48\n      jump\t// in\n    tag_80:\n        /* \"#utility.yul\":2596:2670   */\n      swap2\n      pop\n        /* \"#utility.yul\":2679:2772   */\n      tag_81\n        /* \"#utility.yul\":2768:2771   */\n      dup3\n        /* \"#utility.yul\":2679:2772   */\n      tag_49\n      jump\t// in\n    tag_81:\n        /* \"#utility.yul\":2797:2799   */\n      0x40\n        /* \"#utility.yul\":2792:2795   */\n      dup3\n        /* \"#utility.yul\":2788:2800   */\n      add\n        /* \"#utility.yul\":2781:2800   */\n      swap1\n      pop\n        /* \"#utility.yul\":2440:2806   */\n      swap2\n      swap1\n      pop\n      jump\t// out\n        /* \"#utility.yul\":2812:3231   */\n    tag_22:\n        /* \"#utility.yul\":2978:2982   */\n      0x00\n        /* \"#utility.yul\":3016:3018   */\n      0x20\n        /* \"#utility.yul\":3005:3014   */\n      dup3\n        /* \"#utility.yul\":3001:3019   */\n      add\n        /* \"#utility.yul\":2993:3019   */\n      swap1\n      pop\n        /* \"#utility.yul\":3065:3074   */\n      dup2\n        /* \"#utility.yul\":3059:3063   */\n      dup2\n        /* \"#utility.yul\":3055:3075   */\n      sub\n        /* \"#utility.yul\":3051:3052   */\n      0x00\n        /* \"#utility.yul\":3040:3049   */\n      dup4\n        /* \"#utility.yul\":3036:3053   */\n      add\n        /* \"#utility.yul\":3029:3076   */\n      mstore\n        /* \"#utility.yul\":3093:3224   */\n      tag_83\n        /* \"#utility.yul\":3219:3223   */\n      dup2\n        /* \"#utility.yul\":3093:3224   */\n      tag_50\n      jump\t// in\n    tag_83:\n        /* \"#utility.yul\":3085:3224   */\n      swap1\n      pop\n        /* \"#utility.yul\":2812:3231   */\n      swap2\n      swap1\n      pop\n      jump\t// out\n        /* \"#utility.yul\":3237:3417   */\n    tag_26:\n        /* \"#utility.yul\":3285:3362   */\n      0x4e487b7100000000000000000000000000000000000000000000000000000000\n        /* \"#utility.yul\":3282:3283   */\n      0x00\n        /* \"#utility.yul\":3275:3363   */\n      mstore\n        /* \"#utility.yul\":3382:3386   */\n      0x21\n        /* \"#utility.yul\":3379:3380   */\n      0x04\n        /* \"#utility.yul\":3372:3387   */\n      mstore\n        /* \"#utility.yul\":3406:3410   */\n      0x24\n        /* \"#utility.yul\":3403:3404   */\n      0x00\n        /* \"#utility.yul\":3396:3411   */\n      revert\n\n    auxdata: 0xa264697066735822122085f995da961a4d1dece19014026ee52d05349cbe2c4bf76c13c61c01a191a27464736f6c634300081e0033\n}\n",
				"bytecode": {
					"linkReferences": {},
					"object": "6080604052348015600e575f5ffd5b50335f5f6101000a81548173ffffffffffffffffffffffffffffffffffffffff021916908373ffffffffffffffffffffffffffffffffffffffff1602179055506105098061005b5f395ff3fe608060405234801561000f575f5ffd5b506004361061003f575f3560e01c80631560ad10146100435780639de606671461005f578063a1b1cb431461008f575b5f5ffd5b61005d60048036038101906100589190610397565b6100bf565b005b61007960048036038101906100749190610397565b6101d8565b60405161008691906103ef565b60405180910390f35b6100a960048036038101906100a49190610397565b610202565b6040516100b691906103ef565b60405180910390f35b5f5f9054906101000a900473ffffffffffffffffffffffffffffffffffffffff1673ffffffffffffffffffffffffffffffffffffffff163373ffffffffffffffffffffffffffffffffffffffff161461014d576040517f08c379a000000000000000000000000000000000000000000000000000000000815260040161014490610488565b60405180910390fd5b6001805f8473ffffffffffffffffffffffffffffffffffffffff1673ffffffffffffffffffffffffffffffffffffffff1681526020019081526020015f205f83600381111561019f5761019e6104a6565b5b60038111156101b1576101b06104a6565b5b81526020019081526020015f205f6101000a81548160ff0219169083151502179055505050565b6001602052815f5260405f20602052805f5260405f205f915091509054906101000a900460ff1681565b5f5f5f9054906101000a900473ffffffffffffffffffffffffffffffffffffffff1673ffffffffffffffffffffffffffffffffffffffff163373ffffffffffffffffffffffffffffffffffffffff1614610291576040517f08c379a000000000000000000000000000000000000000000000000000000000815260040161028890610488565b60405180910390fd5b60015f8473ffffffffffffffffffffffffffffffffffffffff1673ffffffffffffffffffffffffffffffffffffffff1681526020019081526020015f205f8360038111156102e2576102e16104a6565b5b60038111156102f4576102f36104a6565b5b81526020019081526020015f205f9054906101000a900460ff16905092915050565b5f5ffd5b5f73ffffffffffffffffffffffffffffffffffffffff82169050919050565b5f6103438261031a565b9050919050565b61035381610339565b811461035d575f5ffd5b50565b5f8135905061036e8161034a565b92915050565b60048110610380575f5ffd5b50565b5f8135905061039181610374565b92915050565b5f5f604083850312156103ad576103ac610316565b5b5f6103ba85828601610360565b92505060206103cb85828601610383565b9150509250929050565b5f8115159050919050565b6103e9816103d5565b82525050565b5f6020820190506104025f8301846103e0565b92915050565b5f82825260208201905092915050565b7f4f6e6c792061646d696e2063616e20706572666f726d207468697320616374695f8201527f6f6e000000000000000000000000000000000000000000000000000000000000602082015250565b5f610472602283610408565b915061047d82610418565b604082019050919050565b5f6020820190508181035f83015261049f81610466565b9050919050565b7f4e487b71000000000000000000000000000000000000000000000000000000005f52602160045260245ffdfea264697066735822122085f995da961a4d1dece19014026ee52d05349cbe2c4bf76c13c61c01a191a27464736f6c634300081e0033",
					"opcodes": "PUSH1 0x80 PUSH1 0x40 MSTORE CALLVALUE DUP1 ISZERO PUSH1 0xE JUMPI PUSH0 PUSH0 REVERT JUMPDEST POP CALLER PUSH0 PUSH0 PUSH2 0x100 EXP DUP2 SLOAD DUP2 PUSH20 0xFFFFFFFFFFFFFFFFFFFFFFFFFFFFFFFFFFFFFFFF MUL NOT AND SWAP1 DUP4 PUSH20 0xFFFFFFFFFFFFFFFFFFFFFFFFFFFFFFFFFFFFFFFF AND MUL OR SWAP1 SSTORE POP PUSH2 0x509 DUP1 PUSH2 0x5B PUSH0 CODECOPY PUSH0 RETURN INVALID PUSH1 0x80 PUSH1 0x40 MSTORE CALLVALUE DUP1 ISZERO PUSH2 0xF JUMPI PUSH0 PUSH0 REVERT JUMPDEST POP PUSH1 0x4 CALLDATASIZE LT PUSH2 0x3F JUMPI PUSH0 CALLDATALOAD PUSH1 0xE0 SHR DUP1 PUSH4 0x1560AD10 EQ PUSH2 0x43 JUMPI DUP1 PUSH4 0x9DE60667 EQ PUSH2 0x5F JUMPI DUP1 PUSH4 0xA1B1CB43 EQ PUSH2 0x8F JUMPI JUMPDEST PUSH0 PUSH0 REVERT JUMPDEST PUSH2 0x5D PUSH1 0x4 DUP1 CALLDATASIZE SUB DUP2 ADD SWAP1 PUSH2 0x58 SWAP2 SWAP1 PUSH2 0x397 JUMP JUMPDEST PUSH2 0xBF JUMP JUMPDEST STOP JUMPDEST PUSH2 0x79 PUSH1 0x4 DUP1 CALLDATASIZE SUB DUP2 ADD SWAP1 PUSH2 0x74 SWAP2 SWAP1 PUSH2 0x397 JUMP JUMPDEST PUSH2 0x1D8 JUMP JUMPDEST PUSH1 0x40 MLOAD PUSH2 0x86 SWAP2 SWAP1 PUSH2 0x3EF JUMP JUMPDEST PUSH1 0x40 MLOAD DUP1 SWAP2 SUB SWAP1 RETURN JUMPDEST PUSH2 0xA9 PUSH1 0x4 DUP1 CALLDATASIZE SUB DUP2 ADD SWAP1 PUSH2 0xA4 SWAP2 SWAP1 PUSH2 0x397 JUMP JUMPDEST PUSH2 0x202 JUMP JUMPDEST PUSH1 0x40 MLOAD PUSH2 0xB6 SWAP2 SWAP1 PUSH2 0x3EF JUMP JUMPDEST PUSH1 0x40 MLOAD DUP1 SWAP2 SUB SWAP1 RETURN JUMPDEST PUSH0 PUSH0 SWAP1 SLOAD SWAP1 PUSH2 0x100 EXP SWAP1 DIV PUSH20 0xFFFFFFFFFFFFFFFFFFFFFFFFFFFFFFFFFFFFFFFF AND PUSH20 0xFFFFFFFFFFFFFFFFFFFFFFFFFFFFFFFFFFFFFFFF AND CALLER PUSH20 0xFFFFFFFFFFFFFFFFFFFFFFFFFFFFFFFFFFFFFFFF AND EQ PUSH2 0x14D JUMPI PUSH1 0x40 MLOAD PUSH32 0x8C379A000000000000000000000000000000000000000000000000000000000 DUP2 MSTORE PUSH1 0x4 ADD PUSH2 0x144 SWAP1 PUSH2 0x488 JUMP JUMPDEST PUSH1 0x40 MLOAD DUP1 SWAP2 SUB SWAP1 REVERT JUMPDEST PUSH1 0x1 DUP1 PUSH0 DUP5 PUSH20 0xFFFFFFFFFFFFFFFFFFFFFFFFFFFFFFFFFFFFFFFF AND PUSH20 0xFFFFFFFFFFFFFFFFFFFFFFFFFFFFFFFFFFFFFFFF AND DUP2 MSTORE PUSH1 0x20 ADD SWAP1 DUP2 MSTORE PUSH1 0x20 ADD PUSH0 KECCAK256 PUSH0 DUP4 PUSH1 0x3 DUP2 GT ISZERO PUSH2 0x19F JUMPI PUSH2 0x19E PUSH2 0x4A6 JUMP JUMPDEST JUMPDEST PUSH1 0x3 DUP2 GT ISZERO PUSH2 0x1B1 JUMPI PUSH2 0x1B0 PUSH2 0x4A6 JUMP JUMPDEST JUMPDEST DUP2 MSTORE PUSH1 0x20 ADD SWAP1 DUP2 MSTORE PUSH1 0x20 ADD PUSH0 KECCAK256 PUSH0 PUSH2 0x100 EXP DUP2 SLOAD DUP2 PUSH1 0xFF MUL NOT AND SWAP1 DUP4 ISZERO ISZERO MUL OR SWAP1 SSTORE POP POP POP JUMP JUMPDEST PUSH1 0x1 PUSH1 0x20 MSTORE DUP2 PUSH0 MSTORE PUSH1 0x40 PUSH0 KECCAK256 PUSH1 0x20 MSTORE DUP1 PUSH0 MSTORE PUSH1 0x40 PUSH0 KECCAK256 PUSH0 SWAP2 POP SWAP2 POP SWAP1 SLOAD SWAP1 PUSH2 0x100 EXP SWAP1 DIV PUSH1 0xFF AND DUP2 JUMP JUMPDEST PUSH0 PUSH0 PUSH0 SWAP1 SLOAD SWAP1 PUSH2 0x100 EXP SWAP1 DIV PUSH20 0xFFFFFFFFFFFFFFFFFFFFFFFFFFFFFFFFFFFFFFFF AND PUSH20 0xFFFFFFFFFFFFFFFFFFFFFFFFFFFFFFFFFFFFFFFF AND CALLER PUSH20 0xFFFFFFFFFFFFFFFFFFFFFFFFFFFFFFFFFFFFFFFF AND EQ PUSH2 0x291 JUMPI PUSH1 0x40 MLOAD PUSH32 0x8C379A000000000000000000000000000000000000000000000000000000000 DUP2 MSTORE PUSH1 0x4 ADD PUSH2 0x288 SWAP1 PUSH2 0x488 JUMP JUMPDEST PUSH1 0x40 MLOAD DUP1 SWAP2 SUB SWAP1 REVERT JUMPDEST PUSH1 0x1 PUSH0 DUP5 PUSH20 0xFFFFFFFFFFFFFFFFFFFFFFFFFFFFFFFFFFFFFFFF AND PUSH20 0xFFFFFFFFFFFFFFFFFFFFFFFFFFFFFFFFFFFFFFFF AND DUP2 MSTORE PUSH1 0x20 ADD SWAP1 DUP2 MSTORE PUSH1 0x20 ADD PUSH0 KECCAK256 PUSH0 DUP4 PUSH1 0x3 DUP2 GT ISZERO PUSH2 0x2E2 JUMPI PUSH2 0x2E1 PUSH2 0x4A6 JUMP JUMPDEST JUMPDEST PUSH1 0x3 DUP2 GT ISZERO PUSH2 0x2F4 JUMPI PUSH2 0x2F3 PUSH2 0x4A6 JUMP JUMPDEST JUMPDEST DUP2 MSTORE PUSH1 0x20 ADD SWAP1 DUP2 MSTORE PUSH1 0x20 ADD PUSH0 KECCAK256 PUSH0 SWAP1 SLOAD SWAP1 PUSH2 0x100 EXP SWAP1 DIV PUSH1 0xFF AND SWAP1 POP SWAP3 SWAP2 POP POP JUMP JUMPDEST PUSH0 PUSH0 REVERT JUMPDEST PUSH0 PUSH20 0xFFFFFFFFFFFFFFFFFFFFFFFFFFFFFFFFFFFFFFFF DUP3 AND SWAP1 POP SWAP2 SWAP1 POP JUMP JUMPDEST PUSH0 PUSH2 0x343 DUP3 PUSH2 0x31A JUMP JUMPDEST SWAP1 POP SWAP2 SWAP1 POP JUMP JUMPDEST PUSH2 0x353 DUP2 PUSH2 0x339 JUMP JUMPDEST DUP2 EQ PUSH2 0x35D JUMPI PUSH0 PUSH0 REVERT JUMPDEST POP JUMP JUMPDEST PUSH0 DUP2 CALLDATALOAD SWAP1 POP PUSH2 0x36E DUP2 PUSH2 0x34A JUMP JUMPDEST SWAP3 SWAP2 POP POP JUMP JUMPDEST PUSH1 0x4 DUP2 LT PUSH2 0x380 JUMPI PUSH0 PUSH0 REVERT JUMPDEST POP JUMP JUMPDEST PUSH0 DUP2 CALLDATALOAD SWAP1 POP PUSH2 0x391 DUP2 PUSH2 0x374 JUMP JUMPDEST SWAP3 SWAP2 POP POP JUMP JUMPDEST PUSH0 PUSH0 PUSH1 0x40 DUP4 DUP6 SUB SLT ISZERO PUSH2 0x3AD JUMPI PUSH2 0x3AC PUSH2 0x316 JUMP JUMPDEST JUMPDEST PUSH0 PUSH2 0x3BA DUP6 DUP3 DUP7 ADD PUSH2 0x360 JUMP JUMPDEST SWAP3 POP POP PUSH1 0x20 PUSH2 0x3CB DUP6 DUP3 DUP7 ADD PUSH2 0x383 JUMP JUMPDEST SWAP2 POP POP SWAP3 POP SWAP3 SWAP1 POP JUMP JUMPDEST PUSH0 DUP2 ISZERO ISZERO SWAP1 POP SWAP2 SWAP1 POP JUMP JUMPDEST PUSH2 0x3E9 DUP2 PUSH2 0x3D5 JUMP JUMPDEST DUP3 MSTORE POP POP JUMP JUMPDEST PUSH0 PUSH1 0x20 DUP3 ADD SWAP1 POP PUSH2 0x402 PUSH0 DUP4 ADD DUP5 PUSH2 0x3E0 JUMP JUMPDEST SWAP3 SWAP2 POP POP JUMP JUMPDEST PUSH0 DUP3 DUP3 MSTORE PUSH1 0x20 DUP3 ADD SWAP1 POP SWAP3 SWAP2 POP POP JUMP JUMPDEST PUSH32 0x4F6E6C792061646D696E2063616E20706572666F726D20746869732061637469 PUSH0 DUP3 ADD MSTORE PUSH32 0x6F6E000000000000000000000000000000000000000000000000000000000000 PUSH1 0x20 DUP3 ADD MSTORE POP JUMP JUMPDEST PUSH0 PUSH2 0x472 PUSH1 0x22 DUP4 PUSH2 0x408 JUMP JUMPDEST SWAP2 POP PUSH2 0x47D DUP3 PUSH2 0x418 JUMP JUMPDEST PUSH1 0x40 DUP3 ADD SWAP1 POP SWAP2 SWAP1 POP JUMP JUMPDEST PUSH0 PUSH1 0x20 DUP3 ADD SWAP1 POP DUP2 DUP2 SUB PUSH0 DUP4 ADD MSTORE PUSH2 0x49F DUP2 PUSH2 0x466 JUMP JUMPDEST SWAP1 POP SWAP2 SWAP1 POP JUMP JUMPDEST PUSH32 0x4E487B7100000000000000000000000000000000000000000000000000000000 PUSH0 MSTORE PUSH1 0x21 PUSH1 0x4 MSTORE PUSH1 0x24 PUSH0 REVERT INVALID LOG2 PUSH5 0x6970667358 0x22 SLT KECCAK256 DUP6 EXTDELEGATECALL SWAP6 0xDA SWAP7 BYTE 0x4D SAR EOFCREATE 0xE1 SWAP1 EQ MUL PUSH15 0xE52D05349CBE2C4BF76C13C61C01A1 SWAP2 LOG2 PUSH21 0x64736F6C634300081E003300000000000000000000 "
				},
				"gasEstimates": {
					"creation": {
						"codeDepositCost": "257800",
						"executionCost": "24562",
						"totalCost": "282362"
					},
					"external": {
						"hasAccess(address,uint8)": "5316",
						"setAccess(address,uint8)": "27205",
						"userPermissions(address,uint8)": "3028"
					}
				},
				"methodIdentifiers": {
					"hasAccess(address,uint8)": "a1b1cb43",
					"setAccess(address,uint8)": "1560ad10",
					"userPermissions(address,uint8)": "9de60667"
				}
			},
			"storageLayout": {
				"storage": [
					{
						"astId": 3,
						"contract": "contracts/Permission.sol:Permissions",
						"label": "owner",
						"offset": 0,
						"slot": "0",
						"type": "t_address"
					},
					{
						"astId": 36,
						"contract": "contracts/Permission.sol:Permissions",
						"label": "userPermissions",
						"offset": 0,
						"slot": "1",
						"type": "t_mapping(t_address,t_mapping(t_enum(Access)8,t_bool))"
					}
				],
				"types": {
					"t_address": {
						"encoding": "inplace",
						"label": "address",
						"numberOfBytes": "20"
					},
					"t_bool": {
						"encoding": "inplace",
						"label": "bool",
						"numberOfBytes": "1"
					},
					"t_enum(Access)8": {
						"encoding": "inplace",
						"label": "enum Permissions.Access",
						"numberOfBytes": "1"
					},
					"t_mapping(t_address,t_mapping(t_enum(Access)8,t_bool))": {
						"encoding": "mapping",
						"key": "t_address",
						"label": "mapping(address => mapping(enum Permissions.Access => bool))",
						"numberOfBytes": "32",
						"value": "t_mapping(t_enum(Access)8,t_bool)"
					},
					"t_mapping(t_enum(Access)8,t_bool)": {
						"encoding": "mapping",
						"key": "t_enum(Access)8",
						"label": "mapping(enum Permissions.Access => bool)",
						"numberOfBytes": "32",
						"value": "t_bool"
					}
				}
			},
			"userdoc": {
				"kind": "user",
				"methods": {},
				"version": 1
			}
		}
	}
}